{
  "_format": "hh-sol-artifact-1",
  "contractName": "DividendTokenDividendTracker",
  "sourceName": "contracts/Tokens/DividendTokens/DividendTokenDividendTracker.sol",
  "abi": [
    {
      "inputs": [],
      "stateMutability": "nonpayable",
      "type": "constructor"
    },
    {
      "anonymous": false,
      "inputs": [
        {
          "indexed": true,
          "internalType": "address",
          "name": "owner",
          "type": "address"
        },
        {
          "indexed": true,
          "internalType": "address",
          "name": "spender",
          "type": "address"
        },
        {
          "indexed": false,
          "internalType": "uint256",
          "name": "value",
          "type": "uint256"
        }
      ],
      "name": "Approval",
      "type": "event"
    },
    {
      "anonymous": false,
      "inputs": [
        {
          "indexed": true,
          "internalType": "address",
          "name": "account",
          "type": "address"
        },
        {
          "indexed": false,
          "internalType": "uint256",
          "name": "amount",
          "type": "uint256"
        },
        {
          "indexed": true,
          "internalType": "bool",
          "name": "automatic",
          "type": "bool"
        }
      ],
      "name": "Claim",
      "type": "event"
    },
    {
      "anonymous": false,
      "inputs": [
        {
          "indexed": true,
          "internalType": "uint256",
          "name": "newValue",
          "type": "uint256"
        },
        {
          "indexed": true,
          "internalType": "uint256",
          "name": "oldValue",
          "type": "uint256"
        }
      ],
      "name": "ClaimWaitUpdated",
      "type": "event"
    },
    {
      "anonymous": false,
      "inputs": [
        {
          "indexed": true,
          "internalType": "address",
          "name": "to",
          "type": "address"
        },
        {
          "indexed": false,
          "internalType": "uint256",
          "name": "weiAmount",
          "type": "uint256"
        }
      ],
      "name": "DividendWithdrawn",
      "type": "event"
    },
    {
      "anonymous": false,
      "inputs": [
        {
          "indexed": true,
          "internalType": "address",
          "name": "from",
          "type": "address"
        },
        {
          "indexed": false,
          "internalType": "uint256",
          "name": "weiAmount",
          "type": "uint256"
        }
      ],
      "name": "DividendsDistributed",
      "type": "event"
    },
    {
      "anonymous": false,
      "inputs": [
        {
          "indexed": true,
          "internalType": "address",
          "name": "account",
          "type": "address"
        }
      ],
      "name": "ExcludeFromDividends",
      "type": "event"
    },
    {
      "anonymous": false,
      "inputs": [
        {
          "indexed": true,
          "internalType": "address",
          "name": "previousOwner",
          "type": "address"
        },
        {
          "indexed": true,
          "internalType": "address",
          "name": "newOwner",
          "type": "address"
        }
      ],
      "name": "OwnershipTransferred",
      "type": "event"
    },
    {
      "anonymous": false,
      "inputs": [
        {
          "indexed": true,
          "internalType": "address",
          "name": "from",
          "type": "address"
        },
        {
          "indexed": true,
          "internalType": "address",
          "name": "to",
          "type": "address"
        },
        {
          "indexed": false,
          "internalType": "uint256",
          "name": "value",
          "type": "uint256"
        }
      ],
      "name": "Transfer",
      "type": "event"
    },
    {
      "inputs": [
        {
          "internalType": "address",
          "name": "_owner",
          "type": "address"
        }
      ],
      "name": "accumulativeDividendOf",
      "outputs": [
        {
          "internalType": "uint256",
          "name": "",
          "type": "uint256"
        }
      ],
      "stateMutability": "view",
      "type": "function"
    },
    {
      "inputs": [
        {
          "internalType": "address",
          "name": "owner",
          "type": "address"
        },
        {
          "internalType": "address",
          "name": "spender",
          "type": "address"
        }
      ],
      "name": "allowance",
      "outputs": [
        {
          "internalType": "uint256",
          "name": "",
          "type": "uint256"
        }
      ],
      "stateMutability": "view",
      "type": "function"
    },
    {
      "inputs": [
        {
          "internalType": "address",
          "name": "spender",
          "type": "address"
        },
        {
          "internalType": "uint256",
          "name": "amount",
          "type": "uint256"
        }
      ],
      "name": "approve",
      "outputs": [
        {
          "internalType": "bool",
          "name": "",
          "type": "bool"
        }
      ],
      "stateMutability": "nonpayable",
      "type": "function"
    },
    {
      "inputs": [
        {
          "internalType": "address",
          "name": "account",
          "type": "address"
        }
      ],
      "name": "balanceOf",
      "outputs": [
        {
          "internalType": "uint256",
          "name": "",
          "type": "uint256"
        }
      ],
      "stateMutability": "view",
      "type": "function"
    },
    {
      "inputs": [],
      "name": "claimWait",
      "outputs": [
        {
          "internalType": "uint256",
          "name": "",
          "type": "uint256"
        }
      ],
      "stateMutability": "view",
      "type": "function"
    },
    {
      "inputs": [],
      "name": "decimals",
      "outputs": [
        {
          "internalType": "uint8",
          "name": "",
          "type": "uint8"
        }
      ],
      "stateMutability": "view",
      "type": "function"
    },
    {
      "inputs": [
        {
          "internalType": "address",
          "name": "spender",
          "type": "address"
        },
        {
          "internalType": "uint256",
          "name": "subtractedValue",
          "type": "uint256"
        }
      ],
      "name": "decreaseAllowance",
      "outputs": [
        {
          "internalType": "bool",
          "name": "",
          "type": "bool"
        }
      ],
      "stateMutability": "nonpayable",
      "type": "function"
    },
    {
      "inputs": [
        {
          "internalType": "uint256",
          "name": "amount",
          "type": "uint256"
        }
      ],
      "name": "distributeCAKEDividends",
      "outputs": [],
      "stateMutability": "nonpayable",
      "type": "function"
    },
    {
      "inputs": [
        {
          "internalType": "address",
          "name": "_owner",
          "type": "address"
        }
      ],
      "name": "dividendOf",
      "outputs": [
        {
          "internalType": "uint256",
          "name": "",
          "type": "uint256"
        }
      ],
      "stateMutability": "view",
      "type": "function"
    },
    {
      "inputs": [
        {
          "internalType": "address",
          "name": "account",
          "type": "address"
        }
      ],
      "name": "excludeFromDividends",
      "outputs": [],
      "stateMutability": "nonpayable",
      "type": "function"
    },
    {
      "inputs": [
        {
          "internalType": "address",
          "name": "",
          "type": "address"
        }
      ],
      "name": "excludedFromDividends",
      "outputs": [
        {
          "internalType": "bool",
          "name": "",
          "type": "bool"
        }
      ],
      "stateMutability": "view",
      "type": "function"
    },
    {
      "inputs": [
        {
          "internalType": "address",
          "name": "_account",
          "type": "address"
        }
      ],
      "name": "getAccount",
      "outputs": [
        {
          "internalType": "address",
          "name": "account",
          "type": "address"
        },
        {
          "internalType": "int256",
          "name": "index",
          "type": "int256"
        },
        {
          "internalType": "int256",
          "name": "iterationsUntilProcessed",
          "type": "int256"
        },
        {
          "internalType": "uint256",
          "name": "withdrawableDividends",
          "type": "uint256"
        },
        {
          "internalType": "uint256",
          "name": "totalDividends",
          "type": "uint256"
        },
        {
          "internalType": "uint256",
          "name": "lastClaimTime",
          "type": "uint256"
        },
        {
          "internalType": "uint256",
          "name": "nextClaimTime",
          "type": "uint256"
        },
        {
          "internalType": "uint256",
          "name": "secondsUntilAutoClaimAvailable",
          "type": "uint256"
        }
      ],
      "stateMutability": "view",
      "type": "function"
    },
    {
      "inputs": [
        {
          "internalType": "uint256",
          "name": "index",
          "type": "uint256"
        }
      ],
      "name": "getAccountAtIndex",
      "outputs": [
        {
          "internalType": "address",
          "name": "",
          "type": "address"
        },
        {
          "internalType": "int256",
          "name": "",
          "type": "int256"
        },
        {
          "internalType": "int256",
          "name": "",
          "type": "int256"
        },
        {
          "internalType": "uint256",
          "name": "",
          "type": "uint256"
        },
        {
          "internalType": "uint256",
          "name": "",
          "type": "uint256"
        },
        {
          "internalType": "uint256",
          "name": "",
          "type": "uint256"
        },
        {
          "internalType": "uint256",
          "name": "",
          "type": "uint256"
        },
        {
          "internalType": "uint256",
          "name": "",
          "type": "uint256"
        }
      ],
      "stateMutability": "view",
      "type": "function"
    },
    {
      "inputs": [],
      "name": "getLastProcessedIndex",
      "outputs": [
        {
          "internalType": "uint256",
          "name": "",
          "type": "uint256"
        }
      ],
      "stateMutability": "view",
      "type": "function"
    },
    {
      "inputs": [],
      "name": "getNumberOfTokenHolders",
      "outputs": [
        {
          "internalType": "uint256",
          "name": "",
          "type": "uint256"
        }
      ],
      "stateMutability": "view",
      "type": "function"
    },
    {
      "inputs": [
        {
          "internalType": "address",
          "name": "spender",
          "type": "address"
        },
        {
          "internalType": "uint256",
          "name": "addedValue",
          "type": "uint256"
        }
      ],
      "name": "increaseAllowance",
      "outputs": [
        {
          "internalType": "bool",
          "name": "",
          "type": "bool"
        }
      ],
      "stateMutability": "nonpayable",
      "type": "function"
    },
    {
      "inputs": [
        {
          "internalType": "address",
          "name": "rewardToken_",
          "type": "address"
        },
        {
          "internalType": "uint256",
          "name": "minimumTokenBalanceForDividends_",
          "type": "uint256"
        }
      ],
      "name": "initialize",
      "outputs": [],
      "stateMutability": "nonpayable",
      "type": "function"
    },
    {
      "inputs": [
        {
          "internalType": "address",
          "name": "account",
          "type": "address"
        }
      ],
      "name": "isExcludedFromDividends",
      "outputs": [
        {
          "internalType": "bool",
          "name": "",
          "type": "bool"
        }
      ],
      "stateMutability": "view",
      "type": "function"
    },
    {
      "inputs": [
        {
          "internalType": "address",
          "name": "",
          "type": "address"
        }
      ],
      "name": "lastClaimTimes",
      "outputs": [
        {
          "internalType": "uint256",
          "name": "",
          "type": "uint256"
        }
      ],
      "stateMutability": "view",
      "type": "function"
    },
    {
      "inputs": [],
      "name": "lastProcessedIndex",
      "outputs": [
        {
          "internalType": "uint256",
          "name": "",
          "type": "uint256"
        }
      ],
      "stateMutability": "view",
      "type": "function"
    },
    {
      "inputs": [],
      "name": "minimumTokenBalanceForDividends",
      "outputs": [
        {
          "internalType": "uint256",
          "name": "",
          "type": "uint256"
        }
      ],
      "stateMutability": "view",
      "type": "function"
    },
    {
      "inputs": [],
      "name": "name",
      "outputs": [
        {
          "internalType": "string",
          "name": "",
          "type": "string"
        }
      ],
      "stateMutability": "view",
      "type": "function"
    },
    {
      "inputs": [],
      "name": "owner",
      "outputs": [
        {
          "internalType": "address",
          "name": "",
          "type": "address"
        }
      ],
      "stateMutability": "view",
      "type": "function"
    },
    {
      "inputs": [
        {
          "internalType": "uint256",
          "name": "gas",
          "type": "uint256"
        }
      ],
      "name": "process",
      "outputs": [
        {
          "internalType": "uint256",
          "name": "",
          "type": "uint256"
        },
        {
          "internalType": "uint256",
          "name": "",
          "type": "uint256"
        },
        {
          "internalType": "uint256",
          "name": "",
          "type": "uint256"
        }
      ],
      "stateMutability": "nonpayable",
      "type": "function"
    },
    {
      "inputs": [
        {
          "internalType": "address payable",
          "name": "account",
          "type": "address"
        },
        {
          "internalType": "bool",
          "name": "automatic",
          "type": "bool"
        }
      ],
      "name": "processAccount",
      "outputs": [
        {
          "internalType": "bool",
          "name": "",
          "type": "bool"
        }
      ],
      "stateMutability": "nonpayable",
      "type": "function"
    },
    {
      "inputs": [],
      "name": "renounceOwnership",
      "outputs": [],
      "stateMutability": "nonpayable",
      "type": "function"
    },
    {
      "inputs": [],
      "name": "rewardToken",
      "outputs": [
        {
          "internalType": "address",
          "name": "",
          "type": "address"
        }
      ],
      "stateMutability": "view",
      "type": "function"
    },
    {
      "inputs": [
        {
          "internalType": "address payable",
          "name": "account",
          "type": "address"
        },
        {
          "internalType": "uint256",
          "name": "newBalance",
          "type": "uint256"
        }
      ],
      "name": "setBalance",
      "outputs": [],
      "stateMutability": "nonpayable",
      "type": "function"
    },
    {
      "inputs": [],
      "name": "symbol",
      "outputs": [
        {
          "internalType": "string",
          "name": "",
          "type": "string"
        }
      ],
      "stateMutability": "view",
      "type": "function"
    },
    {
      "inputs": [],
      "name": "totalDividendsDistributed",
      "outputs": [
        {
          "internalType": "uint256",
          "name": "",
          "type": "uint256"
        }
      ],
      "stateMutability": "view",
      "type": "function"
    },
    {
      "inputs": [],
      "name": "totalSupply",
      "outputs": [
        {
          "internalType": "uint256",
          "name": "",
          "type": "uint256"
        }
      ],
      "stateMutability": "view",
      "type": "function"
    },
    {
      "inputs": [
        {
          "internalType": "address",
          "name": "to",
          "type": "address"
        },
        {
          "internalType": "uint256",
          "name": "amount",
          "type": "uint256"
        }
      ],
      "name": "transfer",
      "outputs": [
        {
          "internalType": "bool",
          "name": "",
          "type": "bool"
        }
      ],
      "stateMutability": "nonpayable",
      "type": "function"
    },
    {
      "inputs": [
        {
          "internalType": "address",
          "name": "from",
          "type": "address"
        },
        {
          "internalType": "address",
          "name": "to",
          "type": "address"
        },
        {
          "internalType": "uint256",
          "name": "amount",
          "type": "uint256"
        }
      ],
      "name": "transferFrom",
      "outputs": [
        {
          "internalType": "bool",
          "name": "",
          "type": "bool"
        }
      ],
      "stateMutability": "nonpayable",
      "type": "function"
    },
    {
      "inputs": [
        {
          "internalType": "address",
          "name": "newOwner",
          "type": "address"
        }
      ],
      "name": "transferOwnership",
      "outputs": [],
      "stateMutability": "nonpayable",
      "type": "function"
    },
    {
      "inputs": [
        {
          "internalType": "uint256",
          "name": "newClaimWait",
          "type": "uint256"
        }
      ],
      "name": "updateClaimWait",
      "outputs": [],
      "stateMutability": "nonpayable",
      "type": "function"
    },
    {
      "inputs": [
        {
          "internalType": "uint256",
          "name": "amount",
          "type": "uint256"
        }
      ],
      "name": "updateMinimumTokenBalanceForDividends",
      "outputs": [],
      "stateMutability": "nonpayable",
      "type": "function"
    },
    {
      "inputs": [],
      "name": "withdrawDividend",
      "outputs": [],
      "stateMutability": "pure",
      "type": "function"
    },
    {
      "inputs": [
        {
          "internalType": "address",
          "name": "_owner",
          "type": "address"
        }
      ],
      "name": "withdrawableDividendOf",
      "outputs": [
        {
          "internalType": "uint256",
          "name": "",
          "type": "uint256"
        }
      ],
      "stateMutability": "view",
      "type": "function"
    },
    {
      "inputs": [
        {
          "internalType": "address",
          "name": "_owner",
          "type": "address"
        }
      ],
      "name": "withdrawnDividendOf",
      "outputs": [
        {
          "internalType": "uint256",
          "name": "",
          "type": "uint256"
        }
      ],
      "stateMutability": "view",
      "type": "function"
    }
  ],
  "bytecode": "0x608060405234801561001057600080fd5b506121d6806100206000396000f3fe608060405234801561001057600080fd5b506004361061023d5760003560e01c80638da5cb5b1161013b578063c705c569116100b8578063e98030c71161007c578063e98030c714610560578063f2fde38b14610573578063f7c618c114610586578063fbcbc0f114610599578063ffb2c479146105ac57600080fd5b8063c705c569146104cd578063cd6dc687146104f9578063dd62ed3e1461050c578063e30443bc14610545578063e7841ec01461055857600080fd5b8063a9059cbb116100ff578063a9059cbb14610462578063aafd847a14610475578063ba72a9551461049e578063bc4c4b37146104b1578063be10b614146104c457600080fd5b80638da5cb5b146103fc57806391b89fba1461042157806395d89b4114610434578063a457c2d71461043c578063a8b9d2401461044f57600080fd5b8063313ce567116101c95780636a4740021161018d5780636a474002146103b15780636f2789ec146103b957806370a08231146103c2578063715018a6146103eb57806385a6b3ae146103f357600080fd5b8063313ce5671461030157806331e79db01461031057806339509351146103235780634e7b827f146103365780635183d6fd1461035957600080fd5b806318160ddd1161021057806318160ddd146102aa578063226cfa3d146102b257806323b872dd146102d257806327ce0147146102e55780633009a609146102f857600080fd5b806306fdde0314610242578063095ea7b31461026057806309bbedde146102835780630dcb2e8914610295575b600080fd5b61024a6105da565b6040516102579190611ddc565b60405180910390f35b61027361026e366004611e46565b61066c565b6040519015158152602001610257565b609c545b604051908152602001610257565b6102a86102a3366004611e72565b610686565b005b603554610287565b6102876102c0366004611e8b565b60a26020526000908152604090205481565b6102736102e0366004611ea8565b6106be565b6102876102f3366004611e8b565b6106e2565b61028760a05481565b60405160128152602001610257565b6102a861031e366004611e8b565b61073f565b610273610331366004611e46565b610866565b610273610344366004611e8b565b60a16020526000908152604090205460ff1681565b61036c610367366004611e72565b6108a5565b604080516001600160a01b0390991689526020890197909752958701949094526060860192909252608085015260a084015260c083015260e082015261010001610257565b6102a86109f9565b61028760a35481565b6102876103d0366004611e8b565b6001600160a01b031660009081526033602052604090205490565b6102a8610a9d565b610287609b5481565b6065546001600160a01b03165b6040516001600160a01b039091168152602001610257565b61028761042f366004611e8b565b610ad1565b61024a610adc565b61027361044a366004611e46565b610aeb565b61028761045d366004611e8b565b610b7d565b610273610470366004611e46565b610ba9565b610287610483366004611e8b565b6001600160a01b03166000908152609a602052604090205490565b6102a86104ac366004611e72565b610bb7565b6102736104bf366004611ef7565b610c75565b61028760a45481565b6102736104db366004611e8b565b6001600160a01b0316600090815260a1602052604090205460ff1690565b6102a8610507366004611e46565b610d23565b61028761051a366004611f30565b6001600160a01b03918216600090815260346020908152604080832093909416825291909152205490565b6102a8610553366004611e46565b610e44565b60a054610287565b6102a861056e366004611e72565b610fac565b6102a8610581366004611e8b565b611115565b609754610409906001600160a01b031681565b61036c6105a7366004611e8b565b6111ad565b6105bf6105ba366004611e72565b611316565b60408051938452602084019290925290820152606001610257565b6060603680546105e990611f5e565b80601f016020809104026020016040519081016040528092919081815260200182805461061590611f5e565b80156106625780601f1061063757610100808354040283529160200191610662565b820191906000526020600020905b81548152906001019060200180831161064557829003601f168201915b5050505050905090565b60003361067a818585611433565b60019150505b92915050565b6065546001600160a01b031633146106b95760405162461bcd60e51b81526004016106b090611f98565b60405180910390fd5b60a455565b6000336106cc858285611557565b6106d78585856115e9565b506001949350505050565b6001600160a01b0381166000908152609960209081526040808320546033909252822054609854600160801b92610735926107309261072a916107259190611640565b611653565b90611663565b6116a1565b6106809190611fe3565b6065546001600160a01b031633146107695760405162461bcd60e51b81526004016106b090611f98565b6001600160a01b038116600090815260a1602052604090205460ff161561078f57600080fd5b6001600160a01b038116600090815260a160205260408120805460ff191660011790556107bd9082906116b4565b60405163131836e760e21b8152609c60048201526001600160a01b038216602482015273__$7784470b2516ae4f4649ccb202a124c888$__90634c60db9c9060440160006040518083038186803b15801561081757600080fd5b505af415801561082b573d6000803e3d6000fd5b50506040516001600160a01b03841692507fa878b31040b2e6d0a9a3d3361209db3908ba62014b0dca52adbaee451d128b259150600090a250565b3360008181526034602090815260408083206001600160a01b038716845290915281205490919061067a90829086906108a0908790612005565b611433565b600080600080600080600080609c73__$7784470b2516ae4f4649ccb202a124c888$__63deb3d89690916040518263ffffffff1660e01b81526004016108ed91815260200190565b602060405180830381865af415801561090a573d6000803e3d6000fd5b505050506040513d601f19601f8201168201806040525081019061092e919061201d565b89106109535750600096506000199550859450869350839250829150819050806109ee565b6040516368d54f3f60e11b8152609c6004820152602481018a905260009073__$7784470b2516ae4f4649ccb202a124c888$__9063d1aa9e7e90604401602060405180830381865af41580156109ad573d6000803e3d6000fd5b505050506040513d601f19601f820116820180604052508101906109d19190612036565b90506109dc816111ad565b98509850985098509850985098509850505b919395975091939597565b60405162461bcd60e51b815260206004820152606560248201527f4469766964656e645f547261636b65723a20776974686472617744697669646560448201527f6e642064697361626c65642e20557365207468652027636c61696d272066756e60648201527f6374696f6e206f6e20746865206d61696e2042414259544f4b454e20636f6e746084820152643930b1ba1760d91b60a482015260c4016106b0565b565b6065546001600160a01b03163314610ac75760405162461bcd60e51b81526004016106b090611f98565b610a9b600061170d565b600061068082610b7d565b6060603780546105e990611f5e565b3360008181526034602090815260408083206001600160a01b038716845290915281205490919083811015610b705760405162461bcd60e51b815260206004820152602560248201527f45524332303a2064656372656173656420616c6c6f77616e63652062656c6f77604482015264207a65726f60d81b60648201526084016106b0565b6106d78286868403611433565b6001600160a01b0381166000908152609a602052604081205461068090610ba3846106e2565b9061175f565b60003361067a8185856115e9565b6065546001600160a01b03163314610be15760405162461bcd60e51b81526004016106b090611f98565b6000610bec60355490565b11610bf657600080fd5b8015610c7257610c29610c0860355490565b610c1683600160801b611640565b610c209190611fe3565b6098549061176b565b60985560405181815233907fa493a9229478c3fcd73f66d2cdeb7f94fd0f341da924d1054236d784541165119060200160405180910390a2609b54610c6e908261176b565b609b555b50565b6065546000906001600160a01b03163314610ca25760405162461bcd60e51b81526004016106b090611f98565b6000610cad84611777565b90508015610d19576001600160a01b038416600081815260a26020526040908190204290555184151591907fa2c38e2d2fb7e3e1912d937fd1ca11ed6d51864dee4cfa7a7bf02becd7acf09290610d079085815260200190565b60405180910390a36001915050610680565b5060009392505050565b600054610100900460ff16610d3e5760005460ff1615610d42565b303b155b610da55760405162461bcd60e51b815260206004820152602e60248201527f496e697469616c697a61626c653a20636f6e747261637420697320616c72656160448201526d191e481a5b9a5d1a585b1a5e995960921b60648201526084016106b0565b600054610100900460ff16158015610dc7576000805461ffff19166101011790555b610e22836040518060400160405280601081526020016f2224ab24a222a7222faa2920a1a5a2a960811b8152506040518060400160405280601081526020016f2224ab24a222a7222faa2920a1a5a2a960811b8152506118dc565b610e1060a35560a48290558015610e3f576000805461ff00191690555b505050565b6065546001600160a01b03163314610e6e5760405162461bcd60e51b81526004016106b090611f98565b6001600160a01b038216600090815260a1602052604090205460ff16610fa85760a4548110610f1f57610ea182826116b4565b604051632f0ad01760e21b8152609c60048201526001600160a01b03831660248201526044810182905273__$7784470b2516ae4f4649ccb202a124c888$__9063bc2b405c9060640160006040518083038186803b158015610f0257600080fd5b505af4158015610f16573d6000803e3d6000fd5b50505050610f9d565b610f2a8260006116b4565b60405163131836e760e21b8152609c60048201526001600160a01b038316602482015273__$7784470b2516ae4f4649ccb202a124c888$__90634c60db9c9060440160006040518083038186803b158015610f8457600080fd5b505af4158015610f98573d6000803e3d6000fd5b505050505b610e3f826001610c75565b5050565b6065546001600160a01b03163314610fd65760405162461bcd60e51b81526004016106b090611f98565b610e108110158015610feb5750620151808111155b61106b5760405162461bcd60e51b815260206004820152604560248201527f4469766964656e645f547261636b65723a20636c61696d57616974206d75737460448201527f206265207570646174656420746f206265747765656e203120616e6420323420606482015264686f75727360d81b608482015260a4016106b0565b60a35481036110e25760405162461bcd60e51b815260206004820152603760248201527f4469766964656e645f547261636b65723a2043616e6e6f74207570646174652060448201527f636c61696d5761697420746f2073616d652076616c756500000000000000000060648201526084016106b0565b60a35460405182907f474ea64804364a1e29a4487ddb63c3342a2dd826ccd8acf48825e680a0e6f20f90600090a360a355565b6065546001600160a01b0316331461113f5760405162461bcd60e51b81526004016106b090611f98565b6001600160a01b0381166111a45760405162461bcd60e51b815260206004820152602660248201527f4f776e61626c653a206e6577206f776e657220697320746865207a65726f206160448201526564647265737360d01b60648201526084016106b0565b610c728161170d565b6040516317e142d160e01b8152609c60048201526001600160a01b0382166024820152819060009081908190819081908190819073__$7784470b2516ae4f4649ccb202a124c888$__906317e142d190604401602060405180830381865af415801561121d573d6000803e3d6000fd5b505050506040513d601f19601f82011682018060405250810190611241919061201d565b96506000199550600087126112a35760a05487111561126f5760a054611268908890611939565b95506112a3565b60a054609c5460009110611284576000611293565b60a054609c546112939161175f565b905061129f8882611663565b9650505b6112ac88610b7d565b94506112b7886106e2565b6001600160a01b038916600090815260a260205260409020549094509250826112e15760006112ef565b60a3546112ef90849061176b565b91504282116112ff576000611309565b611309824261175f565b9050919395975091939597565b609c546000908190819080820361133857505060a0546000925082915061142c565b60a0546000805a90506000805b898410801561135357508582105b1561141b578461136281612053565b609c549096508610905061137557600094505b6000609c600001868154811061138d5761138d61206c565b60009182526020808320909101546001600160a01b031680835260a29091526040909120549091506113be90611976565b156113e1576113ce816001610c75565b156113e157816113dd81612053565b9250505b826113eb81612053565b93505060005a9050808511156114125761140f611408868361175f565b879061176b565b95505b93506113459050565b60a085905590975095509193505050505b9193909250565b6001600160a01b0383166114955760405162461bcd60e51b8152602060048201526024808201527f45524332303a20617070726f76652066726f6d20746865207a65726f206164646044820152637265737360e01b60648201526084016106b0565b6001600160a01b0382166114f65760405162461bcd60e51b815260206004820152602260248201527f45524332303a20617070726f766520746f20746865207a65726f206164647265604482015261737360f01b60648201526084016106b0565b6001600160a01b0383811660008181526034602090815260408083209487168084529482529182902085905590518481527f8c5be1e5ebec7d5bd14f71427d1e84f3dd0314c0f7b2291e5b200ac8c7c3b925910160405180910390a3505050565b6001600160a01b0383811660009081526034602090815260408083209386168352929052205460001981146115e357818110156115d65760405162461bcd60e51b815260206004820152601d60248201527f45524332303a20696e73756666696369656e7420616c6c6f77616e636500000060448201526064016106b0565b6115e38484848403611433565b50505050565b60405162461bcd60e51b815260206004820152602660248201527f4469766964656e645f547261636b65723a204e6f207472616e736665727320616044820152651b1b1bddd95960d21b60648201526084016106b0565b600061164c8284612082565b9392505050565b6000818181121561068057600080fd5b60008061167083856120a1565b9050600083121580156116835750838112155b80611698575060008312801561169857508381125b61164c57600080fd5b6000808212156116b057600080fd5b5090565b6001600160a01b038216600090815260336020526040902054808211156116ed5760006116e1838361175f565b90506115e3848261199d565b80821015610e3f576000611701828461175f565b90506115e38482611a01565b606580546001600160a01b038381166001600160a01b0319831681179093556040519116919082907f8be0079c531659141344cd1fd0a4f28419497f9722a3daafe3b4186f6b6457e090600090a35050565b600061164c82846120e2565b600061164c8284612005565b60008061178383610b7d565b905080156118d3576001600160a01b0383166000908152609a60205260409020546117ae908261176b565b6001600160a01b0384166000818152609a6020526040908190209290925590517fee503bee2bb6a87e57bc57db795f98137327401a0e7b7ce42e37926cc1a9ca4d906117fd9084815260200190565b60405180910390a260975460405163a9059cbb60e01b81526001600160a01b03858116600483015260248201849052600092169063a9059cbb906044016020604051808303816000875af1158015611859573d6000803e3d6000fd5b505050506040513d601f19601f8201168201806040525081019061187d91906120f9565b9050806118cc576001600160a01b0384166000908152609a60205260409020546118a7908361175f565b6001600160a01b039094166000908152609a6020526040812094909455509192915050565b5092915050565b50600092915050565b600054610100900460ff166119035760405162461bcd60e51b81526004016106b090612116565b61190b611a45565b6119158282611a74565b5050609780546001600160a01b0319166001600160a01b0392909216919091179055565b6000806119468385612161565b9050600083121580156119595750838113155b806116985750600083128015611698575083811361164c57600080fd5b60004282111561198857506000919050565b60a354611995428461175f565b101592915050565b6119a78282611aa5565b6119e16119c26107258360985461164090919063ffffffff16565b6001600160a01b03841660009081526099602052604090205490611939565b6001600160a01b0390921660009081526099602052604090209190915550565b611a0b8282611b84565b6119e1611a266107258360985461164090919063ffffffff16565b6001600160a01b03841660009081526099602052604090205490611663565b600054610100900460ff16611a6c5760405162461bcd60e51b81526004016106b090612116565b610a9b611cd2565b600054610100900460ff16611a9b5760405162461bcd60e51b81526004016106b090612116565b610fa88282611d02565b6001600160a01b038216611afb5760405162461bcd60e51b815260206004820152601f60248201527f45524332303a206d696e7420746f20746865207a65726f20616464726573730060448201526064016106b0565b8060356000828254611b0d9190612005565b90915550506001600160a01b03821660009081526033602052604081208054839290611b3a908490612005565b90915550506040518181526001600160a01b038316906000907fddf252ad1be2c89b69c2b068fc378daa952ba7f163c4a11628f55a4df523b3ef9060200160405180910390a35050565b6001600160a01b038216611be45760405162461bcd60e51b815260206004820152602160248201527f45524332303a206275726e2066726f6d20746865207a65726f206164647265736044820152607360f81b60648201526084016106b0565b6001600160a01b03821660009081526033602052604090205481811015611c585760405162461bcd60e51b815260206004820152602260248201527f45524332303a206275726e20616d6f756e7420657863656564732062616c616e604482015261636560f01b60648201526084016106b0565b6001600160a01b0383166000908152603360205260408120838303905560358054849290611c879084906120e2565b90915550506040518281526000906001600160a01b038516907fddf252ad1be2c89b69c2b068fc378daa952ba7f163c4a11628f55a4df523b3ef9060200160405180910390a3505050565b600054610100900460ff16611cf95760405162461bcd60e51b81526004016106b090612116565b610a9b3361170d565b600054610100900460ff16611d295760405162461bcd60e51b81526004016106b090612116565b8151611d3c906036906020850190611d4c565b508051610e3f9060379060208401905b828054611d5890611f5e565b90600052602060002090601f016020900481019282611d7a5760008555611dc0565b82601f10611d9357805160ff1916838001178555611dc0565b82800160010185558215611dc0579182015b82811115611dc0578251825591602001919060010190611da5565b506116b09291505b808211156116b05760008155600101611dc8565b600060208083528351808285015260005b81811015611e0957858101830151858201604001528201611ded565b81811115611e1b576000604083870101525b50601f01601f1916929092016040019392505050565b6001600160a01b0381168114610c7257600080fd5b60008060408385031215611e5957600080fd5b8235611e6481611e31565b946020939093013593505050565b600060208284031215611e8457600080fd5b5035919050565b600060208284031215611e9d57600080fd5b813561164c81611e31565b600080600060608486031215611ebd57600080fd5b8335611ec881611e31565b92506020840135611ed881611e31565b929592945050506040919091013590565b8015158114610c7257600080fd5b60008060408385031215611f0a57600080fd5b8235611f1581611e31565b91506020830135611f2581611ee9565b809150509250929050565b60008060408385031215611f4357600080fd5b8235611f4e81611e31565b91506020830135611f2581611e31565b600181811c90821680611f7257607f821691505b602082108103611f9257634e487b7160e01b600052602260045260246000fd5b50919050565b6020808252818101527f4f776e61626c653a2063616c6c6572206973206e6f7420746865206f776e6572604082015260600190565b634e487b7160e01b600052601160045260246000fd5b60008261200057634e487b7160e01b600052601260045260246000fd5b500490565b6000821982111561201857612018611fcd565b500190565b60006020828403121561202f57600080fd5b5051919050565b60006020828403121561204857600080fd5b815161164c81611e31565b60006001820161206557612065611fcd565b5060010190565b634e487b7160e01b600052603260045260246000fd5b600081600019048311821515161561209c5761209c611fcd565b500290565b600080821280156001600160ff1b03849003851316156120c3576120c3611fcd565b600160ff1b83900384128116156120dc576120dc611fcd565b50500190565b6000828210156120f4576120f4611fcd565b500390565b60006020828403121561210b57600080fd5b815161164c81611ee9565b6020808252602b908201527f496e697469616c697a61626c653a20636f6e7472616374206973206e6f74206960408201526a6e697469616c697a696e6760a81b606082015260800190565b60008083128015600160ff1b85018412161561217f5761217f611fcd565b6001600160ff1b038401831381161561219a5761219a611fcd565b5050039056fea2646970667358221220721a9c679ab6af613c59ff3316f101529a0a414e2c62ca3998db14fa790606cb64736f6c634300080d0033",
  "linkReferences": {
    "contracts/Tokens/libs/IterableMapping.sol": {
      "IterableMapping": [
        {
          "length": 20,
          "start": 2050
        },
        {
          "length": 20,
          "start": 2261
        },
        {
          "length": 20,
          "start": 2451
        },
        {
          "length": 20,
          "start": 3821
        },
        {
          "length": 20,
          "start": 3951
        },
        {
          "length": 20,
          "start": 4611
        }
      ]
    }
  },
  "deployedLinkReferences": {
    "contracts/Tokens/libs/IterableMapping.sol": {
      "IterableMapping": [
        {
          "length": 20,
          "start": 2018
        },
        {
          "length": 20,
          "start": 2229
        },
        {
          "length": 20,
          "start": 2419
        },
        {
          "length": 20,
          "start": 3789
        },
        {
          "length": 20,
          "start": 3919
        },
        {
          "length": 20,
          "start": 4579
        }
      ]
    }
  }
}