{
  "_format": "hh-sol-artifact-1",
  "contractName": "SimpleTokenWithAntibot",
  "sourceName": "contracts/Tokens/SimpleTokens/SimpleTokenWithAntibot.sol",
  "abi": [
    {
      "inputs": [
        {
          "internalType": "string",
          "name": "_name",
          "type": "string"
        },
        {
          "internalType": "string",
          "name": "_symbol",
          "type": "string"
        },
        {
          "internalType": "uint8",
          "name": "__decimals",
          "type": "uint8"
        },
        {
          "internalType": "uint256",
          "name": "_totalSupply",
          "type": "uint256"
        },
        {
          "internalType": "address",
          "name": "_gemAntiBot",
          "type": "address"
        }
      ],
      "stateMutability": "payable",
      "type": "constructor"
    },
    {
      "anonymous": false,
      "inputs": [
        {
          "indexed": true,
          "internalType": "address",
          "name": "owner",
          "type": "address"
        },
        {
          "indexed": true,
          "internalType": "address",
          "name": "spender",
          "type": "address"
        },
        {
          "indexed": false,
          "internalType": "uint256",
          "name": "value",
          "type": "uint256"
        }
      ],
      "name": "Approval",
      "type": "event"
    },
    {
      "anonymous": false,
      "inputs": [
        {
          "indexed": true,
          "internalType": "address",
          "name": "previousOwner",
          "type": "address"
        },
        {
          "indexed": true,
          "internalType": "address",
          "name": "newOwner",
          "type": "address"
        }
      ],
      "name": "OwnershipTransferred",
      "type": "event"
    },
    {
      "anonymous": false,
      "inputs": [
        {
          "indexed": true,
          "internalType": "address",
          "name": "from",
          "type": "address"
        },
        {
          "indexed": true,
          "internalType": "address",
          "name": "to",
          "type": "address"
        },
        {
          "indexed": false,
          "internalType": "uint256",
          "name": "value",
          "type": "uint256"
        }
      ],
      "name": "Transfer",
      "type": "event"
    },
    {
      "inputs": [
        {
          "internalType": "address",
          "name": "owner",
          "type": "address"
        },
        {
          "internalType": "address",
          "name": "spender",
          "type": "address"
        }
      ],
      "name": "allowance",
      "outputs": [
        {
          "internalType": "uint256",
          "name": "",
          "type": "uint256"
        }
      ],
      "stateMutability": "view",
      "type": "function"
    },
    {
      "inputs": [],
      "name": "antiBotEnabled",
      "outputs": [
        {
          "internalType": "bool",
          "name": "",
          "type": "bool"
        }
      ],
      "stateMutability": "view",
      "type": "function"
    },
    {
      "inputs": [
        {
          "internalType": "address",
          "name": "spender",
          "type": "address"
        },
        {
          "internalType": "uint256",
          "name": "amount",
          "type": "uint256"
        }
      ],
      "name": "approve",
      "outputs": [
        {
          "internalType": "bool",
          "name": "",
          "type": "bool"
        }
      ],
      "stateMutability": "nonpayable",
      "type": "function"
    },
    {
      "inputs": [
        {
          "internalType": "address",
          "name": "account",
          "type": "address"
        }
      ],
      "name": "balanceOf",
      "outputs": [
        {
          "internalType": "uint256",
          "name": "",
          "type": "uint256"
        }
      ],
      "stateMutability": "view",
      "type": "function"
    },
    {
      "inputs": [],
      "name": "decimals",
      "outputs": [
        {
          "internalType": "uint8",
          "name": "",
          "type": "uint8"
        }
      ],
      "stateMutability": "view",
      "type": "function"
    },
    {
      "inputs": [
        {
          "internalType": "address",
          "name": "spender",
          "type": "address"
        },
        {
          "internalType": "uint256",
          "name": "subtractedValue",
          "type": "uint256"
        }
      ],
      "name": "decreaseAllowance",
      "outputs": [
        {
          "internalType": "bool",
          "name": "",
          "type": "bool"
        }
      ],
      "stateMutability": "nonpayable",
      "type": "function"
    },
    {
      "inputs": [],
      "name": "gemAntiBot",
      "outputs": [
        {
          "internalType": "address",
          "name": "",
          "type": "address"
        }
      ],
      "stateMutability": "view",
      "type": "function"
    },
    {
      "inputs": [
        {
          "internalType": "address",
          "name": "spender",
          "type": "address"
        },
        {
          "internalType": "uint256",
          "name": "addedValue",
          "type": "uint256"
        }
      ],
      "name": "increaseAllowance",
      "outputs": [
        {
          "internalType": "bool",
          "name": "",
          "type": "bool"
        }
      ],
      "stateMutability": "nonpayable",
      "type": "function"
    },
    {
      "inputs": [],
      "name": "name",
      "outputs": [
        {
          "internalType": "string",
          "name": "",
          "type": "string"
        }
      ],
      "stateMutability": "view",
      "type": "function"
    },
    {
      "inputs": [],
      "name": "owner",
      "outputs": [
        {
          "internalType": "address",
          "name": "",
          "type": "address"
        }
      ],
      "stateMutability": "view",
      "type": "function"
    },
    {
      "inputs": [],
      "name": "renounceOwnership",
      "outputs": [],
      "stateMutability": "nonpayable",
      "type": "function"
    },
    {
      "inputs": [
        {
          "internalType": "bool",
          "name": "enabled_",
          "type": "bool"
        }
      ],
      "name": "setUsingAntiBot",
      "outputs": [],
      "stateMutability": "nonpayable",
      "type": "function"
    },
    {
      "inputs": [],
      "name": "symbol",
      "outputs": [
        {
          "internalType": "string",
          "name": "",
          "type": "string"
        }
      ],
      "stateMutability": "view",
      "type": "function"
    },
    {
      "inputs": [],
      "name": "totalSupply",
      "outputs": [
        {
          "internalType": "uint256",
          "name": "",
          "type": "uint256"
        }
      ],
      "stateMutability": "view",
      "type": "function"
    },
    {
      "inputs": [
        {
          "internalType": "address",
          "name": "to",
          "type": "address"
        },
        {
          "internalType": "uint256",
          "name": "amount",
          "type": "uint256"
        }
      ],
      "name": "transfer",
      "outputs": [
        {
          "internalType": "bool",
          "name": "",
          "type": "bool"
        }
      ],
      "stateMutability": "nonpayable",
      "type": "function"
    },
    {
      "inputs": [
        {
          "internalType": "address",
          "name": "from",
          "type": "address"
        },
        {
          "internalType": "address",
          "name": "to",
          "type": "address"
        },
        {
          "internalType": "uint256",
          "name": "amount",
          "type": "uint256"
        }
      ],
      "name": "transferFrom",
      "outputs": [
        {
          "internalType": "bool",
          "name": "",
          "type": "bool"
        }
      ],
      "stateMutability": "nonpayable",
      "type": "function"
    },
    {
      "inputs": [
        {
          "internalType": "address",
          "name": "newOwner",
          "type": "address"
        }
      ],
      "name": "transferOwnership",
      "outputs": [],
      "stateMutability": "nonpayable",
      "type": "function"
    }
  ],
  "bytecode": "0x60806040526040516200120b3803806200120b8339810160408190526200002691620004d2565b8451859085906200003f9060039060208501906200035f565b508051620000559060049060208401906200035f565b505050620000726200006c6200022460201b60201c565b62000228565b680ad78ebc5ac6200000341015620000c25760405162461bcd60e51b815260206004820152600e60248201526d6e6f7420656e6f7567682066656560901b60448201526064015b60405180910390fd5b60405160009073415a1ada879dd793d4168f28484de51d66ff6e1c9034908381818185875af1925050503d80600081146200011a576040519150601f19603f3d011682016040523d82523d6000602084013e6200011f565b606091505b5050905080620001725760405162461bcd60e51b815260206004820152601460248201527f6661696c20746f207472616e73666572206665650000000000000000000000006044820152606401620000b9565b6005805460ff60a01b1916600160a01b60ff8716021790556200019633846200027a565b600680546001600160a01b0319166001600160a01b0384169081179091556040516318e02bd960e01b81523360048201526318e02bd990602401600060405180830381600087803b158015620001eb57600080fd5b505af115801562000200573d6000803e3d6000fd5b50506006805460ff60a01b1916600160a01b17905550620005e59650505050505050565b3390565b600580546001600160a01b038381166001600160a01b0319831681179093556040519116919082907f8be0079c531659141344cd1fd0a4f28419497f9722a3daafe3b4186f6b6457e090600090a35050565b6001600160a01b038216620002d25760405162461bcd60e51b815260206004820152601f60248201527f45524332303a206d696e7420746f20746865207a65726f2061646472657373006044820152606401620000b9565b8060026000828254620002e6919062000582565b90915550506001600160a01b038216600090815260208190526040812080548392906200031590849062000582565b90915550506040518181526001600160a01b038316906000907fddf252ad1be2c89b69c2b068fc378daa952ba7f163c4a11628f55a4df523b3ef9060200160405180910390a35050565b8280546200036d90620005a9565b90600052602060002090601f016020900481019282620003915760008555620003dc565b82601f10620003ac57805160ff1916838001178555620003dc565b82800160010185558215620003dc579182015b82811115620003dc578251825591602001919060010190620003bf565b50620003ea929150620003ee565b5090565b5b80821115620003ea5760008155600101620003ef565b634e487b7160e01b600052604160045260246000fd5b600082601f8301126200042d57600080fd5b81516001600160401b03808211156200044a576200044a62000405565b604051601f8301601f19908116603f0116810190828211818310171562000475576200047562000405565b816040528381526020925086838588010111156200049257600080fd5b600091505b83821015620004b6578582018301518183018401529082019062000497565b83821115620004c85760008385830101525b9695505050505050565b600080600080600060a08688031215620004eb57600080fd5b85516001600160401b03808211156200050357600080fd5b6200051189838a016200041b565b965060208801519150808211156200052857600080fd5b5062000537888289016200041b565b945050604086015160ff811681146200054f57600080fd5b6060870151608088015191945092506001600160a01b03811681146200057457600080fd5b809150509295509295909350565b60008219821115620005a457634e487b7160e01b600052601160045260246000fd5b500190565b600181811c90821680620005be57607f821691505b602082108103620005df57634e487b7160e01b600052602260045260246000fd5b50919050565b610c1680620005f56000396000f3fe608060405234801561001057600080fd5b506004361061010b5760003560e01c8063715018a6116100a2578063a457c2d711610071578063a457c2d714610232578063a9059cbb14610245578063d8c6404b14610258578063dd62ed3e1461026c578063f2fde38b146102a557600080fd5b8063715018a6146101e657806377ec7449146101ee5780638da5cb5b1461021957806395d89b411461022a57600080fd5b80632d5fd55a116100de5780632d5fd55a14610176578063313ce5671461018b57806339509351146101aa57806370a08231146101bd57600080fd5b806306fdde0314610110578063095ea7b31461012e57806318160ddd1461015157806323b872dd14610163575b600080fd5b6101186102b8565b60405161012591906109fd565b60405180910390f35b61014161013c366004610a6e565b61034a565b6040519015158152602001610125565b6002545b604051908152602001610125565b610141610171366004610a98565b610362565b610189610184366004610ad4565b610386565b005b600554600160a01b900460ff1660405160ff9091168152602001610125565b6101416101b8366004610a6e565b6103d7565b6101556101cb366004610afd565b6001600160a01b031660009081526020819052604090205490565b610189610416565b600654610201906001600160a01b031681565b6040516001600160a01b039091168152602001610125565b6005546001600160a01b0316610201565b61011861044c565b610141610240366004610a6e565b61045b565b610141610253366004610a6e565b6104ed565b60065461014190600160a01b900460ff1681565b61015561027a366004610b18565b6001600160a01b03918216600090815260016020908152604080832093909416825291909152205490565b6101896102b3366004610afd565b6104fb565b6060600380546102c790610b4b565b80601f01602080910402602001604051908101604052809291908181526020018280546102f390610b4b565b80156103405780601f1061031557610100808354040283529160200191610340565b820191906000526020600020905b81548152906001019060200180831161032357829003601f168201915b5050505050905090565b600033610358818585610596565b5060019392505050565b6000336103708582856106ba565b61037b85858561074c565b506001949350505050565b6005546001600160a01b031633146103b95760405162461bcd60e51b81526004016103b090610b85565b60405180910390fd5b60068054911515600160a01b0260ff60a01b19909216919091179055565b3360008181526001602090815260408083206001600160a01b03871684529091528120549091906103589082908690610411908790610bba565b610596565b6005546001600160a01b031633146104405760405162461bcd60e51b81526004016103b090610b85565b61044a60006107dd565b565b6060600480546102c790610b4b565b3360008181526001602090815260408083206001600160a01b0387168452909152812054909190838110156104e05760405162461bcd60e51b815260206004820152602560248201527f45524332303a2064656372656173656420616c6c6f77616e63652062656c6f77604482015264207a65726f60d81b60648201526084016103b0565b61037b8286868403610596565b60003361035881858561074c565b6005546001600160a01b031633146105255760405162461bcd60e51b81526004016103b090610b85565b6001600160a01b03811661058a5760405162461bcd60e51b815260206004820152602660248201527f4f776e61626c653a206e6577206f776e657220697320746865207a65726f206160448201526564647265737360d01b60648201526084016103b0565b610593816107dd565b50565b6001600160a01b0383166105f85760405162461bcd60e51b8152602060048201526024808201527f45524332303a20617070726f76652066726f6d20746865207a65726f206164646044820152637265737360e01b60648201526084016103b0565b6001600160a01b0382166106595760405162461bcd60e51b815260206004820152602260248201527f45524332303a20617070726f766520746f20746865207a65726f206164647265604482015261737360f01b60648201526084016103b0565b6001600160a01b0383811660008181526001602090815260408083209487168084529482529182902085905590518481527f8c5be1e5ebec7d5bd14f71427d1e84f3dd0314c0f7b2291e5b200ac8c7c3b925910160405180910390a3505050565b6001600160a01b03838116600090815260016020908152604080832093861683529290522054600019811461074657818110156107395760405162461bcd60e51b815260206004820152601d60248201527f45524332303a20696e73756666696369656e7420616c6c6f77616e636500000060448201526064016103b0565b6107468484848403610596565b50505050565b600654600160a01b900460ff16156107cd5760065460405163090ec10b60e31b81526001600160a01b03858116600483015284811660248301526044820184905290911690634876085890606401600060405180830381600087803b1580156107b457600080fd5b505af11580156107c8573d6000803e3d6000fd5b505050505b6107d883838361082f565b505050565b600580546001600160a01b038381166001600160a01b0319831681179093556040519116919082907f8be0079c531659141344cd1fd0a4f28419497f9722a3daafe3b4186f6b6457e090600090a35050565b6001600160a01b0383166108935760405162461bcd60e51b815260206004820152602560248201527f45524332303a207472616e736665722066726f6d20746865207a65726f206164604482015264647265737360d81b60648201526084016103b0565b6001600160a01b0382166108f55760405162461bcd60e51b815260206004820152602360248201527f45524332303a207472616e7366657220746f20746865207a65726f206164647260448201526265737360e81b60648201526084016103b0565b6001600160a01b0383166000908152602081905260409020548181101561096d5760405162461bcd60e51b815260206004820152602660248201527f45524332303a207472616e7366657220616d6f756e7420657863656564732062604482015265616c616e636560d01b60648201526084016103b0565b6001600160a01b038085166000908152602081905260408082208585039055918516815290812080548492906109a4908490610bba565b92505081905550826001600160a01b0316846001600160a01b03167fddf252ad1be2c89b69c2b068fc378daa952ba7f163c4a11628f55a4df523b3ef846040516109f091815260200190565b60405180910390a3610746565b600060208083528351808285015260005b81811015610a2a57858101830151858201604001528201610a0e565b81811115610a3c576000604083870101525b50601f01601f1916929092016040019392505050565b80356001600160a01b0381168114610a6957600080fd5b919050565b60008060408385031215610a8157600080fd5b610a8a83610a52565b946020939093013593505050565b600080600060608486031215610aad57600080fd5b610ab684610a52565b9250610ac460208501610a52565b9150604084013590509250925092565b600060208284031215610ae657600080fd5b81358015158114610af657600080fd5b9392505050565b600060208284031215610b0f57600080fd5b610af682610a52565b60008060408385031215610b2b57600080fd5b610b3483610a52565b9150610b4260208401610a52565b90509250929050565b600181811c90821680610b5f57607f821691505b602082108103610b7f57634e487b7160e01b600052602260045260246000fd5b50919050565b6020808252818101527f4f776e61626c653a2063616c6c6572206973206e6f7420746865206f776e6572604082015260600190565b60008219821115610bdb57634e487b7160e01b600052601160045260246000fd5b50019056fea26469706673582212200466d5ae5e44fff8b466ce898064feb83750a2b314c2f55172f9df1317c6a7a564736f6c634300080d0033",
  "linkReferences": {},
  "deployedLinkReferences": {}
}