{
  "_format": "hh-sol-artifact-1",
  "contractName": "GemAntiBot",
  "sourceName": "contracts/Tokens/Antibot/GemAntiBot.sol",
  "abi": [
    {
      "anonymous": false,
      "inputs": [
        {
          "indexed": true,
          "internalType": "address",
          "name": "token",
          "type": "address"
        },
        {
          "indexed": true,
          "internalType": "address",
          "name": "previousOwner",
          "type": "address"
        },
        {
          "indexed": true,
          "internalType": "address",
          "name": "newOwner",
          "type": "address"
        }
      ],
      "name": "OwnershipTransferred",
      "type": "event"
    },
    {
      "inputs": [
        {
          "internalType": "address",
          "name": "token",
          "type": "address"
        },
        {
          "internalType": "address[]",
          "name": "_bots",
          "type": "address[]"
        }
      ],
      "name": "addBots",
      "outputs": [],
      "stateMutability": "nonpayable",
      "type": "function"
    },
    {
      "inputs": [
        {
          "internalType": "address",
          "name": "",
          "type": "address"
        }
      ],
      "name": "baseToken",
      "outputs": [
        {
          "internalType": "address",
          "name": "",
          "type": "address"
        }
      ],
      "stateMutability": "view",
      "type": "function"
    },
    {
      "inputs": [
        {
          "internalType": "address",
          "name": "",
          "type": "address"
        },
        {
          "internalType": "address",
          "name": "",
          "type": "address"
        }
      ],
      "name": "bots",
      "outputs": [
        {
          "internalType": "bool",
          "name": "",
          "type": "bool"
        }
      ],
      "stateMutability": "view",
      "type": "function"
    },
    {
      "inputs": [
        {
          "internalType": "address",
          "name": "",
          "type": "address"
        },
        {
          "internalType": "uint256",
          "name": "",
          "type": "uint256"
        }
      ],
      "name": "botsArray",
      "outputs": [
        {
          "internalType": "address",
          "name": "",
          "type": "address"
        }
      ],
      "stateMutability": "view",
      "type": "function"
    },
    {
      "inputs": [
        {
          "internalType": "address",
          "name": "",
          "type": "address"
        },
        {
          "internalType": "address",
          "name": "",
          "type": "address"
        }
      ],
      "name": "coolDown",
      "outputs": [
        {
          "internalType": "uint256",
          "name": "",
          "type": "uint256"
        }
      ],
      "stateMutability": "view",
      "type": "function"
    },
    {
      "inputs": [
        {
          "internalType": "address",
          "name": "",
          "type": "address"
        }
      ],
      "name": "coolDownLimit",
      "outputs": [
        {
          "internalType": "uint256",
          "name": "",
          "type": "uint256"
        }
      ],
      "stateMutability": "view",
      "type": "function"
    },
    {
      "inputs": [
        {
          "internalType": "address",
          "name": "token",
          "type": "address"
        },
        {
          "internalType": "address",
          "name": "_pancake",
          "type": "address"
        },
        {
          "internalType": "address",
          "name": "_pair",
          "type": "address"
        },
        {
          "internalType": "uint256",
          "name": "_gasPriceLimit",
          "type": "uint256"
        },
        {
          "internalType": "uint256",
          "name": "_coolDownLimit",
          "type": "uint256"
        }
      ],
      "name": "manageBot",
      "outputs": [],
      "stateMutability": "nonpayable",
      "type": "function"
    },
    {
      "inputs": [
        {
          "internalType": "address",
          "name": "from",
          "type": "address"
        },
        {
          "internalType": "address",
          "name": "to",
          "type": "address"
        },
        {
          "internalType": "uint256",
          "name": "amount",
          "type": "uint256"
        }
      ],
      "name": "onPreTransferCheck",
      "outputs": [],
      "stateMutability": "nonpayable",
      "type": "function"
    },
    {
      "inputs": [
        {
          "internalType": "address",
          "name": "",
          "type": "address"
        }
      ],
      "name": "owners",
      "outputs": [
        {
          "internalType": "address",
          "name": "",
          "type": "address"
        }
      ],
      "stateMutability": "view",
      "type": "function"
    },
    {
      "inputs": [
        {
          "internalType": "address",
          "name": "",
          "type": "address"
        }
      ],
      "name": "pancakePair",
      "outputs": [
        {
          "internalType": "address",
          "name": "",
          "type": "address"
        }
      ],
      "stateMutability": "view",
      "type": "function"
    },
    {
      "inputs": [
        {
          "internalType": "address",
          "name": "",
          "type": "address"
        }
      ],
      "name": "pancakeRouter",
      "outputs": [
        {
          "internalType": "contract IPancakeRouter02",
          "name": "",
          "type": "address"
        }
      ],
      "stateMutability": "view",
      "type": "function"
    },
    {
      "inputs": [
        {
          "internalType": "address",
          "name": "token",
          "type": "address"
        },
        {
          "internalType": "address[]",
          "name": "_notbots",
          "type": "address[]"
        }
      ],
      "name": "removeBots",
      "outputs": [],
      "stateMutability": "nonpayable",
      "type": "function"
    },
    {
      "inputs": [
        {
          "internalType": "address",
          "name": "token",
          "type": "address"
        }
      ],
      "name": "renounceOwnership",
      "outputs": [],
      "stateMutability": "nonpayable",
      "type": "function"
    },
    {
      "inputs": [
        {
          "internalType": "address",
          "name": "token",
          "type": "address"
        },
        {
          "internalType": "uint256",
          "name": "_blockNumberToDisable",
          "type": "uint256"
        },
        {
          "internalType": "uint256",
          "name": "_amountLimitPerTrade",
          "type": "uint256"
        },
        {
          "internalType": "uint256",
          "name": "_amountToBeAddedPerBlock",
          "type": "uint256"
        }
      ],
      "name": "setOpenTrading",
      "outputs": [],
      "stateMutability": "nonpayable",
      "type": "function"
    },
    {
      "inputs": [
        {
          "internalType": "address",
          "name": "_owner",
          "type": "address"
        }
      ],
      "name": "setTokenOwner",
      "outputs": [],
      "stateMutability": "nonpayable",
      "type": "function"
    },
    {
      "inputs": [
        {
          "internalType": "address",
          "name": "",
          "type": "address"
        }
      ],
      "name": "tradingOpen",
      "outputs": [
        {
          "internalType": "bool",
          "name": "",
          "type": "bool"
        }
      ],
      "stateMutability": "view",
      "type": "function"
    },
    {
      "inputs": [
        {
          "internalType": "address",
          "name": "token",
          "type": "address"
        },
        {
          "internalType": "address",
          "name": "newOwner",
          "type": "address"
        }
      ],
      "name": "transferOwnership",
      "outputs": [],
      "stateMutability": "nonpayable",
      "type": "function"
    },
    {
      "inputs": [
        {
          "internalType": "address",
          "name": "_token",
          "type": "address"
        }
      ],
      "name": "viewForOwner",
      "outputs": [
        {
          "internalType": "uint256",
          "name": "_gasPriceLimit",
          "type": "uint256"
        },
        {
          "internalType": "uint256",
          "name": "_openTradingBlock",
          "type": "uint256"
        },
        {
          "internalType": "uint256",
          "name": "_blockNumberToDisable",
          "type": "uint256"
        },
        {
          "internalType": "uint256",
          "name": "_amountLimitPerTrade",
          "type": "uint256"
        },
        {
          "internalType": "uint256",
          "name": "_amountToBeAddedPerBlock",
          "type": "uint256"
        }
      ],
      "stateMutability": "view",
      "type": "function"
    }
  ],
  "bytecode": "0x608060405234801561001057600080fd5b50611658806100206000396000f3fe608060405234801561001057600080fd5b50600436106101165760003560e01c80637ac38342116100a2578063c2fc858e11610071578063c2fc858e146102ef578063c8532ca014610302578063cb7ddb0c1461032b578063ef3e882814610356578063efff941b1461037f57600080fd5b80637ac38342146102605780637e2d916a1461029b57806397e0c177146102ae5780639bc0683f146102dc57600080fd5b806338bf3cfa116100e957806338bf3cfa146101e157806348760858146101f4578063513da2f9146102075780636d4354211461023a57806373b4a5ec1461024d57600080fd5b8063022914a71461011b5780630d653b051461016157806318e02bd91461018f57806334d52a34146101ce575b600080fd5b6101446101293660046112d7565b6033602052600090815260409020546001600160a01b031681565b6040516001600160a01b0390911681526020015b60405180910390f35b61018161016f3660046112d7565b60396020526000908152604090205481565b604051908152602001610158565b6101cc61019d3660046112d7565b33600090815260336020526040902080546001600160a01b0319166001600160a01b0392909216919091179055565b005b6101cc6101dc3660046112fb565b6103a8565b6101cc6101ef3660046112d7565b610774565b6101cc610202366004611356565b6107be565b61022a6102153660046112d7565b60406020819052600091825290205460ff1681565b6040519015158152602001610158565b6101cc610248366004611397565b610b8b565b6101cc61025b3660046113e6565b610bd0565b61027361026e3660046112d7565b610e84565b604080519586526020860194909452928401919091526060830152608082015260a001610158565b6101cc6102a93660046113e6565b610f01565b61022a6102bc366004611397565b603460209081526000928352604080842090915290825290205460ff1681565b6101446102ea3660046114c0565b61109c565b6101cc6102fd3660046114ec565b6110d4565b6101446103103660046112d7565b603b602052600090815260409020546001600160a01b031681565b610181610339366004611397565b603860209081526000928352604080842090915290825290205481565b6101446103643660046112d7565b603f602052600090815260409020546001600160a01b031681565b61014461038d3660046112d7565b603a602052600090815260409020546001600160a01b031681565b6001600160a01b0380861660009081526033602052604090205486911633146103ec5760405162461bcd60e51b81526004016103e390611527565b60405180910390fd5b6000831161042c5760405162461bcd60e51b815260206004820152600d60248201526c0676173207072696365203e203609c1b60448201526064016103e3565b6001600160a01b0385166104795760405162461bcd60e51b815260206004820152601460248201527377726f6e6720726f75746572206164647265737360601b60448201526064016103e3565b6001600160a01b0384166104c75760405162461bcd60e51b815260206004820152601560248201527477726f6e6720746f6b656e2030206164647265737360581b60448201526064016103e3565b6001600160a01b038681166000908152603a602090815260409182902080546001600160a01b0319169389169384179055815163c45a015560e01b8152915163c45a01559260048082019392918290030181865afa15801561052d573d6000803e3d6000fd5b505050506040513d601f19601f82011682018060405250810190610551919061155c565b60405163e6a4390560e01b81526001600160a01b0388811660048301528681166024830152919091169063e6a4390590604401602060405180830381865afa1580156105a1573d6000803e3d6000fd5b505050506040513d601f19601f820116820180604052508101906105c5919061155c565b6001600160a01b038781166000908152603b6020526040902080546001600160a01b031916929091169182179055610717576001600160a01b038087166000908152603a602090815260409182902054825163c45a015560e01b8152925193169263c45a01559260048082019392918290030181865afa15801561064d573d6000803e3d6000fd5b505050506040513d601f19601f82011682018060405250810190610671919061155c565b6040516364e329cb60e11b81526001600160a01b0388811660048301528681166024830152919091169063c9c65396906044016020604051808303816000875af11580156106c3573d6000803e3d6000fd5b505050506040513d601f19601f820116820180604052508101906106e7919061155c565b6001600160a01b038781166000908152603b6020526040902080546001600160a01b031916929091169190911790555b61072583633b9aca0061158f565b6001600160a01b039687166000908152603560209081526040808320939093556039815282822094909455603f90935290912080546001600160a01b0319169390951692909217909355505050565b6001600160a01b0380821660009081526033602052604090205482911633146107af5760405162461bcd60e51b81526004016103e390611527565b6107ba82600061124b565b5050565b3360009081526034602090815260408083206001600160a01b038716845290915290205460ff1615801561081657503360009081526034602090815260408083206001600160a01b038616845290915290205460ff16155b6108625760405162461bcd60e51b815260206004820152601e60248201527f626f74206973206e6f7420616c6c6f77656420746f207472616e73666572000060448201526064016103e3565b336000908152603760209081526040808320546036909252909120544391610889916115ae565b101580156108a65750336000908152603660205260409020544310155b1561098c57336000908152603660205260408120546108c590436115c6565b336000908152603d60205260409020546108df919061158f565b336000908152603c60205260409020546108f991906115ae565b336000908152603b60205260409020549091506001600160a01b038581169116148015906109425750336000908152603b60205260409020546001600160a01b03848116911614155b8061094c57508181115b61098a5760405162461bcd60e51b815260206004820152600f60248201526e1b5bdc99481d1a185b881b1a5b5a5d608a1b60448201526064016103e3565b505b3360009081526035602052604090205415610a0057336000908152603560205260409020543a1115610a005760405162461bcd60e51b815260206004820152601860248201527f4761732070726963652065786365656473206c696d69742e000000000000000060448201526064016103e3565b336000908152603b60205260409020546001600160a01b0390811690841603610ac357336000908152603960205260409020544290610a4090600161158f565b336000908152603860209081526040808320328452909152902054610a6591906115ae565b10610aa55760405162461bcd60e51b815260206004820152601060248201526f18dbdbdb08191bdddb881b995959195960821b60448201526064016103e3565b33600090815260386020908152604080832032845290915290204290555b336000908152603b60205260409020546001600160a01b0390811690831603610b8657336000908152603960205260409020544290610b0390600161158f565b336000908152603860209081526040808320328452909152902054610b2891906115ae565b10610b685760405162461bcd60e51b815260206004820152601060248201526f18dbdbdb08191bdddb881b995959195960821b60448201526064016103e3565b33600090815260386020908152604080832032845290915290204290555b505050565b6001600160a01b038083166000908152603360205260409020548391163314610bc65760405162461bcd60e51b81526004016103e390611527565b610b86838361124b565b6001600160a01b038083166000908152603360205260409020548391163314610c0b5760405162461bcd60e51b81526004016103e390611527565b60005b8251811015610e7e576001600160a01b03841660009081526034602052604081208451909190859084908110610c4657610c466115dd565b6020908102919091018101516001600160a01b031682528101919091526040016000205460ff161515600103610e6c576001600160a01b038416600090815260346020526040812084518290869085908110610ca457610ca46115dd565b60200260200101516001600160a01b03166001600160a01b0316815260200190815260200160002060006101000a81548160ff02191690831515021790555060005b6001600160a01b0385166000908152603e6020526040902054811015610e6a57838281518110610d1857610d186115dd565b60200260200101516001600160a01b0316603e6000876001600160a01b03166001600160a01b031681526020019081526020016000208281548110610d5f57610d5f6115dd565b6000918252602090912001546001600160a01b031603610e58576001600160a01b0385166000908152603e602052604090208054610d9f906001906115c6565b81548110610daf57610daf6115dd565b60009182526020808320909101546001600160a01b038881168452603e9092526040909220805491909216919083908110610dec57610dec6115dd565b600091825260208083209190910180546001600160a01b0319166001600160a01b039485161790559187168152603e90915260409020805480610e3157610e316115f3565b600082815260209020810160001990810180546001600160a01b0319169055019055610e6a565b80610e6281611609565b915050610ce6565b505b80610e7681611609565b915050610c0e565b50505050565b6001600160a01b0380821660009081526033602052604081205490918291829182918291163303610ef8575050506001600160a01b03831660009081526035602090815260408083205460368352818420546037845282852054603c855283862054603d9095529290942054909550929350915b91939590929450565b6001600160a01b038083166000908152603360205260409020548391163314610f3c5760405162461bcd60e51b81526004016103e390611527565b60005b8251811015610e7e576001600160a01b03841660009081526034602052604081208451909190859084908110610f7757610f776115dd565b6020908102919091018101516001600160a01b0316825281019190915260400160009081205460ff161515900361108a576001600160a01b0384166000908152603460205260408120845160019290869085908110610fd857610fd86115dd565b60200260200101516001600160a01b03166001600160a01b0316815260200190815260200160002060006101000a81548160ff021916908315150217905550603e6000856001600160a01b03166001600160a01b0316815260200190815260200160002083828151811061104e5761104e6115dd565b60209081029190910181015182546001810184556000938452919092200180546001600160a01b0319166001600160a01b039092169190911790555b8061109481611609565b915050610f3f565b603e60205281600052604060002081815481106110b857600080fd5b6000918252602090912001546001600160a01b03169150829050565b6001600160a01b03808516600090815260336020526040902054859116331461110f5760405162461bcd60e51b81526004016103e390611527565b6000841161115f5760405162461bcd60e51b815260206004820152601860248201527f70726f7465637420626c6f636b206e756d626572203e2030000000000000000060448201526064016103e3565b600083116111a25760405162461bcd60e51b815260206004820152601060248201526f0616d6f756e74206c696d6974203e20360841b60448201526064016103e3565b6001600160a01b03851660009081526040602081905290205460ff16156111fb5760405162461bcd60e51b815260206004820152600d60248201526c416c7265616479206f70656e2160981b60448201526064016103e3565b506001600160a01b03909316600090815260406020818152818320805460ff19166001179055603681528183204390556037815281832094909455603c845280822092909255603d909252902055565b6001600160a01b0380831660008181526033602052604080822080548686166001600160a01b0319821681179092559151919094169392849290917fc8894f26f396ce8c004245c8b7cd1b92103a6e4302fcbab883987149ac01b7ec9190a4505050565b6001600160a01b03811681146112c457600080fd5b50565b80356112d2816112af565b919050565b6000602082840312156112e957600080fd5b81356112f4816112af565b9392505050565b600080600080600060a0868803121561131357600080fd5b853561131e816112af565b9450602086013561132e816112af565b9350604086013561133e816112af565b94979396509394606081013594506080013592915050565b60008060006060848603121561136b57600080fd5b8335611376816112af565b92506020840135611386816112af565b929592945050506040919091013590565b600080604083850312156113aa57600080fd5b82356113b5816112af565b915060208301356113c5816112af565b809150509250929050565b634e487b7160e01b600052604160045260246000fd5b600080604083850312156113f957600080fd5b8235611404816112af565b915060208381013567ffffffffffffffff8082111561142257600080fd5b818601915086601f83011261143657600080fd5b813581811115611448576114486113d0565b8060051b604051601f19603f8301168101818110858211171561146d5761146d6113d0565b60405291825284820192508381018501918983111561148b57600080fd5b938501935b828510156114b0576114a1856112c7565b84529385019392850192611490565b8096505050505050509250929050565b600080604083850312156114d357600080fd5b82356114de816112af565b946020939093013593505050565b6000806000806080858703121561150257600080fd5b843561150d816112af565b966020860135965060408601359560600135945092505050565b6020808252818101527f4f776e61626c653a2063616c6c6572206973206e6f7420746865206f776e6572604082015260600190565b60006020828403121561156e57600080fd5b81516112f4816112af565b634e487b7160e01b600052601160045260246000fd5b60008160001904831182151516156115a9576115a9611579565b500290565b600082198211156115c1576115c1611579565b500190565b6000828210156115d8576115d8611579565b500390565b634e487b7160e01b600052603260045260246000fd5b634e487b7160e01b600052603160045260246000fd5b60006001820161161b5761161b611579565b506001019056fea2646970667358221220f7ebcf18f5518c5313a94abcc223d2b4fc49492e8738b64a0eb5435eddb8826a64736f6c634300080d0033",
  "linkReferences": {},
  "deployedLinkReferences": {}
}