{
  "_format": "hh-sol-artifact-1",
  "contractName": "StandardTokenWithAntibot",
  "sourceName": "contracts/Tokens/StandardTokens/StandardTokenWithAntibot.sol",
  "abi": [
    {
      "inputs": [
        {
          "internalType": "string",
          "name": "_name",
          "type": "string"
        },
        {
          "internalType": "string",
          "name": "_symbol",
          "type": "string"
        },
        {
          "internalType": "uint8",
          "name": "__decimals",
          "type": "uint8"
        },
        {
          "internalType": "uint256",
          "name": "_totalSupply",
          "type": "uint256"
        },
        {
          "internalType": "uint256",
          "name": "_maxWallet",
          "type": "uint256"
        },
        {
          "internalType": "uint256",
          "name": "_maxTransactionAmount",
          "type": "uint256"
        },
        {
          "internalType": "address[5]",
          "name": "_accounts",
          "type": "address[5]"
        },
        {
          "internalType": "bool",
          "name": "_isMarketingFeeBaseToken",
          "type": "bool"
        },
        {
          "internalType": "uint16[4]",
          "name": "_fees",
          "type": "uint16[4]"
        }
      ],
      "stateMutability": "payable",
      "type": "constructor"
    },
    {
      "anonymous": false,
      "inputs": [
        {
          "indexed": true,
          "internalType": "address",
          "name": "owner",
          "type": "address"
        },
        {
          "indexed": true,
          "internalType": "address",
          "name": "spender",
          "type": "address"
        },
        {
          "indexed": false,
          "internalType": "uint256",
          "name": "value",
          "type": "uint256"
        }
      ],
      "name": "Approval",
      "type": "event"
    },
    {
      "anonymous": false,
      "inputs": [
        {
          "indexed": false,
          "internalType": "address",
          "name": "account",
          "type": "address"
        },
        {
          "indexed": false,
          "internalType": "bool",
          "name": "isEx",
          "type": "bool"
        }
      ],
      "name": "ExcludedFromFee",
      "type": "event"
    },
    {
      "anonymous": false,
      "inputs": [
        {
          "indexed": false,
          "internalType": "address",
          "name": "account",
          "type": "address"
        },
        {
          "indexed": false,
          "internalType": "bool",
          "name": "isExcluded",
          "type": "bool"
        }
      ],
      "name": "ExcludedFromMaxTransactionAmount",
      "type": "event"
    },
    {
      "anonymous": false,
      "inputs": [
        {
          "indexed": false,
          "internalType": "uint256",
          "name": "marketingFeeTokens",
          "type": "uint256"
        },
        {
          "indexed": false,
          "internalType": "uint256",
          "name": "marketingFeeBaseTokenSwapped",
          "type": "uint256"
        }
      ],
      "name": "MarketingFeeTaken",
      "type": "event"
    },
    {
      "anonymous": false,
      "inputs": [
        {
          "indexed": true,
          "internalType": "address",
          "name": "previousOwner",
          "type": "address"
        },
        {
          "indexed": true,
          "internalType": "address",
          "name": "newOwner",
          "type": "address"
        }
      ],
      "name": "OwnershipTransferred",
      "type": "event"
    },
    {
      "anonymous": false,
      "inputs": [
        {
          "indexed": false,
          "internalType": "address",
          "name": "pair",
          "type": "address"
        },
        {
          "indexed": false,
          "internalType": "bool",
          "name": "value",
          "type": "bool"
        }
      ],
      "name": "SetAutomatedMarketMakerPair",
      "type": "event"
    },
    {
      "anonymous": false,
      "inputs": [
        {
          "indexed": false,
          "internalType": "uint256",
          "name": "tokensForLiquidity",
          "type": "uint256"
        },
        {
          "indexed": false,
          "internalType": "uint256",
          "name": "baseTokenForLiquidity",
          "type": "uint256"
        }
      ],
      "name": "SwapAndLiquify",
      "type": "event"
    },
    {
      "anonymous": false,
      "inputs": [
        {
          "indexed": true,
          "internalType": "address",
          "name": "from",
          "type": "address"
        },
        {
          "indexed": true,
          "internalType": "address",
          "name": "to",
          "type": "address"
        },
        {
          "indexed": false,
          "internalType": "uint256",
          "name": "value",
          "type": "uint256"
        }
      ],
      "name": "Transfer",
      "type": "event"
    },
    {
      "anonymous": false,
      "inputs": [
        {
          "indexed": false,
          "internalType": "address",
          "name": "lpWallet",
          "type": "address"
        }
      ],
      "name": "UpdateLPWallet",
      "type": "event"
    },
    {
      "anonymous": false,
      "inputs": [
        {
          "indexed": false,
          "internalType": "uint16",
          "name": "sellLiquidityFee",
          "type": "uint16"
        },
        {
          "indexed": false,
          "internalType": "uint16",
          "name": "buyLiquidityFee",
          "type": "uint16"
        }
      ],
      "name": "UpdateLiquidityFee",
      "type": "event"
    },
    {
      "anonymous": false,
      "inputs": [
        {
          "indexed": false,
          "internalType": "uint16",
          "name": "sellMarketingFee",
          "type": "uint16"
        },
        {
          "indexed": false,
          "internalType": "uint16",
          "name": "buyMarketingFee",
          "type": "uint16"
        }
      ],
      "name": "UpdateMarketingFee",
      "type": "event"
    },
    {
      "anonymous": false,
      "inputs": [
        {
          "indexed": false,
          "internalType": "address",
          "name": "marketingWallet",
          "type": "address"
        },
        {
          "indexed": false,
          "internalType": "bool",
          "name": "isMarketingFeeBaseToken",
          "type": "bool"
        }
      ],
      "name": "UpdateMarketingWallet",
      "type": "event"
    },
    {
      "anonymous": false,
      "inputs": [
        {
          "indexed": false,
          "internalType": "uint256",
          "name": "minAmountToTakeFee",
          "type": "uint256"
        }
      ],
      "name": "UpdateMinAmountToTakeFee",
      "type": "event"
    },
    {
      "anonymous": false,
      "inputs": [
        {
          "indexed": false,
          "internalType": "address",
          "name": "newAddress",
          "type": "address"
        },
        {
          "indexed": false,
          "internalType": "address",
          "name": "oldRouter",
          "type": "address"
        }
      ],
      "name": "UpdatePancakeRouter",
      "type": "event"
    },
    {
      "inputs": [
        {
          "internalType": "address",
          "name": "owner",
          "type": "address"
        },
        {
          "internalType": "address",
          "name": "spender",
          "type": "address"
        }
      ],
      "name": "allowance",
      "outputs": [
        {
          "internalType": "uint256",
          "name": "",
          "type": "uint256"
        }
      ],
      "stateMutability": "view",
      "type": "function"
    },
    {
      "inputs": [],
      "name": "antiBotEnabled",
      "outputs": [
        {
          "internalType": "bool",
          "name": "",
          "type": "bool"
        }
      ],
      "stateMutability": "view",
      "type": "function"
    },
    {
      "inputs": [
        {
          "internalType": "address",
          "name": "spender",
          "type": "address"
        },
        {
          "internalType": "uint256",
          "name": "amount",
          "type": "uint256"
        }
      ],
      "name": "approve",
      "outputs": [
        {
          "internalType": "bool",
          "name": "",
          "type": "bool"
        }
      ],
      "stateMutability": "nonpayable",
      "type": "function"
    },
    {
      "inputs": [
        {
          "internalType": "address",
          "name": "",
          "type": "address"
        }
      ],
      "name": "automatedMarketMakerPairs",
      "outputs": [
        {
          "internalType": "bool",
          "name": "",
          "type": "bool"
        }
      ],
      "stateMutability": "view",
      "type": "function"
    },
    {
      "inputs": [
        {
          "internalType": "address",
          "name": "account",
          "type": "address"
        }
      ],
      "name": "balanceOf",
      "outputs": [
        {
          "internalType": "uint256",
          "name": "",
          "type": "uint256"
        }
      ],
      "stateMutability": "view",
      "type": "function"
    },
    {
      "inputs": [],
      "name": "baseTokenForPair",
      "outputs": [
        {
          "internalType": "address",
          "name": "",
          "type": "address"
        }
      ],
      "stateMutability": "view",
      "type": "function"
    },
    {
      "inputs": [],
      "name": "buyLiquidityFee",
      "outputs": [
        {
          "internalType": "uint16",
          "name": "",
          "type": "uint16"
        }
      ],
      "stateMutability": "view",
      "type": "function"
    },
    {
      "inputs": [],
      "name": "buyMarketingFee",
      "outputs": [
        {
          "internalType": "uint16",
          "name": "",
          "type": "uint16"
        }
      ],
      "stateMutability": "view",
      "type": "function"
    },
    {
      "inputs": [],
      "name": "decimals",
      "outputs": [
        {
          "internalType": "uint8",
          "name": "",
          "type": "uint8"
        }
      ],
      "stateMutability": "view",
      "type": "function"
    },
    {
      "inputs": [
        {
          "internalType": "address",
          "name": "spender",
          "type": "address"
        },
        {
          "internalType": "uint256",
          "name": "subtractedValue",
          "type": "uint256"
        }
      ],
      "name": "decreaseAllowance",
      "outputs": [
        {
          "internalType": "bool",
          "name": "",
          "type": "bool"
        }
      ],
      "stateMutability": "nonpayable",
      "type": "function"
    },
    {
      "inputs": [
        {
          "internalType": "address",
          "name": "account",
          "type": "address"
        },
        {
          "internalType": "bool",
          "name": "isEx",
          "type": "bool"
        }
      ],
      "name": "excludeFromFee",
      "outputs": [],
      "stateMutability": "nonpayable",
      "type": "function"
    },
    {
      "inputs": [
        {
          "internalType": "address",
          "name": "account",
          "type": "address"
        },
        {
          "internalType": "bool",
          "name": "isEx",
          "type": "bool"
        }
      ],
      "name": "excludeFromMaxTransactionAmount",
      "outputs": [],
      "stateMutability": "nonpayable",
      "type": "function"
    },
    {
      "inputs": [],
      "name": "gemAntiBot",
      "outputs": [
        {
          "internalType": "address",
          "name": "",
          "type": "address"
        }
      ],
      "stateMutability": "view",
      "type": "function"
    },
    {
      "inputs": [
        {
          "internalType": "address",
          "name": "spender",
          "type": "address"
        },
        {
          "internalType": "uint256",
          "name": "addedValue",
          "type": "uint256"
        }
      ],
      "name": "increaseAllowance",
      "outputs": [
        {
          "internalType": "bool",
          "name": "",
          "type": "bool"
        }
      ],
      "stateMutability": "nonpayable",
      "type": "function"
    },
    {
      "inputs": [
        {
          "internalType": "address",
          "name": "",
          "type": "address"
        }
      ],
      "name": "isExcludedFromFee",
      "outputs": [
        {
          "internalType": "bool",
          "name": "",
          "type": "bool"
        }
      ],
      "stateMutability": "view",
      "type": "function"
    },
    {
      "inputs": [
        {
          "internalType": "address",
          "name": "",
          "type": "address"
        }
      ],
      "name": "isExcludedFromMaxTransactionAmount",
      "outputs": [
        {
          "internalType": "bool",
          "name": "",
          "type": "bool"
        }
      ],
      "stateMutability": "view",
      "type": "function"
    },
    {
      "inputs": [],
      "name": "isMarketingFeeBaseToken",
      "outputs": [
        {
          "internalType": "bool",
          "name": "",
          "type": "bool"
        }
      ],
      "stateMutability": "view",
      "type": "function"
    },
    {
      "inputs": [],
      "name": "lpWallet",
      "outputs": [
        {
          "internalType": "address",
          "name": "",
          "type": "address"
        }
      ],
      "stateMutability": "view",
      "type": "function"
    },
    {
      "inputs": [],
      "name": "mainPair",
      "outputs": [
        {
          "internalType": "address",
          "name": "",
          "type": "address"
        }
      ],
      "stateMutability": "view",
      "type": "function"
    },
    {
      "inputs": [],
      "name": "mainRouter",
      "outputs": [
        {
          "internalType": "contract IPancakeRouter02",
          "name": "",
          "type": "address"
        }
      ],
      "stateMutability": "view",
      "type": "function"
    },
    {
      "inputs": [],
      "name": "marketingWallet",
      "outputs": [
        {
          "internalType": "address",
          "name": "",
          "type": "address"
        }
      ],
      "stateMutability": "view",
      "type": "function"
    },
    {
      "inputs": [],
      "name": "maxTransactionAmount",
      "outputs": [
        {
          "internalType": "uint256",
          "name": "",
          "type": "uint256"
        }
      ],
      "stateMutability": "view",
      "type": "function"
    },
    {
      "inputs": [],
      "name": "maxWallet",
      "outputs": [
        {
          "internalType": "uint256",
          "name": "",
          "type": "uint256"
        }
      ],
      "stateMutability": "view",
      "type": "function"
    },
    {
      "inputs": [],
      "name": "minAmountToTakeFee",
      "outputs": [
        {
          "internalType": "uint256",
          "name": "",
          "type": "uint256"
        }
      ],
      "stateMutability": "view",
      "type": "function"
    },
    {
      "inputs": [],
      "name": "name",
      "outputs": [
        {
          "internalType": "string",
          "name": "",
          "type": "string"
        }
      ],
      "stateMutability": "view",
      "type": "function"
    },
    {
      "inputs": [],
      "name": "owner",
      "outputs": [
        {
          "internalType": "address",
          "name": "",
          "type": "address"
        }
      ],
      "stateMutability": "view",
      "type": "function"
    },
    {
      "inputs": [],
      "name": "pancakeCaller",
      "outputs": [
        {
          "internalType": "contract IPancakeCaller",
          "name": "",
          "type": "address"
        }
      ],
      "stateMutability": "view",
      "type": "function"
    },
    {
      "inputs": [],
      "name": "renounceOwnership",
      "outputs": [],
      "stateMutability": "nonpayable",
      "type": "function"
    },
    {
      "inputs": [],
      "name": "sellLiquidityFee",
      "outputs": [
        {
          "internalType": "uint16",
          "name": "",
          "type": "uint16"
        }
      ],
      "stateMutability": "view",
      "type": "function"
    },
    {
      "inputs": [],
      "name": "sellMarketingFee",
      "outputs": [
        {
          "internalType": "uint16",
          "name": "",
          "type": "uint16"
        }
      ],
      "stateMutability": "view",
      "type": "function"
    },
    {
      "inputs": [
        {
          "internalType": "address",
          "name": "pair",
          "type": "address"
        },
        {
          "internalType": "bool",
          "name": "value",
          "type": "bool"
        }
      ],
      "name": "setAutomatedMarketMakerPair",
      "outputs": [],
      "stateMutability": "nonpayable",
      "type": "function"
    },
    {
      "inputs": [
        {
          "internalType": "bool",
          "name": "enabled_",
          "type": "bool"
        }
      ],
      "name": "setUsingAntiBot",
      "outputs": [],
      "stateMutability": "nonpayable",
      "type": "function"
    },
    {
      "inputs": [],
      "name": "symbol",
      "outputs": [
        {
          "internalType": "string",
          "name": "",
          "type": "string"
        }
      ],
      "stateMutability": "view",
      "type": "function"
    },
    {
      "inputs": [],
      "name": "totalSupply",
      "outputs": [
        {
          "internalType": "uint256",
          "name": "",
          "type": "uint256"
        }
      ],
      "stateMutability": "view",
      "type": "function"
    },
    {
      "inputs": [
        {
          "internalType": "address",
          "name": "to",
          "type": "address"
        },
        {
          "internalType": "uint256",
          "name": "amount",
          "type": "uint256"
        }
      ],
      "name": "transfer",
      "outputs": [
        {
          "internalType": "bool",
          "name": "",
          "type": "bool"
        }
      ],
      "stateMutability": "nonpayable",
      "type": "function"
    },
    {
      "inputs": [
        {
          "internalType": "address",
          "name": "from",
          "type": "address"
        },
        {
          "internalType": "address",
          "name": "to",
          "type": "address"
        },
        {
          "internalType": "uint256",
          "name": "amount",
          "type": "uint256"
        }
      ],
      "name": "transferFrom",
      "outputs": [
        {
          "internalType": "bool",
          "name": "",
          "type": "bool"
        }
      ],
      "stateMutability": "nonpayable",
      "type": "function"
    },
    {
      "inputs": [
        {
          "internalType": "address",
          "name": "newOwner",
          "type": "address"
        }
      ],
      "name": "transferOwnership",
      "outputs": [],
      "stateMutability": "nonpayable",
      "type": "function"
    },
    {
      "inputs": [
        {
          "internalType": "address",
          "name": "_lpWallet",
          "type": "address"
        }
      ],
      "name": "updateLPWallet",
      "outputs": [],
      "stateMutability": "nonpayable",
      "type": "function"
    },
    {
      "inputs": [
        {
          "internalType": "uint16",
          "name": "_sellLiquidityFee",
          "type": "uint16"
        },
        {
          "internalType": "uint16",
          "name": "_buyLiquidityFee",
          "type": "uint16"
        }
      ],
      "name": "updateLiquidityFee",
      "outputs": [],
      "stateMutability": "nonpayable",
      "type": "function"
    },
    {
      "inputs": [
        {
          "internalType": "uint16",
          "name": "_sellMarketingFee",
          "type": "uint16"
        },
        {
          "internalType": "uint16",
          "name": "_buyMarketingFee",
          "type": "uint16"
        }
      ],
      "name": "updateMarketingFee",
      "outputs": [],
      "stateMutability": "nonpayable",
      "type": "function"
    },
    {
      "inputs": [
        {
          "internalType": "address",
          "name": "_marketingWallet",
          "type": "address"
        },
        {
          "internalType": "bool",
          "name": "_isMarketingFeeBaseToken",
          "type": "bool"
        }
      ],
      "name": "updateMarketingWallet",
      "outputs": [],
      "stateMutability": "nonpayable",
      "type": "function"
    },
    {
      "inputs": [
        {
          "internalType": "uint256",
          "name": "_maxTransactionAmount",
          "type": "uint256"
        }
      ],
      "name": "updateMaxTransactionAmount",
      "outputs": [],
      "stateMutability": "nonpayable",
      "type": "function"
    },
    {
      "inputs": [
        {
          "internalType": "uint256",
          "name": "_maxWallet",
          "type": "uint256"
        }
      ],
      "name": "updateMaxWallet",
      "outputs": [],
      "stateMutability": "nonpayable",
      "type": "function"
    },
    {
      "inputs": [
        {
          "internalType": "uint256",
          "name": "_minAmountToTakeFee",
          "type": "uint256"
        }
      ],
      "name": "updateMinAmountToTakeFee",
      "outputs": [],
      "stateMutability": "nonpayable",
      "type": "function"
    },
    {
      "inputs": [
        {
          "internalType": "address",
          "name": "_baseTokenForPair",
          "type": "address"
        }
      ],
      "name": "updatePancakePair",
      "outputs": [],
      "stateMutability": "nonpayable",
      "type": "function"
    },
    {
      "inputs": [
        {
          "internalType": "address",
          "name": "newAddress",
          "type": "address"
        }
      ],
      "name": "updatePancakeRouter",
      "outputs": [],
      "stateMutability": "nonpayable",
      "type": "function"
    },
    {
      "stateMutability": "payable",
      "type": "receive"
    }
  ],
  "bytecode": "0x608060405260405162003a6338038062003a63833981016040819052620000269162000adb565b8851899089906200003f90600390602085019062000831565b5080516200005590600490602084019062000831565b505050620000726200006c6200067e60201b60201c565b62000682565b670de0b6b3a7640000341015620000c15760405162461bcd60e51b815260206004820152600e60248201526d6e6f7420656e6f7567682066656560901b60448201526064015b60405180910390fd5b6040516000907354e7032579b327238057c3723a166fbb8705f5ea9034908381818185875af1925050503d806000811462000119576040519150601f19603f3d011682016040523d82523d6000602084013e6200011e565b606091505b5050905080620001715760405162461bcd60e51b815260206004820152601460248201527f6661696c20746f207472616e73666572206665650000000000000000000000006044820152606401620000b8565b6006805460ff60a81b1916600160a81b60ff8b1602179055620001953388620006d4565b6060840151600780546001600160a01b0319166001600160a01b03928316179055845116620002075760405162461bcd60e51b815260206004820152601d60248201527f6d61726b6574696e672077616c6c65742063616e206e6f7420626520300000006044820152606401620000b8565b60408401516001600160a01b0316620002635760405162461bcd60e51b815260206004820152601b60248201527f526f7574657220616464726573732063616e206e6f74206265203000000000006044820152606401620000b8565b6040820151825161012c91620002799162000bcf565b61ffff1611156200028957600080fd5b6060820151602083015161012c91620002a29162000bcf565b61ffff161115620002b257600080fd5b6080840151600680546001600160a01b039092166001600160a01b0319909216821790556040516318e02bd960e01b81523360048201526318e02bd990602401600060405180830381600087803b1580156200030d57600080fd5b505af115801562000322573d6000803e3d6000fd5b50506006805460ff60a01b1916600160a01b17905550508351600980546001600160a01b03199081166001600160a01b0393841617909155602080870151600880548416918516919091179055604080880151600d80549094169416938417909255815163c45a015560e01b8152915163c45a01559260048082019392918290030181865afa158015620003ba573d6000803e3d6000fd5b505050506040513d601f19601f82011682018060405250810190620003e0919062000bf8565b6007546040516364e329cb60e11b81523060048201526001600160a01b03918216602482015291169063c9c65396906044016020604051808303816000875af115801562000432573d6000803e3d6000fd5b505050506040513d601f19601f8201168201806040525081019062000458919062000bf8565b600e80546001600160a01b0319166001600160a01b0392909216919091179055846200048357600080fd5b600086116200049157600080fd5b600b869055600c8590556009805460ff60a01b1916600160a01b8515150217905581516007805460208501516040860151606087015161ffff908116600160d81b02928116600160b81b0263ffffffff60a81b19909416958116600160a81b0261ffff60b81b1916959095179290921763ffffffff60c81b191693909116600160c81b0261ffff60d81b191692909217919091179055620005356127108862000c1d565b600a553060009081526010602081905260408083208054600160ff1991821681179092556009546001600160a01b0316855291842080549092168117909155916200057d3390565b6001600160a01b03908116825260208083019390935260409182016000908120805495151560ff199687161790557f9e93e1db4a1f807cc22b2aecf4deeb0bf5745f1ecb319e87c68c5624c0fa6b69805486166001908117909155600f948590527f99629f56119585bf27511b6b7d295dffb54757453fcc3dabcf51d92028301f1080548716821790553082528382208054871682179055600954909216815291822080549094168117909355620006323390565b6001600160a01b0390811682526020820192909252604001600020805460ff191692151592909217909155600e546200066e91166001620007b9565b5050505050505050505062000c97565b3390565b600580546001600160a01b038381166001600160a01b0319831681179093556040519116919082907f8be0079c531659141344cd1fd0a4f28419497f9722a3daafe3b4186f6b6457e090600090a35050565b6001600160a01b0382166200072c5760405162461bcd60e51b815260206004820152601f60248201527f45524332303a206d696e7420746f20746865207a65726f2061646472657373006044820152606401620000b8565b806002600082825462000740919062000c40565b90915550506001600160a01b038216600090815260208190526040812080548392906200076f90849062000c40565b90915550506040518181526001600160a01b038316906000907fddf252ad1be2c89b69c2b068fc378daa952ba7f163c4a11628f55a4df523b3ef9060200160405180910390a35050565b6001600160a01b0382166000818152601160209081526040808320805486151560ff199182168117909255600f845293829020805490941681179093558051938452908301919091527fffa9187bf1f18bf477bd0ea1bcbb64e93b6a98132473929edfce215cd9b16fab910160405180910390a15050565b8280546200083f9062000c5b565b90600052602060002090601f016020900481019282620008635760008555620008ae565b82601f106200087e57805160ff1916838001178555620008ae565b82800160010185558215620008ae579182015b82811115620008ae57825182559160200191906001019062000891565b50620008bc929150620008c0565b5090565b5b80821115620008bc5760008155600101620008c1565b634e487b7160e01b600052604160045260246000fd5b604051601f8201601f191681016001600160401b0381118282101715620009185762000918620008d7565b604052919050565b600082601f8301126200093257600080fd5b81516001600160401b038111156200094e576200094e620008d7565b602062000964601f8301601f19168201620008ed565b82815285828487010111156200097957600080fd5b60005b83811015620009995785810183015182820184015282016200097c565b83811115620009ab5760008385840101525b5095945050505050565b80516001600160a01b0381168114620009cd57600080fd5b919050565b600082601f830112620009e457600080fd5b60405160a081016001600160401b038111828210171562000a095762000a09620008d7565b6040528060a084018581111562000a1f57600080fd5b845b8181101562000a445762000a3581620009b5565b83526020928301920162000a21565b509195945050505050565b80518015158114620009cd57600080fd5b600082601f83011262000a7257600080fd5b604051608081016001600160401b038111828210171562000a975762000a97620008d7565b60405280608084018581111562000aad57600080fd5b845b8181101562000a4457805161ffff8116811462000acc5760008081fd5b83526020928301920162000aaf565b60008060008060008060008060006102008a8c03121562000afb57600080fd5b89516001600160401b038082111562000b1357600080fd5b62000b218d838e0162000920565b9a5060208c015191508082111562000b3857600080fd5b5062000b478c828d0162000920565b98505060408a015160ff8116811462000b5f57600080fd5b8097505060608a0151955060808a0151945060a08a0151935062000b878b60c08c01620009d2565b925062000b986101608b0162000a4f565b915062000baa8b6101808c0162000a60565b90509295985092959850929598565b634e487b7160e01b600052601160045260246000fd5b600061ffff80831681851680830382111562000bef5762000bef62000bb9565b01949350505050565b60006020828403121562000c0b57600080fd5b62000c1682620009b5565b9392505050565b60008262000c3b57634e487b7160e01b600052601260045260246000fd5b500490565b6000821982111562000c565762000c5662000bb9565b500190565b600181811c9082168062000c7057607f821691505b60208210810362000c9157634e487b7160e01b600052602260045260246000fd5b50919050565b612dbc8062000ca76000396000f3fe6080604052600436106102815760003560e01c8063921369131161014f578063d68f8cde116100c1578063f11a24d31161007a578063f11a24d314610838578063f2fde38b1461085a578063f63743421461087a578063f8b45b051461089c578063fbc10c55146108b2578063fc59d23d146108d257600080fd5b8063d68f8cde14610741578063d880cd8514610761578063d8c6404b14610781578063dd62ed3e146107a2578063df8408fe146107e8578063e9481eee1461080857600080fd5b8063a9059cbb11610113578063a9059cbb1461067b578063aa4980231461069b578063b62496f5146106bb578063c8c8ebe4146106eb578063cf089e1314610701578063cf188ad01461072157600080fd5b806392136913146105dc57806392586f5e146105fe57806395d89b41146106265780639a7a23d61461063b578063a457c2d71461065b57600080fd5b806357e62b98116101f357806375f0a874116101ac57806375f0a8741461050957806377ec7449146105295780637bce5a04146105495780637cf84bd71461057e57806385af30c51461059e5780638da5cb5b146105be57600080fd5b806357e62b98146104255780635f2d95ad146104465780636303516c1461046657806370a082311461049e578063715018a6146104d457806373b9e82c146104e957600080fd5b80632ae2f121116102455780632ae2f121146103495780632d5fd55a14610369578063313ce5671461038957806339509351146103b55780634707c551146103d55780635342acb4146103f557600080fd5b806306fdde031461028d578063095ea7b3146102b857806318160ddd146102e85780631c499ab01461030757806323b872dd1461032957600080fd5b3661028857005b600080fd5b34801561029957600080fd5b506102a26108e8565b6040516102af919061289d565b60405180910390f35b3480156102c457600080fd5b506102d86102d3366004612907565b61097a565b60405190151581526020016102af565b3480156102f457600080fd5b506002545b6040519081526020016102af565b34801561031357600080fd5b50610327610322366004612933565b610992565b005b34801561033557600080fd5b506102d861034436600461294c565b6109d7565b34801561035557600080fd5b5061032761036436600461299b565b6109fb565b34801561037557600080fd5b506103276103843660046129d4565b610a89565b34801561039557600080fd5b50600654600160a81b900460ff1660405160ff90911681526020016102af565b3480156103c157600080fd5b506102d86103d0366004612907565b610ad1565b3480156103e157600080fd5b506103276103f036600461299b565b610b10565b34801561040157600080fd5b506102d86104103660046129f8565b60106020526000908152604090205460ff1681565b34801561043157600080fd5b506009546102d890600160a01b900460ff1681565b34801561045257600080fd5b506103276104613660046129f8565b610c0f565b34801561047257600080fd5b50600854610486906001600160a01b031681565b6040516001600160a01b0390911681526020016102af565b3480156104aa57600080fd5b506102f96104b93660046129f8565b6001600160a01b031660009081526020819052604090205490565b3480156104e057600080fd5b50610327610d61565b3480156104f557600080fd5b50610327610504366004612933565b610d97565b34801561051557600080fd5b50600954610486906001600160a01b031681565b34801561053557600080fd5b50600654610486906001600160a01b031681565b34801561055557600080fd5b5060075461056b90600160d81b900461ffff1681565b60405161ffff90911681526020016102af565b34801561058a57600080fd5b50600754610486906001600160a01b031681565b3480156105aa57600080fd5b50600e54610486906001600160a01b031681565b3480156105ca57600080fd5b506005546001600160a01b0316610486565b3480156105e857600080fd5b5060075461056b90600160c81b900461ffff1681565b34801561060a57600080fd5b5061048673617715a9bf6dd62d1beb70f29914fcf821933b3981565b34801561063257600080fd5b506102a2610e32565b34801561064757600080fd5b5061032761065636600461299b565b610e41565b34801561066757600080fd5b506102d8610676366004612907565b610e79565b34801561068757600080fd5b506102d8610696366004612907565b610f0b565b3480156106a757600080fd5b506103276106b6366004612933565b610f19565b3480156106c757600080fd5b506102d86106d63660046129f8565b60116020526000908152604090205460ff1681565b3480156106f757600080fd5b506102f9600c5481565b34801561070d57600080fd5b5061032761071c366004612a2c565b610f55565b34801561072d57600080fd5b50600d54610486906001600160a01b031681565b34801561074d57600080fd5b5061032761075c366004612a2c565b6110b4565b34801561076d57600080fd5b5061032761077c3660046129f8565b611213565b34801561078d57600080fd5b506006546102d890600160a01b900460ff1681565b3480156107ae57600080fd5b506102f96107bd366004612a5f565b6001600160a01b03918216600090815260016020908152604080832093909416825291909152205490565b3480156107f457600080fd5b5061032761080336600461299b565b61140f565b34801561081457600080fd5b506102d86108233660046129f8565b600f6020526000908152604090205460ff1681565b34801561084457600080fd5b5060075461056b90600160b81b900461ffff1681565b34801561086657600080fd5b506103276108753660046129f8565b611495565b34801561088657600080fd5b5060075461056b90600160a81b900461ffff1681565b3480156108a857600080fd5b506102f9600b5481565b3480156108be57600080fd5b506103276108cd3660046129f8565b61152d565b3480156108de57600080fd5b506102f9600a5481565b6060600380546108f790612a8d565b80601f016020809104026020016040519081016040528092919081815260200182805461092390612a8d565b80156109705780601f1061094557610100808354040283529160200191610970565b820191906000526020600020905b81548152906001019060200180831161095357829003601f168201915b5050505050905090565b6000336109888185856115a5565b5060019392505050565b6005546001600160a01b031633146109c55760405162461bcd60e51b81526004016109bc90612ac7565b60405180910390fd5b600081116109d257600080fd5b600b55565b6000336109e58582856116c9565b6109f085858561175b565b506001949350505050565b6005546001600160a01b03163314610a255760405162461bcd60e51b81526004016109bc90612ac7565b6001600160a01b0382166000818152600f6020908152604091829020805460ff19168515159081179091558251938452908301527f82170bbd72c16b30c410014b7382121a699ed119a182e48a0b6cadcc89104ac991015b60405180910390a15050565b6005546001600160a01b03163314610ab35760405162461bcd60e51b81526004016109bc90612ac7565b60068054911515600160a01b0260ff60a01b19909216919091179055565b3360008181526001602090815260408083206001600160a01b03871684529091528120549091906109889082908690610b0b908790612b12565b6115a5565b6005546001600160a01b03163314610b3a5760405162461bcd60e51b81526004016109bc90612ac7565b6001600160a01b038216610b905760405162461bcd60e51b815260206004820152601b60248201527f6d61726b6574696e672077616c6c65742063616e27742062652030000000000060448201526064016109bc565b60098054821515600160a01b81026001600160a81b03199092166001600160a01b03868116918217939093178455600090815260106020908152604091829020805460ff191660011790559354815193168352928201527f5ddebadd13549f5ff5b3c95499e6a1781606c1ed34a3d856d1f20694feade7bc9101610a7d565b6005546001600160a01b03163314610c395760405162461bcd60e51b81526004016109bc90612ac7565b600780546001600160a01b0319166001600160a01b0383811691909117909155600d546040805163c45a015560e01b81529051919092169163c45a01559160048083019260209291908290030181865afa158015610c9b573d6000803e3d6000fd5b505050506040513d601f19601f82011682018060405250810190610cbf9190612b2a565b6007546040516364e329cb60e11b81523060048201526001600160a01b03918216602482015291169063c9c65396906044016020604051808303816000875af1158015610d10573d6000803e3d6000fd5b505050506040513d601f19601f82011682018060405250810190610d349190612b2a565b600e80546001600160a01b0319166001600160a01b03929092169182179055610d5e906001611bad565b50565b6005546001600160a01b03163314610d8b5760405162461bcd60e51b81526004016109bc90612ac7565b610d956000611c1e565b565b6005546001600160a01b03163314610dc15760405162461bcd60e51b81526004016109bc90612ac7565b60008111610df65760405162461bcd60e51b815260206004820152600260248201526103e360f41b60448201526064016109bc565b600a8190556040518181527f37e5d1260bc61b4faf5a9f8f5415209eb753f52c24812cdb9d7b97608225fbcf906020015b60405180910390a150565b6060600480546108f790612a8d565b6005546001600160a01b03163314610e6b5760405162461bcd60e51b81526004016109bc90612ac7565b610e758282611bad565b5050565b3360008181526001602090815260408083206001600160a01b038716845290915281205490919083811015610efe5760405162461bcd60e51b815260206004820152602560248201527f45524332303a2064656372656173656420616c6c6f77616e63652062656c6f77604482015264207a65726f60d81b60648201526084016109bc565b6109f082868684036115a5565b60003361098881858561175b565b6005546001600160a01b03163314610f435760405162461bcd60e51b81526004016109bc90612ac7565b60008111610f5057600080fd5b600c55565b6005546001600160a01b03163314610f7f5760405162461bcd60e51b81526004016109bc90612ac7565b60075461012c90610f9b90600160a81b900461ffff1684612b47565b61ffff161115610fdf5760405162461bcd60e51b815260206004820152600f60248201526e73656c6c20666565203c3d2033302560881b60448201526064016109bc565b60075461012c90610ffb90600160b81b900461ffff1683612b47565b61ffff16111561103e5760405162461bcd60e51b815260206004820152600e60248201526d62757920666565203c3d2033302560901b60448201526064016109bc565b6007805463ffffffff60c81b1916600160c81b61ffff858116820261ffff60d81b191692909217600160d81b858416810291909117938490556040805192850484168352930490911660208201527fc433fa5a836cf3b35353a9ebf4716a022a575f13c5930eff724bf1868d46faba9101610a7d565b6005546001600160a01b031633146110de5760405162461bcd60e51b81526004016109bc90612ac7565b60075461012c906110fa90600160c81b900461ffff1684612b47565b61ffff16111561113e5760405162461bcd60e51b815260206004820152600f60248201526e73656c6c20666565203c3d2033302560881b60448201526064016109bc565b60075461012c9061115a90600160d81b900461ffff1683612b47565b61ffff16111561119d5760405162461bcd60e51b815260206004820152600e60248201526d62757920666565203c3d2033302560901b60448201526064016109bc565b6007805463ffffffff60a81b1916600160a81b61ffff858116820261ffff60b81b191692909217600160b81b858416810291909117938490556040805192850484168352930490911660208201527f6be4281a0a58f1eac9e075b5f649c8aa8f5471d018dd25dbd8cd52fdfb8fbb939101610a7d565b6005546001600160a01b0316331461123d5760405162461bcd60e51b81526004016109bc90612ac7565b600d546001600160a01b03908116908216036112a75760405162461bcd60e51b815260206004820152602360248201527f54686520726f7574657220616c7265616479206861732074686174206164647260448201526265737360e81b60648201526084016109bc565b600d54604080516001600160a01b03808516825290921660208301527f51cb6825f043d6550a1cbb70cdd407e9ca7523e4a1ff93812b00168d1ca2565d910160405180910390a1600d80546001600160a01b0319166001600160a01b0383169081179091556040805163c45a015560e01b815290516000929163c45a01559160048083019260209291908290030181865afa15801561134a573d6000803e3d6000fd5b505050506040513d601f19601f8201168201806040525081019061136e9190612b2a565b6007546040516364e329cb60e11b81523060048201526001600160a01b03918216602482015291169063c9c65396906044016020604051808303816000875af11580156113bf573d6000803e3d6000fd5b505050506040513d601f19601f820116820180604052508101906113e39190612b2a565b600e80546001600160a01b0319166001600160a01b038316908117909155909150610e75906001611bad565b6005546001600160a01b031633146114395760405162461bcd60e51b81526004016109bc90612ac7565b6001600160a01b038216600081815260106020908152604091829020805460ff19168515159081179091558251938452908301527f2d43abd87b27cee7b0aa8c6f7e0b4a3247b683262a83cbc2318b0df398a49aa99101610a7d565b6005546001600160a01b031633146114bf5760405162461bcd60e51b81526004016109bc90612ac7565b6001600160a01b0381166115245760405162461bcd60e51b815260206004820152602660248201527f4f776e61626c653a206e6577206f776e657220697320746865207a65726f206160448201526564647265737360d01b60648201526084016109bc565b610d5e81611c1e565b6005546001600160a01b031633146115575760405162461bcd60e51b81526004016109bc90612ac7565b600880546001600160a01b0319166001600160a01b0383169081179091556040519081527f51dfd292339ab698578c8343af87553c60fccc367fd4003b45a8b9e87897b53890602001610e27565b6001600160a01b0383166116075760405162461bcd60e51b8152602060048201526024808201527f45524332303a20617070726f76652066726f6d20746865207a65726f206164646044820152637265737360e01b60648201526084016109bc565b6001600160a01b0382166116685760405162461bcd60e51b815260206004820152602260248201527f45524332303a20617070726f766520746f20746865207a65726f206164647265604482015261737360f01b60648201526084016109bc565b6001600160a01b0383811660008181526001602090815260408083209487168084529482529182902085905590518481527f8c5be1e5ebec7d5bd14f71427d1e84f3dd0314c0f7b2291e5b200ac8c7c3b925910160405180910390a3505050565b6001600160a01b03838116600090815260016020908152604080832093861683529290522054600019811461175557818110156117485760405162461bcd60e51b815260206004820152601d60248201527f45524332303a20696e73756666696369656e7420616c6c6f77616e636500000060448201526064016109bc565b61175584848484036115a5565b50505050565b600754600160a01b900460ff1615801561177e5750600654600160a01b900460ff165b80156117a357506001600160a01b03831660009081526010602052604090205460ff16155b80156117c857506001600160a01b03821660009081526010602052604090205460ff16155b1561183c5760065460405163090ec10b60e31b81526001600160a01b03858116600483015284811660248301526044820184905290911690634876085890606401600060405180830381600087803b15801561182357600080fd5b505af1158015611837573d6000803e3d6000fd5b505050505b6001600160a01b0383166118625760405162461bcd60e51b81526004016109bc90612b6d565b6001600160a01b0382166118885760405162461bcd60e51b81526004016109bc90612bb2565b30600090815260208190526040902054600a546007549082101590600160a01b900460ff161580156118b75750805b80156118db57506001600160a01b03841660009081526011602052604090205460ff165b156118e8576118e8611c70565b6007546000908190600160a01b900460ff1615801561192057506001600160a01b03871660009081526010602052604090205460ff16155b801561194557506001600160a01b03861660009081526010602052604090205460ff16155b15611a8e576001600160a01b03871660009081526011602052604090205460ff16156119c1576007546103e89061198790600160b81b900461ffff1687612bf5565b6119919190612c14565b6007549092506103e8906119b090600160d81b900461ffff1687612bf5565b6119ba9190612c14565b9050611a34565b6001600160a01b03861660009081526011602052604090205460ff1615611a34576007546103e8906119fe90600160a81b900461ffff1687612bf5565b611a089190612c14565b6007549092506103e890611a2790600160c81b900461ffff1687612bf5565b611a319190612c14565b90505b6000611a408284612b12565b90508015611a5357611a538830836122e4565b81611a5e8488612c36565b611a689190612c36565b955082601254611a789190612b12565b601255601354611a89908390612b12565b601355505b611a998787876122e4565b600754600160a01b900460ff16611ba4576001600160a01b0387166000908152600f602052604090205460ff16611b1b57600c548510611b1b5760405162461bcd60e51b815260206004820152601d60248201527f45524332303a2065786365656473207472616e73666572206c696d697400000060448201526064016109bc565b6001600160a01b0386166000908152600f602052604090205460ff16611ba457600b546001600160a01b03871660009081526020819052604090205410611ba45760405162461bcd60e51b815260206004820152601f60248201527f45524332303a2065786365656473206d61782077616c6c6574206c696d69740060448201526064016109bc565b50505050505050565b6001600160a01b0382166000818152601160209081526040808320805486151560ff199182168117909255600f845293829020805490941681179093558051938452908301919091527fffa9187bf1f18bf477bd0ea1bcbb64e93b6a98132473929edfce215cd9b16fab9101610a7d565b600580546001600160a01b038381166001600160a01b0319831681179093556040519116919082907f8be0079c531659141344cd1fd0a4f28419497f9722a3daafe3b4186f6b6457e090600090a35050565b6007805460ff60a01b1916600160a01b1790553060009081526020819052604081205490506000601354601254611ca79190612b12565b9050801580611cb557508082105b15611cc15750506122d5565b60006002601254611cd29190612c14565b90506000600d60009054906101000a90046001600160a01b03166001600160a01b031663ad5c46486040518163ffffffff1660e01b8152600401602060405180830381865afa158015611d29573d6000803e3d6000fd5b505050506040513d601f19601f82011682018060405250810190611d4d9190612b2a565b6007546001600160a01b03908116911614611dd3576007546040516370a0823160e01b81523060048201526001600160a01b03909116906370a0823190602401602060405180830381865afa158015611daa573d6000803e3d6000fd5b505050506040513d601f19601f82011682018060405250810190611dce9190612c4d565b611dd5565b475b600954909150600090600160a01b900460ff16156120f757611e0360135484611dfe9190612b12565b612438565b600d54604080516315ab88c960e31b815290516000926001600160a01b03169163ad5c46489160048083019260209291908290030181865afa158015611e4d573d6000803e3d6000fd5b505050506040513d601f19601f82011682018060405250810190611e719190612b2a565b6007546001600160a01b03908116911614611f01576007546040516370a0823160e01b815230600482015284916001600160a01b0316906370a0823190602401602060405180830381865afa158015611ece573d6000803e3d6000fd5b505050506040513d601f19601f82011682018060405250810190611ef29190612c4d565b611efc9190612c36565b611f0b565b611f0b8347612c36565b9050600060135485611f1d9190612b12565b601354611f2a9084612bf5565b611f349190612c14565b9050611f408183612c36565b9250600d60009054906101000a90046001600160a01b03166001600160a01b031663ad5c46486040518163ffffffff1660e01b8152600401602060405180830381865afa158015611f95573d6000803e3d6000fd5b505050506040513d601f19601f82011682018060405250810190611fb99190612b2a565b6007546001600160a01b03918216911603612036576009546040516000916001600160a01b03169083908381818185875af1925050503d806000811461201b576040519150601f19603f3d011682016040523d82523d6000602084013e612020565b606091505b5050905080156120305760006013555b506120b6565b60075460095460405163a9059cbb60e01b81526001600160a01b0391821660048201526024810184905291169063a9059cbb906044016020604051808303816000875af115801561208b573d6000803e3d6000fd5b505050506040513d601f19601f820116820180604052508101906120af9190612c66565b5060006013555b6040805160008152602081018390527f6f92bce3e91466137aa4d5474fe565c002872fb18ed6af4a856959be0a81277a910160405180910390a15050612271565b61210083612438565b600d60009054906101000a90046001600160a01b03166001600160a01b031663ad5c46486040518163ffffffff1660e01b8152600401602060405180830381865afa158015612153573d6000803e3d6000fd5b505050506040513d601f19601f820116820180604052508101906121779190612b2a565b6007546001600160a01b03908116911614612207576007546040516370a0823160e01b815230600482015283916001600160a01b0316906370a0823190602401602060405180830381865afa1580156121d4573d6000803e3d6000fd5b505050506040513d601f19601f820116820180604052508101906121f89190612c4d565b6122029190612c36565b612211565b6122118247612c36565b60095460135491925061222f9130916001600160a01b03169061175b565b60135460408051918252600060208301527f6f92bce3e91466137aa4d5474fe565c002872fb18ed6af4a856959be0a81277a910160405180910390a160006013555b6000831180156122815750600081115b156122ca57612290838261263e565b60408051848152602081018390527f28fc98272ce761178794ad6768050fea1648e07f1e2ffe15afd3a290f8381486910160405180910390a15b505060006012555050505b6007805460ff60a01b19169055565b6001600160a01b03831661230a5760405162461bcd60e51b81526004016109bc90612b6d565b6001600160a01b0382166123305760405162461bcd60e51b81526004016109bc90612bb2565b6001600160a01b038316600090815260208190526040902054818110156123a85760405162461bcd60e51b815260206004820152602660248201527f45524332303a207472616e7366657220616d6f756e7420657863656564732062604482015265616c616e636560d01b60648201526084016109bc565b6001600160a01b038085166000908152602081905260408082208585039055918516815290812080548492906123df908490612b12565b92505081905550826001600160a01b0316846001600160a01b03167fddf252ad1be2c89b69c2b068fc378daa952ba7f163c4a11628f55a4df523b3ef8460405161242b91815260200190565b60405180910390a3611755565b604080516002808252606082018352600092602083019080368337019050509050308160008151811061246d5761246d612c83565b6001600160a01b03928316602091820292909201015260075482519116908290600190811061249e5761249e612c83565b6001600160a01b03928316602091820292909201810191909152600d54604080516315ab88c960e31b81529051919093169263ad5c46489260048083019391928290030181865afa1580156124f7573d6000803e3d6000fd5b505050506040513d601f19601f8201168201806040525081019061251b9190612b2a565b6001600160a01b03168160018151811061253757612537612c83565b60200260200101516001600160a01b0316036125d457600d546125659030906001600160a01b0316846115a5565b600d5460405163791ac94760e01b81526001600160a01b039091169063791ac9479061259e908590600090869030904290600401612cdd565b600060405180830381600087803b1580156125b857600080fd5b505af11580156125cc573d6000803e3d6000fd5b505050505050565b6125f33073617715a9bf6dd62d1beb70f29914fcf821933b39846115a5565b600d54604051637274ca1b60e11b815273617715a9bf6dd62d1beb70f29914fcf821933b399163e4e994369161259e916001600160a01b031690869060009087904290600401612d19565b600d546126569030906001600160a01b0316846115a5565b600754600d5460405163095ea7b360e01b81526001600160a01b0391821660048201526024810184905291169063095ea7b3906044016020604051808303816000875af11580156126ab573d6000803e3d6000fd5b505050506040513d601f19601f820116820180604052508101906126cf9190612c66565b50600d60009054906101000a90046001600160a01b03166001600160a01b031663ad5c46486040518163ffffffff1660e01b8152600401602060405180830381865afa158015612723573d6000803e3d6000fd5b505050506040513d601f19601f820116820180604052508101906127479190612b2a565b6007546001600160a01b039182169116036127f857600d5460085460405163f305d71960e01b81523060048201526024810185905260006044820181905260648201526001600160a01b0391821660848201524260a482015291169063f305d71990839060c40160606040518083038185885af11580156127cc573d6000803e3d6000fd5b50505050506040513d601f19601f820116820180604052508101906127f19190612d58565b5050505050565b600d5460075460085460405162e8e33760e81b81523060048201526001600160a01b039283166024820152604481018690526064810185905260006084820181905260a482015290821660c48201524260e482015291169063e8e3370090610104016060604051808303816000875af1158015612879573d6000803e3d6000fd5b505050506040513d601f19601f820116820180604052508101906127f19190612d58565b600060208083528351808285015260005b818110156128ca578581018301518582016040015282016128ae565b818111156128dc576000604083870101525b50601f01601f1916929092016040019392505050565b6001600160a01b0381168114610d5e57600080fd5b6000806040838503121561291a57600080fd5b8235612925816128f2565b946020939093013593505050565b60006020828403121561294557600080fd5b5035919050565b60008060006060848603121561296157600080fd5b833561296c816128f2565b9250602084013561297c816128f2565b929592945050506040919091013590565b8015158114610d5e57600080fd5b600080604083850312156129ae57600080fd5b82356129b9816128f2565b915060208301356129c98161298d565b809150509250929050565b6000602082840312156129e657600080fd5b81356129f18161298d565b9392505050565b600060208284031215612a0a57600080fd5b81356129f1816128f2565b803561ffff81168114612a2757600080fd5b919050565b60008060408385031215612a3f57600080fd5b612a4883612a15565b9150612a5660208401612a15565b90509250929050565b60008060408385031215612a7257600080fd5b8235612a7d816128f2565b915060208301356129c9816128f2565b600181811c90821680612aa157607f821691505b602082108103612ac157634e487b7160e01b600052602260045260246000fd5b50919050565b6020808252818101527f4f776e61626c653a2063616c6c6572206973206e6f7420746865206f776e6572604082015260600190565b634e487b7160e01b600052601160045260246000fd5b60008219821115612b2557612b25612afc565b500190565b600060208284031215612b3c57600080fd5b81516129f1816128f2565b600061ffff808316818516808303821115612b6457612b64612afc565b01949350505050565b60208082526025908201527f45524332303a207472616e736665722066726f6d20746865207a65726f206164604082015264647265737360d81b606082015260800190565b60208082526023908201527f45524332303a207472616e7366657220746f20746865207a65726f206164647260408201526265737360e81b606082015260800190565b6000816000190483118215151615612c0f57612c0f612afc565b500290565b600082612c3157634e487b7160e01b600052601260045260246000fd5b500490565b600082821015612c4857612c48612afc565b500390565b600060208284031215612c5f57600080fd5b5051919050565b600060208284031215612c7857600080fd5b81516129f18161298d565b634e487b7160e01b600052603260045260246000fd5b600081518084526020808501945080840160005b83811015612cd25781516001600160a01b031687529582019590820190600101612cad565b509495945050505050565b85815284602082015260a060408201526000612cfc60a0830186612c99565b6001600160a01b0394909416606083015250608001529392505050565b60018060a01b038616815284602082015283604082015260a060608201526000612d4660a0830185612c99565b90508260808301529695505050505050565b600080600060608486031215612d6d57600080fd5b835192506020840151915060408401519050925092509256fea26469706673582212201838e1cb522b1d709756aa4f58e4819a023312efa2d293ddd4111d2ed0538c9264736f6c634300080d0033",
  "linkReferences": {},
  "deployedLinkReferences": {}
}