{
  "_format": "hh-sol-artifact-1",
  "contractName": "StandardToken",
  "sourceName": "contracts/Tokens/StandardTokens/StandardToken.sol",
  "abi": [
    {
      "inputs": [
        {
          "internalType": "string",
          "name": "_name",
          "type": "string"
        },
        {
          "internalType": "string",
          "name": "_symbol",
          "type": "string"
        },
        {
          "internalType": "uint8",
          "name": "__decimals",
          "type": "uint8"
        },
        {
          "internalType": "uint256",
          "name": "_totalSupply",
          "type": "uint256"
        },
        {
          "internalType": "uint256",
          "name": "_maxWallet",
          "type": "uint256"
        },
        {
          "internalType": "uint256",
          "name": "_maxTransactionAmount",
          "type": "uint256"
        },
        {
          "internalType": "address[3]",
          "name": "_accounts",
          "type": "address[3]"
        },
        {
          "internalType": "bool",
          "name": "_isMarketingFeeBaseToken",
          "type": "bool"
        },
        {
          "internalType": "uint16[4]",
          "name": "_fees",
          "type": "uint16[4]"
        }
      ],
      "stateMutability": "payable",
      "type": "constructor"
    },
    {
      "anonymous": false,
      "inputs": [
        {
          "indexed": true,
          "internalType": "address",
          "name": "owner",
          "type": "address"
        },
        {
          "indexed": true,
          "internalType": "address",
          "name": "spender",
          "type": "address"
        },
        {
          "indexed": false,
          "internalType": "uint256",
          "name": "value",
          "type": "uint256"
        }
      ],
      "name": "Approval",
      "type": "event"
    },
    {
      "anonymous": false,
      "inputs": [
        {
          "indexed": false,
          "internalType": "address",
          "name": "account",
          "type": "address"
        },
        {
          "indexed": false,
          "internalType": "bool",
          "name": "isEx",
          "type": "bool"
        }
      ],
      "name": "ExcludedFromFee",
      "type": "event"
    },
    {
      "anonymous": false,
      "inputs": [
        {
          "indexed": false,
          "internalType": "address",
          "name": "account",
          "type": "address"
        },
        {
          "indexed": false,
          "internalType": "bool",
          "name": "isExcluded",
          "type": "bool"
        }
      ],
      "name": "ExcludedFromMaxTransactionAmount",
      "type": "event"
    },
    {
      "anonymous": false,
      "inputs": [
        {
          "indexed": false,
          "internalType": "uint256",
          "name": "marketingFeeTokens",
          "type": "uint256"
        },
        {
          "indexed": false,
          "internalType": "uint256",
          "name": "marketingFeeBaseTokenSwapped",
          "type": "uint256"
        }
      ],
      "name": "MarketingFeeTaken",
      "type": "event"
    },
    {
      "anonymous": false,
      "inputs": [
        {
          "indexed": true,
          "internalType": "address",
          "name": "previousOwner",
          "type": "address"
        },
        {
          "indexed": true,
          "internalType": "address",
          "name": "newOwner",
          "type": "address"
        }
      ],
      "name": "OwnershipTransferred",
      "type": "event"
    },
    {
      "anonymous": false,
      "inputs": [
        {
          "indexed": false,
          "internalType": "address",
          "name": "pair",
          "type": "address"
        },
        {
          "indexed": false,
          "internalType": "bool",
          "name": "value",
          "type": "bool"
        }
      ],
      "name": "SetAutomatedMarketMakerPair",
      "type": "event"
    },
    {
      "anonymous": false,
      "inputs": [
        {
          "indexed": false,
          "internalType": "uint256",
          "name": "tokensForLiquidity",
          "type": "uint256"
        },
        {
          "indexed": false,
          "internalType": "uint256",
          "name": "baseTokenForLiquidity",
          "type": "uint256"
        }
      ],
      "name": "SwapAndLiquify",
      "type": "event"
    },
    {
      "anonymous": false,
      "inputs": [
        {
          "indexed": true,
          "internalType": "address",
          "name": "from",
          "type": "address"
        },
        {
          "indexed": true,
          "internalType": "address",
          "name": "to",
          "type": "address"
        },
        {
          "indexed": false,
          "internalType": "uint256",
          "name": "value",
          "type": "uint256"
        }
      ],
      "name": "Transfer",
      "type": "event"
    },
    {
      "anonymous": false,
      "inputs": [
        {
          "indexed": false,
          "internalType": "uint16",
          "name": "sellLiquidityFee",
          "type": "uint16"
        },
        {
          "indexed": false,
          "internalType": "uint16",
          "name": "buyLiquidityFee",
          "type": "uint16"
        }
      ],
      "name": "UpdateLiquidityFee",
      "type": "event"
    },
    {
      "anonymous": false,
      "inputs": [
        {
          "indexed": false,
          "internalType": "uint16",
          "name": "sellMarketingFee",
          "type": "uint16"
        },
        {
          "indexed": false,
          "internalType": "uint16",
          "name": "buyMarketingFee",
          "type": "uint16"
        }
      ],
      "name": "UpdateMarketingFee",
      "type": "event"
    },
    {
      "anonymous": false,
      "inputs": [
        {
          "indexed": false,
          "internalType": "address",
          "name": "marketingWallet",
          "type": "address"
        },
        {
          "indexed": false,
          "internalType": "bool",
          "name": "isMarketingFeeBaseToken",
          "type": "bool"
        }
      ],
      "name": "UpdateMarketingWallet",
      "type": "event"
    },
    {
      "anonymous": false,
      "inputs": [
        {
          "indexed": false,
          "internalType": "uint256",
          "name": "minAmountToTakeFee",
          "type": "uint256"
        }
      ],
      "name": "UpdateMinAmountToTakeFee",
      "type": "event"
    },
    {
      "anonymous": false,
      "inputs": [
        {
          "indexed": false,
          "internalType": "address",
          "name": "newAddress",
          "type": "address"
        },
        {
          "indexed": false,
          "internalType": "address",
          "name": "oldRouter",
          "type": "address"
        }
      ],
      "name": "UpdatePancakeRouter",
      "type": "event"
    },
    {
      "inputs": [
        {
          "internalType": "address",
          "name": "owner",
          "type": "address"
        },
        {
          "internalType": "address",
          "name": "spender",
          "type": "address"
        }
      ],
      "name": "allowance",
      "outputs": [
        {
          "internalType": "uint256",
          "name": "",
          "type": "uint256"
        }
      ],
      "stateMutability": "view",
      "type": "function"
    },
    {
      "inputs": [
        {
          "internalType": "address",
          "name": "spender",
          "type": "address"
        },
        {
          "internalType": "uint256",
          "name": "amount",
          "type": "uint256"
        }
      ],
      "name": "approve",
      "outputs": [
        {
          "internalType": "bool",
          "name": "",
          "type": "bool"
        }
      ],
      "stateMutability": "nonpayable",
      "type": "function"
    },
    {
      "inputs": [
        {
          "internalType": "address",
          "name": "",
          "type": "address"
        }
      ],
      "name": "automatedMarketMakerPairs",
      "outputs": [
        {
          "internalType": "bool",
          "name": "",
          "type": "bool"
        }
      ],
      "stateMutability": "view",
      "type": "function"
    },
    {
      "inputs": [
        {
          "internalType": "address",
          "name": "account",
          "type": "address"
        }
      ],
      "name": "balanceOf",
      "outputs": [
        {
          "internalType": "uint256",
          "name": "",
          "type": "uint256"
        }
      ],
      "stateMutability": "view",
      "type": "function"
    },
    {
      "inputs": [],
      "name": "baseTokenForPair",
      "outputs": [
        {
          "internalType": "address",
          "name": "",
          "type": "address"
        }
      ],
      "stateMutability": "view",
      "type": "function"
    },
    {
      "inputs": [],
      "name": "buyLiquidityFee",
      "outputs": [
        {
          "internalType": "uint16",
          "name": "",
          "type": "uint16"
        }
      ],
      "stateMutability": "view",
      "type": "function"
    },
    {
      "inputs": [],
      "name": "buyMarketingFee",
      "outputs": [
        {
          "internalType": "uint16",
          "name": "",
          "type": "uint16"
        }
      ],
      "stateMutability": "view",
      "type": "function"
    },
    {
      "inputs": [],
      "name": "decimals",
      "outputs": [
        {
          "internalType": "uint8",
          "name": "",
          "type": "uint8"
        }
      ],
      "stateMutability": "view",
      "type": "function"
    },
    {
      "inputs": [
        {
          "internalType": "address",
          "name": "spender",
          "type": "address"
        },
        {
          "internalType": "uint256",
          "name": "subtractedValue",
          "type": "uint256"
        }
      ],
      "name": "decreaseAllowance",
      "outputs": [
        {
          "internalType": "bool",
          "name": "",
          "type": "bool"
        }
      ],
      "stateMutability": "nonpayable",
      "type": "function"
    },
    {
      "inputs": [
        {
          "internalType": "address",
          "name": "account",
          "type": "address"
        },
        {
          "internalType": "bool",
          "name": "isEx",
          "type": "bool"
        }
      ],
      "name": "excludeFromFee",
      "outputs": [],
      "stateMutability": "nonpayable",
      "type": "function"
    },
    {
      "inputs": [
        {
          "internalType": "address",
          "name": "account",
          "type": "address"
        },
        {
          "internalType": "bool",
          "name": "isEx",
          "type": "bool"
        }
      ],
      "name": "excludeFromMaxTransactionAmount",
      "outputs": [],
      "stateMutability": "nonpayable",
      "type": "function"
    },
    {
      "inputs": [
        {
          "internalType": "address",
          "name": "spender",
          "type": "address"
        },
        {
          "internalType": "uint256",
          "name": "addedValue",
          "type": "uint256"
        }
      ],
      "name": "increaseAllowance",
      "outputs": [
        {
          "internalType": "bool",
          "name": "",
          "type": "bool"
        }
      ],
      "stateMutability": "nonpayable",
      "type": "function"
    },
    {
      "inputs": [
        {
          "internalType": "address",
          "name": "",
          "type": "address"
        }
      ],
      "name": "isExcludedFromFee",
      "outputs": [
        {
          "internalType": "bool",
          "name": "",
          "type": "bool"
        }
      ],
      "stateMutability": "view",
      "type": "function"
    },
    {
      "inputs": [
        {
          "internalType": "address",
          "name": "",
          "type": "address"
        }
      ],
      "name": "isExcludedFromMaxTransactionAmount",
      "outputs": [
        {
          "internalType": "bool",
          "name": "",
          "type": "bool"
        }
      ],
      "stateMutability": "view",
      "type": "function"
    },
    {
      "inputs": [],
      "name": "isMarketingFeeBaseToken",
      "outputs": [
        {
          "internalType": "bool",
          "name": "",
          "type": "bool"
        }
      ],
      "stateMutability": "view",
      "type": "function"
    },
    {
      "inputs": [],
      "name": "mainPair",
      "outputs": [
        {
          "internalType": "address",
          "name": "",
          "type": "address"
        }
      ],
      "stateMutability": "view",
      "type": "function"
    },
    {
      "inputs": [],
      "name": "mainRouter",
      "outputs": [
        {
          "internalType": "contract IPancakeRouter02",
          "name": "",
          "type": "address"
        }
      ],
      "stateMutability": "view",
      "type": "function"
    },
    {
      "inputs": [],
      "name": "marketingWallet",
      "outputs": [
        {
          "internalType": "address",
          "name": "",
          "type": "address"
        }
      ],
      "stateMutability": "view",
      "type": "function"
    },
    {
      "inputs": [],
      "name": "maxTransactionAmount",
      "outputs": [
        {
          "internalType": "uint256",
          "name": "",
          "type": "uint256"
        }
      ],
      "stateMutability": "view",
      "type": "function"
    },
    {
      "inputs": [],
      "name": "maxWallet",
      "outputs": [
        {
          "internalType": "uint256",
          "name": "",
          "type": "uint256"
        }
      ],
      "stateMutability": "view",
      "type": "function"
    },
    {
      "inputs": [],
      "name": "minAmountToTakeFee",
      "outputs": [
        {
          "internalType": "uint256",
          "name": "",
          "type": "uint256"
        }
      ],
      "stateMutability": "view",
      "type": "function"
    },
    {
      "inputs": [],
      "name": "name",
      "outputs": [
        {
          "internalType": "string",
          "name": "",
          "type": "string"
        }
      ],
      "stateMutability": "view",
      "type": "function"
    },
    {
      "inputs": [],
      "name": "owner",
      "outputs": [
        {
          "internalType": "address",
          "name": "",
          "type": "address"
        }
      ],
      "stateMutability": "view",
      "type": "function"
    },
    {
      "inputs": [],
      "name": "pancakeCaller",
      "outputs": [
        {
          "internalType": "contract IPancakeCaller",
          "name": "",
          "type": "address"
        }
      ],
      "stateMutability": "view",
      "type": "function"
    },
    {
      "inputs": [],
      "name": "renounceOwnership",
      "outputs": [],
      "stateMutability": "nonpayable",
      "type": "function"
    },
    {
      "inputs": [],
      "name": "sellLiquidityFee",
      "outputs": [
        {
          "internalType": "uint16",
          "name": "",
          "type": "uint16"
        }
      ],
      "stateMutability": "view",
      "type": "function"
    },
    {
      "inputs": [],
      "name": "sellMarketingFee",
      "outputs": [
        {
          "internalType": "uint16",
          "name": "",
          "type": "uint16"
        }
      ],
      "stateMutability": "view",
      "type": "function"
    },
    {
      "inputs": [
        {
          "internalType": "address",
          "name": "pair",
          "type": "address"
        },
        {
          "internalType": "bool",
          "name": "value",
          "type": "bool"
        }
      ],
      "name": "setAutomatedMarketMakerPair",
      "outputs": [],
      "stateMutability": "nonpayable",
      "type": "function"
    },
    {
      "inputs": [],
      "name": "symbol",
      "outputs": [
        {
          "internalType": "string",
          "name": "",
          "type": "string"
        }
      ],
      "stateMutability": "view",
      "type": "function"
    },
    {
      "inputs": [],
      "name": "totalSupply",
      "outputs": [
        {
          "internalType": "uint256",
          "name": "",
          "type": "uint256"
        }
      ],
      "stateMutability": "view",
      "type": "function"
    },
    {
      "inputs": [
        {
          "internalType": "address",
          "name": "to",
          "type": "address"
        },
        {
          "internalType": "uint256",
          "name": "amount",
          "type": "uint256"
        }
      ],
      "name": "transfer",
      "outputs": [
        {
          "internalType": "bool",
          "name": "",
          "type": "bool"
        }
      ],
      "stateMutability": "nonpayable",
      "type": "function"
    },
    {
      "inputs": [
        {
          "internalType": "address",
          "name": "from",
          "type": "address"
        },
        {
          "internalType": "address",
          "name": "to",
          "type": "address"
        },
        {
          "internalType": "uint256",
          "name": "amount",
          "type": "uint256"
        }
      ],
      "name": "transferFrom",
      "outputs": [
        {
          "internalType": "bool",
          "name": "",
          "type": "bool"
        }
      ],
      "stateMutability": "nonpayable",
      "type": "function"
    },
    {
      "inputs": [
        {
          "internalType": "address",
          "name": "newOwner",
          "type": "address"
        }
      ],
      "name": "transferOwnership",
      "outputs": [],
      "stateMutability": "nonpayable",
      "type": "function"
    },
    {
      "inputs": [
        {
          "internalType": "uint16",
          "name": "_sellLiquidityFee",
          "type": "uint16"
        },
        {
          "internalType": "uint16",
          "name": "_buyLiquidityFee",
          "type": "uint16"
        }
      ],
      "name": "updateLiquidityFee",
      "outputs": [],
      "stateMutability": "nonpayable",
      "type": "function"
    },
    {
      "inputs": [
        {
          "internalType": "uint16",
          "name": "_sellMarketingFee",
          "type": "uint16"
        },
        {
          "internalType": "uint16",
          "name": "_buyMarketingFee",
          "type": "uint16"
        }
      ],
      "name": "updateMarketingFee",
      "outputs": [],
      "stateMutability": "nonpayable",
      "type": "function"
    },
    {
      "inputs": [
        {
          "internalType": "address",
          "name": "_marketingWallet",
          "type": "address"
        },
        {
          "internalType": "bool",
          "name": "_isMarketingFeeBaseToken",
          "type": "bool"
        }
      ],
      "name": "updateMarketingWallet",
      "outputs": [],
      "stateMutability": "nonpayable",
      "type": "function"
    },
    {
      "inputs": [
        {
          "internalType": "uint256",
          "name": "_maxTransactionAmount",
          "type": "uint256"
        }
      ],
      "name": "updateMaxTransactionAmount",
      "outputs": [],
      "stateMutability": "nonpayable",
      "type": "function"
    },
    {
      "inputs": [
        {
          "internalType": "uint256",
          "name": "_maxWallet",
          "type": "uint256"
        }
      ],
      "name": "updateMaxWallet",
      "outputs": [],
      "stateMutability": "nonpayable",
      "type": "function"
    },
    {
      "inputs": [
        {
          "internalType": "uint256",
          "name": "_minAmountToTakeFee",
          "type": "uint256"
        }
      ],
      "name": "updateMinAmountToTakeFee",
      "outputs": [],
      "stateMutability": "nonpayable",
      "type": "function"
    },
    {
      "inputs": [
        {
          "internalType": "address",
          "name": "_baseTokenForPair",
          "type": "address"
        }
      ],
      "name": "updatePancakePair",
      "outputs": [],
      "stateMutability": "nonpayable",
      "type": "function"
    },
    {
      "inputs": [
        {
          "internalType": "address",
          "name": "newAddress",
          "type": "address"
        }
      ],
      "name": "updatePancakeRouter",
      "outputs": [],
      "stateMutability": "nonpayable",
      "type": "function"
    },
    {
      "stateMutability": "payable",
      "type": "receive"
    }
  ],
  "bytecode": "0x60806040526040516200375138038062003751833981016040819052620000269162000a41565b8851899089906200003f90600390602085019062000797565b5080516200005590600490602084019062000797565b505050620000726200006c620005e460201b60201c565b620005e8565b670de0b6b3a7640000341015620000c15760405162461bcd60e51b815260206004820152600e60248201526d6e6f7420656e6f7567682066656560901b60448201526064015b60405180910390fd5b6040516000907354e7032579b327238057c3723a166fbb8705f5ea9034908381818185875af1925050503d806000811462000119576040519150601f19603f3d011682016040523d82523d6000602084013e6200011e565b606091505b5050905080620001715760405162461bcd60e51b815260206004820152601460248201527f6661696c20746f207472616e73666572206665650000000000000000000000006044820152606401620000b8565b6005805460ff60a01b1916600160a01b60ff8b16021790556200019533886200063a565b6040840151600680546001600160a01b0319166001600160a01b03928316179055845116620002075760405162461bcd60e51b815260206004820152601d60248201527f6d61726b6574696e672077616c6c65742063616e206e6f7420626520300000006044820152606401620000b8565b60208401516001600160a01b0316620002635760405162461bcd60e51b815260206004820152601b60248201527f526f7574657220616464726573732063616e206e6f74206265203000000000006044820152606401620000b8565b6040820151825161012c91620002799162000b35565b61ffff1611156200028957600080fd5b6060820151602083015161012c91620002a29162000b35565b61ffff161115620002b257600080fd5b8351600780546001600160a01b039283166001600160a01b031991821617909155602080870151600b805491909416921682179092556040805163c45a015560e01b81529051919263c45a0155926004808401938290030181865afa15801562000320573d6000803e3d6000fd5b505050506040513d601f19601f8201168201806040525081019062000346919062000b5e565b6006546040516364e329cb60e11b81523060048201526001600160a01b03918216602482015291169063c9c65396906044016020604051808303816000875af115801562000398573d6000803e3d6000fd5b505050506040513d601f19601f82011682018060405250810190620003be919062000b5e565b600c80546001600160a01b0319166001600160a01b039290921691909117905584620003e957600080fd5b60008611620003f757600080fd5b6009869055600a8590556007805460ff60a01b1916600160a01b8515150217905581516006805460208501516040860151606087015161ffff908116600160d81b02928116600160b81b0263ffffffff60a81b19909416958116600160a81b0261ffff60b81b1916959095179290921763ffffffff60c81b191693909116600160c81b0261ffff60d81b1916929092179190911790556200049b6127108862000b83565b600855306000908152600e602081905260408083208054600160ff1991821681179092556007546001600160a01b031685529184208054909216811790915591620004e33390565b6001600160a01b03908116825260208083019390935260409182016000908120805495151560ff199687161790557ff77e91909e61d18f67b875b2bfcae1f683a8d555e55382e3a6b082e2c59ea57a805486166001908117909155600d948590527fdc7fafdc41998a74ecacb8f8bd877011aba1f1d03a3a0d37a2e7879a393b1d6a80548716821790553082528382208054871682179055600754909216815291822080549094168117909355620005983390565b6001600160a01b0390811682526020820192909252604001600020805460ff191692151592909217909155600c54620005d4911660016200071f565b5050505050505050505062000bfd565b3390565b600580546001600160a01b038381166001600160a01b0319831681179093556040519116919082907f8be0079c531659141344cd1fd0a4f28419497f9722a3daafe3b4186f6b6457e090600090a35050565b6001600160a01b038216620006925760405162461bcd60e51b815260206004820152601f60248201527f45524332303a206d696e7420746f20746865207a65726f2061646472657373006044820152606401620000b8565b8060026000828254620006a6919062000ba6565b90915550506001600160a01b03821660009081526020819052604081208054839290620006d590849062000ba6565b90915550506040518181526001600160a01b038316906000907fddf252ad1be2c89b69c2b068fc378daa952ba7f163c4a11628f55a4df523b3ef9060200160405180910390a35050565b6001600160a01b0382166000818152600f60209081526040808320805486151560ff199182168117909255600d845293829020805490941681179093558051938452908301919091527fffa9187bf1f18bf477bd0ea1bcbb64e93b6a98132473929edfce215cd9b16fab910160405180910390a15050565b828054620007a59062000bc1565b90600052602060002090601f016020900481019282620007c9576000855562000814565b82601f10620007e457805160ff191683800117855562000814565b8280016001018555821562000814579182015b8281111562000814578251825591602001919060010190620007f7565b506200082292915062000826565b5090565b5b8082111562000822576000815560010162000827565b634e487b7160e01b600052604160045260246000fd5b604051601f8201601f191681016001600160401b03811182821017156200087e576200087e6200083d565b604052919050565b600082601f8301126200089857600080fd5b81516001600160401b03811115620008b457620008b46200083d565b6020620008ca601f8301601f1916820162000853565b8281528582848701011115620008df57600080fd5b60005b83811015620008ff578581018301518282018401528201620008e2565b83811115620009115760008385840101525b5095945050505050565b80516001600160a01b03811681146200093357600080fd5b919050565b600082601f8301126200094a57600080fd5b604051606081016001600160401b03811182821017156200096f576200096f6200083d565b6040528060608401858111156200098557600080fd5b845b81811015620009aa576200099b816200091b565b83526020928301920162000987565b509195945050505050565b805180151581146200093357600080fd5b600082601f830112620009d857600080fd5b604051608081016001600160401b0381118282101715620009fd57620009fd6200083d565b60405280608084018581111562000a1357600080fd5b845b81811015620009aa57805161ffff8116811462000a325760008081fd5b83526020928301920162000a15565b60008060008060008060008060006101c08a8c03121562000a6157600080fd5b89516001600160401b038082111562000a7957600080fd5b62000a878d838e0162000886565b9a5060208c015191508082111562000a9e57600080fd5b5062000aad8c828d0162000886565b98505060408a015160ff8116811462000ac557600080fd5b8097505060608a0151955060808a0151945060a08a0151935062000aed8b60c08c0162000938565b925062000afe6101208b01620009b5565b915062000b108b6101408c01620009c6565b90509295985092959850929598565b634e487b7160e01b600052601160045260246000fd5b600061ffff80831681851680830382111562000b555762000b5562000b1f565b01949350505050565b60006020828403121562000b7157600080fd5b62000b7c826200091b565b9392505050565b60008262000ba157634e487b7160e01b600052601260045260246000fd5b500490565b6000821982111562000bbc5762000bbc62000b1f565b500190565b600181811c9082168062000bd657607f821691505b60208210810362000bf757634e487b7160e01b600052602260045260246000fd5b50919050565b612b448062000c0d6000396000f3fe60806040526004361061024a5760003560e01c80639213691311610139578063cf188ad0116100b6578063e9481eee1161007a578063e9481eee14610750578063f11a24d314610780578063f2fde38b146107a2578063f6374342146107c2578063f8b45b05146107e4578063fc59d23d146107fa57600080fd5b8063cf188ad01461068a578063d68f8cde146106aa578063d880cd85146106ca578063dd62ed3e146106ea578063df8408fe1461073057600080fd5b8063a9059cbb116100fd578063a9059cbb146105e4578063aa49802314610604578063b62496f514610624578063c8c8ebe414610654578063cf089e131461066a57600080fd5b8063921369131461054557806392586f5e1461056757806395d89b411461058f5780639a7a23d6146105a4578063a457c2d7146105c457600080fd5b806357e62b98116101c757806375f0a8741161018b57806375f0a8741461047a5780637bce5a04146104b25780637cf84bd7146104e757806385af30c5146105075780638da5cb5b1461052757600080fd5b806357e62b98146103ce5780635f2d95ad146103ef57806370a082311461040f578063715018a61461044557806373b9e82c1461045a57600080fd5b80632ae2f1211161020e5780632ae2f12114610312578063313ce56714610332578063395093511461035e5780634707c5511461037e5780635342acb41461039e57600080fd5b806306fdde0314610256578063095ea7b31461028157806318160ddd146102b15780631c499ab0146102d057806323b872dd146102f257600080fd5b3661025157005b600080fd5b34801561026257600080fd5b5061026b610810565b6040516102789190612642565b60405180910390f35b34801561028d57600080fd5b506102a161029c3660046126ac565b6108a2565b6040519015158152602001610278565b3480156102bd57600080fd5b506002545b604051908152602001610278565b3480156102dc57600080fd5b506102f06102eb3660046126d8565b6108ba565b005b3480156102fe57600080fd5b506102a161030d3660046126f1565b6108ff565b34801561031e57600080fd5b506102f061032d366004612740565b610923565b34801561033e57600080fd5b50600554600160a01b900460ff1660405160ff9091168152602001610278565b34801561036a57600080fd5b506102a16103793660046126ac565b6109b1565b34801561038a57600080fd5b506102f0610399366004612740565b6109f0565b3480156103aa57600080fd5b506102a16103b9366004612779565b600e6020526000908152604090205460ff1681565b3480156103da57600080fd5b506007546102a190600160a01b900460ff1681565b3480156103fb57600080fd5b506102f061040a366004612779565b610aef565b34801561041b57600080fd5b506102c261042a366004612779565b6001600160a01b031660009081526020819052604090205490565b34801561045157600080fd5b506102f0610c41565b34801561046657600080fd5b506102f06104753660046126d8565b610c77565b34801561048657600080fd5b5060075461049a906001600160a01b031681565b6040516001600160a01b039091168152602001610278565b3480156104be57600080fd5b506006546104d490600160d81b900461ffff1681565b60405161ffff9091168152602001610278565b3480156104f357600080fd5b5060065461049a906001600160a01b031681565b34801561051357600080fd5b50600c5461049a906001600160a01b031681565b34801561053357600080fd5b506005546001600160a01b031661049a565b34801561055157600080fd5b506006546104d490600160c81b900461ffff1681565b34801561057357600080fd5b5061049a73617715a9bf6dd62d1beb70f29914fcf821933b3981565b34801561059b57600080fd5b5061026b610d11565b3480156105b057600080fd5b506102f06105bf366004612740565b610d20565b3480156105d057600080fd5b506102a16105df3660046126ac565b610d58565b3480156105f057600080fd5b506102a16105ff3660046126ac565b610dea565b34801561061057600080fd5b506102f061061f3660046126d8565b610df8565b34801561063057600080fd5b506102a161063f366004612779565b600f6020526000908152604090205460ff1681565b34801561066057600080fd5b506102c2600a5481565b34801561067657600080fd5b506102f06106853660046127b4565b610e34565b34801561069657600080fd5b50600b5461049a906001600160a01b031681565b3480156106b657600080fd5b506102f06106c53660046127b4565b610f93565b3480156106d657600080fd5b506102f06106e5366004612779565b6110f2565b3480156106f657600080fd5b506102c26107053660046127e7565b6001600160a01b03918216600090815260016020908152604080832093909416825291909152205490565b34801561073c57600080fd5b506102f061074b366004612740565b6112ee565b34801561075c57600080fd5b506102a161076b366004612779565b600d6020526000908152604090205460ff1681565b34801561078c57600080fd5b506006546104d490600160b81b900461ffff1681565b3480156107ae57600080fd5b506102f06107bd366004612779565b611374565b3480156107ce57600080fd5b506006546104d490600160a81b900461ffff1681565b3480156107f057600080fd5b506102c260095481565b34801561080657600080fd5b506102c260085481565b60606003805461081f90612815565b80601f016020809104026020016040519081016040528092919081815260200182805461084b90612815565b80156108985780601f1061086d57610100808354040283529160200191610898565b820191906000526020600020905b81548152906001019060200180831161087b57829003601f168201915b5050505050905090565b6000336108b081858561140c565b5060019392505050565b6005546001600160a01b031633146108ed5760405162461bcd60e51b81526004016108e49061284f565b60405180910390fd5b600081116108fa57600080fd5b600955565b60003361090d858285611530565b6109188585856115c2565b506001949350505050565b6005546001600160a01b0316331461094d5760405162461bcd60e51b81526004016108e49061284f565b6001600160a01b0382166000818152600d6020908152604091829020805460ff19168515159081179091558251938452908301527f82170bbd72c16b30c410014b7382121a699ed119a182e48a0b6cadcc89104ac991015b60405180910390a15050565b3360008181526001602090815260408083206001600160a01b03871684529091528120549091906108b090829086906109eb90879061289a565b61140c565b6005546001600160a01b03163314610a1a5760405162461bcd60e51b81526004016108e49061284f565b6001600160a01b038216610a705760405162461bcd60e51b815260206004820152601b60248201527f6d61726b6574696e672077616c6c65742063616e27742062652030000000000060448201526064016108e4565b60078054821515600160a01b81026001600160a81b03199092166001600160a01b038681169182179390931784556000908152600e6020908152604091829020805460ff191660011790559354815193168352928201527f5ddebadd13549f5ff5b3c95499e6a1781606c1ed34a3d856d1f20694feade7bc91016109a5565b6005546001600160a01b03163314610b195760405162461bcd60e51b81526004016108e49061284f565b600680546001600160a01b0319166001600160a01b0383811691909117909155600b546040805163c45a015560e01b81529051919092169163c45a01559160048083019260209291908290030181865afa158015610b7b573d6000803e3d6000fd5b505050506040513d601f19601f82011682018060405250810190610b9f91906128b2565b6006546040516364e329cb60e11b81523060048201526001600160a01b03918216602482015291169063c9c65396906044016020604051808303816000875af1158015610bf0573d6000803e3d6000fd5b505050506040513d601f19601f82011682018060405250810190610c1491906128b2565b600c80546001600160a01b0319166001600160a01b03929092169182179055610c3e906001611957565b50565b6005546001600160a01b03163314610c6b5760405162461bcd60e51b81526004016108e49061284f565b610c7560006119c8565b565b6005546001600160a01b03163314610ca15760405162461bcd60e51b81526004016108e49061284f565b60008111610cd65760405162461bcd60e51b815260206004820152600260248201526103e360f41b60448201526064016108e4565b60088190556040518181527f37e5d1260bc61b4faf5a9f8f5415209eb753f52c24812cdb9d7b97608225fbcf9060200160405180910390a150565b60606004805461081f90612815565b6005546001600160a01b03163314610d4a5760405162461bcd60e51b81526004016108e49061284f565b610d548282611957565b5050565b3360008181526001602090815260408083206001600160a01b038716845290915281205490919083811015610ddd5760405162461bcd60e51b815260206004820152602560248201527f45524332303a2064656372656173656420616c6c6f77616e63652062656c6f77604482015264207a65726f60d81b60648201526084016108e4565b610918828686840361140c565b6000336108b08185856115c2565b6005546001600160a01b03163314610e225760405162461bcd60e51b81526004016108e49061284f565b60008111610e2f57600080fd5b600a55565b6005546001600160a01b03163314610e5e5760405162461bcd60e51b81526004016108e49061284f565b60065461012c90610e7a90600160a81b900461ffff16846128cf565b61ffff161115610ebe5760405162461bcd60e51b815260206004820152600f60248201526e73656c6c20666565203c3d2033302560881b60448201526064016108e4565b60065461012c90610eda90600160b81b900461ffff16836128cf565b61ffff161115610f1d5760405162461bcd60e51b815260206004820152600e60248201526d62757920666565203c3d2033302560901b60448201526064016108e4565b6006805463ffffffff60c81b1916600160c81b61ffff858116820261ffff60d81b191692909217600160d81b858416810291909117938490556040805192850484168352930490911660208201527fc433fa5a836cf3b35353a9ebf4716a022a575f13c5930eff724bf1868d46faba91016109a5565b6005546001600160a01b03163314610fbd5760405162461bcd60e51b81526004016108e49061284f565b60065461012c90610fd990600160c81b900461ffff16846128cf565b61ffff16111561101d5760405162461bcd60e51b815260206004820152600f60248201526e73656c6c20666565203c3d2033302560881b60448201526064016108e4565b60065461012c9061103990600160d81b900461ffff16836128cf565b61ffff16111561107c5760405162461bcd60e51b815260206004820152600e60248201526d62757920666565203c3d2033302560901b60448201526064016108e4565b6006805463ffffffff60a81b1916600160a81b61ffff858116820261ffff60b81b191692909217600160b81b858416810291909117938490556040805192850484168352930490911660208201527f6be4281a0a58f1eac9e075b5f649c8aa8f5471d018dd25dbd8cd52fdfb8fbb9391016109a5565b6005546001600160a01b0316331461111c5760405162461bcd60e51b81526004016108e49061284f565b600b546001600160a01b03908116908216036111865760405162461bcd60e51b815260206004820152602360248201527f54686520726f7574657220616c7265616479206861732074686174206164647260448201526265737360e81b60648201526084016108e4565b600b54604080516001600160a01b03808516825290921660208301527f51cb6825f043d6550a1cbb70cdd407e9ca7523e4a1ff93812b00168d1ca2565d910160405180910390a1600b80546001600160a01b0319166001600160a01b0383169081179091556040805163c45a015560e01b815290516000929163c45a01559160048083019260209291908290030181865afa158015611229573d6000803e3d6000fd5b505050506040513d601f19601f8201168201806040525081019061124d91906128b2565b6006546040516364e329cb60e11b81523060048201526001600160a01b03918216602482015291169063c9c65396906044016020604051808303816000875af115801561129e573d6000803e3d6000fd5b505050506040513d601f19601f820116820180604052508101906112c291906128b2565b600c80546001600160a01b0319166001600160a01b038316908117909155909150610d54906001611957565b6005546001600160a01b031633146113185760405162461bcd60e51b81526004016108e49061284f565b6001600160a01b0382166000818152600e6020908152604091829020805460ff19168515159081179091558251938452908301527f2d43abd87b27cee7b0aa8c6f7e0b4a3247b683262a83cbc2318b0df398a49aa991016109a5565b6005546001600160a01b0316331461139e5760405162461bcd60e51b81526004016108e49061284f565b6001600160a01b0381166114035760405162461bcd60e51b815260206004820152602660248201527f4f776e61626c653a206e6577206f776e657220697320746865207a65726f206160448201526564647265737360d01b60648201526084016108e4565b610c3e816119c8565b6001600160a01b03831661146e5760405162461bcd60e51b8152602060048201526024808201527f45524332303a20617070726f76652066726f6d20746865207a65726f206164646044820152637265737360e01b60648201526084016108e4565b6001600160a01b0382166114cf5760405162461bcd60e51b815260206004820152602260248201527f45524332303a20617070726f766520746f20746865207a65726f206164647265604482015261737360f01b60648201526084016108e4565b6001600160a01b0383811660008181526001602090815260408083209487168084529482529182902085905590518481527f8c5be1e5ebec7d5bd14f71427d1e84f3dd0314c0f7b2291e5b200ac8c7c3b925910160405180910390a3505050565b6001600160a01b0383811660009081526001602090815260408083209386168352929052205460001981146115bc57818110156115af5760405162461bcd60e51b815260206004820152601d60248201527f45524332303a20696e73756666696369656e7420616c6c6f77616e636500000060448201526064016108e4565b6115bc848484840361140c565b50505050565b6001600160a01b0383166115e85760405162461bcd60e51b81526004016108e4906128f5565b6001600160a01b03821661160e5760405162461bcd60e51b81526004016108e49061293a565b306000908152602081905260409020546008546006549082101590600160a01b900460ff161580156116585750600c546001600160a01b0316600090815260208190526040812054115b80156116615750805b801561168557506001600160a01b0384166000908152600f602052604090205460ff165b1561169257611692611a1a565b6006546000908190600160a01b900460ff161580156116ca57506001600160a01b0387166000908152600e602052604090205460ff16155b80156116ef57506001600160a01b0386166000908152600e602052604090205460ff16155b15611838576001600160a01b0387166000908152600f602052604090205460ff161561176b576006546103e89061173190600160b81b900461ffff168761297d565b61173b919061299c565b6006549092506103e89061175a90600160d81b900461ffff168761297d565b611764919061299c565b90506117de565b6001600160a01b0386166000908152600f602052604090205460ff16156117de576006546103e8906117a890600160a81b900461ffff168761297d565b6117b2919061299c565b6006549092506103e8906117d190600160c81b900461ffff168761297d565b6117db919061299c565b90505b60006117ea828461289a565b905080156117fd576117fd88308361208e565b8161180884886129be565b61181291906129be565b955082601054611822919061289a565b60105560115461183390839061289a565b601155505b61184387878761208e565b600654600160a01b900460ff1661194e576001600160a01b0387166000908152600d602052604090205460ff166118c557600a5485106118c55760405162461bcd60e51b815260206004820152601d60248201527f45524332303a2065786365656473207472616e73666572206c696d697400000060448201526064016108e4565b6001600160a01b0386166000908152600d602052604090205460ff1661194e576009546001600160a01b0387166000908152602081905260409020541061194e5760405162461bcd60e51b815260206004820152601f60248201527f45524332303a2065786365656473206d61782077616c6c6574206c696d69740060448201526064016108e4565b50505050505050565b6001600160a01b0382166000818152600f60209081526040808320805486151560ff199182168117909255600d845293829020805490941681179093558051938452908301919091527fffa9187bf1f18bf477bd0ea1bcbb64e93b6a98132473929edfce215cd9b16fab91016109a5565b600580546001600160a01b038381166001600160a01b0319831681179093556040519116919082907f8be0079c531659141344cd1fd0a4f28419497f9722a3daafe3b4186f6b6457e090600090a35050565b6006805460ff60a01b1916600160a01b1790553060009081526020819052604081205490506000601154601054611a51919061289a565b9050801580611a5f57508082105b15611a6b57505061207f565b60006002601054611a7c919061299c565b90506000600b60009054906101000a90046001600160a01b03166001600160a01b031663ad5c46486040518163ffffffff1660e01b8152600401602060405180830381865afa158015611ad3573d6000803e3d6000fd5b505050506040513d601f19601f82011682018060405250810190611af791906128b2565b6006546001600160a01b03908116911614611b7d576006546040516370a0823160e01b81523060048201526001600160a01b03909116906370a0823190602401602060405180830381865afa158015611b54573d6000803e3d6000fd5b505050506040513d601f19601f82011682018060405250810190611b7891906129d5565b611b7f565b475b600754909150600090600160a01b900460ff1615611ea157611bad60115484611ba8919061289a565b6121e2565b600b54604080516315ab88c960e31b815290516000926001600160a01b03169163ad5c46489160048083019260209291908290030181865afa158015611bf7573d6000803e3d6000fd5b505050506040513d601f19601f82011682018060405250810190611c1b91906128b2565b6006546001600160a01b03908116911614611cab576006546040516370a0823160e01b815230600482015284916001600160a01b0316906370a0823190602401602060405180830381865afa158015611c78573d6000803e3d6000fd5b505050506040513d601f19601f82011682018060405250810190611c9c91906129d5565b611ca691906129be565b611cb5565b611cb583476129be565b9050600060115485611cc7919061289a565b601154611cd4908461297d565b611cde919061299c565b9050611cea81836129be565b9250600b60009054906101000a90046001600160a01b03166001600160a01b031663ad5c46486040518163ffffffff1660e01b8152600401602060405180830381865afa158015611d3f573d6000803e3d6000fd5b505050506040513d601f19601f82011682018060405250810190611d6391906128b2565b6006546001600160a01b03918216911603611de0576007546040516000916001600160a01b03169083908381818185875af1925050503d8060008114611dc5576040519150601f19603f3d011682016040523d82523d6000602084013e611dca565b606091505b505090508015611dda5760006011555b50611e60565b60065460075460405163a9059cbb60e01b81526001600160a01b0391821660048201526024810184905291169063a9059cbb906044016020604051808303816000875af1158015611e35573d6000803e3d6000fd5b505050506040513d601f19601f82011682018060405250810190611e5991906129ee565b5060006011555b6040805160008152602081018390527f6f92bce3e91466137aa4d5474fe565c002872fb18ed6af4a856959be0a81277a910160405180910390a1505061201b565b611eaa836121e2565b600b60009054906101000a90046001600160a01b03166001600160a01b031663ad5c46486040518163ffffffff1660e01b8152600401602060405180830381865afa158015611efd573d6000803e3d6000fd5b505050506040513d601f19601f82011682018060405250810190611f2191906128b2565b6006546001600160a01b03908116911614611fb1576006546040516370a0823160e01b815230600482015283916001600160a01b0316906370a0823190602401602060405180830381865afa158015611f7e573d6000803e3d6000fd5b505050506040513d601f19601f82011682018060405250810190611fa291906129d5565b611fac91906129be565b611fbb565b611fbb82476129be565b600754601154919250611fd99130916001600160a01b0316906115c2565b60115460408051918252600060208301527f6f92bce3e91466137aa4d5474fe565c002872fb18ed6af4a856959be0a81277a910160405180910390a160006011555b60008311801561202b5750600081115b156120745761203a83826123e8565b60408051848152602081018390527f28fc98272ce761178794ad6768050fea1648e07f1e2ffe15afd3a290f8381486910160405180910390a15b505060006010555050505b6006805460ff60a01b19169055565b6001600160a01b0383166120b45760405162461bcd60e51b81526004016108e4906128f5565b6001600160a01b0382166120da5760405162461bcd60e51b81526004016108e49061293a565b6001600160a01b038316600090815260208190526040902054818110156121525760405162461bcd60e51b815260206004820152602660248201527f45524332303a207472616e7366657220616d6f756e7420657863656564732062604482015265616c616e636560d01b60648201526084016108e4565b6001600160a01b0380851660009081526020819052604080822085850390559185168152908120805484929061218990849061289a565b92505081905550826001600160a01b0316846001600160a01b03167fddf252ad1be2c89b69c2b068fc378daa952ba7f163c4a11628f55a4df523b3ef846040516121d591815260200190565b60405180910390a36115bc565b604080516002808252606082018352600092602083019080368337019050509050308160008151811061221757612217612a0b565b6001600160a01b03928316602091820292909201015260065482519116908290600190811061224857612248612a0b565b6001600160a01b03928316602091820292909201810191909152600b54604080516315ab88c960e31b81529051919093169263ad5c46489260048083019391928290030181865afa1580156122a1573d6000803e3d6000fd5b505050506040513d601f19601f820116820180604052508101906122c591906128b2565b6001600160a01b0316816001815181106122e1576122e1612a0b565b60200260200101516001600160a01b03160361237e57600b5461230f9030906001600160a01b03168461140c565b600b5460405163791ac94760e01b81526001600160a01b039091169063791ac94790612348908590600090869030904290600401612a65565b600060405180830381600087803b15801561236257600080fd5b505af1158015612376573d6000803e3d6000fd5b505050505050565b61239d3073617715a9bf6dd62d1beb70f29914fcf821933b398461140c565b600b54604051637274ca1b60e11b815273617715a9bf6dd62d1beb70f29914fcf821933b399163e4e9943691612348916001600160a01b031690869060009087904290600401612aa1565b600b546124009030906001600160a01b03168461140c565b600654600b5460405163095ea7b360e01b81526001600160a01b0391821660048201526024810184905291169063095ea7b3906044016020604051808303816000875af1158015612455573d6000803e3d6000fd5b505050506040513d601f19601f8201168201806040525081019061247991906129ee565b50600b60009054906101000a90046001600160a01b03166001600160a01b031663ad5c46486040518163ffffffff1660e01b8152600401602060405180830381865afa1580156124cd573d6000803e3d6000fd5b505050506040513d601f19601f820116820180604052508101906124f191906128b2565b6006546001600160a01b039182169116036125a057600b5460405163f305d71960e01b815230600482015260248101849052600060448201819052606482015261dead60848201524260a48201526001600160a01b039091169063f305d71990839060c40160606040518083038185885af1158015612574573d6000803e3d6000fd5b50505050506040513d601f19601f820116820180604052508101906125999190612ae0565b5050505050565b600b5460065460405162e8e33760e81b81523060048201526001600160a01b039182166024820152604481018590526064810184905260006084820181905260a482015261dead60c48201524260e482015291169063e8e3370090610104016060604051808303816000875af115801561261e573d6000803e3d6000fd5b505050506040513d601f19601f820116820180604052508101906125999190612ae0565b600060208083528351808285015260005b8181101561266f57858101830151858201604001528201612653565b81811115612681576000604083870101525b50601f01601f1916929092016040019392505050565b6001600160a01b0381168114610c3e57600080fd5b600080604083850312156126bf57600080fd5b82356126ca81612697565b946020939093013593505050565b6000602082840312156126ea57600080fd5b5035919050565b60008060006060848603121561270657600080fd5b833561271181612697565b9250602084013561272181612697565b929592945050506040919091013590565b8015158114610c3e57600080fd5b6000806040838503121561275357600080fd5b823561275e81612697565b9150602083013561276e81612732565b809150509250929050565b60006020828403121561278b57600080fd5b813561279681612697565b9392505050565b803561ffff811681146127af57600080fd5b919050565b600080604083850312156127c757600080fd5b6127d08361279d565b91506127de6020840161279d565b90509250929050565b600080604083850312156127fa57600080fd5b823561280581612697565b9150602083013561276e81612697565b600181811c9082168061282957607f821691505b60208210810361284957634e487b7160e01b600052602260045260246000fd5b50919050565b6020808252818101527f4f776e61626c653a2063616c6c6572206973206e6f7420746865206f776e6572604082015260600190565b634e487b7160e01b600052601160045260246000fd5b600082198211156128ad576128ad612884565b500190565b6000602082840312156128c457600080fd5b815161279681612697565b600061ffff8083168185168083038211156128ec576128ec612884565b01949350505050565b60208082526025908201527f45524332303a207472616e736665722066726f6d20746865207a65726f206164604082015264647265737360d81b606082015260800190565b60208082526023908201527f45524332303a207472616e7366657220746f20746865207a65726f206164647260408201526265737360e81b606082015260800190565b600081600019048311821515161561299757612997612884565b500290565b6000826129b957634e487b7160e01b600052601260045260246000fd5b500490565b6000828210156129d0576129d0612884565b500390565b6000602082840312156129e757600080fd5b5051919050565b600060208284031215612a0057600080fd5b815161279681612732565b634e487b7160e01b600052603260045260246000fd5b600081518084526020808501945080840160005b83811015612a5a5781516001600160a01b031687529582019590820190600101612a35565b509495945050505050565b85815284602082015260a060408201526000612a8460a0830186612a21565b6001600160a01b0394909416606083015250608001529392505050565b60018060a01b038616815284602082015283604082015260a060608201526000612ace60a0830185612a21565b90508260808301529695505050505050565b600080600060608486031215612af557600080fd5b835192506020840151915060408401519050925092509256fea26469706673582212205e0fb3bf91208feb2e28a72ee311dca234413c6283ddd4a1f54bebc176fc2acc64736f6c634300080d0033",
  "linkReferences": {},
  "deployedLinkReferences": {}
}