{
  "_format": "hh-sol-artifact-1",
  "contractName": "DividendTokenWithAntibot",
  "sourceName": "contracts/Tokens/DividendTokens/DividendTokenWithAntibot.sol",
  "abi": [
    {
      "inputs": [
        {
          "internalType": "string",
          "name": "name_",
          "type": "string"
        },
        {
          "internalType": "string",
          "name": "symbol_",
          "type": "string"
        },
        {
          "internalType": "uint8",
          "name": "decimals_",
          "type": "uint8"
        },
        {
          "internalType": "uint256",
          "name": "totalSupply_",
          "type": "uint256"
        },
        {
          "internalType": "uint256",
          "name": "_maxWallet",
          "type": "uint256"
        },
        {
          "internalType": "uint256",
          "name": "_maxTransactionAmount",
          "type": "uint256"
        },
        {
          "internalType": "address[6]",
          "name": "addrs",
          "type": "address[6]"
        },
        {
          "internalType": "uint16[6]",
          "name": "feeSettings",
          "type": "uint16[6]"
        },
        {
          "internalType": "uint256",
          "name": "minimumTokenBalanceForDividends_",
          "type": "uint256"
        },
        {
          "internalType": "uint8",
          "name": "_tokenForMarketingFee",
          "type": "uint8"
        }
      ],
      "stateMutability": "payable",
      "type": "constructor"
    },
    {
      "anonymous": false,
      "inputs": [
        {
          "indexed": true,
          "internalType": "address",
          "name": "owner",
          "type": "address"
        },
        {
          "indexed": true,
          "internalType": "address",
          "name": "spender",
          "type": "address"
        },
        {
          "indexed": false,
          "internalType": "uint256",
          "name": "value",
          "type": "uint256"
        }
      ],
      "name": "Approval",
      "type": "event"
    },
    {
      "anonymous": false,
      "inputs": [
        {
          "indexed": true,
          "internalType": "address",
          "name": "account",
          "type": "address"
        },
        {
          "indexed": false,
          "internalType": "bool",
          "name": "isExcluded",
          "type": "bool"
        }
      ],
      "name": "ExcludeFromFees",
      "type": "event"
    },
    {
      "anonymous": false,
      "inputs": [
        {
          "indexed": false,
          "internalType": "address",
          "name": "account",
          "type": "address"
        },
        {
          "indexed": false,
          "internalType": "bool",
          "name": "isExcluded",
          "type": "bool"
        }
      ],
      "name": "ExcludedFromMaxTransactionAmount",
      "type": "event"
    },
    {
      "anonymous": false,
      "inputs": [
        {
          "indexed": true,
          "internalType": "uint256",
          "name": "newValue",
          "type": "uint256"
        },
        {
          "indexed": true,
          "internalType": "uint256",
          "name": "oldValue",
          "type": "uint256"
        }
      ],
      "name": "GasForProcessingUpdated",
      "type": "event"
    },
    {
      "anonymous": false,
      "inputs": [
        {
          "indexed": true,
          "internalType": "address",
          "name": "newLiquidityWallet",
          "type": "address"
        },
        {
          "indexed": true,
          "internalType": "address",
          "name": "oldLiquidityWallet",
          "type": "address"
        }
      ],
      "name": "LiquidityWalletUpdated",
      "type": "event"
    },
    {
      "anonymous": false,
      "inputs": [
        {
          "indexed": true,
          "internalType": "address",
          "name": "newMarketingWallet",
          "type": "address"
        },
        {
          "indexed": true,
          "internalType": "address",
          "name": "oldMarketingWallet",
          "type": "address"
        }
      ],
      "name": "MarketingWalletUpdated",
      "type": "event"
    },
    {
      "anonymous": false,
      "inputs": [
        {
          "indexed": true,
          "internalType": "address",
          "name": "previousOwner",
          "type": "address"
        },
        {
          "indexed": true,
          "internalType": "address",
          "name": "newOwner",
          "type": "address"
        }
      ],
      "name": "OwnershipTransferred",
      "type": "event"
    },
    {
      "anonymous": false,
      "inputs": [
        {
          "indexed": false,
          "internalType": "uint256",
          "name": "iterations",
          "type": "uint256"
        },
        {
          "indexed": false,
          "internalType": "uint256",
          "name": "claims",
          "type": "uint256"
        },
        {
          "indexed": false,
          "internalType": "uint256",
          "name": "lastProcessedIndex",
          "type": "uint256"
        },
        {
          "indexed": true,
          "internalType": "bool",
          "name": "automatic",
          "type": "bool"
        },
        {
          "indexed": false,
          "internalType": "uint256",
          "name": "gas",
          "type": "uint256"
        },
        {
          "indexed": true,
          "internalType": "address",
          "name": "processor",
          "type": "address"
        }
      ],
      "name": "ProcessedDividendTracker",
      "type": "event"
    },
    {
      "anonymous": false,
      "inputs": [
        {
          "indexed": false,
          "internalType": "uint256",
          "name": "tokensSwapped",
          "type": "uint256"
        },
        {
          "indexed": false,
          "internalType": "uint256",
          "name": "amount",
          "type": "uint256"
        }
      ],
      "name": "SendDividends",
      "type": "event"
    },
    {
      "anonymous": false,
      "inputs": [
        {
          "indexed": true,
          "internalType": "address",
          "name": "pair",
          "type": "address"
        },
        {
          "indexed": true,
          "internalType": "bool",
          "name": "value",
          "type": "bool"
        }
      ],
      "name": "SetAutomatedMarketMakerPair",
      "type": "event"
    },
    {
      "anonymous": false,
      "inputs": [
        {
          "indexed": false,
          "internalType": "uint256",
          "name": "tokensSwapped",
          "type": "uint256"
        },
        {
          "indexed": false,
          "internalType": "uint256",
          "name": "ethReceived",
          "type": "uint256"
        },
        {
          "indexed": false,
          "internalType": "uint256",
          "name": "tokensIntoLiqudity",
          "type": "uint256"
        }
      ],
      "name": "SwapAndLiquify",
      "type": "event"
    },
    {
      "anonymous": false,
      "inputs": [
        {
          "indexed": true,
          "internalType": "address",
          "name": "from",
          "type": "address"
        },
        {
          "indexed": true,
          "internalType": "address",
          "name": "to",
          "type": "address"
        },
        {
          "indexed": false,
          "internalType": "uint256",
          "name": "value",
          "type": "uint256"
        }
      ],
      "name": "Transfer",
      "type": "event"
    },
    {
      "anonymous": false,
      "inputs": [
        {
          "indexed": true,
          "internalType": "address",
          "name": "newAddress",
          "type": "address"
        },
        {
          "indexed": true,
          "internalType": "address",
          "name": "oldAddress",
          "type": "address"
        }
      ],
      "name": "UpdateDividendTracker",
      "type": "event"
    },
    {
      "anonymous": false,
      "inputs": [
        {
          "indexed": false,
          "internalType": "uint16",
          "name": "sellLiquidityFee",
          "type": "uint16"
        },
        {
          "indexed": false,
          "internalType": "uint16",
          "name": "buyLiquidityFee",
          "type": "uint16"
        }
      ],
      "name": "UpdateLiquidityFee",
      "type": "event"
    },
    {
      "anonymous": false,
      "inputs": [
        {
          "indexed": false,
          "internalType": "uint16",
          "name": "sellMarketingFee",
          "type": "uint16"
        },
        {
          "indexed": false,
          "internalType": "uint16",
          "name": "buyMarketingFee",
          "type": "uint16"
        }
      ],
      "name": "UpdateMarketingFee",
      "type": "event"
    },
    {
      "anonymous": false,
      "inputs": [
        {
          "indexed": false,
          "internalType": "uint16",
          "name": "sellRewardFee",
          "type": "uint16"
        },
        {
          "indexed": false,
          "internalType": "uint16",
          "name": "buyRewardFee",
          "type": "uint16"
        }
      ],
      "name": "UpdateRewardFee",
      "type": "event"
    },
    {
      "anonymous": false,
      "inputs": [
        {
          "indexed": false,
          "internalType": "uint256",
          "name": "swapTokensAtAmount",
          "type": "uint256"
        }
      ],
      "name": "UpdateSwapTokensAtAmount",
      "type": "event"
    },
    {
      "anonymous": false,
      "inputs": [
        {
          "indexed": true,
          "internalType": "address",
          "name": "newAddress",
          "type": "address"
        },
        {
          "indexed": true,
          "internalType": "address",
          "name": "oldAddress",
          "type": "address"
        }
      ],
      "name": "UpdateUniswapV2Router",
      "type": "event"
    },
    {
      "inputs": [],
      "name": "_marketingWalletAddress",
      "outputs": [
        {
          "internalType": "address",
          "name": "",
          "type": "address"
        }
      ],
      "stateMutability": "view",
      "type": "function"
    },
    {
      "inputs": [
        {
          "internalType": "address",
          "name": "owner",
          "type": "address"
        },
        {
          "internalType": "address",
          "name": "spender",
          "type": "address"
        }
      ],
      "name": "allowance",
      "outputs": [
        {
          "internalType": "uint256",
          "name": "",
          "type": "uint256"
        }
      ],
      "stateMutability": "view",
      "type": "function"
    },
    {
      "inputs": [],
      "name": "antiBotEnabled",
      "outputs": [
        {
          "internalType": "bool",
          "name": "",
          "type": "bool"
        }
      ],
      "stateMutability": "view",
      "type": "function"
    },
    {
      "inputs": [
        {
          "internalType": "address",
          "name": "spender",
          "type": "address"
        },
        {
          "internalType": "uint256",
          "name": "amount",
          "type": "uint256"
        }
      ],
      "name": "approve",
      "outputs": [
        {
          "internalType": "bool",
          "name": "",
          "type": "bool"
        }
      ],
      "stateMutability": "nonpayable",
      "type": "function"
    },
    {
      "inputs": [
        {
          "internalType": "address",
          "name": "",
          "type": "address"
        }
      ],
      "name": "automatedMarketMakerPairs",
      "outputs": [
        {
          "internalType": "bool",
          "name": "",
          "type": "bool"
        }
      ],
      "stateMutability": "view",
      "type": "function"
    },
    {
      "inputs": [
        {
          "internalType": "address",
          "name": "account",
          "type": "address"
        }
      ],
      "name": "balanceOf",
      "outputs": [
        {
          "internalType": "uint256",
          "name": "",
          "type": "uint256"
        }
      ],
      "stateMutability": "view",
      "type": "function"
    },
    {
      "inputs": [],
      "name": "baseTokenForPair",
      "outputs": [
        {
          "internalType": "address",
          "name": "",
          "type": "address"
        }
      ],
      "stateMutability": "view",
      "type": "function"
    },
    {
      "inputs": [],
      "name": "buyLiquidityFee",
      "outputs": [
        {
          "internalType": "uint16",
          "name": "",
          "type": "uint16"
        }
      ],
      "stateMutability": "view",
      "type": "function"
    },
    {
      "inputs": [],
      "name": "buyMarketingFee",
      "outputs": [
        {
          "internalType": "uint16",
          "name": "",
          "type": "uint16"
        }
      ],
      "stateMutability": "view",
      "type": "function"
    },
    {
      "inputs": [],
      "name": "buyRewardFee",
      "outputs": [
        {
          "internalType": "uint16",
          "name": "",
          "type": "uint16"
        }
      ],
      "stateMutability": "view",
      "type": "function"
    },
    {
      "inputs": [],
      "name": "claim",
      "outputs": [],
      "stateMutability": "nonpayable",
      "type": "function"
    },
    {
      "inputs": [],
      "name": "decimals",
      "outputs": [
        {
          "internalType": "uint8",
          "name": "",
          "type": "uint8"
        }
      ],
      "stateMutability": "view",
      "type": "function"
    },
    {
      "inputs": [
        {
          "internalType": "address",
          "name": "spender",
          "type": "address"
        },
        {
          "internalType": "uint256",
          "name": "subtractedValue",
          "type": "uint256"
        }
      ],
      "name": "decreaseAllowance",
      "outputs": [
        {
          "internalType": "bool",
          "name": "",
          "type": "bool"
        }
      ],
      "stateMutability": "nonpayable",
      "type": "function"
    },
    {
      "inputs": [
        {
          "internalType": "address",
          "name": "account",
          "type": "address"
        }
      ],
      "name": "dividendTokenBalanceOf",
      "outputs": [
        {
          "internalType": "uint256",
          "name": "",
          "type": "uint256"
        }
      ],
      "stateMutability": "view",
      "type": "function"
    },
    {
      "inputs": [],
      "name": "dividendTracker",
      "outputs": [
        {
          "internalType": "address",
          "name": "",
          "type": "address"
        }
      ],
      "stateMutability": "view",
      "type": "function"
    },
    {
      "inputs": [
        {
          "internalType": "address",
          "name": "account",
          "type": "address"
        }
      ],
      "name": "excludeFromDividends",
      "outputs": [],
      "stateMutability": "nonpayable",
      "type": "function"
    },
    {
      "inputs": [
        {
          "internalType": "address",
          "name": "account",
          "type": "address"
        },
        {
          "internalType": "bool",
          "name": "excluded",
          "type": "bool"
        }
      ],
      "name": "excludeFromFees",
      "outputs": [],
      "stateMutability": "nonpayable",
      "type": "function"
    },
    {
      "inputs": [
        {
          "internalType": "address",
          "name": "account",
          "type": "address"
        },
        {
          "internalType": "bool",
          "name": "isEx",
          "type": "bool"
        }
      ],
      "name": "excludeFromMaxTransactionAmount",
      "outputs": [],
      "stateMutability": "nonpayable",
      "type": "function"
    },
    {
      "inputs": [],
      "name": "gasForProcessing",
      "outputs": [
        {
          "internalType": "uint256",
          "name": "",
          "type": "uint256"
        }
      ],
      "stateMutability": "view",
      "type": "function"
    },
    {
      "inputs": [],
      "name": "gemAntiBot",
      "outputs": [
        {
          "internalType": "address",
          "name": "",
          "type": "address"
        }
      ],
      "stateMutability": "view",
      "type": "function"
    },
    {
      "inputs": [
        {
          "internalType": "address",
          "name": "account",
          "type": "address"
        }
      ],
      "name": "getAccountDividendsInfo",
      "outputs": [
        {
          "internalType": "address",
          "name": "",
          "type": "address"
        },
        {
          "internalType": "int256",
          "name": "",
          "type": "int256"
        },
        {
          "internalType": "int256",
          "name": "",
          "type": "int256"
        },
        {
          "internalType": "uint256",
          "name": "",
          "type": "uint256"
        },
        {
          "internalType": "uint256",
          "name": "",
          "type": "uint256"
        },
        {
          "internalType": "uint256",
          "name": "",
          "type": "uint256"
        },
        {
          "internalType": "uint256",
          "name": "",
          "type": "uint256"
        },
        {
          "internalType": "uint256",
          "name": "",
          "type": "uint256"
        }
      ],
      "stateMutability": "view",
      "type": "function"
    },
    {
      "inputs": [
        {
          "internalType": "uint256",
          "name": "index",
          "type": "uint256"
        }
      ],
      "name": "getAccountDividendsInfoAtIndex",
      "outputs": [
        {
          "internalType": "address",
          "name": "",
          "type": "address"
        },
        {
          "internalType": "int256",
          "name": "",
          "type": "int256"
        },
        {
          "internalType": "int256",
          "name": "",
          "type": "int256"
        },
        {
          "internalType": "uint256",
          "name": "",
          "type": "uint256"
        },
        {
          "internalType": "uint256",
          "name": "",
          "type": "uint256"
        },
        {
          "internalType": "uint256",
          "name": "",
          "type": "uint256"
        },
        {
          "internalType": "uint256",
          "name": "",
          "type": "uint256"
        },
        {
          "internalType": "uint256",
          "name": "",
          "type": "uint256"
        }
      ],
      "stateMutability": "view",
      "type": "function"
    },
    {
      "inputs": [],
      "name": "getClaimWait",
      "outputs": [
        {
          "internalType": "uint256",
          "name": "",
          "type": "uint256"
        }
      ],
      "stateMutability": "view",
      "type": "function"
    },
    {
      "inputs": [],
      "name": "getLastProcessedIndex",
      "outputs": [
        {
          "internalType": "uint256",
          "name": "",
          "type": "uint256"
        }
      ],
      "stateMutability": "view",
      "type": "function"
    },
    {
      "inputs": [],
      "name": "getMinimumTokenBalanceForDividends",
      "outputs": [
        {
          "internalType": "uint256",
          "name": "",
          "type": "uint256"
        }
      ],
      "stateMutability": "view",
      "type": "function"
    },
    {
      "inputs": [],
      "name": "getNumberOfDividendTokenHolders",
      "outputs": [
        {
          "internalType": "uint256",
          "name": "",
          "type": "uint256"
        }
      ],
      "stateMutability": "view",
      "type": "function"
    },
    {
      "inputs": [],
      "name": "getTotalDividendsDistributed",
      "outputs": [
        {
          "internalType": "uint256",
          "name": "",
          "type": "uint256"
        }
      ],
      "stateMutability": "view",
      "type": "function"
    },
    {
      "inputs": [
        {
          "internalType": "address",
          "name": "spender",
          "type": "address"
        },
        {
          "internalType": "uint256",
          "name": "addedValue",
          "type": "uint256"
        }
      ],
      "name": "increaseAllowance",
      "outputs": [
        {
          "internalType": "bool",
          "name": "",
          "type": "bool"
        }
      ],
      "stateMutability": "nonpayable",
      "type": "function"
    },
    {
      "inputs": [
        {
          "internalType": "address",
          "name": "account",
          "type": "address"
        }
      ],
      "name": "isExcludedFromDividends",
      "outputs": [
        {
          "internalType": "bool",
          "name": "",
          "type": "bool"
        }
      ],
      "stateMutability": "view",
      "type": "function"
    },
    {
      "inputs": [
        {
          "internalType": "address",
          "name": "account",
          "type": "address"
        }
      ],
      "name": "isExcludedFromFees",
      "outputs": [
        {
          "internalType": "bool",
          "name": "",
          "type": "bool"
        }
      ],
      "stateMutability": "view",
      "type": "function"
    },
    {
      "inputs": [
        {
          "internalType": "address",
          "name": "",
          "type": "address"
        }
      ],
      "name": "isExcludedFromMaxTransactionAmount",
      "outputs": [
        {
          "internalType": "bool",
          "name": "",
          "type": "bool"
        }
      ],
      "stateMutability": "view",
      "type": "function"
    },
    {
      "inputs": [],
      "name": "maxTransactionAmount",
      "outputs": [
        {
          "internalType": "uint256",
          "name": "",
          "type": "uint256"
        }
      ],
      "stateMutability": "view",
      "type": "function"
    },
    {
      "inputs": [],
      "name": "maxWallet",
      "outputs": [
        {
          "internalType": "uint256",
          "name": "",
          "type": "uint256"
        }
      ],
      "stateMutability": "view",
      "type": "function"
    },
    {
      "inputs": [],
      "name": "name",
      "outputs": [
        {
          "internalType": "string",
          "name": "",
          "type": "string"
        }
      ],
      "stateMutability": "view",
      "type": "function"
    },
    {
      "inputs": [],
      "name": "owner",
      "outputs": [
        {
          "internalType": "address",
          "name": "",
          "type": "address"
        }
      ],
      "stateMutability": "view",
      "type": "function"
    },
    {
      "inputs": [],
      "name": "pancakeCaller",
      "outputs": [
        {
          "internalType": "contract IPancakeCaller",
          "name": "",
          "type": "address"
        }
      ],
      "stateMutability": "view",
      "type": "function"
    },
    {
      "inputs": [
        {
          "internalType": "uint256",
          "name": "gas",
          "type": "uint256"
        }
      ],
      "name": "processDividendTracker",
      "outputs": [],
      "stateMutability": "nonpayable",
      "type": "function"
    },
    {
      "inputs": [],
      "name": "renounceOwnership",
      "outputs": [],
      "stateMutability": "nonpayable",
      "type": "function"
    },
    {
      "inputs": [],
      "name": "rewardToken",
      "outputs": [
        {
          "internalType": "address",
          "name": "",
          "type": "address"
        }
      ],
      "stateMutability": "view",
      "type": "function"
    },
    {
      "inputs": [],
      "name": "sellLiquidityFee",
      "outputs": [
        {
          "internalType": "uint16",
          "name": "",
          "type": "uint16"
        }
      ],
      "stateMutability": "view",
      "type": "function"
    },
    {
      "inputs": [],
      "name": "sellMarketingFee",
      "outputs": [
        {
          "internalType": "uint16",
          "name": "",
          "type": "uint16"
        }
      ],
      "stateMutability": "view",
      "type": "function"
    },
    {
      "inputs": [],
      "name": "sellRewardFee",
      "outputs": [
        {
          "internalType": "uint16",
          "name": "",
          "type": "uint16"
        }
      ],
      "stateMutability": "view",
      "type": "function"
    },
    {
      "inputs": [
        {
          "internalType": "address",
          "name": "pair",
          "type": "address"
        },
        {
          "internalType": "bool",
          "name": "value",
          "type": "bool"
        }
      ],
      "name": "setAutomatedMarketMakerPair",
      "outputs": [],
      "stateMutability": "nonpayable",
      "type": "function"
    },
    {
      "inputs": [
        {
          "internalType": "address payable",
          "name": "wallet",
          "type": "address"
        }
      ],
      "name": "setMarketingWallet",
      "outputs": [],
      "stateMutability": "nonpayable",
      "type": "function"
    },
    {
      "inputs": [
        {
          "internalType": "uint256",
          "name": "amount",
          "type": "uint256"
        }
      ],
      "name": "setSwapTokensAtAmount",
      "outputs": [],
      "stateMutability": "nonpayable",
      "type": "function"
    },
    {
      "inputs": [
        {
          "internalType": "bool",
          "name": "enabled_",
          "type": "bool"
        }
      ],
      "name": "setUsingAntiBot",
      "outputs": [],
      "stateMutability": "nonpayable",
      "type": "function"
    },
    {
      "inputs": [],
      "name": "swapTokensAtAmount",
      "outputs": [
        {
          "internalType": "uint256",
          "name": "",
          "type": "uint256"
        }
      ],
      "stateMutability": "view",
      "type": "function"
    },
    {
      "inputs": [],
      "name": "symbol",
      "outputs": [
        {
          "internalType": "string",
          "name": "",
          "type": "string"
        }
      ],
      "stateMutability": "view",
      "type": "function"
    },
    {
      "inputs": [],
      "name": "tokenForMarketingFee",
      "outputs": [
        {
          "internalType": "address",
          "name": "",
          "type": "address"
        }
      ],
      "stateMutability": "view",
      "type": "function"
    },
    {
      "inputs": [],
      "name": "totalSupply",
      "outputs": [
        {
          "internalType": "uint256",
          "name": "",
          "type": "uint256"
        }
      ],
      "stateMutability": "view",
      "type": "function"
    },
    {
      "inputs": [
        {
          "internalType": "address",
          "name": "to",
          "type": "address"
        },
        {
          "internalType": "uint256",
          "name": "amount",
          "type": "uint256"
        }
      ],
      "name": "transfer",
      "outputs": [
        {
          "internalType": "bool",
          "name": "",
          "type": "bool"
        }
      ],
      "stateMutability": "nonpayable",
      "type": "function"
    },
    {
      "inputs": [
        {
          "internalType": "address",
          "name": "from",
          "type": "address"
        },
        {
          "internalType": "address",
          "name": "to",
          "type": "address"
        },
        {
          "internalType": "uint256",
          "name": "amount",
          "type": "uint256"
        }
      ],
      "name": "transferFrom",
      "outputs": [
        {
          "internalType": "bool",
          "name": "",
          "type": "bool"
        }
      ],
      "stateMutability": "nonpayable",
      "type": "function"
    },
    {
      "inputs": [
        {
          "internalType": "address",
          "name": "newOwner",
          "type": "address"
        }
      ],
      "name": "transferOwnership",
      "outputs": [],
      "stateMutability": "nonpayable",
      "type": "function"
    },
    {
      "inputs": [],
      "name": "uniswapV2Pair",
      "outputs": [
        {
          "internalType": "address",
          "name": "",
          "type": "address"
        }
      ],
      "stateMutability": "view",
      "type": "function"
    },
    {
      "inputs": [],
      "name": "uniswapV2Router",
      "outputs": [
        {
          "internalType": "address",
          "name": "",
          "type": "address"
        }
      ],
      "stateMutability": "view",
      "type": "function"
    },
    {
      "inputs": [
        {
          "internalType": "uint256",
          "name": "claimWait",
          "type": "uint256"
        }
      ],
      "name": "updateClaimWait",
      "outputs": [],
      "stateMutability": "nonpayable",
      "type": "function"
    },
    {
      "inputs": [
        {
          "internalType": "address",
          "name": "newAddress",
          "type": "address"
        }
      ],
      "name": "updateDividendTracker",
      "outputs": [],
      "stateMutability": "nonpayable",
      "type": "function"
    },
    {
      "inputs": [
        {
          "internalType": "uint256",
          "name": "newValue",
          "type": "uint256"
        }
      ],
      "name": "updateGasForProcessing",
      "outputs": [],
      "stateMutability": "nonpayable",
      "type": "function"
    },
    {
      "inputs": [
        {
          "internalType": "uint16",
          "name": "_sellLiquidityFee",
          "type": "uint16"
        },
        {
          "internalType": "uint16",
          "name": "_buyLiquidityFee",
          "type": "uint16"
        }
      ],
      "name": "updateLiquidityFee",
      "outputs": [],
      "stateMutability": "nonpayable",
      "type": "function"
    },
    {
      "inputs": [
        {
          "internalType": "uint16",
          "name": "_sellMarketingFee",
          "type": "uint16"
        },
        {
          "internalType": "uint16",
          "name": "_buyMarketingFee",
          "type": "uint16"
        }
      ],
      "name": "updateMarketingFee",
      "outputs": [],
      "stateMutability": "nonpayable",
      "type": "function"
    },
    {
      "inputs": [
        {
          "internalType": "uint256",
          "name": "_maxTransactionAmount",
          "type": "uint256"
        }
      ],
      "name": "updateMaxTransactionAmount",
      "outputs": [],
      "stateMutability": "nonpayable",
      "type": "function"
    },
    {
      "inputs": [
        {
          "internalType": "uint256",
          "name": "_maxWallet",
          "type": "uint256"
        }
      ],
      "name": "updateMaxWallet",
      "outputs": [],
      "stateMutability": "nonpayable",
      "type": "function"
    },
    {
      "inputs": [
        {
          "internalType": "uint256",
          "name": "amount",
          "type": "uint256"
        }
      ],
      "name": "updateMinimumTokenBalanceForDividends",
      "outputs": [],
      "stateMutability": "nonpayable",
      "type": "function"
    },
    {
      "inputs": [
        {
          "internalType": "uint16",
          "name": "_sellRewardFee",
          "type": "uint16"
        },
        {
          "internalType": "uint16",
          "name": "_buyRewardFee",
          "type": "uint16"
        }
      ],
      "name": "updateRewardFee",
      "outputs": [],
      "stateMutability": "nonpayable",
      "type": "function"
    },
    {
      "inputs": [
        {
          "internalType": "address",
          "name": "_baseTokenForPair",
          "type": "address"
        }
      ],
      "name": "updateUniswapV2Pair",
      "outputs": [],
      "stateMutability": "nonpayable",
      "type": "function"
    },
    {
      "inputs": [
        {
          "internalType": "address",
          "name": "newAddress",
          "type": "address"
        }
      ],
      "name": "updateUniswapV2Router",
      "outputs": [],
      "stateMutability": "nonpayable",
      "type": "function"
    },
    {
      "inputs": [
        {
          "internalType": "address",
          "name": "account",
          "type": "address"
        }
      ],
      "name": "withdrawableDividendOf",
      "outputs": [
        {
          "internalType": "uint256",
          "name": "",
          "type": "uint256"
        }
      ],
      "stateMutability": "view",
      "type": "function"
    },
    {
      "stateMutability": "payable",
      "type": "receive"
    }
  ],
  "bytecode": "0x608060405260405162005900380380620059008339810160408190526200002691620010b3565b89518a908a906200003f90600390602085019062000e1e565b5080516200005590600490602084019062000e1e565b505050620000726200006c6200097360201b60201c565b62000977565b686c6b935b8bbd400000341015620000c25760405162461bcd60e51b815260206004820152600e60248201526d6e6f7420656e6f7567682066656560901b60448201526064015b60405180910390fd5b60405160009073415a1ada879dd793d4168f28484de51d66ff6e1c9034908381818185875af1925050503d80600081146200011a576040519150601f19603f3d011682016040523d82523d6000602084013e6200011f565b606091505b5050905080620001725760405162461bcd60e51b815260206004820152601460248201527f6661696c20746f207472616e73666572206665650000000000000000000000006044820152606401620000b9565b600780548651600c80546001600160a01b039283166001600160a01b0319918216179091556040808a0151600e80546001600160601b03166c010000000000000000000000009286169290920291909117905560a08a015190921660ff8e16600160a81b0291909116600161ff0160a01b031990931692909217821790925590516318e02bd960e01b81523360048201526318e02bd990602401600060405180830381600087803b1580156200022757600080fd5b505af11580156200023c573d6000803e3d6000fd5b50506007805460ff60a01b1916600160a01b1790555050608085810151600880546001600160a01b0319166001600160a01b039092169190911790558451600e80546020880151604089015160608a0151958a015160a08b015161ffff9182169782166a01000000000000000000000293821666010000000000000263ffffffff60201b1990951696821664010000000090810261ffff60301b1916979097179490941763ffffffff60401b19169181166801000000000000000090810261ffff60501b1916929092179290921763ffffffff1916861762010000938316939093029283179384905561012c959282169092179362000343939283048216920416620011a9565b6200034f9190620011a9565b61ffff1611156200035f57600080fd5b600e5461012c9061ffff62010000820481169162000399916a010000000000000000000082048116916601000000000000900416620011a9565b620003a59190620011a9565b61ffff161115620003b557600080fd5b8160ff16600003620003d957600680546001600160a01b0319163017905562000430565b8160ff166001036200040d57600854600680546001600160a01b0319166001600160a01b0390921691909117905562000430565b600c54600680546001600160a01b0319166001600160a01b039092169190911790555b6200043e61271089620011d2565b600d55620493e0600f55620004658560036020020151620009c960201b620026271760201c565b600b80546001600160a01b0319166001600160a01b03928316908117909155600c5460405163cd6dc68760e01b815292166004830152602482018590529063cd6dc68790604401600060405180830381600087803b158015620004c757600080fd5b505af1158015620004dc573d6000803e3d6000fd5b5050505060008611620004ee57600080fd5b60008711620004fc57600080fd5b60108790556011869055602085810151600980546001600160a01b0319166001600160a01b0390921691821790556040805163c45a015560e01b81529051919263c45a0155926004808401938290030181865afa15801562000562573d6000803e3d6000fd5b505050506040513d601f19601f82011682018060405250810190620005889190620011f5565b6008546040516364e329cb60e11b81523060048201526001600160a01b03918216602482015291169063c9c65396906044016020604051808303816000875af1158015620005da573d6000803e3d6000fd5b505050506040513d601f19601f82011682018060405250810190620006009190620011f5565b600a80546001600160a01b0319166001600160a01b039290921691821790556200062c90600162000a78565b600b5460405163031e79db60e41b81526001600160a01b0390911660048201819052906331e79db090602401600060405180830381600087803b1580156200067357600080fd5b505af115801562000688573d6000803e3d6000fd5b5050600b5460405163031e79db60e41b81523060048201526001600160a01b0390911692506331e79db09150602401600060405180830381600087803b158015620006d257600080fd5b505af1158015620006e7573d6000803e3d6000fd5b5050600b546001600160a01b031691506331e79db09050620007116005546001600160a01b031690565b6040516001600160e01b031960e084901b1681526001600160a01b039091166004820152602401600060405180830381600087803b1580156200075357600080fd5b505af115801562000768573d6000803e3d6000fd5b5050600b5460405163031e79db60e41b815261dead60048201526001600160a01b0390911692506331e79db09150602401600060405180830381600087803b158015620007b457600080fd5b505af1158015620007c9573d6000803e3d6000fd5b5050600b5460095460405163031e79db60e41b81526001600160a01b039182166004820152911692506331e79db09150602401600060405180830381600087803b1580156200081757600080fd5b505af11580156200082c573d6000803e3d6000fd5b505050506200084c6200084462000c6f60201b60201c565b600162000c7e565b600e5462000875906c0100000000000000000000000090046001600160a01b0316600162000c7e565b6200088230600162000c7e565b6200089161dead600162000c7e565b601360208190527f2264e2d7bacabe6058f5009f42467b9be28015e7760f87409562384c94ac271c805460ff19908116600190811790925530600090815260408082208054841685179055600e546c0100000000000000000000000090046001600160a01b031682528120805490921683179091559091906200091c6005546001600160a01b031690565b6001600160a01b031681526020810191909152604001600020805460ff1916911515919091179055620009626200095b6005546001600160a01b031690565b8962000d39565b505050505050505050505062001295565b3390565b600580546001600160a01b038381166001600160a01b0319831681179093556040519116919082907f8be0079c531659141344cd1fd0a4f28419497f9722a3daafe3b4186f6b6457e090600090a35050565b60006040517f3d602d80600a3d3981f3363d3d373d3d3d363d7300000000000000000000000081528260601b60148201526e5af43d82803e903d91602b57fd5bf360881b60288201526037816000f09150506001600160a01b03811662000a735760405162461bcd60e51b815260206004820152601660248201527f455243313136373a20637265617465206661696c6564000000000000000000006044820152606401620000b9565b919050565b6001600160a01b03821660009081526016602052604090205481151560ff90911615150362000b105760405162461bcd60e51b815260206004820152603860248201527f4175746f6d61746564206d61726b6574206d616b65722070616972206973206160448201527f6c72656164792073657420746f20746861742076616c756500000000000000006064820152608401620000b9565b6001600160a01b038216600090815260166020908152604080832080548515801560ff1992831681179093556013909452919093208054909116909217909155819062000bcb5750600b5460405163c705c56960e01b81526001600160a01b0384811660048301529091169063c705c56990602401602060405180830381865afa15801562000ba3573d6000803e3d6000fd5b505050506040513d601f19601f8201168201806040525081019062000bc991906200121a565b155b1562000c3357600b5460405163031e79db60e41b81526001600160a01b038481166004830152909116906331e79db090602401600060405180830381600087803b15801562000c1957600080fd5b505af115801562000c2e573d6000803e3d6000fd5b505050505b604051811515906001600160a01b038416907fffa9187bf1f18bf477bd0ea1bcbb64e93b6a98132473929edfce215cd9b16fab90600090a35050565b6005546001600160a01b031690565b6005546001600160a01b0316331462000cda5760405162461bcd60e51b815260206004820181905260248201527f4f776e61626c653a2063616c6c6572206973206e6f7420746865206f776e65726044820152606401620000b9565b6001600160a01b038216600081815260126020908152604091829020805460ff191685151590811790915591519182527f9d8f7706ea1113d1a167b526eca956215946dd36cc7df39eb16180222d8b5df7910160405180910390a25050565b6001600160a01b03821662000d915760405162461bcd60e51b815260206004820152601f60248201527f45524332303a206d696e7420746f20746865207a65726f2061646472657373006044820152606401620000b9565b806002600082825462000da591906200123e565b90915550506001600160a01b0382166000908152602081905260408120805483929062000dd49084906200123e565b90915550506040518181526001600160a01b038316906000907fddf252ad1be2c89b69c2b068fc378daa952ba7f163c4a11628f55a4df523b3ef9060200160405180910390a35050565b82805462000e2c9062001259565b90600052602060002090601f01602090048101928262000e50576000855562000e9b565b82601f1062000e6b57805160ff191683800117855562000e9b565b8280016001018555821562000e9b579182015b8281111562000e9b57825182559160200191906001019062000e7e565b5062000ea992915062000ead565b5090565b5b8082111562000ea9576000815560010162000eae565b634e487b7160e01b600052604160045260246000fd5b60405160c081016001600160401b038111828210171562000eff5762000eff62000ec4565b60405290565b604051601f8201601f191681016001600160401b038111828210171562000f305762000f3062000ec4565b604052919050565b600082601f83011262000f4a57600080fd5b81516001600160401b0381111562000f665762000f6662000ec4565b602062000f7c601f8301601f1916820162000f05565b828152858284870101111562000f9157600080fd5b60005b8381101562000fb157858101830151828201840152820162000f94565b8381111562000fc35760008385840101525b5095945050505050565b805160ff8116811462000a7357600080fd5b80516001600160a01b038116811462000a7357600080fd5b600082601f8301126200100957600080fd5b6200101362000eda565b8060c08401858111156200102657600080fd5b845b818110156200104b576200103c8162000fdf565b84526020938401930162001028565b509095945050505050565b600082601f8301126200106857600080fd5b6200107262000eda565b8060c08401858111156200108557600080fd5b845b818110156200104b57805161ffff81168114620010a45760008081fd5b84526020938401930162001087565b6000806000806000806000806000806102808b8d031215620010d457600080fd5b8a516001600160401b0380821115620010ec57600080fd5b620010fa8e838f0162000f38565b9b5060208d01519150808211156200111157600080fd5b50620011208d828e0162000f38565b9950506200113160408c0162000fcd565b975060608b0151965060808b0151955060a08b01519450620011578c60c08d0162000ff7565b9350620011698c6101808d0162001056565b92506102408b01519150620011826102608c0162000fcd565b90509295989b9194979a5092959850565b634e487b7160e01b600052601160045260246000fd5b600061ffff808316818516808303821115620011c957620011c962001193565b01949350505050565b600082620011f057634e487b7160e01b600052601260045260246000fd5b500490565b6000602082840312156200120857600080fd5b620012138262000fdf565b9392505050565b6000602082840312156200122d57600080fd5b815180151581146200121357600080fd5b6000821982111562001254576200125462001193565b500190565b600181811c908216806200126e57607f821691505b6020821081036200128f57634e487b7160e01b600052602260045260246000fd5b50919050565b61465b80620012a56000396000f3fe6080604052600436106103e85760003560e01c806391c1004a11610208578063c705c56911610118578063e7841ec0116100ab578063f27fd2541161007a578063f27fd25414610c5b578063f2fde38b14610c7b578063f637434214610c9b578063f7c618c114610cbe578063f8b45b0514610cde57600080fd5b8063e7841ec014610bd4578063e9481eee14610be9578063e98030c714610c19578063f11a24d314610c3957600080fd5b8063d8c6404b116100e7578063d8c6404b14610b3c578063dd62ed3e14610b5d578063de0aad5314610ba3578063e2f4560514610bbe57600080fd5b8063c705c56914610ac6578063c8c8ebe414610ae6578063cf089e1314610afc578063d68f8cde14610b1c57600080fd5b8063a457c2d71161019b578063ad56c13c1161016a578063ad56c13c146109dc578063afa4f3b214610a41578063b62496f514610a61578063bdd4f29f14610a91578063c024666814610aa657600080fd5b8063a457c2d71461095c578063a8b9d2401461097c578063a9059cbb1461099c578063aa498023146109bc57600080fd5b806395d89b41116101d757806395d89b41146108fc5780639a7a23d6146109115780639c1b8af514610931578063a26579ad1461094757600080fd5b806391c1004a14610872578063921369131461089257806392586f5e146108b4578063948384dc146108dc57600080fd5b80634144d9e411610303578063700bb191116102965780637bce5a04116102655780637bce5a04146107d25780637cf84bd7146107f4578063871c128d1461081457806388bdd9be146108345780638da5cb5b1461085457600080fd5b8063700bb1911461074757806370a0823114610767578063715018a61461079d57806377ec7449146107b257600080fd5b80635d098b38116102d25780635d098b38146106d257806364b0f653146106f257806365b8dbc0146107075780636843cd841461072757600080fd5b80634144d9e41461063d57806349bd5a5e146106645780634e71d92d146106845780634fbee1931461069957600080fd5b80632ae2f1211161037b578063313ce5671161034a578063313ce567146105b157806331e79db0146105dd57806339509351146105fd5780633ad3e6ff1461061d57600080fd5b80632ae2f1211461053c5780632c1f52161461055c5780632d5fd55a1461057c57806330bb4cff1461059c57600080fd5b80631694505e116103b75780631694505e146104a557806318160ddd146104dd5780631c499ab0146104fc57806323b872dd1461051c57600080fd5b806306fdde03146103f4578063095ea7b31461041f5780630cfe2f3f1461044f5780630dcb2e891461048357600080fd5b366103ef57005b600080fd5b34801561040057600080fd5b50610409610cf4565b6040516104169190614086565b60405180910390f35b34801561042b57600080fd5b5061043f61043a3660046140f0565b610d86565b6040519015158152602001610416565b34801561045b57600080fd5b50600e546104709062010000900461ffff1681565b60405161ffff9091168152602001610416565b34801561048f57600080fd5b506104a361049e36600461411c565b610d9e565b005b3480156104b157600080fd5b506009546104c5906001600160a01b031681565b6040516001600160a01b039091168152602001610416565b3480156104e957600080fd5b506002545b604051908152602001610416565b34801561050857600080fd5b506104a361051736600461411c565b610e33565b34801561052857600080fd5b5061043f610537366004614135565b610e6f565b34801561054857600080fd5b506104a3610557366004614184565b610e93565b34801561056857600080fd5b50600b546104c5906001600160a01b031681565b34801561058857600080fd5b506104a36105973660046141bd565b610f21565b3480156105a857600080fd5b506104ee610f69565b3480156105bd57600080fd5b50600754600160a81b900460ff1660405160ff9091168152602001610416565b3480156105e957600080fd5b506104a36105f83660046141e1565b610fdc565b34801561060957600080fd5b5061043f6106183660046140f0565b611038565b34801561062957600080fd5b506006546104c5906001600160a01b031681565b34801561064957600080fd5b50600e546104c590600160601b90046001600160a01b031681565b34801561067057600080fd5b50600a546104c5906001600160a01b031681565b34801561069057600080fd5b506104a3611077565b3480156106a557600080fd5b5061043f6106b43660046141e1565b6001600160a01b031660009081526012602052604090205460ff1690565b3480156106de57600080fd5b506104a36106ed3660046141e1565b6110ef565b3480156106fe57600080fd5b506104ee611181565b34801561071357600080fd5b506104a36107223660046141e1565b6111cb565b34801561073357600080fd5b506104ee6107423660046141e1565b61148f565b34801561075357600080fd5b506104a361076236600461411c565b611505565b34801561077357600080fd5b506104ee6107823660046141e1565b6001600160a01b031660009081526020819052604090205490565b3480156107a957600080fd5b506104a36115d7565b3480156107be57600080fd5b506007546104c5906001600160a01b031681565b3480156107de57600080fd5b50600e5461047090600160501b900461ffff1681565b34801561080057600080fd5b506008546104c5906001600160a01b031681565b34801561082057600080fd5b506104a361082f36600461411c565b61160d565b34801561084057600080fd5b506104a361084f3660046141e1565b61174f565b34801561086057600080fd5b506005546001600160a01b03166104c5565b34801561087e57600080fd5b506104a361088d3660046141e1565b611b38565b34801561089e57600080fd5b50600e5461047090600160401b900461ffff1681565b3480156108c057600080fd5b506104c573224abbd316d1393f4cec837b7346619fab82c94981565b3480156108e857600080fd5b506104a36108f7366004614210565b611c87565b34801561090857600080fd5b50610409611db9565b34801561091d57600080fd5b506104a361092c366004614184565b611dc8565b34801561093d57600080fd5b506104ee600f5481565b34801561095357600080fd5b506104ee611e84565b34801561096857600080fd5b5061043f6109773660046140f0565b611ece565b34801561098857600080fd5b506104ee6109973660046141e1565b611f60565b3480156109a857600080fd5b5061043f6109b73660046140f0565b611f93565b3480156109c857600080fd5b506104a36109d736600461411c565b611fa1565b3480156109e857600080fd5b506109fc6109f73660046141e1565b611fdd565b604080516001600160a01b0390991689526020890197909752958701949094526060860192909252608085015260a084015260c083015260e082015261010001610416565b348015610a4d57600080fd5b506104a3610a5c36600461411c565b612078565b348015610a6d57600080fd5b5061043f610a7c3660046141e1565b60166020526000908152604090205460ff1681565b348015610a9d57600080fd5b506104ee6120dd565b348015610ab257600080fd5b506104a3610ac1366004614184565b612127565b348015610ad257600080fd5b5061043f610ae13660046141e1565b6121b0565b348015610af257600080fd5b506104ee60115481565b348015610b0857600080fd5b506104a3610b17366004614210565b61221f565b348015610b2857600080fd5b506104a3610b37366004614210565b612364565b348015610b4857600080fd5b5060075461043f90600160a01b900460ff1681565b348015610b6957600080fd5b506104ee610b78366004614243565b6001600160a01b03918216600090815260016020908152604080832093909416825291909152205490565b348015610baf57600080fd5b50600e546104709061ffff1681565b348015610bca57600080fd5b506104ee600d5481565b348015610be057600080fd5b506104ee6124a8565b348015610bf557600080fd5b5061043f610c043660046141e1565b60136020526000908152604090205460ff1681565b348015610c2557600080fd5b506104a3610c3436600461411c565b6124f2565b348015610c4557600080fd5b50600e5461047090600160301b900461ffff1681565b348015610c6757600080fd5b506109fc610c7636600461411c565b61254d565b348015610c8757600080fd5b506104a3610c963660046141e1565b61258f565b348015610ca757600080fd5b50600e5461047090640100000000900461ffff1681565b348015610cca57600080fd5b50600c546104c5906001600160a01b031681565b348015610cea57600080fd5b506104ee60105481565b606060038054610d0390614271565b80601f0160208091040260200160405190810160405280929190818152602001828054610d2f90614271565b8015610d7c5780601f10610d5157610100808354040283529160200191610d7c565b820191906000526020600020905b815481529060010190602001808311610d5f57829003601f168201915b5050505050905090565b600033610d948185856126c4565b5060019392505050565b6005546001600160a01b03163314610dd15760405162461bcd60e51b8152600401610dc8906142ab565b60405180910390fd5b600b54604051630dcb2e8960e01b8152600481018390526001600160a01b0390911690630dcb2e89906024015b600060405180830381600087803b158015610e1857600080fd5b505af1158015610e2c573d6000803e3d6000fd5b5050505050565b6005546001600160a01b03163314610e5d5760405162461bcd60e51b8152600401610dc8906142ab565b60008111610e6a57600080fd5b601055565b600033610e7d8582856127e8565b610e8885858561287a565b506001949350505050565b6005546001600160a01b03163314610ebd5760405162461bcd60e51b8152600401610dc8906142ab565b6001600160a01b038216600081815260136020908152604091829020805460ff19168515159081179091558251938452908301527f82170bbd72c16b30c410014b7382121a699ed119a182e48a0b6cadcc89104ac991015b60405180910390a15050565b6005546001600160a01b03163314610f4b5760405162461bcd60e51b8152600401610dc8906142ab565b60078054911515600160a01b0260ff60a01b19909216919091179055565b600b54604080516342d359d760e11b815290516000926001600160a01b0316916385a6b3ae9160048083019260209291908290030181865afa158015610fb3573d6000803e3d6000fd5b505050506040513d601f19601f82011682018060405250810190610fd791906142e0565b905090565b6005546001600160a01b031633146110065760405162461bcd60e51b8152600401610dc8906142ab565b600b5460405163031e79db60e41b81526001600160a01b038381166004830152909116906331e79db090602401610dfe565b3360008181526001602090815260408083206001600160a01b0387168452909152812054909190610d94908290869061107290879061430f565b6126c4565b600b5460405163bc4c4b3760e01b8152336004820152600060248201526001600160a01b039091169063bc4c4b37906044016020604051808303816000875af11580156110c8573d6000803e3d6000fd5b505050506040513d601f19601f820116820180604052508101906110ec9190614327565b50565b6005546001600160a01b031633146111195760405162461bcd60e51b8152600401610dc8906142ab565b600e80546001600160a01b03838116600160601b9081026bffffffffffffffffffffffff84161793849055604051928190048216938493919004909116907f8616c7a330e3cf61290821331585511f1e2778171e2b005fb5ec60cfe874dc6790600090a35050565b600b54604080516304ddf6ef60e11b815290516000926001600160a01b0316916309bbedde9160048083019260209291908290030181865afa158015610fb3573d6000803e3d6000fd5b6005546001600160a01b031633146111f55760405162461bcd60e51b8152600401610dc8906142ab565b6009546001600160a01b039081169082160361125f5760405162461bcd60e51b815260206004820152602360248201527f54686520726f7574657220616c7265616479206861732074686174206164647260448201526265737360e81b6064820152608401610dc8565b6009546040516001600160a01b03918216918316907f8fc842bbd331dfa973645f4ed48b11683d501ebf1352708d77a5da2ab49a576e90600090a3806001600160a01b031663c45a01556040518163ffffffff1660e01b8152600401602060405180830381865afa1580156112d8573d6000803e3d6000fd5b505050506040513d601f19601f820116820180604052508101906112fc9190614344565b6008546040516364e329cb60e11b81523060048201526001600160a01b03918216602482015291169063c9c65396906044016020604051808303816000875af115801561134d573d6000803e3d6000fd5b505050506040513d601f19601f820116820180604052508101906113719190614344565b600a80546001600160a01b039283166001600160a01b03199182161790915560098054848416921682179055600b5460405163c705c56960e01b815292169163c705c569916113d1916004016001600160a01b0391909116815260200190565b602060405180830381865afa1580156113ee573d6000803e3d6000fd5b505050506040513d601f19601f820116820180604052508101906114129190614327565b61147857600b5460095460405163031e79db60e41b81526001600160a01b0391821660048201529116906331e79db090602401600060405180830381600087803b15801561145f57600080fd5b505af1158015611473573d6000803e3d6000fd5b505050505b600a546110ec906001600160a01b03166001612fc8565b600b546040516370a0823160e01b81526001600160a01b03838116600483015260009216906370a08231906024015b602060405180830381865afa1580156114db573d6000803e3d6000fd5b505050506040513d601f19601f820116820180604052508101906114ff91906142e0565b92915050565b600b546040516001624d3b8760e01b0319815260048101839052600091829182916001600160a01b03169063ffb2c479906024016060604051808303816000875af1158015611558573d6000803e3d6000fd5b505050506040513d601f19601f8201168201806040525081019061157c9190614361565b604080518481526020810184905290810182905260608101889052929550909350915033906000907fc864333d6121033635ab41b29ae52f10a22cf4438c3e4f1c4c68518feb2f8a989060800160405180910390a350505050565b6005546001600160a01b031633146116015760405162461bcd60e51b8152600401610dc8906142ab565b61160b60006131b6565b565b6005546001600160a01b031633146116375760405162461bcd60e51b8152600401610dc8906142ab565b62030d40811015801561164d57506207a1208111155b6116b65760405162461bcd60e51b815260206004820152603460248201527f676173466f7250726f63657373696e67206d757374206265206265747765656e6044820152730203230302c30303020616e64203530302c3030360641b6064820152608401610dc8565b600f54810361171c5760405162461bcd60e51b815260206004820152602c60248201527f43616e6e6f742075706461746520676173466f7250726f63657373696e67207460448201526b6f2073616d652076616c756560a01b6064820152608401610dc8565b600f5460405182907f40d7e40e79af4e8e5a9b3c57030d8ea93f13d669c06d448c4d631d4ae7d23db790600090a3600f55565b6005546001600160a01b031633146117795760405162461bcd60e51b8152600401610dc8906142ab565b600b546001600160a01b03908116908216036117ed5760405162461bcd60e51b815260206004820152602d60248201527f546865206469766964656e6420747261636b657220616c72656164792068617360448201526c2074686174206164647265737360981b6064820152608401610dc8565b6000819050306001600160a01b0316816001600160a01b0316638da5cb5b6040518163ffffffff1660e01b8152600401602060405180830381865afa15801561183a573d6000803e3d6000fd5b505050506040513d601f19601f8201168201806040525081019061185e9190614344565b6001600160a01b0316146118ee5760405162461bcd60e51b815260206004820152604b60248201527f546865206e6577206469766964656e6420747261636b6572206d75737420626560448201527f206f776e656420627920746865204449564944454e4544544f4b454e20746f6b60648201526a195b8818dbdb9d1c9858dd60aa1b608482015260a401610dc8565b60405163031e79db60e41b81526001600160a01b03821660048201819052906331e79db090602401600060405180830381600087803b15801561193057600080fd5b505af1158015611944573d6000803e3d6000fd5b505060405163031e79db60e41b81523060048201526001600160a01b03841692506331e79db09150602401600060405180830381600087803b15801561198957600080fd5b505af115801561199d573d6000803e3d6000fd5b50505050806001600160a01b03166331e79db06119c26005546001600160a01b031690565b6040516001600160e01b031960e084901b1681526001600160a01b039091166004820152602401600060405180830381600087803b158015611a0357600080fd5b505af1158015611a17573d6000803e3d6000fd5b505060095460405163031e79db60e41b81526001600160a01b03918216600482015290841692506331e79db09150602401600060405180830381600087803b158015611a6257600080fd5b505af1158015611a76573d6000803e3d6000fd5b5050600a5460405163031e79db60e41b81526001600160a01b03918216600482015290841692506331e79db09150602401600060405180830381600087803b158015611ac157600080fd5b505af1158015611ad5573d6000803e3d6000fd5b5050600b546040516001600160a01b03918216935090851691507f90c7d74461c613da5efa97d90740869367d74ab3aa5837aa4ae9a975f954b7a890600090a3600b80546001600160a01b0319166001600160a01b039290921691909117905550565b6005546001600160a01b03163314611b625760405162461bcd60e51b8152600401610dc8906142ab565b600880546001600160a01b0319166001600160a01b03838116919091179091556009546040805163c45a015560e01b81529051919092169163c45a01559160048083019260209291908290030181865afa158015611bc4573d6000803e3d6000fd5b505050506040513d601f19601f82011682018060405250810190611be89190614344565b6008546040516364e329cb60e11b81523060048201526001600160a01b03918216602482015291169063c9c65396906044016020604051808303816000875af1158015611c39573d6000803e3d6000fd5b505050506040513d601f19601f82011682018060405250810190611c5d9190614344565b600a80546001600160a01b0319166001600160a01b039290921691821790556110ec906001612fc8565b6005546001600160a01b03163314611cb15760405162461bcd60e51b8152600401610dc8906142ab565b600e5461012c9061ffff600160401b8204811691611cd991640100000000909104168561438f565b611ce3919061438f565b61ffff161115611d055760405162461bcd60e51b8152600401610dc8906143b5565b600e5461012c9061ffff600160501b8204811691611d2c91600160301b909104168461438f565b611d36919061438f565b61ffff161115611d585760405162461bcd60e51b8152600401610dc8906143de565b600e805461ffff8381166201000090810263ffffffff19909316868316179290921792839055604080518483168152929093041660208201527f0a3aee6fda3e94a64c7b1f75361327b06b781a7f5df7e56ef178a4f947f0346a9101610f15565b606060048054610d0390614271565b6005546001600160a01b03163314611df25760405162461bcd60e51b8152600401610dc8906142ab565b600a546001600160a01b0390811690831603611e765760405162461bcd60e51b815260206004820152603e60248201527f546865206d61696e20706169722063616e6e6f742062652072656d6f7665642060448201527f66726f6d206175746f6d617465644d61726b65744d616b6572506169727300006064820152608401610dc8565b611e808282612fc8565b5050565b600b5460408051631bc9e27b60e21b815290516000926001600160a01b031691636f2789ec9160048083019260209291908290030181865afa158015610fb3573d6000803e3d6000fd5b3360008181526001602090815260408083206001600160a01b038716845290915281205490919083811015611f535760405162461bcd60e51b815260206004820152602560248201527f45524332303a2064656372656173656420616c6c6f77616e63652062656c6f77604482015264207a65726f60d81b6064820152608401610dc8565b610e8882868684036126c4565b600b546040516302a2e74960e61b81526001600160a01b038381166004830152600092169063a8b9d240906024016114be565b600033610d9481858561287a565b6005546001600160a01b03163314611fcb5760405162461bcd60e51b8152600401610dc8906142ab565b60008111611fd857600080fd5b601155565b600b5460405163fbcbc0f160e01b81526001600160a01b038381166004830152600092839283928392839283928392839291169063fbcbc0f1906024015b61010060405180830381865afa158015612039573d6000803e3d6000fd5b505050506040513d601f19601f8201168201806040525081019061205d9190614406565b97509750975097509750975097509750919395975091939597565b6005546001600160a01b031633146120a25760405162461bcd60e51b8152600401610dc8906142ab565b600d8190556040518181527fe82283d0f679a15d3811ecbaa8b6a8afb1b110e22daa33b359c37bcae5a11e489060200160405180910390a150565b600b5460408051632f842d8560e21b815290516000926001600160a01b03169163be10b6149160048083019260209291908290030181865afa158015610fb3573d6000803e3d6000fd5b6005546001600160a01b031633146121515760405162461bcd60e51b8152600401610dc8906142ab565b6001600160a01b038216600081815260126020908152604091829020805460ff191685151590811790915591519182527f9d8f7706ea1113d1a167b526eca956215946dd36cc7df39eb16180222d8b5df7910160405180910390a25050565b600b5460405163c705c56960e01b81526001600160a01b038381166004830152600092169063c705c56990602401602060405180830381865afa1580156121fb573d6000803e3d6000fd5b505050506040513d601f19601f820116820180604052508101906114ff9190614327565b6005546001600160a01b031633146122495760405162461bcd60e51b8152600401610dc8906142ab565b600e5461012c9061ffff8082169161226b91640100000000909104168561438f565b612275919061438f565b61ffff1611156122975760405162461bcd60e51b8152600401610dc8906143b5565b600e5461012c9061ffff6201000082048116916122bd91600160301b909104168461438f565b6122c7919061438f565b61ffff1611156122e95760405162461bcd60e51b8152600401610dc8906143de565b600e80546bffffffff00000000000000001916600160401b61ffff858116820261ffff60501b191692909217600160501b858416810291909117938490556040805192850484168352930490911660208201527fc433fa5a836cf3b35353a9ebf4716a022a575f13c5930eff724bf1868d46faba9101610f15565b6005546001600160a01b0316331461238e5760405162461bcd60e51b8152600401610dc8906142ab565b600e5461012c9061ffff808216916123af91600160401b909104168561438f565b6123b9919061438f565b61ffff1611156123db5760405162461bcd60e51b8152600401610dc8906143b5565b600e5461012c9061ffff62010000820481169161240191600160501b909104168461438f565b61240b919061438f565b61ffff16111561242d5760405162461bcd60e51b8152600401610dc8906143de565b600e805467ffffffff00000000191664010000000061ffff858116820267ffff000000000000191692909217600160301b858416810291909117938490556040805192850484168352930490911660208201527f6be4281a0a58f1eac9e075b5f649c8aa8f5471d018dd25dbd8cd52fdfb8fbb939101610f15565b600b546040805163039e107b60e61b815290516000926001600160a01b03169163e7841ec09160048083019260209291908290030181865afa158015610fb3573d6000803e3d6000fd5b6005546001600160a01b0316331461251c5760405162461bcd60e51b8152600401610dc8906142ab565b600b5460405163e98030c760e01b8152600481018390526001600160a01b039091169063e98030c790602401610dfe565b600b54604051635183d6fd60e01b81526004810183905260009182918291829182918291829182916001600160a01b0390911690635183d6fd9060240161201b565b6005546001600160a01b031633146125b95760405162461bcd60e51b8152600401610dc8906142ab565b6001600160a01b03811661261e5760405162461bcd60e51b815260206004820152602660248201527f4f776e61626c653a206e6577206f776e657220697320746865207a65726f206160448201526564647265737360d01b6064820152608401610dc8565b6110ec816131b6565b6000604051733d602d80600a3d3981f3363d3d373d3d3d363d7360601b81528260601b60148201526e5af43d82803e903d91602b57fd5bf360881b60288201526037816000f09150506001600160a01b0381166126bf5760405162461bcd60e51b8152602060048201526016602482015275115490cc4c4d8dce8818dc99585d194819985a5b195960521b6044820152606401610dc8565b919050565b6001600160a01b0383166127265760405162461bcd60e51b8152602060048201526024808201527f45524332303a20617070726f76652066726f6d20746865207a65726f206164646044820152637265737360e01b6064820152608401610dc8565b6001600160a01b0382166127875760405162461bcd60e51b815260206004820152602260248201527f45524332303a20617070726f766520746f20746865207a65726f206164647265604482015261737360f01b6064820152608401610dc8565b6001600160a01b0383811660008181526001602090815260408083209487168084529482529182902085905590518481527f8c5be1e5ebec7d5bd14f71427d1e84f3dd0314c0f7b2291e5b200ac8c7c3b925910160405180910390a3505050565b6001600160a01b03838116600090815260016020908152604080832093861683529290522054600019811461287457818110156128675760405162461bcd60e51b815260206004820152601d60248201527f45524332303a20696e73756666696369656e7420616c6c6f77616e63650000006044820152606401610dc8565b61287484848484036126c4565b50505050565b6001600160a01b0383166128a05760405162461bcd60e51b8152600401610dc890614470565b6001600160a01b0382166128c65760405162461bcd60e51b8152600401610dc8906144b5565b600081116129165760405162461bcd60e51b815260206004820152601b60248201527f45524332303a207472616e73666572207a65726f20616d6f756e7400000000006044820152606401610dc8565b600a54600160a01b900460ff161580156129395750600754600160a01b900460ff165b801561295e57506001600160a01b03831660009081526012602052604090205460ff16155b801561298357506001600160a01b03821660009081526012602052604090205460ff16155b156129f75760075460405163090ec10b60e31b81526001600160a01b03858116600483015284811660248301526044820184905290911690634876085890606401600060405180830381600087803b1580156129de57600080fd5b505af11580156129f2573d6000803e3d6000fd5b505050505b30600090815260208190526040902054600d5481108015908190612a255750600a54600160a01b900460ff16155b8015612a4a57506001600160a01b03851660009081526016602052604090205460ff16155b8015612a6457506005546001600160a01b03868116911614155b8015612a7e57506005546001600160a01b03858116911614155b15612adf57600a805460ff60a01b1916600160a01b179055601554612aa290613208565b612aad601454613504565b30600090815260208190526040902054612ac681613789565b5060006015819055601455600a805460ff60a01b191690555b600a546001600160a01b03861660009081526012602052604090205460ff600160a01b909204821615911680612b2d57506001600160a01b03851660009081526012602052604090205460ff165b15612b36575060005b60008060008315612cd0576001600160a01b03891660009081526016602052604090205460ff1615612be057600e546103e890612b7d9062010000900461ffff16896144f8565b612b879190614517565b600e549091506103e890612ba690600160301b900461ffff16896144f8565b612bb09190614517565b600e549093506103e890612bcf90600160501b900461ffff16896144f8565b612bd99190614517565b9150612c76565b6001600160a01b03881660009081526016602052604090205460ff1615612c7657600e546103e890612c169061ffff16896144f8565b612c209190614517565b600e549091506103e890612c4090640100000000900461ffff16896144f8565b612c4a9190614517565b600e549093506103e890612c6990600160401b900461ffff16896144f8565b612c739190614517565b91505b82601454612c84919061430f565b601455601554612c9590839061430f565b601555600082612ca5858461430f565b612caf919061430f565b9050612cbb8189614539565b97508015612cce57612cce8a3083613924565b505b612cdb898989613924565b600b546001600160a01b031663e30443bc8a612d0c816001600160a01b031660009081526020819052604090205490565b6040516001600160e01b031960e085901b1681526001600160a01b0390921660048301526024820152604401600060405180830381600087803b158015612d5257600080fd5b505af1925050508015612d63575060015b50600b546001600160a01b031663e30443bc89612d95816001600160a01b031660009081526020819052604090205490565b6040516001600160e01b031960e085901b1681526001600160a01b0390921660048301526024820152604401600060405180830381600087803b158015612ddb57600080fd5b505af1925050508015612dec575060015b50600a54600160a01b900460ff16612fbd576001600160a01b03891660009081526013602052604090205460ff16612e6f576011548710612e6f5760405162461bcd60e51b815260206004820152601d60248201527f45524332303a2065786365656473207472616e73666572206c696d69740000006044820152606401610dc8565b6001600160a01b03881660009081526013602052604090205460ff16612ef8576010546001600160a01b03891660009081526020819052604090205410612ef85760405162461bcd60e51b815260206004820152601f60248201527f45524332303a2065786365656473206d61782077616c6c6574206c696d6974006044820152606401610dc8565b600f54600b546040516001624d3b8760e01b03198152600481018390526001600160a01b039091169063ffb2c479906024016060604051808303816000875af1925050508015612f65575060408051601f3d908101601f19168201909252612f6291810190614361565b60015b15612fbb5760408051848152602081018490529081018290526060810185905233906001907fc864333d6121033635ab41b29ae52f10a22cf4438c3e4f1c4c68518feb2f8a989060800160405180910390a35050505b505b505050505050505050565b6001600160a01b03821660009081526016602052604090205481151560ff90911615150361305e5760405162461bcd60e51b815260206004820152603860248201527f4175746f6d61746564206d61726b6574206d616b65722070616972206973206160448201527f6c72656164792073657420746f20746861742076616c756500000000000000006064820152608401610dc8565b6001600160a01b038216600090815260166020908152604080832080548515801560ff199283168117909355601390945291909320805490911690921790915581906131155750600b5460405163c705c56960e01b81526001600160a01b0384811660048301529091169063c705c56990602401602060405180830381865afa1580156130ef573d6000803e3d6000fd5b505050506040513d601f19601f820116820180604052508101906131139190614327565b155b1561317a57600b5460405163031e79db60e41b81526001600160a01b038481166004830152909116906331e79db090602401600060405180830381600087803b15801561316157600080fd5b505af1158015613175573d6000803e3d6000fd5b505050505b604051811515906001600160a01b038416907fffa9187bf1f18bf477bd0ea1bcbb64e93b6a98132473929edfce215cd9b16fab90600090a35050565b600580546001600160a01b038381166001600160a01b0319831681179093556040519116919082907f8be0079c531659141344cd1fd0a4f28419497f9722a3daafe3b4186f6b6457e090600090a35050565b600c546006546001600160a01b0391821691160361339657600c546040516370a0823160e01b81523060048201526000916001600160a01b0316906370a0823190602401602060405180830381865afa158015613269573d6000803e3d6000fd5b505050506040513d601f19601f8201168201806040525081019061328d91906142e0565b905061329882613a78565b600c546040516370a0823160e01b815230600482015260009183916001600160a01b03909116906370a0823190602401602060405180830381865afa1580156132e5573d6000803e3d6000fd5b505050506040513d601f19601f8201168201806040525081019061330991906142e0565b6133139190614539565b600c54600e5460405163a9059cbb60e01b81526001600160a01b03600160601b9092048216600482015260248101849052929350169063a9059cbb906044015b6020604051808303816000875af1158015613372573d6000803e3d6000fd5b505050506040513d601f19601f820116820180604052508101906128749190614327565b6008546006546001600160a01b039182169116036134e5576008546040516370a0823160e01b81523060048201526000916001600160a01b0316906370a0823190602401602060405180830381865afa1580156133f7573d6000803e3d6000fd5b505050506040513d601f19601f8201168201806040525081019061341b91906142e0565b905061342682613cae565b6008546040516370a0823160e01b815230600482015260009183916001600160a01b03909116906370a0823190602401602060405180830381865afa158015613473573d6000803e3d6000fd5b505050506040513d601f19601f8201168201806040525081019061349791906142e0565b6134a19190614539565b600854600e5460405163a9059cbb60e01b81526001600160a01b03600160601b9092048216600482015260248101849052929350169063a9059cbb90604401613353565b600e546110ec903090600160601b90046001600160a01b03168361287a565b6000613511600283614517565b9050600061351f8284614539565b90506000600960009054906101000a90046001600160a01b03166001600160a01b031663ad5c46486040518163ffffffff1660e01b8152600401602060405180830381865afa158015613576573d6000803e3d6000fd5b505050506040513d601f19601f8201168201806040525081019061359a9190614344565b6008546001600160a01b03908116911614613620576008546040516370a0823160e01b81523060048201526001600160a01b03909116906370a0823190602401602060405180830381865afa1580156135f7573d6000803e3d6000fd5b505050506040513d601f19601f8201168201806040525081019061361b91906142e0565b613622565b475b905061362d83613cae565b600954604080516315ab88c960e31b815290516000926001600160a01b03169163ad5c46489160048083019260209291908290030181865afa158015613677573d6000803e3d6000fd5b505050506040513d601f19601f8201168201806040525081019061369b9190614344565b6008546001600160a01b0390811691161461372b576008546040516370a0823160e01b815230600482015283916001600160a01b0316906370a0823190602401602060405180830381865afa1580156136f8573d6000803e3d6000fd5b505050506040513d601f19601f8201168201806040525081019061371c91906142e0565b6137269190614539565b613735565b6137358247614539565b90506137418382613e33565b60408051858152602081018390529081018490527f17bbfb9a6069321b6ded73bd96327c9e6b7212a5cd51ff219cd61370acafb5619060600160405180910390a15050505050565b61379281613a78565b600c546040516370a0823160e01b81523060048201526000916001600160a01b0316906370a0823190602401602060405180830381865afa1580156137db573d6000803e3d6000fd5b505050506040513d601f19601f820116820180604052508101906137ff91906142e0565b600c54600b5460405163a9059cbb60e01b81526001600160a01b0391821660048201526024810184905292935060009291169063a9059cbb906044016020604051808303816000875af115801561385a573d6000803e3d6000fd5b505050506040513d601f19601f8201168201806040525081019061387e9190614327565b9050801561391f57600b5460405163ba72a95560e01b8152600481018490526001600160a01b039091169063ba72a95590602401600060405180830381600087803b1580156138cc57600080fd5b505af11580156138e0573d6000803e3d6000fd5b505060408051868152602081018690527f80195cc573b02cc48460cbca6e6e4cc85ddb91959d946e1c3025ea3d87942dc3935001905060405180910390a15b505050565b6001600160a01b03831661394a5760405162461bcd60e51b8152600401610dc890614470565b6001600160a01b0382166139705760405162461bcd60e51b8152600401610dc8906144b5565b6001600160a01b038316600090815260208190526040902054818110156139e85760405162461bcd60e51b815260206004820152602660248201527f45524332303a207472616e7366657220616d6f756e7420657863656564732062604482015265616c616e636560d01b6064820152608401610dc8565b6001600160a01b03808516600090815260208190526040808220858503905591851681529081208054849290613a1f90849061430f565b92505081905550826001600160a01b0316846001600160a01b03167fddf252ad1be2c89b69c2b068fc378daa952ba7f163c4a11628f55a4df523b3ef84604051613a6b91815260200190565b60405180910390a3612874565b600c546008546001600160a01b03908116911614613bbe5760408051600380825260808201909252600091602082016060803683370190505090503081600081518110613ac757613ac7614550565b6001600160a01b039283166020918202929092010152600854825191169082906001908110613af857613af8614550565b6001600160a01b039283166020918202929092010152600c54825191169082906002908110613b2957613b29614550565b6001600160a01b039283166020918202929092010152600954613b4f91309116846126c4565b600954604051635c11d79560e01b81526001600160a01b0390911690635c11d79590613b889085906000908690309042906004016145aa565b600060405180830381600087803b158015613ba257600080fd5b505af1158015613bb6573d6000803e3d6000fd5b505050505050565b6040805160028082526060820183526000926020830190803683370190505090503081600081518110613bf357613bf3614550565b6001600160a01b039283166020918202929092010152600c54825191169082906001908110613c2457613c24614550565b60200260200101906001600160a01b031690816001600160a01b031681525050613c633073224abbd316d1393f4cec837b7346619fab82c949846126c4565b600954604051637274ca1b60e11b815273224abbd316d1393f4cec837b7346619fab82c9499163e4e9943691613b88916001600160a01b0316908690600090879042906004016145e6565b6040805160028082526060820183526000926020830190803683370190505090503081600081518110613ce357613ce3614550565b6001600160a01b039283166020918202929092010152600854825191169082906001908110613d1457613d14614550565b6001600160a01b03928316602091820292909201810191909152600954604080516315ab88c960e31b81529051919093169263ad5c46489260048083019391928290030181865afa158015613d6d573d6000803e3d6000fd5b505050506040513d601f19601f82011682018060405250810190613d919190614344565b6001600160a01b031681600181518110613dad57613dad614550565b60200260200101516001600160a01b031603613e1457600954613ddb9030906001600160a01b0316846126c4565b60095460405163791ac94760e01b81526001600160a01b039091169063791ac94790613b889085906000908690309042906004016145aa565b613c633073224abbd316d1393f4cec837b7346619fab82c949846126c4565b600954613e4b9030906001600160a01b0316846126c4565b600960009054906101000a90046001600160a01b03166001600160a01b031663ad5c46486040518163ffffffff1660e01b8152600401602060405180830381865afa158015613e9e573d6000803e3d6000fd5b505050506040513d601f19601f82011682018060405250810190613ec29190614344565b6008546001600160a01b03918216911603613f6a5760095460405163f305d71960e01b815230600482015260248101849052600060448201819052606482015261dead60848201524260a48201526001600160a01b039091169063f305d71990839060c40160606040518083038185885af1158015613f45573d6000803e3d6000fd5b50505050506040513d601f19601f82011682018060405250810190610e2c9190614361565b60085460095460405163095ea7b360e01b81526001600160a01b0391821660048201526024810184905291169063095ea7b3906044016020604051808303816000875af1158015613fbf573d6000803e3d6000fd5b505050506040513d601f19601f82011682018060405250810190613fe39190614327565b5060095460085460405162e8e33760e81b81523060048201526001600160a01b039182166024820152604481018590526064810184905260006084820181905260a482015261dead60c48201524260e482015291169063e8e3370090610104016060604051808303816000875af1158015614062573d6000803e3d6000fd5b505050506040513d601f19601f82011682018060405250810190610e2c9190614361565b600060208083528351808285015260005b818110156140b357858101830151858201604001528201614097565b818111156140c5576000604083870101525b50601f01601f1916929092016040019392505050565b6001600160a01b03811681146110ec57600080fd5b6000806040838503121561410357600080fd5b823561410e816140db565b946020939093013593505050565b60006020828403121561412e57600080fd5b5035919050565b60008060006060848603121561414a57600080fd5b8335614155816140db565b92506020840135614165816140db565b929592945050506040919091013590565b80151581146110ec57600080fd5b6000806040838503121561419757600080fd5b82356141a2816140db565b915060208301356141b281614176565b809150509250929050565b6000602082840312156141cf57600080fd5b81356141da81614176565b9392505050565b6000602082840312156141f357600080fd5b81356141da816140db565b803561ffff811681146126bf57600080fd5b6000806040838503121561422357600080fd5b61422c836141fe565b915061423a602084016141fe565b90509250929050565b6000806040838503121561425657600080fd5b8235614261816140db565b915060208301356141b2816140db565b600181811c9082168061428557607f821691505b6020821081036142a557634e487b7160e01b600052602260045260246000fd5b50919050565b6020808252818101527f4f776e61626c653a2063616c6c6572206973206e6f7420746865206f776e6572604082015260600190565b6000602082840312156142f257600080fd5b5051919050565b634e487b7160e01b600052601160045260246000fd5b60008219821115614322576143226142f9565b500190565b60006020828403121561433957600080fd5b81516141da81614176565b60006020828403121561435657600080fd5b81516141da816140db565b60008060006060848603121561437657600080fd5b8351925060208401519150604084015190509250925092565b600061ffff8083168185168083038211156143ac576143ac6142f9565b01949350505050565b6020808252600f908201526e73656c6c20666565203c3d2033302560881b604082015260600190565b6020808252600e908201526d62757920666565203c3d2033302560901b604082015260600190565b600080600080600080600080610100898b03121561442357600080fd5b885161442e816140db565b809850506020890151965060408901519550606089015194506080890151935060a0890151925060c0890151915060e089015190509295985092959890939650565b60208082526025908201527f45524332303a207472616e736665722066726f6d20746865207a65726f206164604082015264647265737360d81b606082015260800190565b60208082526023908201527f45524332303a207472616e7366657220746f20746865207a65726f206164647260408201526265737360e81b606082015260800190565b6000816000190483118215151615614512576145126142f9565b500290565b60008261453457634e487b7160e01b600052601260045260246000fd5b500490565b60008282101561454b5761454b6142f9565b500390565b634e487b7160e01b600052603260045260246000fd5b600081518084526020808501945080840160005b8381101561459f5781516001600160a01b03168752958201959082019060010161457a565b509495945050505050565b85815284602082015260a0604082015260006145c960a0830186614566565b6001600160a01b0394909416606083015250608001529392505050565b60018060a01b038616815284602082015283604082015260a06060820152600061461360a0830185614566565b9050826080830152969550505050505056fea2646970667358221220b89383d6f05555af14261a4954bcb728692637974c739e356b8de8d71a4fc80364736f6c634300080d0033",
  "linkReferences": {},
  "deployedLinkReferences": {}
}