{
  "_format": "hh-sol-artifact-1",
  "contractName": "DividendTokenWithAntibot",
  "sourceName": "contracts/Tokens/DividendTokens/DividendTokenWithAntibot.sol",
  "abi": [
    {
      "inputs": [
        {
          "internalType": "string",
          "name": "name_",
          "type": "string"
        },
        {
          "internalType": "string",
          "name": "symbol_",
          "type": "string"
        },
        {
          "internalType": "uint8",
          "name": "decimals_",
          "type": "uint8"
        },
        {
          "internalType": "uint256",
          "name": "totalSupply_",
          "type": "uint256"
        },
        {
          "internalType": "uint256",
          "name": "_maxWallet",
          "type": "uint256"
        },
        {
          "internalType": "uint256",
          "name": "_maxTransactionAmount",
          "type": "uint256"
        },
        {
          "internalType": "address[7]",
          "name": "addrs",
          "type": "address[7]"
        },
        {
          "internalType": "uint16[6]",
          "name": "feeSettings",
          "type": "uint16[6]"
        },
        {
          "internalType": "uint256",
          "name": "minimumTokenBalanceForDividends_",
          "type": "uint256"
        },
        {
          "internalType": "uint8",
          "name": "_tokenForMarketingFee",
          "type": "uint8"
        }
      ],
      "stateMutability": "payable",
      "type": "constructor"
    },
    {
      "anonymous": false,
      "inputs": [
        {
          "indexed": true,
          "internalType": "address",
          "name": "owner",
          "type": "address"
        },
        {
          "indexed": true,
          "internalType": "address",
          "name": "spender",
          "type": "address"
        },
        {
          "indexed": false,
          "internalType": "uint256",
          "name": "value",
          "type": "uint256"
        }
      ],
      "name": "Approval",
      "type": "event"
    },
    {
      "anonymous": false,
      "inputs": [
        {
          "indexed": true,
          "internalType": "address",
          "name": "account",
          "type": "address"
        },
        {
          "indexed": false,
          "internalType": "bool",
          "name": "isExcluded",
          "type": "bool"
        }
      ],
      "name": "ExcludeFromFees",
      "type": "event"
    },
    {
      "anonymous": false,
      "inputs": [
        {
          "indexed": false,
          "internalType": "address",
          "name": "account",
          "type": "address"
        },
        {
          "indexed": false,
          "internalType": "bool",
          "name": "isExcluded",
          "type": "bool"
        }
      ],
      "name": "ExcludedFromMaxTransactionAmount",
      "type": "event"
    },
    {
      "anonymous": false,
      "inputs": [
        {
          "indexed": true,
          "internalType": "uint256",
          "name": "newValue",
          "type": "uint256"
        },
        {
          "indexed": true,
          "internalType": "uint256",
          "name": "oldValue",
          "type": "uint256"
        }
      ],
      "name": "GasForProcessingUpdated",
      "type": "event"
    },
    {
      "anonymous": false,
      "inputs": [
        {
          "indexed": true,
          "internalType": "address",
          "name": "newLiquidityWallet",
          "type": "address"
        },
        {
          "indexed": true,
          "internalType": "address",
          "name": "oldLiquidityWallet",
          "type": "address"
        }
      ],
      "name": "LiquidityWalletUpdated",
      "type": "event"
    },
    {
      "anonymous": false,
      "inputs": [
        {
          "indexed": true,
          "internalType": "address",
          "name": "newMarketingWallet",
          "type": "address"
        },
        {
          "indexed": true,
          "internalType": "address",
          "name": "oldMarketingWallet",
          "type": "address"
        }
      ],
      "name": "MarketingWalletUpdated",
      "type": "event"
    },
    {
      "anonymous": false,
      "inputs": [
        {
          "indexed": true,
          "internalType": "address",
          "name": "previousOwner",
          "type": "address"
        },
        {
          "indexed": true,
          "internalType": "address",
          "name": "newOwner",
          "type": "address"
        }
      ],
      "name": "OwnershipTransferred",
      "type": "event"
    },
    {
      "anonymous": false,
      "inputs": [
        {
          "indexed": false,
          "internalType": "uint256",
          "name": "iterations",
          "type": "uint256"
        },
        {
          "indexed": false,
          "internalType": "uint256",
          "name": "claims",
          "type": "uint256"
        },
        {
          "indexed": false,
          "internalType": "uint256",
          "name": "lastProcessedIndex",
          "type": "uint256"
        },
        {
          "indexed": true,
          "internalType": "bool",
          "name": "automatic",
          "type": "bool"
        },
        {
          "indexed": false,
          "internalType": "uint256",
          "name": "gas",
          "type": "uint256"
        },
        {
          "indexed": true,
          "internalType": "address",
          "name": "processor",
          "type": "address"
        }
      ],
      "name": "ProcessedDividendTracker",
      "type": "event"
    },
    {
      "anonymous": false,
      "inputs": [
        {
          "indexed": false,
          "internalType": "uint256",
          "name": "tokensSwapped",
          "type": "uint256"
        },
        {
          "indexed": false,
          "internalType": "uint256",
          "name": "amount",
          "type": "uint256"
        }
      ],
      "name": "SendDividends",
      "type": "event"
    },
    {
      "anonymous": false,
      "inputs": [
        {
          "indexed": true,
          "internalType": "address",
          "name": "pair",
          "type": "address"
        },
        {
          "indexed": true,
          "internalType": "bool",
          "name": "value",
          "type": "bool"
        }
      ],
      "name": "SetAutomatedMarketMakerPair",
      "type": "event"
    },
    {
      "anonymous": false,
      "inputs": [
        {
          "indexed": false,
          "internalType": "uint256",
          "name": "tokensSwapped",
          "type": "uint256"
        },
        {
          "indexed": false,
          "internalType": "uint256",
          "name": "ethReceived",
          "type": "uint256"
        },
        {
          "indexed": false,
          "internalType": "uint256",
          "name": "tokensIntoLiqudity",
          "type": "uint256"
        }
      ],
      "name": "SwapAndLiquify",
      "type": "event"
    },
    {
      "anonymous": false,
      "inputs": [
        {
          "indexed": true,
          "internalType": "address",
          "name": "from",
          "type": "address"
        },
        {
          "indexed": true,
          "internalType": "address",
          "name": "to",
          "type": "address"
        },
        {
          "indexed": false,
          "internalType": "uint256",
          "name": "value",
          "type": "uint256"
        }
      ],
      "name": "Transfer",
      "type": "event"
    },
    {
      "anonymous": false,
      "inputs": [
        {
          "indexed": true,
          "internalType": "address",
          "name": "newAddress",
          "type": "address"
        },
        {
          "indexed": true,
          "internalType": "address",
          "name": "oldAddress",
          "type": "address"
        }
      ],
      "name": "UpdateDividendTracker",
      "type": "event"
    },
    {
      "anonymous": false,
      "inputs": [
        {
          "indexed": false,
          "internalType": "uint16",
          "name": "sellLiquidityFee",
          "type": "uint16"
        },
        {
          "indexed": false,
          "internalType": "uint16",
          "name": "buyLiquidityFee",
          "type": "uint16"
        }
      ],
      "name": "UpdateLiquidityFee",
      "type": "event"
    },
    {
      "anonymous": false,
      "inputs": [
        {
          "indexed": false,
          "internalType": "uint16",
          "name": "sellMarketingFee",
          "type": "uint16"
        },
        {
          "indexed": false,
          "internalType": "uint16",
          "name": "buyMarketingFee",
          "type": "uint16"
        }
      ],
      "name": "UpdateMarketingFee",
      "type": "event"
    },
    {
      "anonymous": false,
      "inputs": [
        {
          "indexed": false,
          "internalType": "uint16",
          "name": "sellRewardFee",
          "type": "uint16"
        },
        {
          "indexed": false,
          "internalType": "uint16",
          "name": "buyRewardFee",
          "type": "uint16"
        }
      ],
      "name": "UpdateRewardFee",
      "type": "event"
    },
    {
      "anonymous": false,
      "inputs": [
        {
          "indexed": false,
          "internalType": "uint256",
          "name": "swapTokensAtAmount",
          "type": "uint256"
        }
      ],
      "name": "UpdateSwapTokensAtAmount",
      "type": "event"
    },
    {
      "anonymous": false,
      "inputs": [
        {
          "indexed": true,
          "internalType": "address",
          "name": "newAddress",
          "type": "address"
        },
        {
          "indexed": true,
          "internalType": "address",
          "name": "oldAddress",
          "type": "address"
        }
      ],
      "name": "UpdateUniswapV2Router",
      "type": "event"
    },
    {
      "inputs": [],
      "name": "_marketingWalletAddress",
      "outputs": [
        {
          "internalType": "address",
          "name": "",
          "type": "address"
        }
      ],
      "stateMutability": "view",
      "type": "function"
    },
    {
      "inputs": [
        {
          "internalType": "address",
          "name": "owner",
          "type": "address"
        },
        {
          "internalType": "address",
          "name": "spender",
          "type": "address"
        }
      ],
      "name": "allowance",
      "outputs": [
        {
          "internalType": "uint256",
          "name": "",
          "type": "uint256"
        }
      ],
      "stateMutability": "view",
      "type": "function"
    },
    {
      "inputs": [],
      "name": "antiBotEnabled",
      "outputs": [
        {
          "internalType": "bool",
          "name": "",
          "type": "bool"
        }
      ],
      "stateMutability": "view",
      "type": "function"
    },
    {
      "inputs": [
        {
          "internalType": "address",
          "name": "spender",
          "type": "address"
        },
        {
          "internalType": "uint256",
          "name": "amount",
          "type": "uint256"
        }
      ],
      "name": "approve",
      "outputs": [
        {
          "internalType": "bool",
          "name": "",
          "type": "bool"
        }
      ],
      "stateMutability": "nonpayable",
      "type": "function"
    },
    {
      "inputs": [
        {
          "internalType": "address",
          "name": "",
          "type": "address"
        }
      ],
      "name": "automatedMarketMakerPairs",
      "outputs": [
        {
          "internalType": "bool",
          "name": "",
          "type": "bool"
        }
      ],
      "stateMutability": "view",
      "type": "function"
    },
    {
      "inputs": [
        {
          "internalType": "address",
          "name": "account",
          "type": "address"
        }
      ],
      "name": "balanceOf",
      "outputs": [
        {
          "internalType": "uint256",
          "name": "",
          "type": "uint256"
        }
      ],
      "stateMutability": "view",
      "type": "function"
    },
    {
      "inputs": [],
      "name": "baseTokenForPair",
      "outputs": [
        {
          "internalType": "address",
          "name": "",
          "type": "address"
        }
      ],
      "stateMutability": "view",
      "type": "function"
    },
    {
      "inputs": [],
      "name": "buyLiquidityFee",
      "outputs": [
        {
          "internalType": "uint16",
          "name": "",
          "type": "uint16"
        }
      ],
      "stateMutability": "view",
      "type": "function"
    },
    {
      "inputs": [],
      "name": "buyMarketingFee",
      "outputs": [
        {
          "internalType": "uint16",
          "name": "",
          "type": "uint16"
        }
      ],
      "stateMutability": "view",
      "type": "function"
    },
    {
      "inputs": [],
      "name": "buyRewardFee",
      "outputs": [
        {
          "internalType": "uint16",
          "name": "",
          "type": "uint16"
        }
      ],
      "stateMutability": "view",
      "type": "function"
    },
    {
      "inputs": [],
      "name": "claim",
      "outputs": [],
      "stateMutability": "nonpayable",
      "type": "function"
    },
    {
      "inputs": [],
      "name": "decimals",
      "outputs": [
        {
          "internalType": "uint8",
          "name": "",
          "type": "uint8"
        }
      ],
      "stateMutability": "view",
      "type": "function"
    },
    {
      "inputs": [
        {
          "internalType": "address",
          "name": "spender",
          "type": "address"
        },
        {
          "internalType": "uint256",
          "name": "subtractedValue",
          "type": "uint256"
        }
      ],
      "name": "decreaseAllowance",
      "outputs": [
        {
          "internalType": "bool",
          "name": "",
          "type": "bool"
        }
      ],
      "stateMutability": "nonpayable",
      "type": "function"
    },
    {
      "inputs": [
        {
          "internalType": "address",
          "name": "account",
          "type": "address"
        }
      ],
      "name": "dividendTokenBalanceOf",
      "outputs": [
        {
          "internalType": "uint256",
          "name": "",
          "type": "uint256"
        }
      ],
      "stateMutability": "view",
      "type": "function"
    },
    {
      "inputs": [],
      "name": "dividendTracker",
      "outputs": [
        {
          "internalType": "address",
          "name": "",
          "type": "address"
        }
      ],
      "stateMutability": "view",
      "type": "function"
    },
    {
      "inputs": [
        {
          "internalType": "address",
          "name": "account",
          "type": "address"
        }
      ],
      "name": "excludeFromDividends",
      "outputs": [],
      "stateMutability": "nonpayable",
      "type": "function"
    },
    {
      "inputs": [
        {
          "internalType": "address",
          "name": "account",
          "type": "address"
        },
        {
          "internalType": "bool",
          "name": "excluded",
          "type": "bool"
        }
      ],
      "name": "excludeFromFees",
      "outputs": [],
      "stateMutability": "nonpayable",
      "type": "function"
    },
    {
      "inputs": [
        {
          "internalType": "address",
          "name": "account",
          "type": "address"
        },
        {
          "internalType": "bool",
          "name": "isEx",
          "type": "bool"
        }
      ],
      "name": "excludeFromMaxTransactionAmount",
      "outputs": [],
      "stateMutability": "nonpayable",
      "type": "function"
    },
    {
      "inputs": [],
      "name": "gasForProcessing",
      "outputs": [
        {
          "internalType": "uint256",
          "name": "",
          "type": "uint256"
        }
      ],
      "stateMutability": "view",
      "type": "function"
    },
    {
      "inputs": [],
      "name": "gemAntiBot",
      "outputs": [
        {
          "internalType": "address",
          "name": "",
          "type": "address"
        }
      ],
      "stateMutability": "view",
      "type": "function"
    },
    {
      "inputs": [
        {
          "internalType": "address",
          "name": "account",
          "type": "address"
        }
      ],
      "name": "getAccountDividendsInfo",
      "outputs": [
        {
          "internalType": "address",
          "name": "",
          "type": "address"
        },
        {
          "internalType": "int256",
          "name": "",
          "type": "int256"
        },
        {
          "internalType": "int256",
          "name": "",
          "type": "int256"
        },
        {
          "internalType": "uint256",
          "name": "",
          "type": "uint256"
        },
        {
          "internalType": "uint256",
          "name": "",
          "type": "uint256"
        },
        {
          "internalType": "uint256",
          "name": "",
          "type": "uint256"
        },
        {
          "internalType": "uint256",
          "name": "",
          "type": "uint256"
        },
        {
          "internalType": "uint256",
          "name": "",
          "type": "uint256"
        }
      ],
      "stateMutability": "view",
      "type": "function"
    },
    {
      "inputs": [
        {
          "internalType": "uint256",
          "name": "index",
          "type": "uint256"
        }
      ],
      "name": "getAccountDividendsInfoAtIndex",
      "outputs": [
        {
          "internalType": "address",
          "name": "",
          "type": "address"
        },
        {
          "internalType": "int256",
          "name": "",
          "type": "int256"
        },
        {
          "internalType": "int256",
          "name": "",
          "type": "int256"
        },
        {
          "internalType": "uint256",
          "name": "",
          "type": "uint256"
        },
        {
          "internalType": "uint256",
          "name": "",
          "type": "uint256"
        },
        {
          "internalType": "uint256",
          "name": "",
          "type": "uint256"
        },
        {
          "internalType": "uint256",
          "name": "",
          "type": "uint256"
        },
        {
          "internalType": "uint256",
          "name": "",
          "type": "uint256"
        }
      ],
      "stateMutability": "view",
      "type": "function"
    },
    {
      "inputs": [],
      "name": "getClaimWait",
      "outputs": [
        {
          "internalType": "uint256",
          "name": "",
          "type": "uint256"
        }
      ],
      "stateMutability": "view",
      "type": "function"
    },
    {
      "inputs": [],
      "name": "getLastProcessedIndex",
      "outputs": [
        {
          "internalType": "uint256",
          "name": "",
          "type": "uint256"
        }
      ],
      "stateMutability": "view",
      "type": "function"
    },
    {
      "inputs": [],
      "name": "getMinimumTokenBalanceForDividends",
      "outputs": [
        {
          "internalType": "uint256",
          "name": "",
          "type": "uint256"
        }
      ],
      "stateMutability": "view",
      "type": "function"
    },
    {
      "inputs": [],
      "name": "getNumberOfDividendTokenHolders",
      "outputs": [
        {
          "internalType": "uint256",
          "name": "",
          "type": "uint256"
        }
      ],
      "stateMutability": "view",
      "type": "function"
    },
    {
      "inputs": [],
      "name": "getTotalDividendsDistributed",
      "outputs": [
        {
          "internalType": "uint256",
          "name": "",
          "type": "uint256"
        }
      ],
      "stateMutability": "view",
      "type": "function"
    },
    {
      "inputs": [
        {
          "internalType": "address",
          "name": "spender",
          "type": "address"
        },
        {
          "internalType": "uint256",
          "name": "addedValue",
          "type": "uint256"
        }
      ],
      "name": "increaseAllowance",
      "outputs": [
        {
          "internalType": "bool",
          "name": "",
          "type": "bool"
        }
      ],
      "stateMutability": "nonpayable",
      "type": "function"
    },
    {
      "inputs": [
        {
          "internalType": "address",
          "name": "account",
          "type": "address"
        }
      ],
      "name": "isExcludedFromDividends",
      "outputs": [
        {
          "internalType": "bool",
          "name": "",
          "type": "bool"
        }
      ],
      "stateMutability": "view",
      "type": "function"
    },
    {
      "inputs": [
        {
          "internalType": "address",
          "name": "account",
          "type": "address"
        }
      ],
      "name": "isExcludedFromFees",
      "outputs": [
        {
          "internalType": "bool",
          "name": "",
          "type": "bool"
        }
      ],
      "stateMutability": "view",
      "type": "function"
    },
    {
      "inputs": [
        {
          "internalType": "address",
          "name": "",
          "type": "address"
        }
      ],
      "name": "isExcludedFromMaxTransactionAmount",
      "outputs": [
        {
          "internalType": "bool",
          "name": "",
          "type": "bool"
        }
      ],
      "stateMutability": "view",
      "type": "function"
    },
    {
      "inputs": [],
      "name": "lpWallet",
      "outputs": [
        {
          "internalType": "address",
          "name": "",
          "type": "address"
        }
      ],
      "stateMutability": "view",
      "type": "function"
    },
    {
      "inputs": [],
      "name": "maxTransactionAmount",
      "outputs": [
        {
          "internalType": "uint256",
          "name": "",
          "type": "uint256"
        }
      ],
      "stateMutability": "view",
      "type": "function"
    },
    {
      "inputs": [],
      "name": "maxWallet",
      "outputs": [
        {
          "internalType": "uint256",
          "name": "",
          "type": "uint256"
        }
      ],
      "stateMutability": "view",
      "type": "function"
    },
    {
      "inputs": [],
      "name": "name",
      "outputs": [
        {
          "internalType": "string",
          "name": "",
          "type": "string"
        }
      ],
      "stateMutability": "view",
      "type": "function"
    },
    {
      "inputs": [],
      "name": "owner",
      "outputs": [
        {
          "internalType": "address",
          "name": "",
          "type": "address"
        }
      ],
      "stateMutability": "view",
      "type": "function"
    },
    {
      "inputs": [],
      "name": "pancakeCaller",
      "outputs": [
        {
          "internalType": "contract IPancakeCaller",
          "name": "",
          "type": "address"
        }
      ],
      "stateMutability": "view",
      "type": "function"
    },
    {
      "inputs": [
        {
          "internalType": "uint256",
          "name": "gas",
          "type": "uint256"
        }
      ],
      "name": "processDividendTracker",
      "outputs": [],
      "stateMutability": "nonpayable",
      "type": "function"
    },
    {
      "inputs": [],
      "name": "renounceOwnership",
      "outputs": [],
      "stateMutability": "nonpayable",
      "type": "function"
    },
    {
      "inputs": [],
      "name": "rewardToken",
      "outputs": [
        {
          "internalType": "address",
          "name": "",
          "type": "address"
        }
      ],
      "stateMutability": "view",
      "type": "function"
    },
    {
      "inputs": [],
      "name": "sellLiquidityFee",
      "outputs": [
        {
          "internalType": "uint16",
          "name": "",
          "type": "uint16"
        }
      ],
      "stateMutability": "view",
      "type": "function"
    },
    {
      "inputs": [],
      "name": "sellMarketingFee",
      "outputs": [
        {
          "internalType": "uint16",
          "name": "",
          "type": "uint16"
        }
      ],
      "stateMutability": "view",
      "type": "function"
    },
    {
      "inputs": [],
      "name": "sellRewardFee",
      "outputs": [
        {
          "internalType": "uint16",
          "name": "",
          "type": "uint16"
        }
      ],
      "stateMutability": "view",
      "type": "function"
    },
    {
      "inputs": [
        {
          "internalType": "address",
          "name": "pair",
          "type": "address"
        },
        {
          "internalType": "bool",
          "name": "value",
          "type": "bool"
        }
      ],
      "name": "setAutomatedMarketMakerPair",
      "outputs": [],
      "stateMutability": "nonpayable",
      "type": "function"
    },
    {
      "inputs": [
        {
          "internalType": "address payable",
          "name": "wallet",
          "type": "address"
        }
      ],
      "name": "setMarketingWallet",
      "outputs": [],
      "stateMutability": "nonpayable",
      "type": "function"
    },
    {
      "inputs": [
        {
          "internalType": "uint256",
          "name": "amount",
          "type": "uint256"
        }
      ],
      "name": "setSwapTokensAtAmount",
      "outputs": [],
      "stateMutability": "nonpayable",
      "type": "function"
    },
    {
      "inputs": [
        {
          "internalType": "bool",
          "name": "enabled_",
          "type": "bool"
        }
      ],
      "name": "setUsingAntiBot",
      "outputs": [],
      "stateMutability": "nonpayable",
      "type": "function"
    },
    {
      "inputs": [],
      "name": "swapTokensAtAmount",
      "outputs": [
        {
          "internalType": "uint256",
          "name": "",
          "type": "uint256"
        }
      ],
      "stateMutability": "view",
      "type": "function"
    },
    {
      "inputs": [],
      "name": "symbol",
      "outputs": [
        {
          "internalType": "string",
          "name": "",
          "type": "string"
        }
      ],
      "stateMutability": "view",
      "type": "function"
    },
    {
      "inputs": [],
      "name": "tokenForMarketingFee",
      "outputs": [
        {
          "internalType": "address",
          "name": "",
          "type": "address"
        }
      ],
      "stateMutability": "view",
      "type": "function"
    },
    {
      "inputs": [],
      "name": "totalSupply",
      "outputs": [
        {
          "internalType": "uint256",
          "name": "",
          "type": "uint256"
        }
      ],
      "stateMutability": "view",
      "type": "function"
    },
    {
      "inputs": [
        {
          "internalType": "address",
          "name": "to",
          "type": "address"
        },
        {
          "internalType": "uint256",
          "name": "amount",
          "type": "uint256"
        }
      ],
      "name": "transfer",
      "outputs": [
        {
          "internalType": "bool",
          "name": "",
          "type": "bool"
        }
      ],
      "stateMutability": "nonpayable",
      "type": "function"
    },
    {
      "inputs": [
        {
          "internalType": "address",
          "name": "from",
          "type": "address"
        },
        {
          "internalType": "address",
          "name": "to",
          "type": "address"
        },
        {
          "internalType": "uint256",
          "name": "amount",
          "type": "uint256"
        }
      ],
      "name": "transferFrom",
      "outputs": [
        {
          "internalType": "bool",
          "name": "",
          "type": "bool"
        }
      ],
      "stateMutability": "nonpayable",
      "type": "function"
    },
    {
      "inputs": [
        {
          "internalType": "address",
          "name": "newOwner",
          "type": "address"
        }
      ],
      "name": "transferOwnership",
      "outputs": [],
      "stateMutability": "nonpayable",
      "type": "function"
    },
    {
      "inputs": [],
      "name": "uniswapV2Pair",
      "outputs": [
        {
          "internalType": "address",
          "name": "",
          "type": "address"
        }
      ],
      "stateMutability": "view",
      "type": "function"
    },
    {
      "inputs": [],
      "name": "uniswapV2Router",
      "outputs": [
        {
          "internalType": "address",
          "name": "",
          "type": "address"
        }
      ],
      "stateMutability": "view",
      "type": "function"
    },
    {
      "inputs": [
        {
          "internalType": "uint256",
          "name": "claimWait",
          "type": "uint256"
        }
      ],
      "name": "updateClaimWait",
      "outputs": [],
      "stateMutability": "nonpayable",
      "type": "function"
    },
    {
      "inputs": [
        {
          "internalType": "address",
          "name": "newAddress",
          "type": "address"
        }
      ],
      "name": "updateDividendTracker",
      "outputs": [],
      "stateMutability": "nonpayable",
      "type": "function"
    },
    {
      "inputs": [
        {
          "internalType": "uint256",
          "name": "newValue",
          "type": "uint256"
        }
      ],
      "name": "updateGasForProcessing",
      "outputs": [],
      "stateMutability": "nonpayable",
      "type": "function"
    },
    {
      "inputs": [
        {
          "internalType": "address",
          "name": "_lpWallet",
          "type": "address"
        }
      ],
      "name": "updateLPWallet",
      "outputs": [],
      "stateMutability": "nonpayable",
      "type": "function"
    },
    {
      "inputs": [
        {
          "internalType": "uint16",
          "name": "_sellLiquidityFee",
          "type": "uint16"
        },
        {
          "internalType": "uint16",
          "name": "_buyLiquidityFee",
          "type": "uint16"
        }
      ],
      "name": "updateLiquidityFee",
      "outputs": [],
      "stateMutability": "nonpayable",
      "type": "function"
    },
    {
      "inputs": [
        {
          "internalType": "uint16",
          "name": "_sellMarketingFee",
          "type": "uint16"
        },
        {
          "internalType": "uint16",
          "name": "_buyMarketingFee",
          "type": "uint16"
        }
      ],
      "name": "updateMarketingFee",
      "outputs": [],
      "stateMutability": "nonpayable",
      "type": "function"
    },
    {
      "inputs": [
        {
          "internalType": "uint256",
          "name": "_maxTransactionAmount",
          "type": "uint256"
        }
      ],
      "name": "updateMaxTransactionAmount",
      "outputs": [],
      "stateMutability": "nonpayable",
      "type": "function"
    },
    {
      "inputs": [
        {
          "internalType": "uint256",
          "name": "_maxWallet",
          "type": "uint256"
        }
      ],
      "name": "updateMaxWallet",
      "outputs": [],
      "stateMutability": "nonpayable",
      "type": "function"
    },
    {
      "inputs": [
        {
          "internalType": "uint256",
          "name": "amount",
          "type": "uint256"
        }
      ],
      "name": "updateMinimumTokenBalanceForDividends",
      "outputs": [],
      "stateMutability": "nonpayable",
      "type": "function"
    },
    {
      "inputs": [
        {
          "internalType": "uint16",
          "name": "_sellRewardFee",
          "type": "uint16"
        },
        {
          "internalType": "uint16",
          "name": "_buyRewardFee",
          "type": "uint16"
        }
      ],
      "name": "updateRewardFee",
      "outputs": [],
      "stateMutability": "nonpayable",
      "type": "function"
    },
    {
      "inputs": [
        {
          "internalType": "address",
          "name": "_baseTokenForPair",
          "type": "address"
        }
      ],
      "name": "updateUniswapV2Pair",
      "outputs": [],
      "stateMutability": "nonpayable",
      "type": "function"
    },
    {
      "inputs": [
        {
          "internalType": "address",
          "name": "newAddress",
          "type": "address"
        }
      ],
      "name": "updateUniswapV2Router",
      "outputs": [],
      "stateMutability": "nonpayable",
      "type": "function"
    },
    {
      "inputs": [
        {
          "internalType": "address",
          "name": "account",
          "type": "address"
        }
      ],
      "name": "withdrawableDividendOf",
      "outputs": [
        {
          "internalType": "uint256",
          "name": "",
          "type": "uint256"
        }
      ],
      "stateMutability": "view",
      "type": "function"
    },
    {
      "stateMutability": "payable",
      "type": "receive"
    }
  ],
  "bytecode": "0x6080604052604051620059d4380380620059d48339810160408190526200002691620010b8565b89518a908a906200003f90600390602085019062000e12565b5080516200005590600490602084019062000e12565b505050620000726200006c6200096760201b60201c565b6200096b565b670de0b6b3a7640000341015620000c15760405162461bcd60e51b815260206004820152600e60248201526d6e6f7420656e6f7567682066656560901b60448201526064015b60405180910390fd5b6040516000907354e7032579b327238057c3723a166fbb8705f5ea9034908381818185875af1925050503d806000811462000119576040519150601f19603f3d011682016040523d82523d6000602084013e6200011e565b606091505b5050905080620001715760405162461bcd60e51b815260206004820152601460248201527f6661696c20746f207472616e73666572206665650000000000000000000000006044820152606401620000b8565b600780548651600c80546001600160a01b039283166001600160a01b0319918216179091556040808a0151600f805491851691841691909117905560608a0151600e80546001600160601b03166c010000000000000000000000009286169290920291909117905560c08a015190921660ff8e16600160a81b0291909116600161ff0160a01b031990931692909217821790925590516318e02bd960e01b81523360048201526318e02bd990602401600060405180830381600087803b1580156200023b57600080fd5b505af115801562000250573d6000803e3d6000fd5b50506007805460ff60a01b1916600160a01b179055505060a085810151600880546001600160a01b0319166001600160a01b039092169190911790558451600e80546020880151604089015160608a015160808b0151968b015161ffff9788169188166a01000000000000000000000293881666010000000000000263ffffffff60201b1990951696881664010000000090810261ffff60301b1916979097179490941763ffffffff60401b19169187166801000000000000000090810261ffff60501b1916929092179290921763ffffffff1916821762010000938716939093029283179384905561012c95928316909117936200035893918204831692910416620011ae565b620003649190620011ae565b61ffff1611156200037457600080fd5b600e5461012c9061ffff620100008204811691620003ae916a010000000000000000000082048116916601000000000000900416620011ae565b620003ba9190620011ae565b61ffff161115620003ca57600080fd5b8160ff16600003620003ee57600680546001600160a01b0319163017905562000445565b8160ff166001036200042257600854600680546001600160a01b0319166001600160a01b0390921691909117905562000445565b600c54600680546001600160a01b0319166001600160a01b039092169190911790555b6200045361271089620011d7565b600d55620493e06010556200047a8560046020020151620009bd60201b620026f81760201c565b600b80546001600160a01b0319166001600160a01b03928316908117909155600c5460405163cd6dc68760e01b815292166004830152602482018590529063cd6dc68790604401600060405180830381600087803b158015620004dc57600080fd5b505af1158015620004f1573d6000803e3d6000fd5b50505050600086116200050357600080fd5b600087116200051157600080fd5b60118790556012869055602085810151600980546001600160a01b0319166001600160a01b0390921691821790556040805163c45a015560e01b81529051919263c45a0155926004808401938290030181865afa15801562000577573d6000803e3d6000fd5b505050506040513d601f19601f820116820180604052508101906200059d9190620011fa565b6008546040516364e329cb60e11b81523060048201526001600160a01b03918216602482015291169063c9c65396906044016020604051808303816000875af1158015620005ef573d6000803e3d6000fd5b505050506040513d601f19601f82011682018060405250810190620006159190620011fa565b600a80546001600160a01b0319166001600160a01b039290921691821790556200064190600162000a6c565b600b5460405163031e79db60e41b81526001600160a01b0390911660048201819052906331e79db090602401600060405180830381600087803b1580156200068857600080fd5b505af11580156200069d573d6000803e3d6000fd5b5050600b5460405163031e79db60e41b81523060048201526001600160a01b0390911692506331e79db09150602401600060405180830381600087803b158015620006e757600080fd5b505af1158015620006fc573d6000803e3d6000fd5b5050600b546001600160a01b031691506331e79db09050620007266005546001600160a01b031690565b6040516001600160e01b031960e084901b1681526001600160a01b039091166004820152602401600060405180830381600087803b1580156200076857600080fd5b505af11580156200077d573d6000803e3d6000fd5b5050600b5460405163031e79db60e41b815261dead60048201526001600160a01b0390911692506331e79db09150602401600060405180830381600087803b158015620007c957600080fd5b505af1158015620007de573d6000803e3d6000fd5b5050600b5460095460405163031e79db60e41b81526001600160a01b039182166004820152911692506331e79db09150602401600060405180830381600087803b1580156200082c57600080fd5b505af115801562000841573d6000803e3d6000fd5b50505050620008616200085962000c6360201b60201c565b600162000c72565b600f546200087a906001600160a01b0316600162000c72565b6200088730600162000c72565b6200089661dead600162000c72565b601460208190527f8b9e18c5e04efe171d1e4f682ad90d753958a5ffe56db5290b0236c8e0b6db008054600160ff19918216811790925530600090815260408082208054841685179055600f546001600160a01b03168252812080549092168317909155909190620009106005546001600160a01b031690565b6001600160a01b031681526020810191909152604001600020805460ff1916911515919091179055620009566200094f6005546001600160a01b031690565b8962000d2d565b50505050505050505050506200129a565b3390565b600580546001600160a01b038381166001600160a01b0319831681179093556040519116919082907f8be0079c531659141344cd1fd0a4f28419497f9722a3daafe3b4186f6b6457e090600090a35050565b60006040517f3d602d80600a3d3981f3363d3d373d3d3d363d7300000000000000000000000081528260601b60148201526e5af43d82803e903d91602b57fd5bf360881b60288201526037816000f09150506001600160a01b03811662000a675760405162461bcd60e51b815260206004820152601660248201527f455243313136373a20637265617465206661696c6564000000000000000000006044820152606401620000b8565b919050565b6001600160a01b03821660009081526017602052604090205481151560ff90911615150362000b045760405162461bcd60e51b815260206004820152603860248201527f4175746f6d61746564206d61726b6574206d616b65722070616972206973206160448201527f6c72656164792073657420746f20746861742076616c756500000000000000006064820152608401620000b8565b6001600160a01b038216600090815260176020908152604080832080548515801560ff1992831681179093556014909452919093208054909116909217909155819062000bbf5750600b5460405163c705c56960e01b81526001600160a01b0384811660048301529091169063c705c56990602401602060405180830381865afa15801562000b97573d6000803e3d6000fd5b505050506040513d601f19601f8201168201806040525081019062000bbd91906200121f565b155b1562000c2757600b5460405163031e79db60e41b81526001600160a01b038481166004830152909116906331e79db090602401600060405180830381600087803b15801562000c0d57600080fd5b505af115801562000c22573d6000803e3d6000fd5b505050505b604051811515906001600160a01b038416907fffa9187bf1f18bf477bd0ea1bcbb64e93b6a98132473929edfce215cd9b16fab90600090a35050565b6005546001600160a01b031690565b6005546001600160a01b0316331462000cce5760405162461bcd60e51b815260206004820181905260248201527f4f776e61626c653a2063616c6c6572206973206e6f7420746865206f776e65726044820152606401620000b8565b6001600160a01b038216600081815260136020908152604091829020805460ff191685151590811790915591519182527f9d8f7706ea1113d1a167b526eca956215946dd36cc7df39eb16180222d8b5df7910160405180910390a25050565b6001600160a01b03821662000d855760405162461bcd60e51b815260206004820152601f60248201527f45524332303a206d696e7420746f20746865207a65726f2061646472657373006044820152606401620000b8565b806002600082825462000d99919062001243565b90915550506001600160a01b0382166000908152602081905260408120805483929062000dc890849062001243565b90915550506040518181526001600160a01b038316906000907fddf252ad1be2c89b69c2b068fc378daa952ba7f163c4a11628f55a4df523b3ef9060200160405180910390a35050565b82805462000e20906200125e565b90600052602060002090601f01602090048101928262000e44576000855562000e8f565b82601f1062000e5f57805160ff191683800117855562000e8f565b8280016001018555821562000e8f579182015b8281111562000e8f57825182559160200191906001019062000e72565b5062000e9d92915062000ea1565b5090565b5b8082111562000e9d576000815560010162000ea2565b634e487b7160e01b600052604160045260246000fd5b604051601f8201601f191681016001600160401b038111828210171562000ef95762000ef962000eb8565b604052919050565b600082601f83011262000f1357600080fd5b81516001600160401b0381111562000f2f5762000f2f62000eb8565b602062000f45601f8301601f1916820162000ece565b828152858284870101111562000f5a57600080fd5b60005b8381101562000f7a57858101830151828201840152820162000f5d565b8381111562000f8c5760008385840101525b5095945050505050565b805160ff8116811462000a6757600080fd5b80516001600160a01b038116811462000a6757600080fd5b600082601f83011262000fd257600080fd5b60405160e081016001600160401b038111828210171562000ff75762000ff762000eb8565b6040528060e08401858111156200100d57600080fd5b845b818110156200103257620010238162000fa8565b8352602092830192016200100f565b509195945050505050565b600082601f8301126200104f57600080fd5b60405160c081016001600160401b038111828210171562001074576200107462000eb8565b6040528060c08401858111156200108a57600080fd5b845b818110156200103257805161ffff81168114620010a95760008081fd5b8352602092830192016200108c565b6000806000806000806000806000806102a08b8d031215620010d957600080fd5b8a516001600160401b0380821115620010f157600080fd5b620010ff8e838f0162000f01565b9b5060208d01519150808211156200111657600080fd5b50620011258d828e0162000f01565b9950506200113660408c0162000f96565b975060608b0151965060808b0151955060a08b015194506200115c8c60c08d0162000fc0565b93506200116e8c6101a08d016200103d565b92506102608b01519150620011876102808c0162000f96565b90509295989b9194979a5092959850565b634e487b7160e01b600052601160045260246000fd5b600061ffff808316818516808303821115620011ce57620011ce62001198565b01949350505050565b600082620011f557634e487b7160e01b600052601260045260246000fd5b500490565b6000602082840312156200120d57600080fd5b620012188262000fa8565b9392505050565b6000602082840312156200123257600080fd5b815180151581146200121857600080fd5b6000821982111562001259576200125962001198565b500190565b600181811c908216806200127357607f821691505b6020821081036200129457634e487b7160e01b600052602260045260246000fd5b50919050565b61472a80620012aa6000396000f3fe6080604052600436106103fe5760003560e01c806391c1004a11610213578063c705c56911610123578063e9481eee116100ab578063f2fde38b1161007a578063f2fde38b14610cb1578063f637434214610cd1578063f7c618c114610cf4578063f8b45b0514610d14578063fbc10c5514610d2a57600080fd5b8063e9481eee14610c1f578063e98030c714610c4f578063f11a24d314610c6f578063f27fd25414610c9157600080fd5b8063d8c6404b116100f2578063d8c6404b14610b72578063dd62ed3e14610b93578063de0aad5314610bd9578063e2f4560514610bf4578063e7841ec014610c0a57600080fd5b8063c705c56914610afc578063c8c8ebe414610b1c578063cf089e1314610b32578063d68f8cde14610b5257600080fd5b8063a457c2d7116101a6578063ad56c13c11610175578063ad56c13c14610a12578063afa4f3b214610a77578063b62496f514610a97578063bdd4f29f14610ac7578063c024666814610adc57600080fd5b8063a457c2d714610992578063a8b9d240146109b2578063a9059cbb146109d2578063aa498023146109f257600080fd5b806395d89b41116101e257806395d89b41146109325780639a7a23d6146109475780639c1b8af514610967578063a26579ad1461097d57600080fd5b806391c1004a146108a857806392136913146108c857806392586f5e146108ea578063948384dc1461091257600080fd5b806349bd5a5e1161030e578063700bb191116102a15780637bce5a04116102705780637bce5a04146108085780637cf84bd71461082a578063871c128d1461084a57806388bdd9be1461086a5780638da5cb5b1461088a57600080fd5b8063700bb1911461077d57806370a082311461079d578063715018a6146107d357806377ec7449146107e857600080fd5b80636303516c116102dd5780636303516c1461070157806364b0f6531461072857806365b8dbc01461073d5780636843cd841461075d57600080fd5b806349bd5a5e146106735780634e71d92d146106935780634fbee193146106a85780635d098b38146106e157600080fd5b80632ae2f12111610391578063313ce56711610360578063313ce567146105c757806331e79db0146105f357806339509351146106135780633ad3e6ff146106335780634144d9e41461065357600080fd5b80632ae2f121146105525780632c1f5216146105725780632d5fd55a1461059257806330bb4cff146105b257600080fd5b80631694505e116103cd5780631694505e146104bb57806318160ddd146104f35780631c499ab01461051257806323b872dd1461053257600080fd5b806306fdde031461040a578063095ea7b3146104355780630cfe2f3f146104655780630dcb2e891461049957600080fd5b3661040557005b600080fd5b34801561041657600080fd5b5061041f610d4a565b60405161042c9190614155565b60405180910390f35b34801561044157600080fd5b506104556104503660046141bf565b610ddc565b604051901515815260200161042c565b34801561047157600080fd5b50600e546104869062010000900461ffff1681565b60405161ffff909116815260200161042c565b3480156104a557600080fd5b506104b96104b43660046141eb565b610df4565b005b3480156104c757600080fd5b506009546104db906001600160a01b031681565b6040516001600160a01b03909116815260200161042c565b3480156104ff57600080fd5b506002545b60405190815260200161042c565b34801561051e57600080fd5b506104b961052d3660046141eb565b610e89565b34801561053e57600080fd5b5061045561054d366004614204565b610ec5565b34801561055e57600080fd5b506104b961056d366004614253565b610ee9565b34801561057e57600080fd5b50600b546104db906001600160a01b031681565b34801561059e57600080fd5b506104b96105ad36600461428c565b610f77565b3480156105be57600080fd5b50610504610fbf565b3480156105d357600080fd5b50600754600160a81b900460ff1660405160ff909116815260200161042c565b3480156105ff57600080fd5b506104b961060e3660046142b0565b611032565b34801561061f57600080fd5b5061045561062e3660046141bf565b61108e565b34801561063f57600080fd5b506006546104db906001600160a01b031681565b34801561065f57600080fd5b50600f546104db906001600160a01b031681565b34801561067f57600080fd5b50600a546104db906001600160a01b031681565b34801561069f57600080fd5b506104b96110cd565b3480156106b457600080fd5b506104556106c33660046142b0565b6001600160a01b031660009081526013602052604090205460ff1690565b3480156106ed57600080fd5b506104b96106fc3660046142b0565b611145565b34801561070d57600080fd5b50600e546104db90600160601b90046001600160a01b031681565b34801561073457600080fd5b506105046111c0565b34801561074957600080fd5b506104b96107583660046142b0565b61120a565b34801561076957600080fd5b506105046107783660046142b0565b6114ce565b34801561078957600080fd5b506104b96107983660046141eb565b611544565b3480156107a957600080fd5b506105046107b83660046142b0565b6001600160a01b031660009081526020819052604090205490565b3480156107df57600080fd5b506104b9611616565b3480156107f457600080fd5b506007546104db906001600160a01b031681565b34801561081457600080fd5b50600e5461048690600160501b900461ffff1681565b34801561083657600080fd5b506008546104db906001600160a01b031681565b34801561085657600080fd5b506104b96108653660046141eb565b61164c565b34801561087657600080fd5b506104b96108853660046142b0565b61178e565b34801561089657600080fd5b506005546001600160a01b03166104db565b3480156108b457600080fd5b506104b96108c33660046142b0565b611b77565b3480156108d457600080fd5b50600e5461048690600160401b900461ffff1681565b3480156108f657600080fd5b506104db73617715a9bf6dd62d1beb70f29914fcf821933b3981565b34801561091e57600080fd5b506104b961092d3660046142df565b611cc6565b34801561093e57600080fd5b5061041f611df8565b34801561095357600080fd5b506104b9610962366004614253565b611e07565b34801561097357600080fd5b5061050460105481565b34801561098957600080fd5b50610504611ec3565b34801561099e57600080fd5b506104556109ad3660046141bf565b611f0d565b3480156109be57600080fd5b506105046109cd3660046142b0565b611f9f565b3480156109de57600080fd5b506104556109ed3660046141bf565b611fd2565b3480156109fe57600080fd5b506104b9610a0d3660046141eb565b611fe0565b348015610a1e57600080fd5b50610a32610a2d3660046142b0565b61201c565b604080516001600160a01b0390991689526020890197909752958701949094526060860192909252608085015260a084015260c083015260e08201526101000161042c565b348015610a8357600080fd5b506104b9610a923660046141eb565b6120b7565b348015610aa357600080fd5b50610455610ab23660046142b0565b60176020526000908152604090205460ff1681565b348015610ad357600080fd5b5061050461211c565b348015610ae857600080fd5b506104b9610af7366004614253565b612166565b348015610b0857600080fd5b50610455610b173660046142b0565b6121ef565b348015610b2857600080fd5b5061050460125481565b348015610b3e57600080fd5b506104b9610b4d3660046142df565b61225e565b348015610b5e57600080fd5b506104b9610b6d3660046142df565b6123a3565b348015610b7e57600080fd5b5060075461045590600160a01b900460ff1681565b348015610b9f57600080fd5b50610504610bae366004614312565b6001600160a01b03918216600090815260016020908152604080832093909416825291909152205490565b348015610be557600080fd5b50600e546104869061ffff1681565b348015610c0057600080fd5b50610504600d5481565b348015610c1657600080fd5b506105046124e7565b348015610c2b57600080fd5b50610455610c3a3660046142b0565b60146020526000908152604090205460ff1681565b348015610c5b57600080fd5b506104b9610c6a3660046141eb565b612531565b348015610c7b57600080fd5b50600e5461048690600160301b900461ffff1681565b348015610c9d57600080fd5b50610a32610cac3660046141eb565b61258c565b348015610cbd57600080fd5b506104b9610ccc3660046142b0565b6125ce565b348015610cdd57600080fd5b50600e5461048690640100000000900461ffff1681565b348015610d0057600080fd5b50600c546104db906001600160a01b031681565b348015610d2057600080fd5b5061050460115481565b348015610d3657600080fd5b506104b9610d453660046142b0565b612666565b606060038054610d5990614340565b80601f0160208091040260200160405190810160405280929190818152602001828054610d8590614340565b8015610dd25780601f10610da757610100808354040283529160200191610dd2565b820191906000526020600020905b815481529060010190602001808311610db557829003601f168201915b5050505050905090565b600033610dea818585612795565b5060019392505050565b6005546001600160a01b03163314610e275760405162461bcd60e51b8152600401610e1e9061437a565b60405180910390fd5b600b54604051630dcb2e8960e01b8152600481018390526001600160a01b0390911690630dcb2e89906024015b600060405180830381600087803b158015610e6e57600080fd5b505af1158015610e82573d6000803e3d6000fd5b5050505050565b6005546001600160a01b03163314610eb35760405162461bcd60e51b8152600401610e1e9061437a565b60008111610ec057600080fd5b601155565b600033610ed38582856128b9565b610ede85858561294b565b506001949350505050565b6005546001600160a01b03163314610f135760405162461bcd60e51b8152600401610e1e9061437a565b6001600160a01b038216600081815260146020908152604091829020805460ff19168515159081179091558251938452908301527f82170bbd72c16b30c410014b7382121a699ed119a182e48a0b6cadcc89104ac991015b60405180910390a15050565b6005546001600160a01b03163314610fa15760405162461bcd60e51b8152600401610e1e9061437a565b60078054911515600160a01b0260ff60a01b19909216919091179055565b600b54604080516342d359d760e11b815290516000926001600160a01b0316916385a6b3ae9160048083019260209291908290030181865afa158015611009573d6000803e3d6000fd5b505050506040513d601f19601f8201168201806040525081019061102d91906143af565b905090565b6005546001600160a01b0316331461105c5760405162461bcd60e51b8152600401610e1e9061437a565b600b5460405163031e79db60e41b81526001600160a01b038381166004830152909116906331e79db090602401610e54565b3360008181526001602090815260408083206001600160a01b0387168452909152812054909190610dea90829086906110c89087906143de565b612795565b600b5460405163bc4c4b3760e01b8152336004820152600060248201526001600160a01b039091169063bc4c4b37906044016020604051808303816000875af115801561111e573d6000803e3d6000fd5b505050506040513d601f19601f8201168201806040525081019061114291906143f6565b50565b6005546001600160a01b0316331461116f5760405162461bcd60e51b8152600401610e1e9061437a565b600f80546001600160a01b038381166001600160a01b03198316811790935560405191169182917f8616c7a330e3cf61290821331585511f1e2778171e2b005fb5ec60cfe874dc6790600090a35050565b600b54604080516304ddf6ef60e11b815290516000926001600160a01b0316916309bbedde9160048083019260209291908290030181865afa158015611009573d6000803e3d6000fd5b6005546001600160a01b031633146112345760405162461bcd60e51b8152600401610e1e9061437a565b6009546001600160a01b039081169082160361129e5760405162461bcd60e51b815260206004820152602360248201527f54686520726f7574657220616c7265616479206861732074686174206164647260448201526265737360e81b6064820152608401610e1e565b6009546040516001600160a01b03918216918316907f8fc842bbd331dfa973645f4ed48b11683d501ebf1352708d77a5da2ab49a576e90600090a3806001600160a01b031663c45a01556040518163ffffffff1660e01b8152600401602060405180830381865afa158015611317573d6000803e3d6000fd5b505050506040513d601f19601f8201168201806040525081019061133b9190614413565b6008546040516364e329cb60e11b81523060048201526001600160a01b03918216602482015291169063c9c65396906044016020604051808303816000875af115801561138c573d6000803e3d6000fd5b505050506040513d601f19601f820116820180604052508101906113b09190614413565b600a80546001600160a01b039283166001600160a01b03199182161790915560098054848416921682179055600b5460405163c705c56960e01b815292169163c705c56991611410916004016001600160a01b0391909116815260200190565b602060405180830381865afa15801561142d573d6000803e3d6000fd5b505050506040513d601f19601f8201168201806040525081019061145191906143f6565b6114b757600b5460095460405163031e79db60e41b81526001600160a01b0391821660048201529116906331e79db090602401600060405180830381600087803b15801561149e57600080fd5b505af11580156114b2573d6000803e3d6000fd5b505050505b600a54611142906001600160a01b03166001613099565b600b546040516370a0823160e01b81526001600160a01b03838116600483015260009216906370a08231906024015b602060405180830381865afa15801561151a573d6000803e3d6000fd5b505050506040513d601f19601f8201168201806040525081019061153e91906143af565b92915050565b600b546040516001624d3b8760e01b0319815260048101839052600091829182916001600160a01b03169063ffb2c479906024016060604051808303816000875af1158015611597573d6000803e3d6000fd5b505050506040513d601f19601f820116820180604052508101906115bb9190614430565b604080518481526020810184905290810182905260608101889052929550909350915033906000907fc864333d6121033635ab41b29ae52f10a22cf4438c3e4f1c4c68518feb2f8a989060800160405180910390a350505050565b6005546001600160a01b031633146116405760405162461bcd60e51b8152600401610e1e9061437a565b61164a6000613287565b565b6005546001600160a01b031633146116765760405162461bcd60e51b8152600401610e1e9061437a565b62030d40811015801561168c57506207a1208111155b6116f55760405162461bcd60e51b815260206004820152603460248201527f676173466f7250726f63657373696e67206d757374206265206265747765656e6044820152730203230302c30303020616e64203530302c3030360641b6064820152608401610e1e565b601054810361175b5760405162461bcd60e51b815260206004820152602c60248201527f43616e6e6f742075706461746520676173466f7250726f63657373696e67207460448201526b6f2073616d652076616c756560a01b6064820152608401610e1e565b60105460405182907f40d7e40e79af4e8e5a9b3c57030d8ea93f13d669c06d448c4d631d4ae7d23db790600090a3601055565b6005546001600160a01b031633146117b85760405162461bcd60e51b8152600401610e1e9061437a565b600b546001600160a01b039081169082160361182c5760405162461bcd60e51b815260206004820152602d60248201527f546865206469766964656e6420747261636b657220616c72656164792068617360448201526c2074686174206164647265737360981b6064820152608401610e1e565b6000819050306001600160a01b0316816001600160a01b0316638da5cb5b6040518163ffffffff1660e01b8152600401602060405180830381865afa158015611879573d6000803e3d6000fd5b505050506040513d601f19601f8201168201806040525081019061189d9190614413565b6001600160a01b03161461192d5760405162461bcd60e51b815260206004820152604b60248201527f546865206e6577206469766964656e6420747261636b6572206d75737420626560448201527f206f776e656420627920746865204449564944454e4544544f4b454e20746f6b60648201526a195b8818dbdb9d1c9858dd60aa1b608482015260a401610e1e565b60405163031e79db60e41b81526001600160a01b03821660048201819052906331e79db090602401600060405180830381600087803b15801561196f57600080fd5b505af1158015611983573d6000803e3d6000fd5b505060405163031e79db60e41b81523060048201526001600160a01b03841692506331e79db09150602401600060405180830381600087803b1580156119c857600080fd5b505af11580156119dc573d6000803e3d6000fd5b50505050806001600160a01b03166331e79db0611a016005546001600160a01b031690565b6040516001600160e01b031960e084901b1681526001600160a01b039091166004820152602401600060405180830381600087803b158015611a4257600080fd5b505af1158015611a56573d6000803e3d6000fd5b505060095460405163031e79db60e41b81526001600160a01b03918216600482015290841692506331e79db09150602401600060405180830381600087803b158015611aa157600080fd5b505af1158015611ab5573d6000803e3d6000fd5b5050600a5460405163031e79db60e41b81526001600160a01b03918216600482015290841692506331e79db09150602401600060405180830381600087803b158015611b0057600080fd5b505af1158015611b14573d6000803e3d6000fd5b5050600b546040516001600160a01b03918216935090851691507f90c7d74461c613da5efa97d90740869367d74ab3aa5837aa4ae9a975f954b7a890600090a3600b80546001600160a01b0319166001600160a01b039290921691909117905550565b6005546001600160a01b03163314611ba15760405162461bcd60e51b8152600401610e1e9061437a565b600880546001600160a01b0319166001600160a01b03838116919091179091556009546040805163c45a015560e01b81529051919092169163c45a01559160048083019260209291908290030181865afa158015611c03573d6000803e3d6000fd5b505050506040513d601f19601f82011682018060405250810190611c279190614413565b6008546040516364e329cb60e11b81523060048201526001600160a01b03918216602482015291169063c9c65396906044016020604051808303816000875af1158015611c78573d6000803e3d6000fd5b505050506040513d601f19601f82011682018060405250810190611c9c9190614413565b600a80546001600160a01b0319166001600160a01b03929092169182179055611142906001613099565b6005546001600160a01b03163314611cf05760405162461bcd60e51b8152600401610e1e9061437a565b600e5461012c9061ffff600160401b8204811691611d1891640100000000909104168561445e565b611d22919061445e565b61ffff161115611d445760405162461bcd60e51b8152600401610e1e90614484565b600e5461012c9061ffff600160501b8204811691611d6b91600160301b909104168461445e565b611d75919061445e565b61ffff161115611d975760405162461bcd60e51b8152600401610e1e906144ad565b600e805461ffff8381166201000090810263ffffffff19909316868316179290921792839055604080518483168152929093041660208201527f0a3aee6fda3e94a64c7b1f75361327b06b781a7f5df7e56ef178a4f947f0346a9101610f6b565b606060048054610d5990614340565b6005546001600160a01b03163314611e315760405162461bcd60e51b8152600401610e1e9061437a565b600a546001600160a01b0390811690831603611eb55760405162461bcd60e51b815260206004820152603e60248201527f546865206d61696e20706169722063616e6e6f742062652072656d6f7665642060448201527f66726f6d206175746f6d617465644d61726b65744d616b6572506169727300006064820152608401610e1e565b611ebf8282613099565b5050565b600b5460408051631bc9e27b60e21b815290516000926001600160a01b031691636f2789ec9160048083019260209291908290030181865afa158015611009573d6000803e3d6000fd5b3360008181526001602090815260408083206001600160a01b038716845290915281205490919083811015611f925760405162461bcd60e51b815260206004820152602560248201527f45524332303a2064656372656173656420616c6c6f77616e63652062656c6f77604482015264207a65726f60d81b6064820152608401610e1e565b610ede8286868403612795565b600b546040516302a2e74960e61b81526001600160a01b038381166004830152600092169063a8b9d240906024016114fd565b600033610dea81858561294b565b6005546001600160a01b0316331461200a5760405162461bcd60e51b8152600401610e1e9061437a565b6000811161201757600080fd5b601255565b600b5460405163fbcbc0f160e01b81526001600160a01b038381166004830152600092839283928392839283928392839291169063fbcbc0f1906024015b61010060405180830381865afa158015612078573d6000803e3d6000fd5b505050506040513d601f19601f8201168201806040525081019061209c91906144d5565b97509750975097509750975097509750919395975091939597565b6005546001600160a01b031633146120e15760405162461bcd60e51b8152600401610e1e9061437a565b600d8190556040518181527fe82283d0f679a15d3811ecbaa8b6a8afb1b110e22daa33b359c37bcae5a11e489060200160405180910390a150565b600b5460408051632f842d8560e21b815290516000926001600160a01b03169163be10b6149160048083019260209291908290030181865afa158015611009573d6000803e3d6000fd5b6005546001600160a01b031633146121905760405162461bcd60e51b8152600401610e1e9061437a565b6001600160a01b038216600081815260136020908152604091829020805460ff191685151590811790915591519182527f9d8f7706ea1113d1a167b526eca956215946dd36cc7df39eb16180222d8b5df7910160405180910390a25050565b600b5460405163c705c56960e01b81526001600160a01b038381166004830152600092169063c705c56990602401602060405180830381865afa15801561223a573d6000803e3d6000fd5b505050506040513d601f19601f8201168201806040525081019061153e91906143f6565b6005546001600160a01b031633146122885760405162461bcd60e51b8152600401610e1e9061437a565b600e5461012c9061ffff808216916122aa91640100000000909104168561445e565b6122b4919061445e565b61ffff1611156122d65760405162461bcd60e51b8152600401610e1e90614484565b600e5461012c9061ffff6201000082048116916122fc91600160301b909104168461445e565b612306919061445e565b61ffff1611156123285760405162461bcd60e51b8152600401610e1e906144ad565b600e80546bffffffff00000000000000001916600160401b61ffff858116820261ffff60501b191692909217600160501b858416810291909117938490556040805192850484168352930490911660208201527fc433fa5a836cf3b35353a9ebf4716a022a575f13c5930eff724bf1868d46faba9101610f6b565b6005546001600160a01b031633146123cd5760405162461bcd60e51b8152600401610e1e9061437a565b600e5461012c9061ffff808216916123ee91600160401b909104168561445e565b6123f8919061445e565b61ffff16111561241a5760405162461bcd60e51b8152600401610e1e90614484565b600e5461012c9061ffff62010000820481169161244091600160501b909104168461445e565b61244a919061445e565b61ffff16111561246c5760405162461bcd60e51b8152600401610e1e906144ad565b600e805467ffffffff00000000191664010000000061ffff858116820267ffff000000000000191692909217600160301b858416810291909117938490556040805192850484168352930490911660208201527f6be4281a0a58f1eac9e075b5f649c8aa8f5471d018dd25dbd8cd52fdfb8fbb939101610f6b565b600b546040805163039e107b60e61b815290516000926001600160a01b03169163e7841ec09160048083019260209291908290030181865afa158015611009573d6000803e3d6000fd5b6005546001600160a01b0316331461255b5760405162461bcd60e51b8152600401610e1e9061437a565b600b5460405163e98030c760e01b8152600481018390526001600160a01b039091169063e98030c790602401610e54565b600b54604051635183d6fd60e01b81526004810183905260009182918291829182918291829182916001600160a01b0390911690635183d6fd9060240161205a565b6005546001600160a01b031633146125f85760405162461bcd60e51b8152600401610e1e9061437a565b6001600160a01b03811661265d5760405162461bcd60e51b815260206004820152602660248201527f4f776e61626c653a206e6577206f776e657220697320746865207a65726f206160448201526564647265737360d01b6064820152608401610e1e565b61114281613287565b6005546001600160a01b031633146126905760405162461bcd60e51b8152600401610e1e9061437a565b600e80546001600160a01b03838116600160601b9081026bffffffffffffffffffffffff84161793849055604051928190048216938493919004909116907f6080503d1da552ae8eb4b7b8a20245d9fabed014180510e7d1a05ea08fdb0f3e90600090a35050565b6000604051733d602d80600a3d3981f3363d3d373d3d3d363d7360601b81528260601b60148201526e5af43d82803e903d91602b57fd5bf360881b60288201526037816000f09150506001600160a01b0381166127905760405162461bcd60e51b8152602060048201526016602482015275115490cc4c4d8dce8818dc99585d194819985a5b195960521b6044820152606401610e1e565b919050565b6001600160a01b0383166127f75760405162461bcd60e51b8152602060048201526024808201527f45524332303a20617070726f76652066726f6d20746865207a65726f206164646044820152637265737360e01b6064820152608401610e1e565b6001600160a01b0382166128585760405162461bcd60e51b815260206004820152602260248201527f45524332303a20617070726f766520746f20746865207a65726f206164647265604482015261737360f01b6064820152608401610e1e565b6001600160a01b0383811660008181526001602090815260408083209487168084529482529182902085905590518481527f8c5be1e5ebec7d5bd14f71427d1e84f3dd0314c0f7b2291e5b200ac8c7c3b925910160405180910390a3505050565b6001600160a01b03838116600090815260016020908152604080832093861683529290522054600019811461294557818110156129385760405162461bcd60e51b815260206004820152601d60248201527f45524332303a20696e73756666696369656e7420616c6c6f77616e63650000006044820152606401610e1e565b6129458484848403612795565b50505050565b6001600160a01b0383166129715760405162461bcd60e51b8152600401610e1e9061453f565b6001600160a01b0382166129975760405162461bcd60e51b8152600401610e1e90614584565b600081116129e75760405162461bcd60e51b815260206004820152601b60248201527f45524332303a207472616e73666572207a65726f20616d6f756e7400000000006044820152606401610e1e565b600a54600160a01b900460ff16158015612a0a5750600754600160a01b900460ff165b8015612a2f57506001600160a01b03831660009081526013602052604090205460ff16155b8015612a5457506001600160a01b03821660009081526013602052604090205460ff16155b15612ac85760075460405163090ec10b60e31b81526001600160a01b03858116600483015284811660248301526044820184905290911690634876085890606401600060405180830381600087803b158015612aaf57600080fd5b505af1158015612ac3573d6000803e3d6000fd5b505050505b30600090815260208190526040902054600d5481108015908190612af65750600a54600160a01b900460ff16155b8015612b1b57506001600160a01b03851660009081526017602052604090205460ff16155b8015612b3557506005546001600160a01b03868116911614155b8015612b4f57506005546001600160a01b03858116911614155b15612bb057600a805460ff60a01b1916600160a01b179055601654612b73906132d9565b612b7e6015546135c0565b30600090815260208190526040902054612b9781613845565b5060006016819055601555600a805460ff60a01b191690555b600a546001600160a01b03861660009081526013602052604090205460ff600160a01b909204821615911680612bfe57506001600160a01b03851660009081526013602052604090205460ff165b15612c07575060005b60008060008315612da1576001600160a01b03891660009081526017602052604090205460ff1615612cb157600e546103e890612c4e9062010000900461ffff16896145c7565b612c5891906145e6565b600e549091506103e890612c7790600160301b900461ffff16896145c7565b612c8191906145e6565b600e549093506103e890612ca090600160501b900461ffff16896145c7565b612caa91906145e6565b9150612d47565b6001600160a01b03881660009081526017602052604090205460ff1615612d4757600e546103e890612ce79061ffff16896145c7565b612cf191906145e6565b600e549091506103e890612d1190640100000000900461ffff16896145c7565b612d1b91906145e6565b600e549093506103e890612d3a90600160401b900461ffff16896145c7565b612d4491906145e6565b91505b82601554612d5591906143de565b601555601654612d669083906143de565b601655600082612d7685846143de565b612d8091906143de565b9050612d8c8189614608565b97508015612d9f57612d9f8a30836139e0565b505b612dac8989896139e0565b600b546001600160a01b031663e30443bc8a612ddd816001600160a01b031660009081526020819052604090205490565b6040516001600160e01b031960e085901b1681526001600160a01b0390921660048301526024820152604401600060405180830381600087803b158015612e2357600080fd5b505af1925050508015612e34575060015b50600b546001600160a01b031663e30443bc89612e66816001600160a01b031660009081526020819052604090205490565b6040516001600160e01b031960e085901b1681526001600160a01b0390921660048301526024820152604401600060405180830381600087803b158015612eac57600080fd5b505af1925050508015612ebd575060015b50600a54600160a01b900460ff1661308e576001600160a01b03891660009081526014602052604090205460ff16612f40576012548710612f405760405162461bcd60e51b815260206004820152601d60248201527f45524332303a2065786365656473207472616e73666572206c696d69740000006044820152606401610e1e565b6001600160a01b03881660009081526014602052604090205460ff16612fc9576011546001600160a01b03891660009081526020819052604090205410612fc95760405162461bcd60e51b815260206004820152601f60248201527f45524332303a2065786365656473206d61782077616c6c6574206c696d6974006044820152606401610e1e565b601054600b546040516001624d3b8760e01b03198152600481018390526001600160a01b039091169063ffb2c479906024016060604051808303816000875af1925050508015613036575060408051601f3d908101601f1916820190925261303391810190614430565b60015b1561308c5760408051848152602081018490529081018290526060810185905233906001907fc864333d6121033635ab41b29ae52f10a22cf4438c3e4f1c4c68518feb2f8a989060800160405180910390a35050505b505b505050505050505050565b6001600160a01b03821660009081526017602052604090205481151560ff90911615150361312f5760405162461bcd60e51b815260206004820152603860248201527f4175746f6d61746564206d61726b6574206d616b65722070616972206973206160448201527f6c72656164792073657420746f20746861742076616c756500000000000000006064820152608401610e1e565b6001600160a01b038216600090815260176020908152604080832080548515801560ff199283168117909355601490945291909320805490911690921790915581906131e65750600b5460405163c705c56960e01b81526001600160a01b0384811660048301529091169063c705c56990602401602060405180830381865afa1580156131c0573d6000803e3d6000fd5b505050506040513d601f19601f820116820180604052508101906131e491906143f6565b155b1561324b57600b5460405163031e79db60e41b81526001600160a01b038481166004830152909116906331e79db090602401600060405180830381600087803b15801561323257600080fd5b505af1158015613246573d6000803e3d6000fd5b505050505b604051811515906001600160a01b038416907fffa9187bf1f18bf477bd0ea1bcbb64e93b6a98132473929edfce215cd9b16fab90600090a35050565b600580546001600160a01b038381166001600160a01b0319831681179093556040519116919082907f8be0079c531659141344cd1fd0a4f28419497f9722a3daafe3b4186f6b6457e090600090a35050565b600c546006546001600160a01b0391821691160361346057600c546040516370a0823160e01b81523060048201526000916001600160a01b0316906370a0823190602401602060405180830381865afa15801561333a573d6000803e3d6000fd5b505050506040513d601f19601f8201168201806040525081019061335e91906143af565b905061336982613b34565b600c546040516370a0823160e01b815230600482015260009183916001600160a01b03909116906370a0823190602401602060405180830381865afa1580156133b6573d6000803e3d6000fd5b505050506040513d601f19601f820116820180604052508101906133da91906143af565b6133e49190614608565b600c54600f5460405163a9059cbb60e01b81526001600160a01b03918216600482015260248101849052929350169063a9059cbb906044015b6020604051808303816000875af115801561343c573d6000803e3d6000fd5b505050506040513d601f19601f8201168201806040525081019061294591906143f6565b6008546006546001600160a01b039182169116036135a8576008546040516370a0823160e01b81523060048201526000916001600160a01b0316906370a0823190602401602060405180830381865afa1580156134c1573d6000803e3d6000fd5b505050506040513d601f19601f820116820180604052508101906134e591906143af565b90506134f082613d6a565b6008546040516370a0823160e01b815230600482015260009183916001600160a01b03909116906370a0823190602401602060405180830381865afa15801561353d573d6000803e3d6000fd5b505050506040513d601f19601f8201168201806040525081019061356191906143af565b61356b9190614608565b600854600f5460405163a9059cbb60e01b81526001600160a01b03918216600482015260248101849052929350169063a9059cbb9060440161341d565b600f546111429030906001600160a01b03168361294b565b60006135cd6002836145e6565b905060006135db8284614608565b90506000600960009054906101000a90046001600160a01b03166001600160a01b031663ad5c46486040518163ffffffff1660e01b8152600401602060405180830381865afa158015613632573d6000803e3d6000fd5b505050506040513d601f19601f820116820180604052508101906136569190614413565b6008546001600160a01b039081169116146136dc576008546040516370a0823160e01b81523060048201526001600160a01b03909116906370a0823190602401602060405180830381865afa1580156136b3573d6000803e3d6000fd5b505050506040513d601f19601f820116820180604052508101906136d791906143af565b6136de565b475b90506136e983613d6a565b600954604080516315ab88c960e31b815290516000926001600160a01b03169163ad5c46489160048083019260209291908290030181865afa158015613733573d6000803e3d6000fd5b505050506040513d601f19601f820116820180604052508101906137579190614413565b6008546001600160a01b039081169116146137e7576008546040516370a0823160e01b815230600482015283916001600160a01b0316906370a0823190602401602060405180830381865afa1580156137b4573d6000803e3d6000fd5b505050506040513d601f19601f820116820180604052508101906137d891906143af565b6137e29190614608565b6137f1565b6137f18247614608565b90506137fd8382613eef565b60408051858152602081018390529081018490527f17bbfb9a6069321b6ded73bd96327c9e6b7212a5cd51ff219cd61370acafb5619060600160405180910390a15050505050565b61384e81613b34565b600c546040516370a0823160e01b81523060048201526000916001600160a01b0316906370a0823190602401602060405180830381865afa158015613897573d6000803e3d6000fd5b505050506040513d601f19601f820116820180604052508101906138bb91906143af565b600c54600b5460405163a9059cbb60e01b81526001600160a01b0391821660048201526024810184905292935060009291169063a9059cbb906044016020604051808303816000875af1158015613916573d6000803e3d6000fd5b505050506040513d601f19601f8201168201806040525081019061393a91906143f6565b905080156139db57600b5460405163ba72a95560e01b8152600481018490526001600160a01b039091169063ba72a95590602401600060405180830381600087803b15801561398857600080fd5b505af115801561399c573d6000803e3d6000fd5b505060408051868152602081018690527f80195cc573b02cc48460cbca6e6e4cc85ddb91959d946e1c3025ea3d87942dc3935001905060405180910390a15b505050565b6001600160a01b038316613a065760405162461bcd60e51b8152600401610e1e9061453f565b6001600160a01b038216613a2c5760405162461bcd60e51b8152600401610e1e90614584565b6001600160a01b03831660009081526020819052604090205481811015613aa45760405162461bcd60e51b815260206004820152602660248201527f45524332303a207472616e7366657220616d6f756e7420657863656564732062604482015265616c616e636560d01b6064820152608401610e1e565b6001600160a01b03808516600090815260208190526040808220858503905591851681529081208054849290613adb9084906143de565b92505081905550826001600160a01b0316846001600160a01b03167fddf252ad1be2c89b69c2b068fc378daa952ba7f163c4a11628f55a4df523b3ef84604051613b2791815260200190565b60405180910390a3612945565b600c546008546001600160a01b03908116911614613c7a5760408051600380825260808201909252600091602082016060803683370190505090503081600081518110613b8357613b8361461f565b6001600160a01b039283166020918202929092010152600854825191169082906001908110613bb457613bb461461f565b6001600160a01b039283166020918202929092010152600c54825191169082906002908110613be557613be561461f565b6001600160a01b039283166020918202929092010152600954613c0b9130911684612795565b600954604051635c11d79560e01b81526001600160a01b0390911690635c11d79590613c44908590600090869030904290600401614679565b600060405180830381600087803b158015613c5e57600080fd5b505af1158015613c72573d6000803e3d6000fd5b505050505050565b6040805160028082526060820183526000926020830190803683370190505090503081600081518110613caf57613caf61461f565b6001600160a01b039283166020918202929092010152600c54825191169082906001908110613ce057613ce061461f565b60200260200101906001600160a01b031690816001600160a01b031681525050613d1f3073617715a9bf6dd62d1beb70f29914fcf821933b3984612795565b600954604051637274ca1b60e11b815273617715a9bf6dd62d1beb70f29914fcf821933b399163e4e9943691613c44916001600160a01b0316908690600090879042906004016146b5565b6040805160028082526060820183526000926020830190803683370190505090503081600081518110613d9f57613d9f61461f565b6001600160a01b039283166020918202929092010152600854825191169082906001908110613dd057613dd061461f565b6001600160a01b03928316602091820292909201810191909152600954604080516315ab88c960e31b81529051919093169263ad5c46489260048083019391928290030181865afa158015613e29573d6000803e3d6000fd5b505050506040513d601f19601f82011682018060405250810190613e4d9190614413565b6001600160a01b031681600181518110613e6957613e6961461f565b60200260200101516001600160a01b031603613ed057600954613e979030906001600160a01b031684612795565b60095460405163791ac94760e01b81526001600160a01b039091169063791ac94790613c44908590600090869030904290600401614679565b613d1f3073617715a9bf6dd62d1beb70f29914fcf821933b3984612795565b600954613f079030906001600160a01b031684612795565b600960009054906101000a90046001600160a01b03166001600160a01b031663ad5c46486040518163ffffffff1660e01b8152600401602060405180830381865afa158015613f5a573d6000803e3d6000fd5b505050506040513d601f19601f82011682018060405250810190613f7e9190614413565b6008546001600160a01b0391821691160361402f57600954600e5460405163f305d71960e01b81523060048201526024810185905260006044820181905260648201526001600160a01b03600160601b909204821660848201524260a482015291169063f305d71990839060c40160606040518083038185885af115801561400a573d6000803e3d6000fd5b50505050506040513d601f19601f82011682018060405250810190610e829190614430565b60085460095460405163095ea7b360e01b81526001600160a01b0391821660048201526024810184905291169063095ea7b3906044016020604051808303816000875af1158015614084573d6000803e3d6000fd5b505050506040513d601f19601f820116820180604052508101906140a891906143f6565b50600954600854600e5460405162e8e33760e81b81523060048201526001600160a01b039283166024820152604481018690526064810185905260006084820181905260a4820152600160601b909104821660c48201524260e482015291169063e8e3370090610104016060604051808303816000875af1158015614131573d6000803e3d6000fd5b505050506040513d601f19601f82011682018060405250810190610e829190614430565b600060208083528351808285015260005b8181101561418257858101830151858201604001528201614166565b81811115614194576000604083870101525b50601f01601f1916929092016040019392505050565b6001600160a01b038116811461114257600080fd5b600080604083850312156141d257600080fd5b82356141dd816141aa565b946020939093013593505050565b6000602082840312156141fd57600080fd5b5035919050565b60008060006060848603121561421957600080fd5b8335614224816141aa565b92506020840135614234816141aa565b929592945050506040919091013590565b801515811461114257600080fd5b6000806040838503121561426657600080fd5b8235614271816141aa565b9150602083013561428181614245565b809150509250929050565b60006020828403121561429e57600080fd5b81356142a981614245565b9392505050565b6000602082840312156142c257600080fd5b81356142a9816141aa565b803561ffff8116811461279057600080fd5b600080604083850312156142f257600080fd5b6142fb836142cd565b9150614309602084016142cd565b90509250929050565b6000806040838503121561432557600080fd5b8235614330816141aa565b91506020830135614281816141aa565b600181811c9082168061435457607f821691505b60208210810361437457634e487b7160e01b600052602260045260246000fd5b50919050565b6020808252818101527f4f776e61626c653a2063616c6c6572206973206e6f7420746865206f776e6572604082015260600190565b6000602082840312156143c157600080fd5b5051919050565b634e487b7160e01b600052601160045260246000fd5b600082198211156143f1576143f16143c8565b500190565b60006020828403121561440857600080fd5b81516142a981614245565b60006020828403121561442557600080fd5b81516142a9816141aa565b60008060006060848603121561444557600080fd5b8351925060208401519150604084015190509250925092565b600061ffff80831681851680830382111561447b5761447b6143c8565b01949350505050565b6020808252600f908201526e73656c6c20666565203c3d2033302560881b604082015260600190565b6020808252600e908201526d62757920666565203c3d2033302560901b604082015260600190565b600080600080600080600080610100898b0312156144f257600080fd5b88516144fd816141aa565b809850506020890151965060408901519550606089015194506080890151935060a0890151925060c0890151915060e089015190509295985092959890939650565b60208082526025908201527f45524332303a207472616e736665722066726f6d20746865207a65726f206164604082015264647265737360d81b606082015260800190565b60208082526023908201527f45524332303a207472616e7366657220746f20746865207a65726f206164647260408201526265737360e81b606082015260800190565b60008160001904831182151516156145e1576145e16143c8565b500290565b60008261460357634e487b7160e01b600052601260045260246000fd5b500490565b60008282101561461a5761461a6143c8565b500390565b634e487b7160e01b600052603260045260246000fd5b600081518084526020808501945080840160005b8381101561466e5781516001600160a01b031687529582019590820190600101614649565b509495945050505050565b85815284602082015260a06040820152600061469860a0830186614635565b6001600160a01b0394909416606083015250608001529392505050565b60018060a01b038616815284602082015283604082015260a0606082015260006146e260a0830185614635565b9050826080830152969550505050505056fea2646970667358221220f5cc117c2454fad579df08ea234ce405861f9981f4b2a421c1b5acdb0c667fda64736f6c634300080d0033",
  "linkReferences": {},
  "deployedLinkReferences": {}
}