{
  "_format": "hh-sol-artifact-1",
  "contractName": "DividendPayingToken",
  "sourceName": "contracts/Tokens/DividendTokens/DividendTokenDividendTracker.sol",
  "abi": [
    {
      "anonymous": false,
      "inputs": [
        {
          "indexed": true,
          "internalType": "address",
          "name": "owner",
          "type": "address"
        },
        {
          "indexed": true,
          "internalType": "address",
          "name": "spender",
          "type": "address"
        },
        {
          "indexed": false,
          "internalType": "uint256",
          "name": "value",
          "type": "uint256"
        }
      ],
      "name": "Approval",
      "type": "event"
    },
    {
      "anonymous": false,
      "inputs": [
        {
          "indexed": true,
          "internalType": "address",
          "name": "to",
          "type": "address"
        },
        {
          "indexed": false,
          "internalType": "uint256",
          "name": "weiAmount",
          "type": "uint256"
        }
      ],
      "name": "DividendWithdrawn",
      "type": "event"
    },
    {
      "anonymous": false,
      "inputs": [
        {
          "indexed": true,
          "internalType": "address",
          "name": "from",
          "type": "address"
        },
        {
          "indexed": false,
          "internalType": "uint256",
          "name": "weiAmount",
          "type": "uint256"
        }
      ],
      "name": "DividendsDistributed",
      "type": "event"
    },
    {
      "anonymous": false,
      "inputs": [
        {
          "indexed": true,
          "internalType": "address",
          "name": "previousOwner",
          "type": "address"
        },
        {
          "indexed": true,
          "internalType": "address",
          "name": "newOwner",
          "type": "address"
        }
      ],
      "name": "OwnershipTransferred",
      "type": "event"
    },
    {
      "anonymous": false,
      "inputs": [
        {
          "indexed": true,
          "internalType": "address",
          "name": "from",
          "type": "address"
        },
        {
          "indexed": true,
          "internalType": "address",
          "name": "to",
          "type": "address"
        },
        {
          "indexed": false,
          "internalType": "uint256",
          "name": "value",
          "type": "uint256"
        }
      ],
      "name": "Transfer",
      "type": "event"
    },
    {
      "inputs": [
        {
          "internalType": "address",
          "name": "_owner",
          "type": "address"
        }
      ],
      "name": "accumulativeDividendOf",
      "outputs": [
        {
          "internalType": "uint256",
          "name": "",
          "type": "uint256"
        }
      ],
      "stateMutability": "view",
      "type": "function"
    },
    {
      "inputs": [
        {
          "internalType": "address",
          "name": "owner",
          "type": "address"
        },
        {
          "internalType": "address",
          "name": "spender",
          "type": "address"
        }
      ],
      "name": "allowance",
      "outputs": [
        {
          "internalType": "uint256",
          "name": "",
          "type": "uint256"
        }
      ],
      "stateMutability": "view",
      "type": "function"
    },
    {
      "inputs": [
        {
          "internalType": "address",
          "name": "spender",
          "type": "address"
        },
        {
          "internalType": "uint256",
          "name": "amount",
          "type": "uint256"
        }
      ],
      "name": "approve",
      "outputs": [
        {
          "internalType": "bool",
          "name": "",
          "type": "bool"
        }
      ],
      "stateMutability": "nonpayable",
      "type": "function"
    },
    {
      "inputs": [
        {
          "internalType": "address",
          "name": "account",
          "type": "address"
        }
      ],
      "name": "balanceOf",
      "outputs": [
        {
          "internalType": "uint256",
          "name": "",
          "type": "uint256"
        }
      ],
      "stateMutability": "view",
      "type": "function"
    },
    {
      "inputs": [],
      "name": "decimals",
      "outputs": [
        {
          "internalType": "uint8",
          "name": "",
          "type": "uint8"
        }
      ],
      "stateMutability": "view",
      "type": "function"
    },
    {
      "inputs": [
        {
          "internalType": "address",
          "name": "spender",
          "type": "address"
        },
        {
          "internalType": "uint256",
          "name": "subtractedValue",
          "type": "uint256"
        }
      ],
      "name": "decreaseAllowance",
      "outputs": [
        {
          "internalType": "bool",
          "name": "",
          "type": "bool"
        }
      ],
      "stateMutability": "nonpayable",
      "type": "function"
    },
    {
      "inputs": [
        {
          "internalType": "uint256",
          "name": "amount",
          "type": "uint256"
        }
      ],
      "name": "distributeCAKEDividends",
      "outputs": [],
      "stateMutability": "nonpayable",
      "type": "function"
    },
    {
      "inputs": [
        {
          "internalType": "address",
          "name": "_owner",
          "type": "address"
        }
      ],
      "name": "dividendOf",
      "outputs": [
        {
          "internalType": "uint256",
          "name": "",
          "type": "uint256"
        }
      ],
      "stateMutability": "view",
      "type": "function"
    },
    {
      "inputs": [
        {
          "internalType": "address",
          "name": "spender",
          "type": "address"
        },
        {
          "internalType": "uint256",
          "name": "addedValue",
          "type": "uint256"
        }
      ],
      "name": "increaseAllowance",
      "outputs": [
        {
          "internalType": "bool",
          "name": "",
          "type": "bool"
        }
      ],
      "stateMutability": "nonpayable",
      "type": "function"
    },
    {
      "inputs": [],
      "name": "name",
      "outputs": [
        {
          "internalType": "string",
          "name": "",
          "type": "string"
        }
      ],
      "stateMutability": "view",
      "type": "function"
    },
    {
      "inputs": [],
      "name": "owner",
      "outputs": [
        {
          "internalType": "address",
          "name": "",
          "type": "address"
        }
      ],
      "stateMutability": "view",
      "type": "function"
    },
    {
      "inputs": [],
      "name": "renounceOwnership",
      "outputs": [],
      "stateMutability": "nonpayable",
      "type": "function"
    },
    {
      "inputs": [],
      "name": "rewardToken",
      "outputs": [
        {
          "internalType": "address",
          "name": "",
          "type": "address"
        }
      ],
      "stateMutability": "view",
      "type": "function"
    },
    {
      "inputs": [],
      "name": "symbol",
      "outputs": [
        {
          "internalType": "string",
          "name": "",
          "type": "string"
        }
      ],
      "stateMutability": "view",
      "type": "function"
    },
    {
      "inputs": [],
      "name": "totalDividendsDistributed",
      "outputs": [
        {
          "internalType": "uint256",
          "name": "",
          "type": "uint256"
        }
      ],
      "stateMutability": "view",
      "type": "function"
    },
    {
      "inputs": [],
      "name": "totalSupply",
      "outputs": [
        {
          "internalType": "uint256",
          "name": "",
          "type": "uint256"
        }
      ],
      "stateMutability": "view",
      "type": "function"
    },
    {
      "inputs": [
        {
          "internalType": "address",
          "name": "to",
          "type": "address"
        },
        {
          "internalType": "uint256",
          "name": "amount",
          "type": "uint256"
        }
      ],
      "name": "transfer",
      "outputs": [
        {
          "internalType": "bool",
          "name": "",
          "type": "bool"
        }
      ],
      "stateMutability": "nonpayable",
      "type": "function"
    },
    {
      "inputs": [
        {
          "internalType": "address",
          "name": "from",
          "type": "address"
        },
        {
          "internalType": "address",
          "name": "to",
          "type": "address"
        },
        {
          "internalType": "uint256",
          "name": "amount",
          "type": "uint256"
        }
      ],
      "name": "transferFrom",
      "outputs": [
        {
          "internalType": "bool",
          "name": "",
          "type": "bool"
        }
      ],
      "stateMutability": "nonpayable",
      "type": "function"
    },
    {
      "inputs": [
        {
          "internalType": "address",
          "name": "newOwner",
          "type": "address"
        }
      ],
      "name": "transferOwnership",
      "outputs": [],
      "stateMutability": "nonpayable",
      "type": "function"
    },
    {
      "inputs": [],
      "name": "withdrawDividend",
      "outputs": [],
      "stateMutability": "nonpayable",
      "type": "function"
    },
    {
      "inputs": [
        {
          "internalType": "address",
          "name": "_owner",
          "type": "address"
        }
      ],
      "name": "withdrawableDividendOf",
      "outputs": [
        {
          "internalType": "uint256",
          "name": "",
          "type": "uint256"
        }
      ],
      "stateMutability": "view",
      "type": "function"
    },
    {
      "inputs": [
        {
          "internalType": "address",
          "name": "_owner",
          "type": "address"
        }
      ],
      "name": "withdrawnDividendOf",
      "outputs": [
        {
          "internalType": "uint256",
          "name": "",
          "type": "uint256"
        }
      ],
      "stateMutability": "view",
      "type": "function"
    }
  ],
  "bytecode": "0x608060405234801561001057600080fd5b50610df4806100206000396000f3fe608060405234801561001057600080fd5b50600436106101425760003560e01c80638da5cb5b116100b8578063a9059cbb1161007c578063a9059cbb1461028c578063aafd847a1461029f578063ba72a955146102c8578063dd62ed3e146102db578063f2fde38b14610314578063f7c618c11461032757600080fd5b80638da5cb5b1461022657806391b89fba1461024b57806395d89b411461025e578063a457c2d714610266578063a8b9d2401461027957600080fd5b8063313ce5671161010a578063313ce567146101c057806339509351146101cf5780636a474002146101e257806370a08231146101ec578063715018a61461021557806385a6b3ae1461021d57600080fd5b806306fdde0314610147578063095ea7b31461016557806318160ddd1461018857806323b872dd1461019a57806327ce0147146101ad575b600080fd5b61014f61033a565b60405161015c9190610b28565b60405180910390f35b610178610173366004610b99565b6103cc565b604051901515815260200161015c565b6035545b60405190815260200161015c565b6101786101a8366004610bc3565b6103e4565b61018c6101bb366004610bff565b610408565b6040516012815260200161015c565b6101786101dd366004610b99565b61046b565b6101ea6104aa565b005b61018c6101fa366004610bff565b6001600160a01b031660009081526033602052604090205490565b6101ea6104b6565b61018c609b5481565b6065546001600160a01b03165b6040516001600160a01b03909116815260200161015c565b61018c610259366004610bff565b6104f5565b61014f610500565b610178610274366004610b99565b61050f565b61018c610287366004610bff565b6105a1565b61017861029a366004610b99565b6105cd565b61018c6102ad366004610bff565b6001600160a01b03166000908152609a602052604090205490565b6101ea6102d6366004610c1a565b6105da565b61018c6102e9366004610c33565b6001600160a01b03918216600090815260346020908152604080832093909416825291909152205490565b6101ea610322366004610bff565b610697565b609754610233906001600160a01b031681565b60606036805461034990610c66565b80601f016020809104026020016040519081016040528092919081815260200182805461037590610c66565b80156103c25780601f10610397576101008083540402835291602001916103c2565b820191906000526020600020905b8154815290600101906020018083116103a557829003601f168201915b5050505050905090565b6000336103da81858561072f565b5060019392505050565b6000336103f2858285610853565b6103fd858585600080fd5b506001949350505050565b6001600160a01b0381166000908152609960209081526040808320546033909252822054609854600160801b9261045b92610456926104509161044b91906108e5565b6108f8565b90610908565b610946565b6104659190610cb6565b92915050565b3360008181526034602090815260408083206001600160a01b03871684529091528120549091906103da90829086906104a5908790610cd8565b61072f565b6104b333610959565b50565b6065546001600160a01b031633146104e95760405162461bcd60e51b81526004016104e090610cf0565b60405180910390fd5b6104f36000610abe565b565b6000610465826105a1565b60606037805461034990610c66565b3360008181526034602090815260408083206001600160a01b0387168452909152812054909190838110156105945760405162461bcd60e51b815260206004820152602560248201527f45524332303a2064656372656173656420616c6c6f77616e63652062656c6f77604482015264207a65726f60d81b60648201526084016104e0565b6103fd828686840361072f565b6001600160a01b0381166000908152609a6020526040812054610465906105c784610408565b90610b10565b6000336103da8185858580fd5b6065546001600160a01b031633146106045760405162461bcd60e51b81526004016104e090610cf0565b600061060f60355490565b1161061957600080fd5b80156104b35761064c61062b60355490565b61063983600160801b6108e5565b6106439190610cb6565b60985490610b1c565b60985560405181815233907fa493a9229478c3fcd73f66d2cdeb7f94fd0f341da924d1054236d784541165119060200160405180910390a2609b546106919082610b1c565b609b5550565b6065546001600160a01b031633146106c15760405162461bcd60e51b81526004016104e090610cf0565b6001600160a01b0381166107265760405162461bcd60e51b815260206004820152602660248201527f4f776e61626c653a206e6577206f776e657220697320746865207a65726f206160448201526564647265737360d01b60648201526084016104e0565b6104b381610abe565b6001600160a01b0383166107915760405162461bcd60e51b8152602060048201526024808201527f45524332303a20617070726f76652066726f6d20746865207a65726f206164646044820152637265737360e01b60648201526084016104e0565b6001600160a01b0382166107f25760405162461bcd60e51b815260206004820152602260248201527f45524332303a20617070726f766520746f20746865207a65726f206164647265604482015261737360f01b60648201526084016104e0565b6001600160a01b0383811660008181526034602090815260408083209487168084529482529182902085905590518481527f8c5be1e5ebec7d5bd14f71427d1e84f3dd0314c0f7b2291e5b200ac8c7c3b925910160405180910390a3505050565b6001600160a01b0383811660009081526034602090815260408083209386168352929052205460001981146108df57818110156108d25760405162461bcd60e51b815260206004820152601d60248201527f45524332303a20696e73756666696369656e7420616c6c6f77616e636500000060448201526064016104e0565b6108df848484840361072f565b50505050565b60006108f18284610d25565b9392505050565b6000818181121561046557600080fd5b6000806109158385610d44565b9050600083121580156109285750838112155b8061093d575060008312801561093d57508381125b6108f157600080fd5b60008082121561095557600080fd5b5090565b600080610965836105a1565b90508015610ab5576001600160a01b0383166000908152609a60205260409020546109909082610b1c565b6001600160a01b0384166000818152609a6020526040908190209290925590517fee503bee2bb6a87e57bc57db795f98137327401a0e7b7ce42e37926cc1a9ca4d906109df9084815260200190565b60405180910390a260975460405163a9059cbb60e01b81526001600160a01b03858116600483015260248201849052600092169063a9059cbb906044016020604051808303816000875af1158015610a3b573d6000803e3d6000fd5b505050506040513d601f19601f82011682018060405250810190610a5f9190610d85565b905080610aae576001600160a01b0384166000908152609a6020526040902054610a899083610b10565b6001600160a01b039094166000908152609a6020526040812094909455509192915050565b5092915050565b50600092915050565b606580546001600160a01b038381166001600160a01b0319831681179093556040519116919082907f8be0079c531659141344cd1fd0a4f28419497f9722a3daafe3b4186f6b6457e090600090a35050565b60006108f18284610da7565b60006108f18284610cd8565b600060208083528351808285015260005b81811015610b5557858101830151858201604001528201610b39565b81811115610b67576000604083870101525b50601f01601f1916929092016040019392505050565b80356001600160a01b0381168114610b9457600080fd5b919050565b60008060408385031215610bac57600080fd5b610bb583610b7d565b946020939093013593505050565b600080600060608486031215610bd857600080fd5b610be184610b7d565b9250610bef60208501610b7d565b9150604084013590509250925092565b600060208284031215610c1157600080fd5b6108f182610b7d565b600060208284031215610c2c57600080fd5b5035919050565b60008060408385031215610c4657600080fd5b610c4f83610b7d565b9150610c5d60208401610b7d565b90509250929050565b600181811c90821680610c7a57607f821691505b602082108103610c9a57634e487b7160e01b600052602260045260246000fd5b50919050565b634e487b7160e01b600052601160045260246000fd5b600082610cd357634e487b7160e01b600052601260045260246000fd5b500490565b60008219821115610ceb57610ceb610ca0565b500190565b6020808252818101527f4f776e61626c653a2063616c6c6572206973206e6f7420746865206f776e6572604082015260600190565b6000816000190483118215151615610d3f57610d3f610ca0565b500290565b600080821280156001600160ff1b0384900385131615610d6657610d66610ca0565b600160ff1b8390038412811615610d7f57610d7f610ca0565b50500190565b600060208284031215610d9757600080fd5b815180151581146108f157600080fd5b600082821015610db957610db9610ca0565b50039056fea26469706673582212200f7621ddcd3af37365bb61016f830905cb7db2f16126536ce0fa99597c296eff64736f6c634300080d0033",
  "linkReferences": {},
  "deployedLinkReferences": {}
}