{
  "_format": "hh-sol-artifact-1",
  "contractName": "PancakeCaller",
  "sourceName": "contracts/Tokens/PancakeCaller/PancakeCaller.sol",
  "abi": [
    {
      "inputs": [
        {
          "internalType": "address",
          "name": "router",
          "type": "address"
        },
        {
          "internalType": "uint256",
          "name": "amountIn",
          "type": "uint256"
        },
        {
          "internalType": "uint256",
          "name": "amountOutMin",
          "type": "uint256"
        },
        {
          "internalType": "address[]",
          "name": "path",
          "type": "address[]"
        },
        {
          "internalType": "uint256",
          "name": "deadline",
          "type": "uint256"
        }
      ],
      "name": "swapExactTokensForTokens",
      "outputs": [
        {
          "internalType": "uint256[]",
          "name": "amounts",
          "type": "uint256[]"
        }
      ],
      "stateMutability": "nonpayable",
      "type": "function"
    },
    {
      "inputs": [
        {
          "internalType": "address",
          "name": "router",
          "type": "address"
        },
        {
          "internalType": "uint256",
          "name": "amountIn",
          "type": "uint256"
        },
        {
          "internalType": "uint256",
          "name": "amountOutMin",
          "type": "uint256"
        },
        {
          "internalType": "address[]",
          "name": "path",
          "type": "address[]"
        },
        {
          "internalType": "uint256",
          "name": "deadline",
          "type": "uint256"
        }
      ],
      "name": "swapExactTokensForTokensSupportingFeeOnTransferTokens",
      "outputs": [],
      "stateMutability": "nonpayable",
      "type": "function"
    }
  ],
  "bytecode": "0x608060405234801561001057600080fd5b50610b54806100206000396000f3fe608060405234801561001057600080fd5b50600436106100365760003560e01c8063e4e994361461003b578063ed74370814610050575b600080fd5b61004e61004936600461085b565b610079565b005b61006361005e36600461085b565b610450565b60405161007091906108fd565b60405180910390f35b60008383610088600182610941565b81811061009757610097610966565b90506020020160208101906100ac919061097c565b6040516370a0823160e01b81523060048201526001600160a01b0391909116906370a0823190602401602060405180830381865afa1580156100f2573d6000803e3d6000fd5b505050506040513d601f19601f82011682018060405250810190610116919061099e565b90508383600081811061012b5761012b610966565b9050602002016020810190610140919061097c565b6040516323b872dd60e01b8152336004820152306024820152604481018890526001600160a01b0391909116906323b872dd906064016020604051808303816000875af1158015610195573d6000803e3d6000fd5b505050506040513d601f19601f820116820180604052508101906101b991906109b7565b50838360008181106101cd576101cd610966565b90506020020160208101906101e2919061097c565b60405163095ea7b360e01b81526001600160a01b03898116600483015260248201899052919091169063095ea7b3906044016020604051808303816000875af1158015610233573d6000803e3d6000fd5b505050506040513d601f19601f8201168201806040525081019061025791906109b7565b50604051635c11d79560e01b81526001600160a01b03881690635c11d7959061028e90899089908990899030908a906004016109d9565b600060405180830381600087803b1580156102a857600080fd5b505af11580156102bc573d6000803e3d6000fd5b5060009250839150869050856102d3600182610941565b8181106102e2576102e2610966565b90506020020160208101906102f7919061097c565b6040516370a0823160e01b81523060048201526001600160a01b0391909116906370a0823190602401602060405180830381865afa15801561033d573d6000803e3d6000fd5b505050506040513d601f19601f82011682018060405250810190610361919061099e565b61036b9190610941565b9050848461037a600182610941565b81811061038957610389610966565b905060200201602081019061039e919061097c565b6001600160a01b031663a9059cbb868660008181106103bf576103bf610966565b90506020020160208101906103d4919061097c565b6040516001600160e01b031960e084901b1681526001600160a01b039091166004820152602481018490526044016020604051808303816000875af1158015610421573d6000803e3d6000fd5b505050506040513d601f19601f8201168201806040525081019061044591906109b7565b505050505050505050565b606060008484610461600182610941565b81811061047057610470610966565b9050602002016020810190610485919061097c565b6040516370a0823160e01b81523060048201526001600160a01b0391909116906370a0823190602401602060405180830381865afa1580156104cb573d6000803e3d6000fd5b505050506040513d601f19601f820116820180604052508101906104ef919061099e565b90508484600081811061050457610504610966565b9050602002016020810190610519919061097c565b6040516323b872dd60e01b8152336004820152306024820152604481018990526001600160a01b0391909116906323b872dd906064016020604051808303816000875af115801561056e573d6000803e3d6000fd5b505050506040513d601f19601f8201168201806040525081019061059291906109b7565b50848460008181106105a6576105a6610966565b90506020020160208101906105bb919061097c565b60405163095ea7b360e01b81526001600160a01b038a81166004830152602482018a9052919091169063095ea7b3906044016020604051808303816000875af115801561060c573d6000803e3d6000fd5b505050506040513d601f19601f8201168201806040525081019061063091906109b7565b506040516338ed173960e01b81526001600160a01b038916906338ed173990610667908a908a908a908a9030908b906004016109d9565b6000604051808303816000875af1158015610686573d6000803e3d6000fd5b505050506040513d6000823e601f3d908101601f191682016040526106ae9190810190610a60565b915060008186866106c0600182610941565b8181106106cf576106cf610966565b90506020020160208101906106e4919061097c565b6040516370a0823160e01b81523060048201526001600160a01b0391909116906370a0823190602401602060405180830381865afa15801561072a573d6000803e3d6000fd5b505050506040513d601f19601f8201168201806040525081019061074e919061099e565b6107589190610941565b90508585610767600182610941565b81811061077657610776610966565b905060200201602081019061078b919061097c565b6001600160a01b031663a9059cbb878760008181106107ac576107ac610966565b90506020020160208101906107c1919061097c565b6040516001600160e01b031960e084901b1681526001600160a01b039091166004820152602481018490526044016020604051808303816000875af115801561080e573d6000803e3d6000fd5b505050506040513d601f19601f8201168201806040525081019061083291906109b7565b5050509695505050505050565b80356001600160a01b038116811461085657600080fd5b919050565b60008060008060008060a0878903121561087457600080fd5b61087d8761083f565b95506020870135945060408701359350606087013567ffffffffffffffff808211156108a857600080fd5b818901915089601f8301126108bc57600080fd5b8135818111156108cb57600080fd5b8a60208260051b85010111156108e057600080fd5b602083019550809450505050608087013590509295509295509295565b6020808252825182820181905260009190848201906040850190845b8181101561093557835183529284019291840191600101610919565b50909695505050505050565b60008282101561096157634e487b7160e01b600052601160045260246000fd5b500390565b634e487b7160e01b600052603260045260246000fd5b60006020828403121561098e57600080fd5b6109978261083f565b9392505050565b6000602082840312156109b057600080fd5b5051919050565b6000602082840312156109c957600080fd5b8151801515811461099757600080fd5b868152602080820187905260a0604083018190528201859052600090869060c08401835b88811015610a29576001600160a01b03610a168561083f565b16825292820192908201906001016109fd565b506001600160a01b0396909616606085015250505060800152949350505050565b634e487b7160e01b600052604160045260246000fd5b60006020808385031215610a7357600080fd5b825167ffffffffffffffff80821115610a8b57600080fd5b818501915085601f830112610a9f57600080fd5b815181811115610ab157610ab1610a4a565b8060051b604051601f19603f83011681018181108582111715610ad657610ad6610a4a565b604052918252848201925083810185019188831115610af457600080fd5b938501935b82851015610b1257845184529385019392850192610af9565b9897505050505050505056fea2646970667358221220c461c9f04bdf5f2f8fb3625959b6465d8225fe7f1cc10c71c88d81172688bd1364736f6c634300080d0033",
  "linkReferences": {},
  "deployedLinkReferences": {}
}