{
  "_format": "hh-sol-artifact-1",
  "contractName": "DividendToken",
  "sourceName": "contracts/Tokens/DividendTokens/DividendToken.sol",
  "abi": [
    {
      "inputs": [
        {
          "internalType": "string",
          "name": "name_",
          "type": "string"
        },
        {
          "internalType": "string",
          "name": "symbol_",
          "type": "string"
        },
        {
          "internalType": "uint8",
          "name": "decimals_",
          "type": "uint8"
        },
        {
          "internalType": "uint256",
          "name": "totalSupply_",
          "type": "uint256"
        },
        {
          "internalType": "uint256",
          "name": "_maxWallet",
          "type": "uint256"
        },
        {
          "internalType": "uint256",
          "name": "_maxTransactionAmount",
          "type": "uint256"
        },
        {
          "internalType": "address[6]",
          "name": "addrs",
          "type": "address[6]"
        },
        {
          "internalType": "uint16[6]",
          "name": "feeSettings",
          "type": "uint16[6]"
        },
        {
          "internalType": "uint256",
          "name": "minimumTokenBalanceForDividends_",
          "type": "uint256"
        },
        {
          "internalType": "uint8",
          "name": "_tokenForMarketingFee",
          "type": "uint8"
        }
      ],
      "stateMutability": "payable",
      "type": "constructor"
    },
    {
      "anonymous": false,
      "inputs": [
        {
          "indexed": true,
          "internalType": "address",
          "name": "owner",
          "type": "address"
        },
        {
          "indexed": true,
          "internalType": "address",
          "name": "spender",
          "type": "address"
        },
        {
          "indexed": false,
          "internalType": "uint256",
          "name": "value",
          "type": "uint256"
        }
      ],
      "name": "Approval",
      "type": "event"
    },
    {
      "anonymous": false,
      "inputs": [
        {
          "indexed": true,
          "internalType": "address",
          "name": "account",
          "type": "address"
        },
        {
          "indexed": false,
          "internalType": "bool",
          "name": "isExcluded",
          "type": "bool"
        }
      ],
      "name": "ExcludeFromFees",
      "type": "event"
    },
    {
      "anonymous": false,
      "inputs": [
        {
          "indexed": false,
          "internalType": "address",
          "name": "account",
          "type": "address"
        },
        {
          "indexed": false,
          "internalType": "bool",
          "name": "isExcluded",
          "type": "bool"
        }
      ],
      "name": "ExcludedFromMaxTransactionAmount",
      "type": "event"
    },
    {
      "anonymous": false,
      "inputs": [
        {
          "indexed": true,
          "internalType": "uint256",
          "name": "newValue",
          "type": "uint256"
        },
        {
          "indexed": true,
          "internalType": "uint256",
          "name": "oldValue",
          "type": "uint256"
        }
      ],
      "name": "GasForProcessingUpdated",
      "type": "event"
    },
    {
      "anonymous": false,
      "inputs": [
        {
          "indexed": true,
          "internalType": "address",
          "name": "newLiquidityWallet",
          "type": "address"
        },
        {
          "indexed": true,
          "internalType": "address",
          "name": "oldLiquidityWallet",
          "type": "address"
        }
      ],
      "name": "LiquidityWalletUpdated",
      "type": "event"
    },
    {
      "anonymous": false,
      "inputs": [
        {
          "indexed": true,
          "internalType": "address",
          "name": "newMarketingWallet",
          "type": "address"
        },
        {
          "indexed": true,
          "internalType": "address",
          "name": "oldMarketingWallet",
          "type": "address"
        }
      ],
      "name": "MarketingWalletUpdated",
      "type": "event"
    },
    {
      "anonymous": false,
      "inputs": [
        {
          "indexed": true,
          "internalType": "address",
          "name": "previousOwner",
          "type": "address"
        },
        {
          "indexed": true,
          "internalType": "address",
          "name": "newOwner",
          "type": "address"
        }
      ],
      "name": "OwnershipTransferred",
      "type": "event"
    },
    {
      "anonymous": false,
      "inputs": [
        {
          "indexed": false,
          "internalType": "uint256",
          "name": "iterations",
          "type": "uint256"
        },
        {
          "indexed": false,
          "internalType": "uint256",
          "name": "claims",
          "type": "uint256"
        },
        {
          "indexed": false,
          "internalType": "uint256",
          "name": "lastProcessedIndex",
          "type": "uint256"
        },
        {
          "indexed": true,
          "internalType": "bool",
          "name": "automatic",
          "type": "bool"
        },
        {
          "indexed": false,
          "internalType": "uint256",
          "name": "gas",
          "type": "uint256"
        },
        {
          "indexed": true,
          "internalType": "address",
          "name": "processor",
          "type": "address"
        }
      ],
      "name": "ProcessedDividendTracker",
      "type": "event"
    },
    {
      "anonymous": false,
      "inputs": [
        {
          "indexed": false,
          "internalType": "uint256",
          "name": "tokensSwapped",
          "type": "uint256"
        },
        {
          "indexed": false,
          "internalType": "uint256",
          "name": "amount",
          "type": "uint256"
        }
      ],
      "name": "SendDividends",
      "type": "event"
    },
    {
      "anonymous": false,
      "inputs": [
        {
          "indexed": true,
          "internalType": "address",
          "name": "pair",
          "type": "address"
        },
        {
          "indexed": true,
          "internalType": "bool",
          "name": "value",
          "type": "bool"
        }
      ],
      "name": "SetAutomatedMarketMakerPair",
      "type": "event"
    },
    {
      "anonymous": false,
      "inputs": [
        {
          "indexed": false,
          "internalType": "uint256",
          "name": "tokensSwapped",
          "type": "uint256"
        },
        {
          "indexed": false,
          "internalType": "uint256",
          "name": "ethReceived",
          "type": "uint256"
        },
        {
          "indexed": false,
          "internalType": "uint256",
          "name": "tokensIntoLiqudity",
          "type": "uint256"
        }
      ],
      "name": "SwapAndLiquify",
      "type": "event"
    },
    {
      "anonymous": false,
      "inputs": [
        {
          "indexed": true,
          "internalType": "address",
          "name": "from",
          "type": "address"
        },
        {
          "indexed": true,
          "internalType": "address",
          "name": "to",
          "type": "address"
        },
        {
          "indexed": false,
          "internalType": "uint256",
          "name": "value",
          "type": "uint256"
        }
      ],
      "name": "Transfer",
      "type": "event"
    },
    {
      "anonymous": false,
      "inputs": [
        {
          "indexed": true,
          "internalType": "address",
          "name": "newAddress",
          "type": "address"
        },
        {
          "indexed": true,
          "internalType": "address",
          "name": "oldAddress",
          "type": "address"
        }
      ],
      "name": "UpdateDividendTracker",
      "type": "event"
    },
    {
      "anonymous": false,
      "inputs": [
        {
          "indexed": false,
          "internalType": "uint16",
          "name": "sellLiquidityFee",
          "type": "uint16"
        },
        {
          "indexed": false,
          "internalType": "uint16",
          "name": "buyLiquidityFee",
          "type": "uint16"
        }
      ],
      "name": "UpdateLiquidityFee",
      "type": "event"
    },
    {
      "anonymous": false,
      "inputs": [
        {
          "indexed": false,
          "internalType": "uint16",
          "name": "sellMarketingFee",
          "type": "uint16"
        },
        {
          "indexed": false,
          "internalType": "uint16",
          "name": "buyMarketingFee",
          "type": "uint16"
        }
      ],
      "name": "UpdateMarketingFee",
      "type": "event"
    },
    {
      "anonymous": false,
      "inputs": [
        {
          "indexed": false,
          "internalType": "uint16",
          "name": "sellRewardFee",
          "type": "uint16"
        },
        {
          "indexed": false,
          "internalType": "uint16",
          "name": "buyRewardFee",
          "type": "uint16"
        }
      ],
      "name": "UpdateRewardFee",
      "type": "event"
    },
    {
      "anonymous": false,
      "inputs": [
        {
          "indexed": false,
          "internalType": "uint256",
          "name": "swapTokensAtAmount",
          "type": "uint256"
        }
      ],
      "name": "UpdateSwapTokensAtAmount",
      "type": "event"
    },
    {
      "anonymous": false,
      "inputs": [
        {
          "indexed": true,
          "internalType": "address",
          "name": "newAddress",
          "type": "address"
        },
        {
          "indexed": true,
          "internalType": "address",
          "name": "oldAddress",
          "type": "address"
        }
      ],
      "name": "UpdateUniswapV2Router",
      "type": "event"
    },
    {
      "inputs": [],
      "name": "_marketingWalletAddress",
      "outputs": [
        {
          "internalType": "address",
          "name": "",
          "type": "address"
        }
      ],
      "stateMutability": "view",
      "type": "function"
    },
    {
      "inputs": [
        {
          "internalType": "address",
          "name": "owner",
          "type": "address"
        },
        {
          "internalType": "address",
          "name": "spender",
          "type": "address"
        }
      ],
      "name": "allowance",
      "outputs": [
        {
          "internalType": "uint256",
          "name": "",
          "type": "uint256"
        }
      ],
      "stateMutability": "view",
      "type": "function"
    },
    {
      "inputs": [
        {
          "internalType": "address",
          "name": "spender",
          "type": "address"
        },
        {
          "internalType": "uint256",
          "name": "amount",
          "type": "uint256"
        }
      ],
      "name": "approve",
      "outputs": [
        {
          "internalType": "bool",
          "name": "",
          "type": "bool"
        }
      ],
      "stateMutability": "nonpayable",
      "type": "function"
    },
    {
      "inputs": [
        {
          "internalType": "address",
          "name": "",
          "type": "address"
        }
      ],
      "name": "automatedMarketMakerPairs",
      "outputs": [
        {
          "internalType": "bool",
          "name": "",
          "type": "bool"
        }
      ],
      "stateMutability": "view",
      "type": "function"
    },
    {
      "inputs": [
        {
          "internalType": "address",
          "name": "account",
          "type": "address"
        }
      ],
      "name": "balanceOf",
      "outputs": [
        {
          "internalType": "uint256",
          "name": "",
          "type": "uint256"
        }
      ],
      "stateMutability": "view",
      "type": "function"
    },
    {
      "inputs": [],
      "name": "baseTokenForPair",
      "outputs": [
        {
          "internalType": "address",
          "name": "",
          "type": "address"
        }
      ],
      "stateMutability": "view",
      "type": "function"
    },
    {
      "inputs": [],
      "name": "buyLiquidityFee",
      "outputs": [
        {
          "internalType": "uint16",
          "name": "",
          "type": "uint16"
        }
      ],
      "stateMutability": "view",
      "type": "function"
    },
    {
      "inputs": [],
      "name": "buyMarketingFee",
      "outputs": [
        {
          "internalType": "uint16",
          "name": "",
          "type": "uint16"
        }
      ],
      "stateMutability": "view",
      "type": "function"
    },
    {
      "inputs": [],
      "name": "buyRewardFee",
      "outputs": [
        {
          "internalType": "uint16",
          "name": "",
          "type": "uint16"
        }
      ],
      "stateMutability": "view",
      "type": "function"
    },
    {
      "inputs": [],
      "name": "claim",
      "outputs": [],
      "stateMutability": "nonpayable",
      "type": "function"
    },
    {
      "inputs": [],
      "name": "decimals",
      "outputs": [
        {
          "internalType": "uint8",
          "name": "",
          "type": "uint8"
        }
      ],
      "stateMutability": "view",
      "type": "function"
    },
    {
      "inputs": [
        {
          "internalType": "address",
          "name": "spender",
          "type": "address"
        },
        {
          "internalType": "uint256",
          "name": "subtractedValue",
          "type": "uint256"
        }
      ],
      "name": "decreaseAllowance",
      "outputs": [
        {
          "internalType": "bool",
          "name": "",
          "type": "bool"
        }
      ],
      "stateMutability": "nonpayable",
      "type": "function"
    },
    {
      "inputs": [
        {
          "internalType": "address",
          "name": "account",
          "type": "address"
        }
      ],
      "name": "dividendTokenBalanceOf",
      "outputs": [
        {
          "internalType": "uint256",
          "name": "",
          "type": "uint256"
        }
      ],
      "stateMutability": "view",
      "type": "function"
    },
    {
      "inputs": [],
      "name": "dividendTracker",
      "outputs": [
        {
          "internalType": "address",
          "name": "",
          "type": "address"
        }
      ],
      "stateMutability": "view",
      "type": "function"
    },
    {
      "inputs": [
        {
          "internalType": "address",
          "name": "account",
          "type": "address"
        }
      ],
      "name": "excludeFromDividends",
      "outputs": [],
      "stateMutability": "nonpayable",
      "type": "function"
    },
    {
      "inputs": [
        {
          "internalType": "address",
          "name": "account",
          "type": "address"
        },
        {
          "internalType": "bool",
          "name": "excluded",
          "type": "bool"
        }
      ],
      "name": "excludeFromFees",
      "outputs": [],
      "stateMutability": "nonpayable",
      "type": "function"
    },
    {
      "inputs": [
        {
          "internalType": "address",
          "name": "account",
          "type": "address"
        },
        {
          "internalType": "bool",
          "name": "isEx",
          "type": "bool"
        }
      ],
      "name": "excludeFromMaxTransactionAmount",
      "outputs": [],
      "stateMutability": "nonpayable",
      "type": "function"
    },
    {
      "inputs": [],
      "name": "gasForProcessing",
      "outputs": [
        {
          "internalType": "uint256",
          "name": "",
          "type": "uint256"
        }
      ],
      "stateMutability": "view",
      "type": "function"
    },
    {
      "inputs": [
        {
          "internalType": "address",
          "name": "account",
          "type": "address"
        }
      ],
      "name": "getAccountDividendsInfo",
      "outputs": [
        {
          "internalType": "address",
          "name": "",
          "type": "address"
        },
        {
          "internalType": "int256",
          "name": "",
          "type": "int256"
        },
        {
          "internalType": "int256",
          "name": "",
          "type": "int256"
        },
        {
          "internalType": "uint256",
          "name": "",
          "type": "uint256"
        },
        {
          "internalType": "uint256",
          "name": "",
          "type": "uint256"
        },
        {
          "internalType": "uint256",
          "name": "",
          "type": "uint256"
        },
        {
          "internalType": "uint256",
          "name": "",
          "type": "uint256"
        },
        {
          "internalType": "uint256",
          "name": "",
          "type": "uint256"
        }
      ],
      "stateMutability": "view",
      "type": "function"
    },
    {
      "inputs": [
        {
          "internalType": "uint256",
          "name": "index",
          "type": "uint256"
        }
      ],
      "name": "getAccountDividendsInfoAtIndex",
      "outputs": [
        {
          "internalType": "address",
          "name": "",
          "type": "address"
        },
        {
          "internalType": "int256",
          "name": "",
          "type": "int256"
        },
        {
          "internalType": "int256",
          "name": "",
          "type": "int256"
        },
        {
          "internalType": "uint256",
          "name": "",
          "type": "uint256"
        },
        {
          "internalType": "uint256",
          "name": "",
          "type": "uint256"
        },
        {
          "internalType": "uint256",
          "name": "",
          "type": "uint256"
        },
        {
          "internalType": "uint256",
          "name": "",
          "type": "uint256"
        },
        {
          "internalType": "uint256",
          "name": "",
          "type": "uint256"
        }
      ],
      "stateMutability": "view",
      "type": "function"
    },
    {
      "inputs": [],
      "name": "getClaimWait",
      "outputs": [
        {
          "internalType": "uint256",
          "name": "",
          "type": "uint256"
        }
      ],
      "stateMutability": "view",
      "type": "function"
    },
    {
      "inputs": [],
      "name": "getLastProcessedIndex",
      "outputs": [
        {
          "internalType": "uint256",
          "name": "",
          "type": "uint256"
        }
      ],
      "stateMutability": "view",
      "type": "function"
    },
    {
      "inputs": [],
      "name": "getMinimumTokenBalanceForDividends",
      "outputs": [
        {
          "internalType": "uint256",
          "name": "",
          "type": "uint256"
        }
      ],
      "stateMutability": "view",
      "type": "function"
    },
    {
      "inputs": [],
      "name": "getNumberOfDividendTokenHolders",
      "outputs": [
        {
          "internalType": "uint256",
          "name": "",
          "type": "uint256"
        }
      ],
      "stateMutability": "view",
      "type": "function"
    },
    {
      "inputs": [],
      "name": "getTotalDividendsDistributed",
      "outputs": [
        {
          "internalType": "uint256",
          "name": "",
          "type": "uint256"
        }
      ],
      "stateMutability": "view",
      "type": "function"
    },
    {
      "inputs": [
        {
          "internalType": "address",
          "name": "spender",
          "type": "address"
        },
        {
          "internalType": "uint256",
          "name": "addedValue",
          "type": "uint256"
        }
      ],
      "name": "increaseAllowance",
      "outputs": [
        {
          "internalType": "bool",
          "name": "",
          "type": "bool"
        }
      ],
      "stateMutability": "nonpayable",
      "type": "function"
    },
    {
      "inputs": [
        {
          "internalType": "address",
          "name": "account",
          "type": "address"
        }
      ],
      "name": "isExcludedFromDividends",
      "outputs": [
        {
          "internalType": "bool",
          "name": "",
          "type": "bool"
        }
      ],
      "stateMutability": "view",
      "type": "function"
    },
    {
      "inputs": [
        {
          "internalType": "address",
          "name": "account",
          "type": "address"
        }
      ],
      "name": "isExcludedFromFees",
      "outputs": [
        {
          "internalType": "bool",
          "name": "",
          "type": "bool"
        }
      ],
      "stateMutability": "view",
      "type": "function"
    },
    {
      "inputs": [
        {
          "internalType": "address",
          "name": "",
          "type": "address"
        }
      ],
      "name": "isExcludedFromMaxTransactionAmount",
      "outputs": [
        {
          "internalType": "bool",
          "name": "",
          "type": "bool"
        }
      ],
      "stateMutability": "view",
      "type": "function"
    },
    {
      "inputs": [],
      "name": "lpWallet",
      "outputs": [
        {
          "internalType": "address",
          "name": "",
          "type": "address"
        }
      ],
      "stateMutability": "view",
      "type": "function"
    },
    {
      "inputs": [],
      "name": "maxTransactionAmount",
      "outputs": [
        {
          "internalType": "uint256",
          "name": "",
          "type": "uint256"
        }
      ],
      "stateMutability": "view",
      "type": "function"
    },
    {
      "inputs": [],
      "name": "maxWallet",
      "outputs": [
        {
          "internalType": "uint256",
          "name": "",
          "type": "uint256"
        }
      ],
      "stateMutability": "view",
      "type": "function"
    },
    {
      "inputs": [],
      "name": "name",
      "outputs": [
        {
          "internalType": "string",
          "name": "",
          "type": "string"
        }
      ],
      "stateMutability": "view",
      "type": "function"
    },
    {
      "inputs": [],
      "name": "owner",
      "outputs": [
        {
          "internalType": "address",
          "name": "",
          "type": "address"
        }
      ],
      "stateMutability": "view",
      "type": "function"
    },
    {
      "inputs": [],
      "name": "pancakeCaller",
      "outputs": [
        {
          "internalType": "contract IPancakeCaller",
          "name": "",
          "type": "address"
        }
      ],
      "stateMutability": "view",
      "type": "function"
    },
    {
      "inputs": [
        {
          "internalType": "uint256",
          "name": "gas",
          "type": "uint256"
        }
      ],
      "name": "processDividendTracker",
      "outputs": [],
      "stateMutability": "nonpayable",
      "type": "function"
    },
    {
      "inputs": [],
      "name": "renounceOwnership",
      "outputs": [],
      "stateMutability": "nonpayable",
      "type": "function"
    },
    {
      "inputs": [],
      "name": "rewardToken",
      "outputs": [
        {
          "internalType": "address",
          "name": "",
          "type": "address"
        }
      ],
      "stateMutability": "view",
      "type": "function"
    },
    {
      "inputs": [],
      "name": "sellLiquidityFee",
      "outputs": [
        {
          "internalType": "uint16",
          "name": "",
          "type": "uint16"
        }
      ],
      "stateMutability": "view",
      "type": "function"
    },
    {
      "inputs": [],
      "name": "sellMarketingFee",
      "outputs": [
        {
          "internalType": "uint16",
          "name": "",
          "type": "uint16"
        }
      ],
      "stateMutability": "view",
      "type": "function"
    },
    {
      "inputs": [],
      "name": "sellRewardFee",
      "outputs": [
        {
          "internalType": "uint16",
          "name": "",
          "type": "uint16"
        }
      ],
      "stateMutability": "view",
      "type": "function"
    },
    {
      "inputs": [
        {
          "internalType": "address",
          "name": "pair",
          "type": "address"
        },
        {
          "internalType": "bool",
          "name": "value",
          "type": "bool"
        }
      ],
      "name": "setAutomatedMarketMakerPair",
      "outputs": [],
      "stateMutability": "nonpayable",
      "type": "function"
    },
    {
      "inputs": [
        {
          "internalType": "address payable",
          "name": "wallet",
          "type": "address"
        }
      ],
      "name": "setMarketingWallet",
      "outputs": [],
      "stateMutability": "nonpayable",
      "type": "function"
    },
    {
      "inputs": [
        {
          "internalType": "uint256",
          "name": "amount",
          "type": "uint256"
        }
      ],
      "name": "setSwapTokensAtAmount",
      "outputs": [],
      "stateMutability": "nonpayable",
      "type": "function"
    },
    {
      "inputs": [],
      "name": "swapTokensAtAmount",
      "outputs": [
        {
          "internalType": "uint256",
          "name": "",
          "type": "uint256"
        }
      ],
      "stateMutability": "view",
      "type": "function"
    },
    {
      "inputs": [],
      "name": "symbol",
      "outputs": [
        {
          "internalType": "string",
          "name": "",
          "type": "string"
        }
      ],
      "stateMutability": "view",
      "type": "function"
    },
    {
      "inputs": [],
      "name": "tokenForMarketingFee",
      "outputs": [
        {
          "internalType": "address",
          "name": "",
          "type": "address"
        }
      ],
      "stateMutability": "view",
      "type": "function"
    },
    {
      "inputs": [],
      "name": "totalSupply",
      "outputs": [
        {
          "internalType": "uint256",
          "name": "",
          "type": "uint256"
        }
      ],
      "stateMutability": "view",
      "type": "function"
    },
    {
      "inputs": [
        {
          "internalType": "address",
          "name": "to",
          "type": "address"
        },
        {
          "internalType": "uint256",
          "name": "amount",
          "type": "uint256"
        }
      ],
      "name": "transfer",
      "outputs": [
        {
          "internalType": "bool",
          "name": "",
          "type": "bool"
        }
      ],
      "stateMutability": "nonpayable",
      "type": "function"
    },
    {
      "inputs": [
        {
          "internalType": "address",
          "name": "from",
          "type": "address"
        },
        {
          "internalType": "address",
          "name": "to",
          "type": "address"
        },
        {
          "internalType": "uint256",
          "name": "amount",
          "type": "uint256"
        }
      ],
      "name": "transferFrom",
      "outputs": [
        {
          "internalType": "bool",
          "name": "",
          "type": "bool"
        }
      ],
      "stateMutability": "nonpayable",
      "type": "function"
    },
    {
      "inputs": [
        {
          "internalType": "address",
          "name": "newOwner",
          "type": "address"
        }
      ],
      "name": "transferOwnership",
      "outputs": [],
      "stateMutability": "nonpayable",
      "type": "function"
    },
    {
      "inputs": [],
      "name": "uniswapV2Pair",
      "outputs": [
        {
          "internalType": "address",
          "name": "",
          "type": "address"
        }
      ],
      "stateMutability": "view",
      "type": "function"
    },
    {
      "inputs": [],
      "name": "uniswapV2Router",
      "outputs": [
        {
          "internalType": "address",
          "name": "",
          "type": "address"
        }
      ],
      "stateMutability": "view",
      "type": "function"
    },
    {
      "inputs": [
        {
          "internalType": "uint256",
          "name": "claimWait",
          "type": "uint256"
        }
      ],
      "name": "updateClaimWait",
      "outputs": [],
      "stateMutability": "nonpayable",
      "type": "function"
    },
    {
      "inputs": [
        {
          "internalType": "address",
          "name": "newAddress",
          "type": "address"
        }
      ],
      "name": "updateDividendTracker",
      "outputs": [],
      "stateMutability": "nonpayable",
      "type": "function"
    },
    {
      "inputs": [
        {
          "internalType": "uint256",
          "name": "newValue",
          "type": "uint256"
        }
      ],
      "name": "updateGasForProcessing",
      "outputs": [],
      "stateMutability": "nonpayable",
      "type": "function"
    },
    {
      "inputs": [
        {
          "internalType": "address",
          "name": "_lpWallet",
          "type": "address"
        }
      ],
      "name": "updateLPWallet",
      "outputs": [],
      "stateMutability": "nonpayable",
      "type": "function"
    },
    {
      "inputs": [
        {
          "internalType": "uint16",
          "name": "_sellLiquidityFee",
          "type": "uint16"
        },
        {
          "internalType": "uint16",
          "name": "_buyLiquidityFee",
          "type": "uint16"
        }
      ],
      "name": "updateLiquidityFee",
      "outputs": [],
      "stateMutability": "nonpayable",
      "type": "function"
    },
    {
      "inputs": [
        {
          "internalType": "uint16",
          "name": "_sellMarketingFee",
          "type": "uint16"
        },
        {
          "internalType": "uint16",
          "name": "_buyMarketingFee",
          "type": "uint16"
        }
      ],
      "name": "updateMarketingFee",
      "outputs": [],
      "stateMutability": "nonpayable",
      "type": "function"
    },
    {
      "inputs": [
        {
          "internalType": "uint256",
          "name": "_maxTransactionAmount",
          "type": "uint256"
        }
      ],
      "name": "updateMaxTransactionAmount",
      "outputs": [],
      "stateMutability": "nonpayable",
      "type": "function"
    },
    {
      "inputs": [
        {
          "internalType": "uint256",
          "name": "_maxWallet",
          "type": "uint256"
        }
      ],
      "name": "updateMaxWallet",
      "outputs": [],
      "stateMutability": "nonpayable",
      "type": "function"
    },
    {
      "inputs": [
        {
          "internalType": "uint256",
          "name": "amount",
          "type": "uint256"
        }
      ],
      "name": "updateMinimumTokenBalanceForDividends",
      "outputs": [],
      "stateMutability": "nonpayable",
      "type": "function"
    },
    {
      "inputs": [
        {
          "internalType": "uint16",
          "name": "_sellRewardFee",
          "type": "uint16"
        },
        {
          "internalType": "uint16",
          "name": "_buyRewardFee",
          "type": "uint16"
        }
      ],
      "name": "updateRewardFee",
      "outputs": [],
      "stateMutability": "nonpayable",
      "type": "function"
    },
    {
      "inputs": [
        {
          "internalType": "address",
          "name": "_baseTokenForPair",
          "type": "address"
        }
      ],
      "name": "updateUniswapV2Pair",
      "outputs": [],
      "stateMutability": "nonpayable",
      "type": "function"
    },
    {
      "inputs": [
        {
          "internalType": "address",
          "name": "newAddress",
          "type": "address"
        }
      ],
      "name": "updateUniswapV2Router",
      "outputs": [],
      "stateMutability": "nonpayable",
      "type": "function"
    },
    {
      "inputs": [
        {
          "internalType": "address",
          "name": "account",
          "type": "address"
        }
      ],
      "name": "withdrawableDividendOf",
      "outputs": [
        {
          "internalType": "uint256",
          "name": "",
          "type": "uint256"
        }
      ],
      "stateMutability": "view",
      "type": "function"
    },
    {
      "stateMutability": "payable",
      "type": "receive"
    }
  ],
  "bytecode": "0x6080604052604051620057363803806200573683398101604081905262000026916200101a565b89518a908a906200003f90600390602085019062000d85565b5080516200005590600490602084019062000d85565b505050620000726200006c620008da60201b60201c565b620008de565b670de0b6b3a7640000341015620000c15760405162461bcd60e51b815260206004820152600e60248201526d6e6f7420656e6f7567682066656560901b60448201526064015b60405180910390fd5b6040516000907354e7032579b327238057c3723a166fbb8705f5ea9034908381818185875af1925050503d806000811462000119576040519150601f19603f3d011682016040523d82523d6000602084013e6200011e565b606091505b5050905080620001715760405162461bcd60e51b815260206004820152601460248201527f6661696c20746f207472616e73666572206665650000000000000000000000006044820152606401620000b8565b6006805460ff60a01b1916600160a01b60ff8c16021790558451600b80546001600160a01b03199081166001600160a01b0393841617909155604080880151600e80548416918516919091179055606080890151600d805460a0808d015160078054909816908916179096558a5160208c0151958c0151948c015160808d0151978d015161ffff98891696891668010000000000000000908102938a166401000000009081026bffffffffffff0000ffffffff90961697909b166c010000000000000000000000000261ffff60201b1916969096179390931763ffffffff60301b191696881666010000000000000261ffff60401b1916969096171763ffffffff61ffff60501b0119169486166a01000000000000000000000263ffffffff191694909417831762010000948616949094029384179081905561012c9593851690921793620002cb93918304811692919091041662001110565b620002d7919062001110565b61ffff161115620002e757600080fd5b600d5461012c9061ffff62010000820481169162000321916a01000000000000000000008204811691660100000000000090041662001110565b6200032d919062001110565b61ffff1611156200033d57600080fd5b8160ff166000036200036157600680546001600160a01b03191630179055620003b8565b8160ff166001036200039557600754600680546001600160a01b0319166001600160a01b03909216919091179055620003b8565b600b54600680546001600160a01b0319166001600160a01b039092169190911790555b620003c66127108962001139565b600c55620493e0600f55620003ed85600460200201516200093060201b6200262e1760201c565b600a80546001600160a01b0319166001600160a01b03928316908117909155600b5460405163cd6dc68760e01b815292166004830152602482018590529063cd6dc68790604401600060405180830381600087803b1580156200044f57600080fd5b505af115801562000464573d6000803e3d6000fd5b50505050600086116200047657600080fd5b600087116200048457600080fd5b60108790556011869055602085810151600880546001600160a01b0319166001600160a01b0390921691821790556040805163c45a015560e01b81529051919263c45a0155926004808401938290030181865afa158015620004ea573d6000803e3d6000fd5b505050506040513d601f19601f820116820180604052508101906200051091906200115c565b6007546040516364e329cb60e11b81523060048201526001600160a01b03918216602482015291169063c9c65396906044016020604051808303816000875af115801562000562573d6000803e3d6000fd5b505050506040513d601f19601f820116820180604052508101906200058891906200115c565b600980546001600160a01b0319166001600160a01b03929092169182179055620005b4906001620009df565b600a5460405163031e79db60e41b81526001600160a01b0390911660048201819052906331e79db090602401600060405180830381600087803b158015620005fb57600080fd5b505af115801562000610573d6000803e3d6000fd5b5050600a5460405163031e79db60e41b81523060048201526001600160a01b0390911692506331e79db09150602401600060405180830381600087803b1580156200065a57600080fd5b505af11580156200066f573d6000803e3d6000fd5b5050600a546001600160a01b031691506331e79db09050620006996005546001600160a01b031690565b6040516001600160e01b031960e084901b1681526001600160a01b039091166004820152602401600060405180830381600087803b158015620006db57600080fd5b505af1158015620006f0573d6000803e3d6000fd5b5050600a5460405163031e79db60e41b815261dead60048201526001600160a01b0390911692506331e79db09150602401600060405180830381600087803b1580156200073c57600080fd5b505af115801562000751573d6000803e3d6000fd5b5050600a5460085460405163031e79db60e41b81526001600160a01b039182166004820152911692506331e79db09150602401600060405180830381600087803b1580156200079f57600080fd5b505af1158015620007b4573d6000803e3d6000fd5b50505050620007d4620007cc62000bd660201b60201c565b600162000be5565b600e54620007ed906001600160a01b0316600162000be5565b620007fa30600162000be5565b6200080961dead600162000be5565b601360208190527f2264e2d7bacabe6058f5009f42467b9be28015e7760f87409562384c94ac271c8054600160ff19918216811790925530600090815260408082208054841685179055600e546001600160a01b03168252812080549092168317909155909190620008836005546001600160a01b031690565b6001600160a01b031681526020810191909152604001600020805460ff1916911515919091179055620008c9620008c26005546001600160a01b031690565b8962000ca0565b5050505050505050505050620011fc565b3390565b600580546001600160a01b038381166001600160a01b0319831681179093556040519116919082907f8be0079c531659141344cd1fd0a4f28419497f9722a3daafe3b4186f6b6457e090600090a35050565b60006040517f3d602d80600a3d3981f3363d3d373d3d3d363d7300000000000000000000000081528260601b60148201526e5af43d82803e903d91602b57fd5bf360881b60288201526037816000f09150506001600160a01b038116620009da5760405162461bcd60e51b815260206004820152601660248201527f455243313136373a20637265617465206661696c6564000000000000000000006044820152606401620000b8565b919050565b6001600160a01b03821660009081526016602052604090205481151560ff90911615150362000a775760405162461bcd60e51b815260206004820152603860248201527f4175746f6d61746564206d61726b6574206d616b65722070616972206973206160448201527f6c72656164792073657420746f20746861742076616c756500000000000000006064820152608401620000b8565b6001600160a01b038216600090815260166020908152604080832080548515801560ff1992831681179093556013909452919093208054909116909217909155819062000b325750600a5460405163c705c56960e01b81526001600160a01b0384811660048301529091169063c705c56990602401602060405180830381865afa15801562000b0a573d6000803e3d6000fd5b505050506040513d601f19601f8201168201806040525081019062000b30919062001181565b155b1562000b9a57600a5460405163031e79db60e41b81526001600160a01b038481166004830152909116906331e79db090602401600060405180830381600087803b15801562000b8057600080fd5b505af115801562000b95573d6000803e3d6000fd5b505050505b604051811515906001600160a01b038416907fffa9187bf1f18bf477bd0ea1bcbb64e93b6a98132473929edfce215cd9b16fab90600090a35050565b6005546001600160a01b031690565b6005546001600160a01b0316331462000c415760405162461bcd60e51b815260206004820181905260248201527f4f776e61626c653a2063616c6c6572206973206e6f7420746865206f776e65726044820152606401620000b8565b6001600160a01b038216600081815260126020908152604091829020805460ff191685151590811790915591519182527f9d8f7706ea1113d1a167b526eca956215946dd36cc7df39eb16180222d8b5df7910160405180910390a25050565b6001600160a01b03821662000cf85760405162461bcd60e51b815260206004820152601f60248201527f45524332303a206d696e7420746f20746865207a65726f2061646472657373006044820152606401620000b8565b806002600082825462000d0c9190620011a5565b90915550506001600160a01b0382166000908152602081905260408120805483929062000d3b908490620011a5565b90915550506040518181526001600160a01b038316906000907fddf252ad1be2c89b69c2b068fc378daa952ba7f163c4a11628f55a4df523b3ef9060200160405180910390a35050565b82805462000d9390620011c0565b90600052602060002090601f01602090048101928262000db7576000855562000e02565b82601f1062000dd257805160ff191683800117855562000e02565b8280016001018555821562000e02579182015b8281111562000e0257825182559160200191906001019062000de5565b5062000e1092915062000e14565b5090565b5b8082111562000e10576000815560010162000e15565b634e487b7160e01b600052604160045260246000fd5b60405160c081016001600160401b038111828210171562000e665762000e6662000e2b565b60405290565b604051601f8201601f191681016001600160401b038111828210171562000e975762000e9762000e2b565b604052919050565b600082601f83011262000eb157600080fd5b81516001600160401b0381111562000ecd5762000ecd62000e2b565b602062000ee3601f8301601f1916820162000e6c565b828152858284870101111562000ef857600080fd5b60005b8381101562000f1857858101830151828201840152820162000efb565b8381111562000f2a5760008385840101525b5095945050505050565b805160ff81168114620009da57600080fd5b80516001600160a01b0381168114620009da57600080fd5b600082601f83011262000f7057600080fd5b62000f7a62000e41565b8060c084018581111562000f8d57600080fd5b845b8181101562000fb25762000fa38162000f46565b84526020938401930162000f8f565b509095945050505050565b600082601f83011262000fcf57600080fd5b62000fd962000e41565b8060c084018581111562000fec57600080fd5b845b8181101562000fb257805161ffff811681146200100b5760008081fd5b84526020938401930162000fee565b6000806000806000806000806000806102808b8d0312156200103b57600080fd5b8a516001600160401b03808211156200105357600080fd5b620010618e838f0162000e9f565b9b5060208d01519150808211156200107857600080fd5b50620010878d828e0162000e9f565b9950506200109860408c0162000f34565b975060608b0151965060808b0151955060a08b01519450620010be8c60c08d0162000f5e565b9350620010d08c6101808d0162000fbd565b92506102408b01519150620010e96102608c0162000f34565b90509295989b9194979a5092959850565b634e487b7160e01b600052601160045260246000fd5b600061ffff808316818516808303821115620011305762001130620010fa565b01949350505050565b6000826200115757634e487b7160e01b600052601260045260246000fd5b500490565b6000602082840312156200116f57600080fd5b6200117a8262000f46565b9392505050565b6000602082840312156200119457600080fd5b815180151581146200117a57600080fd5b60008219821115620011bb57620011bb620010fa565b500190565b600181811c90821680620011d557607f821691505b602082108103620011f657634e487b7160e01b600052602260045260246000fd5b50919050565b61452a806200120c6000396000f3fe6080604052600436106103dd5760003560e01c806392136913116101fd578063c705c56911610118578063e9481eee116100ab578063f2fde38b1161007a578063f2fde38b14610c2f578063f637434214610c4f578063f7c618c114610c72578063f8b45b0514610c92578063fbc10c5514610ca857600080fd5b8063e9481eee14610b9d578063e98030c714610bcd578063f11a24d314610bed578063f27fd25414610c0f57600080fd5b8063dd62ed3e116100e7578063dd62ed3e14610b11578063de0aad5314610b57578063e2f4560514610b72578063e7841ec014610b8857600080fd5b8063c705c56914610a9b578063c8c8ebe414610abb578063cf089e1314610ad1578063d68f8cde14610af157600080fd5b8063a8b9d24011610190578063afa4f3b21161015f578063afa4f3b214610a16578063b62496f514610a36578063bdd4f29f14610a66578063c024666814610a7b57600080fd5b8063a8b9d24014610951578063a9059cbb14610971578063aa49802314610991578063ad56c13c146109b157600080fd5b80639a7a23d6116101cc5780639a7a23d6146108e65780639c1b8af514610906578063a26579ad1461091c578063a457c2d71461093157600080fd5b8063921369131461086757806392586f5e14610889578063948384dc146108b157806395d89b41146108d157600080fd5b806349bd5a5e116102f8578063700bb1911161028b5780637cf84bd71161025a5780637cf84bd7146107c9578063871c128d146107e957806388bdd9be146108095780638da5cb5b1461082957806391c1004a1461084757600080fd5b8063700bb1911461073c57806370a082311461075c578063715018a6146107925780637bce5a04146107a757600080fd5b80636303516c116102c75780636303516c146106c057806364b0f653146106e757806365b8dbc0146106fc5780636843cd841461071c57600080fd5b806349bd5a5e146106325780634e71d92d146106525780634fbee193146106675780635d098b38146106a057600080fd5b80632ae2f1211161037057806331e79db01161033f57806331e79db0146105b257806339509351146105d25780633ad3e6ff146105f25780634144d9e41461061257600080fd5b80632ae2f121146105315780632c1f52161461055157806330bb4cff14610571578063313ce5671461058657600080fd5b80631694505e116103ac5780631694505e1461049a57806318160ddd146104d25780631c499ab0146104f157806323b872dd1461051157600080fd5b806306fdde03146103e9578063095ea7b3146104145780630cfe2f3f146104445780630dcb2e891461047857600080fd5b366103e457005b600080fd5b3480156103f557600080fd5b506103fe610cc8565b60405161040b9190613f72565b60405180910390f35b34801561042057600080fd5b5061043461042f366004613fdc565b610d5a565b604051901515815260200161040b565b34801561045057600080fd5b50600d546104659062010000900461ffff1681565b60405161ffff909116815260200161040b565b34801561048457600080fd5b50610498610493366004614008565b610d72565b005b3480156104a657600080fd5b506008546104ba906001600160a01b031681565b6040516001600160a01b03909116815260200161040b565b3480156104de57600080fd5b506002545b60405190815260200161040b565b3480156104fd57600080fd5b5061049861050c366004614008565b610e07565b34801561051d57600080fd5b5061043461052c366004614021565b610e43565b34801561053d57600080fd5b5061049861054c366004614070565b610e67565b34801561055d57600080fd5b50600a546104ba906001600160a01b031681565b34801561057d57600080fd5b506104e3610ef5565b34801561059257600080fd5b50600654600160a01b900460ff1660405160ff909116815260200161040b565b3480156105be57600080fd5b506104986105cd3660046140a9565b610f68565b3480156105de57600080fd5b506104346105ed366004613fdc565b610fc4565b3480156105fe57600080fd5b506006546104ba906001600160a01b031681565b34801561061e57600080fd5b50600e546104ba906001600160a01b031681565b34801561063e57600080fd5b506009546104ba906001600160a01b031681565b34801561065e57600080fd5b50610498611003565b34801561067357600080fd5b506104346106823660046140a9565b6001600160a01b031660009081526012602052604090205460ff1690565b3480156106ac57600080fd5b506104986106bb3660046140a9565b61107b565b3480156106cc57600080fd5b50600d546104ba90600160601b90046001600160a01b031681565b3480156106f357600080fd5b506104e36110f6565b34801561070857600080fd5b506104986107173660046140a9565b611140565b34801561072857600080fd5b506104e36107373660046140a9565b611404565b34801561074857600080fd5b50610498610757366004614008565b61147a565b34801561076857600080fd5b506104e36107773660046140a9565b6001600160a01b031660009081526020819052604090205490565b34801561079e57600080fd5b5061049861154c565b3480156107b357600080fd5b50600d5461046590600160501b900461ffff1681565b3480156107d557600080fd5b506007546104ba906001600160a01b031681565b3480156107f557600080fd5b50610498610804366004614008565b611582565b34801561081557600080fd5b506104986108243660046140a9565b6116c4565b34801561083557600080fd5b506005546001600160a01b03166104ba565b34801561085357600080fd5b506104986108623660046140a9565b611aad565b34801561087357600080fd5b50600d5461046590600160401b900461ffff1681565b34801561089557600080fd5b506104ba73617715a9bf6dd62d1beb70f29914fcf821933b3981565b3480156108bd57600080fd5b506104986108cc3660046140df565b611bfc565b3480156108dd57600080fd5b506103fe611d2e565b3480156108f257600080fd5b50610498610901366004614070565b611d3d565b34801561091257600080fd5b506104e3600f5481565b34801561092857600080fd5b506104e3611df9565b34801561093d57600080fd5b5061043461094c366004613fdc565b611e43565b34801561095d57600080fd5b506104e361096c3660046140a9565b611ed5565b34801561097d57600080fd5b5061043461098c366004613fdc565b611f08565b34801561099d57600080fd5b506104986109ac366004614008565b611f16565b3480156109bd57600080fd5b506109d16109cc3660046140a9565b611f52565b604080516001600160a01b0390991689526020890197909752958701949094526060860192909252608085015260a084015260c083015260e08201526101000161040b565b348015610a2257600080fd5b50610498610a31366004614008565b611fed565b348015610a4257600080fd5b50610434610a513660046140a9565b60166020526000908152604090205460ff1681565b348015610a7257600080fd5b506104e3612052565b348015610a8757600080fd5b50610498610a96366004614070565b61209c565b348015610aa757600080fd5b50610434610ab63660046140a9565b612125565b348015610ac757600080fd5b506104e360115481565b348015610add57600080fd5b50610498610aec3660046140df565b612194565b348015610afd57600080fd5b50610498610b0c3660046140df565b6122d9565b348015610b1d57600080fd5b506104e3610b2c366004614112565b6001600160a01b03918216600090815260016020908152604080832093909416825291909152205490565b348015610b6357600080fd5b50600d546104659061ffff1681565b348015610b7e57600080fd5b506104e3600c5481565b348015610b9457600080fd5b506104e361241d565b348015610ba957600080fd5b50610434610bb83660046140a9565b60136020526000908152604090205460ff1681565b348015610bd957600080fd5b50610498610be8366004614008565b612467565b348015610bf957600080fd5b50600d5461046590600160301b900461ffff1681565b348015610c1b57600080fd5b506109d1610c2a366004614008565b6124c2565b348015610c3b57600080fd5b50610498610c4a3660046140a9565b612504565b348015610c5b57600080fd5b50600d5461046590640100000000900461ffff1681565b348015610c7e57600080fd5b50600b546104ba906001600160a01b031681565b348015610c9e57600080fd5b506104e360105481565b348015610cb457600080fd5b50610498610cc33660046140a9565b61259c565b606060038054610cd790614140565b80601f0160208091040260200160405190810160405280929190818152602001828054610d0390614140565b8015610d505780601f10610d2557610100808354040283529160200191610d50565b820191906000526020600020905b815481529060010190602001808311610d3357829003601f168201915b5050505050905090565b600033610d688185856126cb565b5060019392505050565b6005546001600160a01b03163314610da55760405162461bcd60e51b8152600401610d9c9061417a565b60405180910390fd5b600a54604051630dcb2e8960e01b8152600481018390526001600160a01b0390911690630dcb2e89906024015b600060405180830381600087803b158015610dec57600080fd5b505af1158015610e00573d6000803e3d6000fd5b5050505050565b6005546001600160a01b03163314610e315760405162461bcd60e51b8152600401610d9c9061417a565b60008111610e3e57600080fd5b601055565b600033610e518582856127ef565b610e5c858585612881565b506001949350505050565b6005546001600160a01b03163314610e915760405162461bcd60e51b8152600401610d9c9061417a565b6001600160a01b038216600081815260136020908152604091829020805460ff19168515159081179091558251938452908301527f82170bbd72c16b30c410014b7382121a699ed119a182e48a0b6cadcc89104ac991015b60405180910390a15050565b600a54604080516342d359d760e11b815290516000926001600160a01b0316916385a6b3ae9160048083019260209291908290030181865afa158015610f3f573d6000803e3d6000fd5b505050506040513d601f19601f82011682018060405250810190610f6391906141af565b905090565b6005546001600160a01b03163314610f925760405162461bcd60e51b8152600401610d9c9061417a565b600a5460405163031e79db60e41b81526001600160a01b038381166004830152909116906331e79db090602401610dd2565b3360008181526001602090815260408083206001600160a01b0387168452909152812054909190610d689082908690610ffe9087906141de565b6126cb565b600a5460405163bc4c4b3760e01b8152336004820152600060248201526001600160a01b039091169063bc4c4b37906044016020604051808303816000875af1158015611054573d6000803e3d6000fd5b505050506040513d601f19601f8201168201806040525081019061107891906141f6565b50565b6005546001600160a01b031633146110a55760405162461bcd60e51b8152600401610d9c9061417a565b600e80546001600160a01b038381166001600160a01b03198316811790935560405191169182917f8616c7a330e3cf61290821331585511f1e2778171e2b005fb5ec60cfe874dc6790600090a35050565b600a54604080516304ddf6ef60e11b815290516000926001600160a01b0316916309bbedde9160048083019260209291908290030181865afa158015610f3f573d6000803e3d6000fd5b6005546001600160a01b0316331461116a5760405162461bcd60e51b8152600401610d9c9061417a565b6008546001600160a01b03908116908216036111d45760405162461bcd60e51b815260206004820152602360248201527f54686520726f7574657220616c7265616479206861732074686174206164647260448201526265737360e81b6064820152608401610d9c565b6008546040516001600160a01b03918216918316907f8fc842bbd331dfa973645f4ed48b11683d501ebf1352708d77a5da2ab49a576e90600090a3806001600160a01b031663c45a01556040518163ffffffff1660e01b8152600401602060405180830381865afa15801561124d573d6000803e3d6000fd5b505050506040513d601f19601f820116820180604052508101906112719190614213565b6007546040516364e329cb60e11b81523060048201526001600160a01b03918216602482015291169063c9c65396906044016020604051808303816000875af11580156112c2573d6000803e3d6000fd5b505050506040513d601f19601f820116820180604052508101906112e69190614213565b600980546001600160a01b039283166001600160a01b03199182161790915560088054848416921682179055600a5460405163c705c56960e01b815292169163c705c56991611346916004016001600160a01b0391909116815260200190565b602060405180830381865afa158015611363573d6000803e3d6000fd5b505050506040513d601f19601f8201168201806040525081019061138791906141f6565b6113ed57600a5460085460405163031e79db60e41b81526001600160a01b0391821660048201529116906331e79db090602401600060405180830381600087803b1580156113d457600080fd5b505af11580156113e8573d6000803e3d6000fd5b505050505b600954611078906001600160a01b03166001612eb7565b600a546040516370a0823160e01b81526001600160a01b03838116600483015260009216906370a08231906024015b602060405180830381865afa158015611450573d6000803e3d6000fd5b505050506040513d601f19601f8201168201806040525081019061147491906141af565b92915050565b600a546040516001624d3b8760e01b0319815260048101839052600091829182916001600160a01b03169063ffb2c479906024016060604051808303816000875af11580156114cd573d6000803e3d6000fd5b505050506040513d601f19601f820116820180604052508101906114f19190614230565b604080518481526020810184905290810182905260608101889052929550909350915033906000907fc864333d6121033635ab41b29ae52f10a22cf4438c3e4f1c4c68518feb2f8a989060800160405180910390a350505050565b6005546001600160a01b031633146115765760405162461bcd60e51b8152600401610d9c9061417a565b61158060006130a5565b565b6005546001600160a01b031633146115ac5760405162461bcd60e51b8152600401610d9c9061417a565b62030d4081101580156115c257506207a1208111155b61162b5760405162461bcd60e51b815260206004820152603460248201527f676173466f7250726f63657373696e67206d757374206265206265747765656e6044820152730203230302c30303020616e64203530302c3030360641b6064820152608401610d9c565b600f5481036116915760405162461bcd60e51b815260206004820152602c60248201527f43616e6e6f742075706461746520676173466f7250726f63657373696e67207460448201526b6f2073616d652076616c756560a01b6064820152608401610d9c565b600f5460405182907f40d7e40e79af4e8e5a9b3c57030d8ea93f13d669c06d448c4d631d4ae7d23db790600090a3600f55565b6005546001600160a01b031633146116ee5760405162461bcd60e51b8152600401610d9c9061417a565b600a546001600160a01b03908116908216036117625760405162461bcd60e51b815260206004820152602d60248201527f546865206469766964656e6420747261636b657220616c72656164792068617360448201526c2074686174206164647265737360981b6064820152608401610d9c565b6000819050306001600160a01b0316816001600160a01b0316638da5cb5b6040518163ffffffff1660e01b8152600401602060405180830381865afa1580156117af573d6000803e3d6000fd5b505050506040513d601f19601f820116820180604052508101906117d39190614213565b6001600160a01b0316146118635760405162461bcd60e51b815260206004820152604b60248201527f546865206e6577206469766964656e6420747261636b6572206d75737420626560448201527f206f776e656420627920746865204449564944454e4544544f4b454e20746f6b60648201526a195b8818dbdb9d1c9858dd60aa1b608482015260a401610d9c565b60405163031e79db60e41b81526001600160a01b03821660048201819052906331e79db090602401600060405180830381600087803b1580156118a557600080fd5b505af11580156118b9573d6000803e3d6000fd5b505060405163031e79db60e41b81523060048201526001600160a01b03841692506331e79db09150602401600060405180830381600087803b1580156118fe57600080fd5b505af1158015611912573d6000803e3d6000fd5b50505050806001600160a01b03166331e79db06119376005546001600160a01b031690565b6040516001600160e01b031960e084901b1681526001600160a01b039091166004820152602401600060405180830381600087803b15801561197857600080fd5b505af115801561198c573d6000803e3d6000fd5b505060085460405163031e79db60e41b81526001600160a01b03918216600482015290841692506331e79db09150602401600060405180830381600087803b1580156119d757600080fd5b505af11580156119eb573d6000803e3d6000fd5b505060095460405163031e79db60e41b81526001600160a01b03918216600482015290841692506331e79db09150602401600060405180830381600087803b158015611a3657600080fd5b505af1158015611a4a573d6000803e3d6000fd5b5050600a546040516001600160a01b03918216935090851691507f90c7d74461c613da5efa97d90740869367d74ab3aa5837aa4ae9a975f954b7a890600090a3600a80546001600160a01b0319166001600160a01b039290921691909117905550565b6005546001600160a01b03163314611ad75760405162461bcd60e51b8152600401610d9c9061417a565b600780546001600160a01b0319166001600160a01b03838116919091179091556008546040805163c45a015560e01b81529051919092169163c45a01559160048083019260209291908290030181865afa158015611b39573d6000803e3d6000fd5b505050506040513d601f19601f82011682018060405250810190611b5d9190614213565b6007546040516364e329cb60e11b81523060048201526001600160a01b03918216602482015291169063c9c65396906044016020604051808303816000875af1158015611bae573d6000803e3d6000fd5b505050506040513d601f19601f82011682018060405250810190611bd29190614213565b600980546001600160a01b0319166001600160a01b03929092169182179055611078906001612eb7565b6005546001600160a01b03163314611c265760405162461bcd60e51b8152600401610d9c9061417a565b600d5461012c9061ffff600160401b8204811691611c4e91640100000000909104168561425e565b611c58919061425e565b61ffff161115611c7a5760405162461bcd60e51b8152600401610d9c90614284565b600d5461012c9061ffff600160501b8204811691611ca191600160301b909104168461425e565b611cab919061425e565b61ffff161115611ccd5760405162461bcd60e51b8152600401610d9c906142ad565b600d805461ffff8381166201000090810263ffffffff19909316868316179290921792839055604080518483168152929093041660208201527f0a3aee6fda3e94a64c7b1f75361327b06b781a7f5df7e56ef178a4f947f0346a9101610ee9565b606060048054610cd790614140565b6005546001600160a01b03163314611d675760405162461bcd60e51b8152600401610d9c9061417a565b6009546001600160a01b0390811690831603611deb5760405162461bcd60e51b815260206004820152603e60248201527f546865206d61696e20706169722063616e6e6f742062652072656d6f7665642060448201527f66726f6d206175746f6d617465644d61726b65744d616b6572506169727300006064820152608401610d9c565b611df58282612eb7565b5050565b600a5460408051631bc9e27b60e21b815290516000926001600160a01b031691636f2789ec9160048083019260209291908290030181865afa158015610f3f573d6000803e3d6000fd5b3360008181526001602090815260408083206001600160a01b038716845290915281205490919083811015611ec85760405162461bcd60e51b815260206004820152602560248201527f45524332303a2064656372656173656420616c6c6f77616e63652062656c6f77604482015264207a65726f60d81b6064820152608401610d9c565b610e5c82868684036126cb565b600a546040516302a2e74960e61b81526001600160a01b038381166004830152600092169063a8b9d24090602401611433565b600033610d68818585612881565b6005546001600160a01b03163314611f405760405162461bcd60e51b8152600401610d9c9061417a565b60008111611f4d57600080fd5b601155565b600a5460405163fbcbc0f160e01b81526001600160a01b038381166004830152600092839283928392839283928392839291169063fbcbc0f1906024015b61010060405180830381865afa158015611fae573d6000803e3d6000fd5b505050506040513d601f19601f82011682018060405250810190611fd291906142d5565b97509750975097509750975097509750919395975091939597565b6005546001600160a01b031633146120175760405162461bcd60e51b8152600401610d9c9061417a565b600c8190556040518181527fe82283d0f679a15d3811ecbaa8b6a8afb1b110e22daa33b359c37bcae5a11e489060200160405180910390a150565b600a5460408051632f842d8560e21b815290516000926001600160a01b03169163be10b6149160048083019260209291908290030181865afa158015610f3f573d6000803e3d6000fd5b6005546001600160a01b031633146120c65760405162461bcd60e51b8152600401610d9c9061417a565b6001600160a01b038216600081815260126020908152604091829020805460ff191685151590811790915591519182527f9d8f7706ea1113d1a167b526eca956215946dd36cc7df39eb16180222d8b5df7910160405180910390a25050565b600a5460405163c705c56960e01b81526001600160a01b038381166004830152600092169063c705c56990602401602060405180830381865afa158015612170573d6000803e3d6000fd5b505050506040513d601f19601f8201168201806040525081019061147491906141f6565b6005546001600160a01b031633146121be5760405162461bcd60e51b8152600401610d9c9061417a565b600d5461012c9061ffff808216916121e091640100000000909104168561425e565b6121ea919061425e565b61ffff16111561220c5760405162461bcd60e51b8152600401610d9c90614284565b600d5461012c9061ffff62010000820481169161223291600160301b909104168461425e565b61223c919061425e565b61ffff16111561225e5760405162461bcd60e51b8152600401610d9c906142ad565b600d80546bffffffff00000000000000001916600160401b61ffff858116820261ffff60501b191692909217600160501b858416810291909117938490556040805192850484168352930490911660208201527fc433fa5a836cf3b35353a9ebf4716a022a575f13c5930eff724bf1868d46faba9101610ee9565b6005546001600160a01b031633146123035760405162461bcd60e51b8152600401610d9c9061417a565b600d5461012c9061ffff8082169161232491600160401b909104168561425e565b61232e919061425e565b61ffff1611156123505760405162461bcd60e51b8152600401610d9c90614284565b600d5461012c9061ffff62010000820481169161237691600160501b909104168461425e565b612380919061425e565b61ffff1611156123a25760405162461bcd60e51b8152600401610d9c906142ad565b600d805467ffffffff00000000191664010000000061ffff858116820267ffff000000000000191692909217600160301b858416810291909117938490556040805192850484168352930490911660208201527f6be4281a0a58f1eac9e075b5f649c8aa8f5471d018dd25dbd8cd52fdfb8fbb939101610ee9565b600a546040805163039e107b60e61b815290516000926001600160a01b03169163e7841ec09160048083019260209291908290030181865afa158015610f3f573d6000803e3d6000fd5b6005546001600160a01b031633146124915760405162461bcd60e51b8152600401610d9c9061417a565b600a5460405163e98030c760e01b8152600481018390526001600160a01b039091169063e98030c790602401610dd2565b600a54604051635183d6fd60e01b81526004810183905260009182918291829182918291829182916001600160a01b0390911690635183d6fd90602401611f90565b6005546001600160a01b0316331461252e5760405162461bcd60e51b8152600401610d9c9061417a565b6001600160a01b0381166125935760405162461bcd60e51b815260206004820152602660248201527f4f776e61626c653a206e6577206f776e657220697320746865207a65726f206160448201526564647265737360d01b6064820152608401610d9c565b611078816130a5565b6005546001600160a01b031633146125c65760405162461bcd60e51b8152600401610d9c9061417a565b600d80546001600160a01b03838116600160601b9081026bffffffffffffffffffffffff84161793849055604051928190048216938493919004909116907f6080503d1da552ae8eb4b7b8a20245d9fabed014180510e7d1a05ea08fdb0f3e90600090a35050565b6000604051733d602d80600a3d3981f3363d3d373d3d3d363d7360601b81528260601b60148201526e5af43d82803e903d91602b57fd5bf360881b60288201526037816000f09150506001600160a01b0381166126c65760405162461bcd60e51b8152602060048201526016602482015275115490cc4c4d8dce8818dc99585d194819985a5b195960521b6044820152606401610d9c565b919050565b6001600160a01b03831661272d5760405162461bcd60e51b8152602060048201526024808201527f45524332303a20617070726f76652066726f6d20746865207a65726f206164646044820152637265737360e01b6064820152608401610d9c565b6001600160a01b03821661278e5760405162461bcd60e51b815260206004820152602260248201527f45524332303a20617070726f766520746f20746865207a65726f206164647265604482015261737360f01b6064820152608401610d9c565b6001600160a01b0383811660008181526001602090815260408083209487168084529482529182902085905590518481527f8c5be1e5ebec7d5bd14f71427d1e84f3dd0314c0f7b2291e5b200ac8c7c3b925910160405180910390a3505050565b6001600160a01b03838116600090815260016020908152604080832093861683529290522054600019811461287b578181101561286e5760405162461bcd60e51b815260206004820152601d60248201527f45524332303a20696e73756666696369656e7420616c6c6f77616e63650000006044820152606401610d9c565b61287b84848484036126cb565b50505050565b6001600160a01b0383166128a75760405162461bcd60e51b8152600401610d9c9061433f565b6001600160a01b0382166128cd5760405162461bcd60e51b8152600401610d9c90614384565b806000036128e6576128e1838360006130f7565b505050565b30600090815260208190526040902054600c54811080159081906129145750600954600160a01b900460ff16155b801561293957506001600160a01b03851660009081526016602052604090205460ff16155b801561295357506005546001600160a01b03868116911614155b801561296d57506005546001600160a01b03858116911614155b156129ce576009805460ff60a01b1916600160a01b1790556015546129919061324b565b61299c601454613532565b306000908152602081905260409020546129b5816137b7565b50600060158190556014556009805460ff60a01b191690555b6009546001600160a01b03861660009081526012602052604090205460ff600160a01b909204821615911680612a1c57506001600160a01b03851660009081526012602052604090205460ff165b15612a25575060005b60008060008315612bbf576001600160a01b03891660009081526016602052604090205460ff1615612acf57600d546103e890612a6c9062010000900461ffff16896143c7565b612a7691906143e6565b600d549091506103e890612a9590600160301b900461ffff16896143c7565b612a9f91906143e6565b600d549093506103e890612abe90600160501b900461ffff16896143c7565b612ac891906143e6565b9150612b65565b6001600160a01b03881660009081526016602052604090205460ff1615612b6557600d546103e890612b059061ffff16896143c7565b612b0f91906143e6565b600d549091506103e890612b2f90640100000000900461ffff16896143c7565b612b3991906143e6565b600d549093506103e890612b5890600160401b900461ffff16896143c7565b612b6291906143e6565b91505b82601454612b7391906141de565b601455601554612b849083906141de565b601555600082612b9485846141de565b612b9e91906141de565b9050612baa8189614408565b97508015612bbd57612bbd8a30836130f7565b505b612bca8989896130f7565b600a546001600160a01b031663e30443bc8a612bfb816001600160a01b031660009081526020819052604090205490565b6040516001600160e01b031960e085901b1681526001600160a01b0390921660048301526024820152604401600060405180830381600087803b158015612c4157600080fd5b505af1925050508015612c52575060015b50600a546001600160a01b031663e30443bc89612c84816001600160a01b031660009081526020819052604090205490565b6040516001600160e01b031960e085901b1681526001600160a01b0390921660048301526024820152604401600060405180830381600087803b158015612cca57600080fd5b505af1925050508015612cdb575060015b50600954600160a01b900460ff16612eac576001600160a01b03891660009081526013602052604090205460ff16612d5e576011548710612d5e5760405162461bcd60e51b815260206004820152601d60248201527f45524332303a2065786365656473207472616e73666572206c696d69740000006044820152606401610d9c565b6001600160a01b03881660009081526013602052604090205460ff16612de7576010546001600160a01b03891660009081526020819052604090205410612de75760405162461bcd60e51b815260206004820152601f60248201527f45524332303a2065786365656473206d61782077616c6c6574206c696d6974006044820152606401610d9c565b600f54600a546040516001624d3b8760e01b03198152600481018390526001600160a01b039091169063ffb2c479906024016060604051808303816000875af1925050508015612e54575060408051601f3d908101601f19168201909252612e5191810190614230565b60015b15612eaa5760408051848152602081018490529081018290526060810185905233906001907fc864333d6121033635ab41b29ae52f10a22cf4438c3e4f1c4c68518feb2f8a989060800160405180910390a35050505b505b505050505050505050565b6001600160a01b03821660009081526016602052604090205481151560ff909116151503612f4d5760405162461bcd60e51b815260206004820152603860248201527f4175746f6d61746564206d61726b6574206d616b65722070616972206973206160448201527f6c72656164792073657420746f20746861742076616c756500000000000000006064820152608401610d9c565b6001600160a01b038216600090815260166020908152604080832080548515801560ff199283168117909355601390945291909320805490911690921790915581906130045750600a5460405163c705c56960e01b81526001600160a01b0384811660048301529091169063c705c56990602401602060405180830381865afa158015612fde573d6000803e3d6000fd5b505050506040513d601f19601f8201168201806040525081019061300291906141f6565b155b1561306957600a5460405163031e79db60e41b81526001600160a01b038481166004830152909116906331e79db090602401600060405180830381600087803b15801561305057600080fd5b505af1158015613064573d6000803e3d6000fd5b505050505b604051811515906001600160a01b038416907fffa9187bf1f18bf477bd0ea1bcbb64e93b6a98132473929edfce215cd9b16fab90600090a35050565b600580546001600160a01b038381166001600160a01b0319831681179093556040519116919082907f8be0079c531659141344cd1fd0a4f28419497f9722a3daafe3b4186f6b6457e090600090a35050565b6001600160a01b03831661311d5760405162461bcd60e51b8152600401610d9c9061433f565b6001600160a01b0382166131435760405162461bcd60e51b8152600401610d9c90614384565b6001600160a01b038316600090815260208190526040902054818110156131bb5760405162461bcd60e51b815260206004820152602660248201527f45524332303a207472616e7366657220616d6f756e7420657863656564732062604482015265616c616e636560d01b6064820152608401610d9c565b6001600160a01b038085166000908152602081905260408082208585039055918516815290812080548492906131f29084906141de565b92505081905550826001600160a01b0316846001600160a01b03167fddf252ad1be2c89b69c2b068fc378daa952ba7f163c4a11628f55a4df523b3ef8460405161323e91815260200190565b60405180910390a361287b565b600b546006546001600160a01b039182169116036133d257600b546040516370a0823160e01b81523060048201526000916001600160a01b0316906370a0823190602401602060405180830381865afa1580156132ac573d6000803e3d6000fd5b505050506040513d601f19601f820116820180604052508101906132d091906141af565b90506132db82613951565b600b546040516370a0823160e01b815230600482015260009183916001600160a01b03909116906370a0823190602401602060405180830381865afa158015613328573d6000803e3d6000fd5b505050506040513d601f19601f8201168201806040525081019061334c91906141af565b6133569190614408565b600b54600e5460405163a9059cbb60e01b81526001600160a01b03918216600482015260248101849052929350169063a9059cbb906044015b6020604051808303816000875af11580156133ae573d6000803e3d6000fd5b505050506040513d601f19601f8201168201806040525081019061287b91906141f6565b6007546006546001600160a01b0391821691160361351a576007546040516370a0823160e01b81523060048201526000916001600160a01b0316906370a0823190602401602060405180830381865afa158015613433573d6000803e3d6000fd5b505050506040513d601f19601f8201168201806040525081019061345791906141af565b905061346282613b87565b6007546040516370a0823160e01b815230600482015260009183916001600160a01b03909116906370a0823190602401602060405180830381865afa1580156134af573d6000803e3d6000fd5b505050506040513d601f19601f820116820180604052508101906134d391906141af565b6134dd9190614408565b600754600e5460405163a9059cbb60e01b81526001600160a01b03918216600482015260248101849052929350169063a9059cbb9060440161338f565b600e546110789030906001600160a01b031683612881565b600061353f6002836143e6565b9050600061354d8284614408565b90506000600860009054906101000a90046001600160a01b03166001600160a01b031663ad5c46486040518163ffffffff1660e01b8152600401602060405180830381865afa1580156135a4573d6000803e3d6000fd5b505050506040513d601f19601f820116820180604052508101906135c89190614213565b6007546001600160a01b0390811691161461364e576007546040516370a0823160e01b81523060048201526001600160a01b03909116906370a0823190602401602060405180830381865afa158015613625573d6000803e3d6000fd5b505050506040513d601f19601f8201168201806040525081019061364991906141af565b613650565b475b905061365b83613b87565b600854604080516315ab88c960e31b815290516000926001600160a01b03169163ad5c46489160048083019260209291908290030181865afa1580156136a5573d6000803e3d6000fd5b505050506040513d601f19601f820116820180604052508101906136c99190614213565b6007546001600160a01b03908116911614613759576007546040516370a0823160e01b815230600482015283916001600160a01b0316906370a0823190602401602060405180830381865afa158015613726573d6000803e3d6000fd5b505050506040513d601f19601f8201168201806040525081019061374a91906141af565b6137549190614408565b613763565b6137638247614408565b905061376f8382613d0c565b60408051858152602081018390529081018490527f17bbfb9a6069321b6ded73bd96327c9e6b7212a5cd51ff219cd61370acafb5619060600160405180910390a15050505050565b6137c081613951565b600b546040516370a0823160e01b81523060048201526000916001600160a01b0316906370a0823190602401602060405180830381865afa158015613809573d6000803e3d6000fd5b505050506040513d601f19601f8201168201806040525081019061382d91906141af565b600b54600a5460405163a9059cbb60e01b81526001600160a01b0391821660048201526024810184905292935060009291169063a9059cbb906044016020604051808303816000875af1158015613888573d6000803e3d6000fd5b505050506040513d601f19601f820116820180604052508101906138ac91906141f6565b905080156128e157600a5460405163ba72a95560e01b8152600481018490526001600160a01b039091169063ba72a95590602401600060405180830381600087803b1580156138fa57600080fd5b505af115801561390e573d6000803e3d6000fd5b505060408051868152602081018690527f80195cc573b02cc48460cbca6e6e4cc85ddb91959d946e1c3025ea3d87942dc3935001905060405180910390a1505050565b600b546007546001600160a01b03908116911614613a9757604080516003808252608082019092526000916020820160608036833701905050905030816000815181106139a0576139a061441f565b6001600160a01b0392831660209182029290920101526007548251911690829060019081106139d1576139d161441f565b6001600160a01b039283166020918202929092010152600b54825191169082906002908110613a0257613a0261441f565b6001600160a01b039283166020918202929092010152600854613a2891309116846126cb565b600854604051635c11d79560e01b81526001600160a01b0390911690635c11d79590613a61908590600090869030904290600401614479565b600060405180830381600087803b158015613a7b57600080fd5b505af1158015613a8f573d6000803e3d6000fd5b505050505050565b6040805160028082526060820183526000926020830190803683370190505090503081600081518110613acc57613acc61441f565b6001600160a01b039283166020918202929092010152600b54825191169082906001908110613afd57613afd61441f565b60200260200101906001600160a01b031690816001600160a01b031681525050613b3c3073617715a9bf6dd62d1beb70f29914fcf821933b39846126cb565b600854604051637274ca1b60e11b815273617715a9bf6dd62d1beb70f29914fcf821933b399163e4e9943691613a61916001600160a01b0316908690600090879042906004016144b5565b6040805160028082526060820183526000926020830190803683370190505090503081600081518110613bbc57613bbc61441f565b6001600160a01b039283166020918202929092010152600754825191169082906001908110613bed57613bed61441f565b6001600160a01b03928316602091820292909201810191909152600854604080516315ab88c960e31b81529051919093169263ad5c46489260048083019391928290030181865afa158015613c46573d6000803e3d6000fd5b505050506040513d601f19601f82011682018060405250810190613c6a9190614213565b6001600160a01b031681600181518110613c8657613c8661441f565b60200260200101516001600160a01b031603613ced57600854613cb49030906001600160a01b0316846126cb565b60085460405163791ac94760e01b81526001600160a01b039091169063791ac94790613a61908590600090869030904290600401614479565b613b3c3073617715a9bf6dd62d1beb70f29914fcf821933b39846126cb565b600854613d249030906001600160a01b0316846126cb565b600860009054906101000a90046001600160a01b03166001600160a01b031663ad5c46486040518163ffffffff1660e01b8152600401602060405180830381865afa158015613d77573d6000803e3d6000fd5b505050506040513d601f19601f82011682018060405250810190613d9b9190614213565b6007546001600160a01b03918216911603613e4c57600854600d5460405163f305d71960e01b81523060048201526024810185905260006044820181905260648201526001600160a01b03600160601b909204821660848201524260a482015291169063f305d71990839060c40160606040518083038185885af1158015613e27573d6000803e3d6000fd5b50505050506040513d601f19601f82011682018060405250810190610e009190614230565b60075460085460405163095ea7b360e01b81526001600160a01b0391821660048201526024810184905291169063095ea7b3906044016020604051808303816000875af1158015613ea1573d6000803e3d6000fd5b505050506040513d601f19601f82011682018060405250810190613ec591906141f6565b50600854600754600d5460405162e8e33760e81b81523060048201526001600160a01b039283166024820152604481018690526064810185905260006084820181905260a4820152600160601b909104821660c48201524260e482015291169063e8e3370090610104016060604051808303816000875af1158015613f4e573d6000803e3d6000fd5b505050506040513d601f19601f82011682018060405250810190610e009190614230565b600060208083528351808285015260005b81811015613f9f57858101830151858201604001528201613f83565b81811115613fb1576000604083870101525b50601f01601f1916929092016040019392505050565b6001600160a01b038116811461107857600080fd5b60008060408385031215613fef57600080fd5b8235613ffa81613fc7565b946020939093013593505050565b60006020828403121561401a57600080fd5b5035919050565b60008060006060848603121561403657600080fd5b833561404181613fc7565b9250602084013561405181613fc7565b929592945050506040919091013590565b801515811461107857600080fd5b6000806040838503121561408357600080fd5b823561408e81613fc7565b9150602083013561409e81614062565b809150509250929050565b6000602082840312156140bb57600080fd5b81356140c681613fc7565b9392505050565b803561ffff811681146126c657600080fd5b600080604083850312156140f257600080fd5b6140fb836140cd565b9150614109602084016140cd565b90509250929050565b6000806040838503121561412557600080fd5b823561413081613fc7565b9150602083013561409e81613fc7565b600181811c9082168061415457607f821691505b60208210810361417457634e487b7160e01b600052602260045260246000fd5b50919050565b6020808252818101527f4f776e61626c653a2063616c6c6572206973206e6f7420746865206f776e6572604082015260600190565b6000602082840312156141c157600080fd5b5051919050565b634e487b7160e01b600052601160045260246000fd5b600082198211156141f1576141f16141c8565b500190565b60006020828403121561420857600080fd5b81516140c681614062565b60006020828403121561422557600080fd5b81516140c681613fc7565b60008060006060848603121561424557600080fd5b8351925060208401519150604084015190509250925092565b600061ffff80831681851680830382111561427b5761427b6141c8565b01949350505050565b6020808252600f908201526e73656c6c20666565203c3d2033302560881b604082015260600190565b6020808252600e908201526d62757920666565203c3d2033302560901b604082015260600190565b600080600080600080600080610100898b0312156142f257600080fd5b88516142fd81613fc7565b809850506020890151965060408901519550606089015194506080890151935060a0890151925060c0890151915060e089015190509295985092959890939650565b60208082526025908201527f45524332303a207472616e736665722066726f6d20746865207a65726f206164604082015264647265737360d81b606082015260800190565b60208082526023908201527f45524332303a207472616e7366657220746f20746865207a65726f206164647260408201526265737360e81b606082015260800190565b60008160001904831182151516156143e1576143e16141c8565b500290565b60008261440357634e487b7160e01b600052601260045260246000fd5b500490565b60008282101561441a5761441a6141c8565b500390565b634e487b7160e01b600052603260045260246000fd5b600081518084526020808501945080840160005b8381101561446e5781516001600160a01b031687529582019590820190600101614449565b509495945050505050565b85815284602082015260a06040820152600061449860a0830186614435565b6001600160a01b0394909416606083015250608001529392505050565b60018060a01b038616815284602082015283604082015260a0606082015260006144e260a0830185614435565b9050826080830152969550505050505056fea26469706673582212205f880a99ebfe6d4e5060d22f430d84aaca4ef517cd16bd15a9da6f1c4d19a00d64736f6c634300080d0033",
  "linkReferences": {},
  "deployedLinkReferences": {}
}