{
  "_format": "hh-sol-artifact-1",
  "contractName": "ReflectionToken",
  "sourceName": "contracts/Tokens/ReflectionTokens/ReflectionToken.sol",
  "abi": [
    {
      "inputs": [
        {
          "internalType": "string",
          "name": "__name",
          "type": "string"
        },
        {
          "internalType": "string",
          "name": "__symbol",
          "type": "string"
        },
        {
          "internalType": "uint8",
          "name": "__decimals",
          "type": "uint8"
        },
        {
          "internalType": "uint256",
          "name": "_totalSupply",
          "type": "uint256"
        },
        {
          "internalType": "uint256",
          "name": "_maxWallet",
          "type": "uint256"
        },
        {
          "internalType": "uint256",
          "name": "_maxTransactionAmount",
          "type": "uint256"
        },
        {
          "internalType": "address[3]",
          "name": "_accounts",
          "type": "address[3]"
        },
        {
          "internalType": "bool",
          "name": "_isMarketingFeeBaseToken",
          "type": "bool"
        },
        {
          "internalType": "uint16[6]",
          "name": "_fees",
          "type": "uint16[6]"
        }
      ],
      "stateMutability": "payable",
      "type": "constructor"
    },
    {
      "anonymous": false,
      "inputs": [
        {
          "indexed": true,
          "internalType": "address",
          "name": "owner",
          "type": "address"
        },
        {
          "indexed": true,
          "internalType": "address",
          "name": "spender",
          "type": "address"
        },
        {
          "indexed": false,
          "internalType": "uint256",
          "name": "value",
          "type": "uint256"
        }
      ],
      "name": "Approval",
      "type": "event"
    },
    {
      "anonymous": false,
      "inputs": [
        {
          "indexed": false,
          "internalType": "address",
          "name": "account",
          "type": "address"
        },
        {
          "indexed": false,
          "internalType": "bool",
          "name": "isEx",
          "type": "bool"
        }
      ],
      "name": "ExcludedFromFee",
      "type": "event"
    },
    {
      "anonymous": false,
      "inputs": [
        {
          "indexed": false,
          "internalType": "address",
          "name": "account",
          "type": "address"
        },
        {
          "indexed": false,
          "internalType": "bool",
          "name": "isExcluded",
          "type": "bool"
        }
      ],
      "name": "ExcludedFromMaxTransactionAmount",
      "type": "event"
    },
    {
      "anonymous": false,
      "inputs": [
        {
          "indexed": false,
          "internalType": "uint256",
          "name": "marketingFeeTokens",
          "type": "uint256"
        },
        {
          "indexed": false,
          "internalType": "uint256",
          "name": "marketingFeeBaseTokenSwapped",
          "type": "uint256"
        }
      ],
      "name": "MarketingFeeTaken",
      "type": "event"
    },
    {
      "anonymous": false,
      "inputs": [
        {
          "indexed": true,
          "internalType": "address",
          "name": "previousOwner",
          "type": "address"
        },
        {
          "indexed": true,
          "internalType": "address",
          "name": "newOwner",
          "type": "address"
        }
      ],
      "name": "OwnershipTransferred",
      "type": "event"
    },
    {
      "anonymous": false,
      "inputs": [
        {
          "indexed": false,
          "internalType": "address",
          "name": "pair",
          "type": "address"
        },
        {
          "indexed": false,
          "internalType": "bool",
          "name": "value",
          "type": "bool"
        }
      ],
      "name": "SetAutomatedMarketMakerPair",
      "type": "event"
    },
    {
      "anonymous": false,
      "inputs": [
        {
          "indexed": false,
          "internalType": "uint256",
          "name": "tokensForLiquidity",
          "type": "uint256"
        },
        {
          "indexed": false,
          "internalType": "uint256",
          "name": "baseTokenForLiquidity",
          "type": "uint256"
        }
      ],
      "name": "SwapAndLiquify",
      "type": "event"
    },
    {
      "anonymous": false,
      "inputs": [
        {
          "indexed": true,
          "internalType": "address",
          "name": "from",
          "type": "address"
        },
        {
          "indexed": true,
          "internalType": "address",
          "name": "to",
          "type": "address"
        },
        {
          "indexed": false,
          "internalType": "uint256",
          "name": "value",
          "type": "uint256"
        }
      ],
      "name": "Transfer",
      "type": "event"
    },
    {
      "anonymous": false,
      "inputs": [
        {
          "indexed": false,
          "internalType": "uint16",
          "name": "sellLiquidityFee",
          "type": "uint16"
        },
        {
          "indexed": false,
          "internalType": "uint16",
          "name": "buyLiquidityFee",
          "type": "uint16"
        }
      ],
      "name": "UpdateLiquidityFee",
      "type": "event"
    },
    {
      "anonymous": false,
      "inputs": [
        {
          "indexed": false,
          "internalType": "uint16",
          "name": "sellMarketingFee",
          "type": "uint16"
        },
        {
          "indexed": false,
          "internalType": "uint16",
          "name": "buyMarketingFee",
          "type": "uint16"
        }
      ],
      "name": "UpdateMarketingFee",
      "type": "event"
    },
    {
      "anonymous": false,
      "inputs": [
        {
          "indexed": false,
          "internalType": "address",
          "name": "marketingWallet",
          "type": "address"
        },
        {
          "indexed": false,
          "internalType": "bool",
          "name": "isMarketingFeeBaseToken",
          "type": "bool"
        }
      ],
      "name": "UpdateMarketingWallet",
      "type": "event"
    },
    {
      "anonymous": false,
      "inputs": [
        {
          "indexed": false,
          "internalType": "uint256",
          "name": "minAmountToTakeFee",
          "type": "uint256"
        }
      ],
      "name": "UpdateMinAmountToTakeFee",
      "type": "event"
    },
    {
      "anonymous": false,
      "inputs": [
        {
          "indexed": false,
          "internalType": "address",
          "name": "newAddress",
          "type": "address"
        },
        {
          "indexed": false,
          "internalType": "address",
          "name": "oldRouter",
          "type": "address"
        }
      ],
      "name": "UpdatePancakeRouter",
      "type": "event"
    },
    {
      "anonymous": false,
      "inputs": [
        {
          "indexed": false,
          "internalType": "uint16",
          "name": "sellRewardFee",
          "type": "uint16"
        },
        {
          "indexed": false,
          "internalType": "uint16",
          "name": "buyRewardFee",
          "type": "uint16"
        }
      ],
      "name": "UpdateRewardFee",
      "type": "event"
    },
    {
      "inputs": [
        {
          "internalType": "address",
          "name": "owner",
          "type": "address"
        },
        {
          "internalType": "address",
          "name": "spender",
          "type": "address"
        }
      ],
      "name": "allowance",
      "outputs": [
        {
          "internalType": "uint256",
          "name": "",
          "type": "uint256"
        }
      ],
      "stateMutability": "view",
      "type": "function"
    },
    {
      "inputs": [
        {
          "internalType": "address",
          "name": "spender",
          "type": "address"
        },
        {
          "internalType": "uint256",
          "name": "amount",
          "type": "uint256"
        }
      ],
      "name": "approve",
      "outputs": [
        {
          "internalType": "bool",
          "name": "",
          "type": "bool"
        }
      ],
      "stateMutability": "nonpayable",
      "type": "function"
    },
    {
      "inputs": [
        {
          "internalType": "address",
          "name": "",
          "type": "address"
        }
      ],
      "name": "automatedMarketMakerPairs",
      "outputs": [
        {
          "internalType": "bool",
          "name": "",
          "type": "bool"
        }
      ],
      "stateMutability": "view",
      "type": "function"
    },
    {
      "inputs": [
        {
          "internalType": "address",
          "name": "account",
          "type": "address"
        }
      ],
      "name": "balanceOf",
      "outputs": [
        {
          "internalType": "uint256",
          "name": "",
          "type": "uint256"
        }
      ],
      "stateMutability": "view",
      "type": "function"
    },
    {
      "inputs": [],
      "name": "baseTokenForPair",
      "outputs": [
        {
          "internalType": "address",
          "name": "",
          "type": "address"
        }
      ],
      "stateMutability": "view",
      "type": "function"
    },
    {
      "inputs": [],
      "name": "buyLiquidityFee",
      "outputs": [
        {
          "internalType": "uint16",
          "name": "",
          "type": "uint16"
        }
      ],
      "stateMutability": "view",
      "type": "function"
    },
    {
      "inputs": [],
      "name": "buyMarketingFee",
      "outputs": [
        {
          "internalType": "uint16",
          "name": "",
          "type": "uint16"
        }
      ],
      "stateMutability": "view",
      "type": "function"
    },
    {
      "inputs": [],
      "name": "buyRewardFee",
      "outputs": [
        {
          "internalType": "uint16",
          "name": "",
          "type": "uint16"
        }
      ],
      "stateMutability": "view",
      "type": "function"
    },
    {
      "inputs": [],
      "name": "decimals",
      "outputs": [
        {
          "internalType": "uint8",
          "name": "",
          "type": "uint8"
        }
      ],
      "stateMutability": "view",
      "type": "function"
    },
    {
      "inputs": [
        {
          "internalType": "address",
          "name": "spender",
          "type": "address"
        },
        {
          "internalType": "uint256",
          "name": "subtractedValue",
          "type": "uint256"
        }
      ],
      "name": "decreaseAllowance",
      "outputs": [
        {
          "internalType": "bool",
          "name": "",
          "type": "bool"
        }
      ],
      "stateMutability": "nonpayable",
      "type": "function"
    },
    {
      "inputs": [
        {
          "internalType": "address",
          "name": "account",
          "type": "address"
        },
        {
          "internalType": "bool",
          "name": "isEx",
          "type": "bool"
        }
      ],
      "name": "excludeFromFee",
      "outputs": [],
      "stateMutability": "nonpayable",
      "type": "function"
    },
    {
      "inputs": [
        {
          "internalType": "address",
          "name": "account",
          "type": "address"
        },
        {
          "internalType": "bool",
          "name": "isEx",
          "type": "bool"
        }
      ],
      "name": "excludeFromMaxTransactionAmount",
      "outputs": [],
      "stateMutability": "nonpayable",
      "type": "function"
    },
    {
      "inputs": [
        {
          "internalType": "address",
          "name": "account",
          "type": "address"
        }
      ],
      "name": "excludeFromReward",
      "outputs": [],
      "stateMutability": "nonpayable",
      "type": "function"
    },
    {
      "inputs": [
        {
          "internalType": "address",
          "name": "account",
          "type": "address"
        }
      ],
      "name": "includeInReward",
      "outputs": [],
      "stateMutability": "nonpayable",
      "type": "function"
    },
    {
      "inputs": [
        {
          "internalType": "address",
          "name": "spender",
          "type": "address"
        },
        {
          "internalType": "uint256",
          "name": "addedValue",
          "type": "uint256"
        }
      ],
      "name": "increaseAllowance",
      "outputs": [
        {
          "internalType": "bool",
          "name": "",
          "type": "bool"
        }
      ],
      "stateMutability": "nonpayable",
      "type": "function"
    },
    {
      "inputs": [
        {
          "internalType": "address",
          "name": "",
          "type": "address"
        }
      ],
      "name": "isExcludedFromFee",
      "outputs": [
        {
          "internalType": "bool",
          "name": "",
          "type": "bool"
        }
      ],
      "stateMutability": "view",
      "type": "function"
    },
    {
      "inputs": [
        {
          "internalType": "address",
          "name": "",
          "type": "address"
        }
      ],
      "name": "isExcludedFromMaxTransactionAmount",
      "outputs": [
        {
          "internalType": "bool",
          "name": "",
          "type": "bool"
        }
      ],
      "stateMutability": "view",
      "type": "function"
    },
    {
      "inputs": [
        {
          "internalType": "address",
          "name": "account",
          "type": "address"
        }
      ],
      "name": "isExcludedFromReward",
      "outputs": [
        {
          "internalType": "bool",
          "name": "",
          "type": "bool"
        }
      ],
      "stateMutability": "view",
      "type": "function"
    },
    {
      "inputs": [],
      "name": "isMarketingFeeBaseToken",
      "outputs": [
        {
          "internalType": "bool",
          "name": "",
          "type": "bool"
        }
      ],
      "stateMutability": "view",
      "type": "function"
    },
    {
      "inputs": [],
      "name": "mainPair",
      "outputs": [
        {
          "internalType": "address",
          "name": "",
          "type": "address"
        }
      ],
      "stateMutability": "view",
      "type": "function"
    },
    {
      "inputs": [],
      "name": "mainRouter",
      "outputs": [
        {
          "internalType": "contract IPancakeRouter02",
          "name": "",
          "type": "address"
        }
      ],
      "stateMutability": "view",
      "type": "function"
    },
    {
      "inputs": [],
      "name": "marketingWallet",
      "outputs": [
        {
          "internalType": "address",
          "name": "",
          "type": "address"
        }
      ],
      "stateMutability": "view",
      "type": "function"
    },
    {
      "inputs": [],
      "name": "maxTransactionAmount",
      "outputs": [
        {
          "internalType": "uint256",
          "name": "",
          "type": "uint256"
        }
      ],
      "stateMutability": "view",
      "type": "function"
    },
    {
      "inputs": [],
      "name": "maxWallet",
      "outputs": [
        {
          "internalType": "uint256",
          "name": "",
          "type": "uint256"
        }
      ],
      "stateMutability": "view",
      "type": "function"
    },
    {
      "inputs": [],
      "name": "minAmountToTakeFee",
      "outputs": [
        {
          "internalType": "uint256",
          "name": "",
          "type": "uint256"
        }
      ],
      "stateMutability": "view",
      "type": "function"
    },
    {
      "inputs": [],
      "name": "name",
      "outputs": [
        {
          "internalType": "string",
          "name": "",
          "type": "string"
        }
      ],
      "stateMutability": "view",
      "type": "function"
    },
    {
      "inputs": [],
      "name": "owner",
      "outputs": [
        {
          "internalType": "address",
          "name": "",
          "type": "address"
        }
      ],
      "stateMutability": "view",
      "type": "function"
    },
    {
      "inputs": [],
      "name": "pancakeCaller",
      "outputs": [
        {
          "internalType": "contract IPancakeCaller",
          "name": "",
          "type": "address"
        }
      ],
      "stateMutability": "view",
      "type": "function"
    },
    {
      "inputs": [
        {
          "internalType": "uint256",
          "name": "tAmount",
          "type": "uint256"
        },
        {
          "internalType": "bool",
          "name": "deductTransferFee",
          "type": "bool"
        }
      ],
      "name": "reflectionFromToken",
      "outputs": [
        {
          "internalType": "uint256",
          "name": "",
          "type": "uint256"
        }
      ],
      "stateMutability": "view",
      "type": "function"
    },
    {
      "inputs": [],
      "name": "renounceOwnership",
      "outputs": [],
      "stateMutability": "nonpayable",
      "type": "function"
    },
    {
      "inputs": [],
      "name": "sellLiquidityFee",
      "outputs": [
        {
          "internalType": "uint16",
          "name": "",
          "type": "uint16"
        }
      ],
      "stateMutability": "view",
      "type": "function"
    },
    {
      "inputs": [],
      "name": "sellMarketingFee",
      "outputs": [
        {
          "internalType": "uint16",
          "name": "",
          "type": "uint16"
        }
      ],
      "stateMutability": "view",
      "type": "function"
    },
    {
      "inputs": [],
      "name": "sellRewardFee",
      "outputs": [
        {
          "internalType": "uint16",
          "name": "",
          "type": "uint16"
        }
      ],
      "stateMutability": "view",
      "type": "function"
    },
    {
      "inputs": [
        {
          "internalType": "address",
          "name": "pair",
          "type": "address"
        },
        {
          "internalType": "bool",
          "name": "value",
          "type": "bool"
        }
      ],
      "name": "setAutomatedMarketMakerPair",
      "outputs": [],
      "stateMutability": "nonpayable",
      "type": "function"
    },
    {
      "inputs": [],
      "name": "symbol",
      "outputs": [
        {
          "internalType": "string",
          "name": "",
          "type": "string"
        }
      ],
      "stateMutability": "view",
      "type": "function"
    },
    {
      "inputs": [
        {
          "internalType": "uint256",
          "name": "rAmount",
          "type": "uint256"
        }
      ],
      "name": "tokenFromReflection",
      "outputs": [
        {
          "internalType": "uint256",
          "name": "",
          "type": "uint256"
        }
      ],
      "stateMutability": "view",
      "type": "function"
    },
    {
      "inputs": [],
      "name": "totalFees",
      "outputs": [
        {
          "internalType": "uint256",
          "name": "",
          "type": "uint256"
        }
      ],
      "stateMutability": "view",
      "type": "function"
    },
    {
      "inputs": [],
      "name": "totalSupply",
      "outputs": [
        {
          "internalType": "uint256",
          "name": "",
          "type": "uint256"
        }
      ],
      "stateMutability": "view",
      "type": "function"
    },
    {
      "inputs": [
        {
          "internalType": "address",
          "name": "recipient",
          "type": "address"
        },
        {
          "internalType": "uint256",
          "name": "amount",
          "type": "uint256"
        }
      ],
      "name": "transfer",
      "outputs": [
        {
          "internalType": "bool",
          "name": "",
          "type": "bool"
        }
      ],
      "stateMutability": "nonpayable",
      "type": "function"
    },
    {
      "inputs": [
        {
          "internalType": "address",
          "name": "sender",
          "type": "address"
        },
        {
          "internalType": "address",
          "name": "recipient",
          "type": "address"
        },
        {
          "internalType": "uint256",
          "name": "amount",
          "type": "uint256"
        }
      ],
      "name": "transferFrom",
      "outputs": [
        {
          "internalType": "bool",
          "name": "",
          "type": "bool"
        }
      ],
      "stateMutability": "nonpayable",
      "type": "function"
    },
    {
      "inputs": [
        {
          "internalType": "address",
          "name": "newOwner",
          "type": "address"
        }
      ],
      "name": "transferOwnership",
      "outputs": [],
      "stateMutability": "nonpayable",
      "type": "function"
    },
    {
      "inputs": [
        {
          "internalType": "uint16",
          "name": "_sellLiquidityFee",
          "type": "uint16"
        },
        {
          "internalType": "uint16",
          "name": "_buyLiquidityFee",
          "type": "uint16"
        }
      ],
      "name": "updateLiquidityFee",
      "outputs": [],
      "stateMutability": "nonpayable",
      "type": "function"
    },
    {
      "inputs": [
        {
          "internalType": "uint16",
          "name": "_sellMarketingFee",
          "type": "uint16"
        },
        {
          "internalType": "uint16",
          "name": "_buyMarketingFee",
          "type": "uint16"
        }
      ],
      "name": "updateMarketingFee",
      "outputs": [],
      "stateMutability": "nonpayable",
      "type": "function"
    },
    {
      "inputs": [
        {
          "internalType": "address",
          "name": "_marketingWallet",
          "type": "address"
        },
        {
          "internalType": "bool",
          "name": "_isMarketingFeeBaseToken",
          "type": "bool"
        }
      ],
      "name": "updateMarketingWallet",
      "outputs": [],
      "stateMutability": "nonpayable",
      "type": "function"
    },
    {
      "inputs": [
        {
          "internalType": "uint256",
          "name": "_maxTransactionAmount",
          "type": "uint256"
        }
      ],
      "name": "updateMaxTransactionAmount",
      "outputs": [],
      "stateMutability": "nonpayable",
      "type": "function"
    },
    {
      "inputs": [
        {
          "internalType": "uint256",
          "name": "_maxWallet",
          "type": "uint256"
        }
      ],
      "name": "updateMaxWallet",
      "outputs": [],
      "stateMutability": "nonpayable",
      "type": "function"
    },
    {
      "inputs": [
        {
          "internalType": "uint256",
          "name": "_minAmountToTakeFee",
          "type": "uint256"
        }
      ],
      "name": "updateMinAmountToTakeFee",
      "outputs": [],
      "stateMutability": "nonpayable",
      "type": "function"
    },
    {
      "inputs": [
        {
          "internalType": "address",
          "name": "_baseTokenForPair",
          "type": "address"
        }
      ],
      "name": "updatePancakePair",
      "outputs": [],
      "stateMutability": "nonpayable",
      "type": "function"
    },
    {
      "inputs": [
        {
          "internalType": "address",
          "name": "newAddress",
          "type": "address"
        }
      ],
      "name": "updatePancakeRouter",
      "outputs": [],
      "stateMutability": "nonpayable",
      "type": "function"
    },
    {
      "inputs": [
        {
          "internalType": "uint16",
          "name": "_sellRewardFee",
          "type": "uint16"
        },
        {
          "internalType": "uint16",
          "name": "_buyRewardFee",
          "type": "uint16"
        }
      ],
      "name": "updateRewardFee",
      "outputs": [],
      "stateMutability": "nonpayable",
      "type": "function"
    },
    {
      "stateMutability": "payable",
      "type": "receive"
    }
  ],
  "bytecode": "0x608060405260405162004df738038062004df7833981016040819052620000269162001160565b6200003133620006f0565b670de0b6b3a7640000341015620000805760405162461bcd60e51b815260206004820152600e60248201526d6e6f7420656e6f7567682066656560901b60448201526064015b60405180910390fd5b6040516000907354e7032579b327238057c3723a166fbb8705f5ea9034908381818185875af1925050503d8060008114620000d8576040519150601f19603f3d011682016040523d82523d6000602084013e620000dd565b606091505b5050905080620001305760405162461bcd60e51b815260206004820152601460248201527f6661696c20746f207472616e7366657220666565000000000000000000000000604482015260640162000077565b6040840151600180546001600160a01b039092166001600160a81b031990921691909117600160a01b60ff8b160217905589516200017690600a9060208d019062000eb6565b5088516200018c90600b9060208c019062000eb6565b506007879055620001a0876000196200126a565b620001ae9060001962001297565b60088190553360009081526002602052604090205583516001600160a01b03166200021c5760405162461bcd60e51b815260206004820152601d60248201527f6d61726b6574696e672077616c6c65742063616e206e6f742062652030000000604482015260640162000077565b60208401516001600160a01b0316620002785760405162461bcd60e51b815260206004820152601b60248201527f526f7574657220616464726573732063616e206e6f7420626520300000000000604482015260640162000077565b60808201516040830151835161012c92916200029491620012b1565b620002a09190620012b1565b61ffff161115620002b057600080fd5b60a08201516060830151602084015161012c9291620002cf91620012b1565b620002db9190620012b1565b61ffff161115620002eb57600080fd5b8351601380546001600160a01b039283166001600160a01b0319918216179091556020808701516017805491909416921682179092556040805163c45a015560e01b81529051919263c45a0155926004808401938290030181865afa15801562000359573d6000803e3d6000fd5b505050506040513d601f19601f820116820180604052508101906200037f9190620012da565b6001546040516364e329cb60e11b81523060048201526001600160a01b03918216602482015291169063c9c65396906044016020604051808303816000875af1158015620003d1573d6000803e3d6000fd5b505050506040513d601f19601f82011682018060405250810190620003f79190620012da565b601880546001600160a01b0319166001600160a01b03929092169190911790556013805460ff60a01b1916600160a01b85151502179055815160128054602085015160408601516060870151608088015160a089015161ffff9081166301000000029281166b010000000000000000000000029481166701000000000000000263ffffffff60281b19909616978116650100000000000261ffff60381b1916979097179490941763ffffffff60481b191691861669010000000000000000000261ffff60581b1916919091179190911764ffffffff001916939091166101000264ffff000000191692909217919091179055620004f761271088620012f8565b601455846200050557600080fd5b600086116200051357600080fd5b601586905560168590557f7d509c07f0d4edcc2dd1b53aae68677132eb562dcba78e36381b63ccaf66e6ba805460ff1990811660019081179092556006805480840190915560008051602062004dd78339815191520180546001600160a01b03191661dead17905530600090815260196020819052604080832080548516861790556013546001600160a01b03168352822080549093168417909255620005b73390565b6001600160a01b03908116825260208083019390935260409182016000908120805495151560ff199687161790557fc73b1d6eda13a615b81c31830292dbbbf5fbb07f472982e223002bd83d5c3dc4805486166001908117909155601a948590527f428bdc965569ef4717764ecfd84e88946a9a226b52b813e6ab6a7f46aad86e88805487168217905530825283822080548716821790556013549092168152918220805490941681179093556200066c3390565b6001600160a01b0390811682526020820192909252604001600020805460ff191692151592909217909155601854620006a89116600162000740565b60405187815233906000907fddf252ad1be2c89b69c2b068fc378daa952ba7f163c4a11628f55a4df523b3ef9060200160405180910390a350505050505050505050620013ba565b600080546001600160a01b038381166001600160a01b0319831681178455604051919092169283917f8be0079c531659141344cd1fd0a4f28419497f9722a3daafe3b4186f6b6457e09190a35050565b6001600160a01b0382166000908152601b60205260409020805460ff191682158015919091179091556200077f576200077982620007ed565b6200078a565b6200078a82620009f4565b6001600160a01b0382166000818152601a6020908152604091829020805460ff19168515159081179091558251938452908301527fffa9187bf1f18bf477bd0ea1bcbb64e93b6a98132473929edfce215cd9b16fab910160405180910390a15050565b6000546001600160a01b03163314620008385760405162461bcd60e51b8152602060048201819052602482015260008051602062004db7833981519152604482015260640162000077565b6001600160a01b03811660009081526005602052604090205460ff1615620008a35760405162461bcd60e51b815260206004820152601b60248201527f4163636f756e7420697320616c7265616479206578636c756465640000000000604482015260640162000077565b600654603290620008b69060016200130f565b1115620009425760405162461bcd60e51b815260206004820152604d60248201527f43616e6e6f74206578636c756465206d6f7265207468616e203530206163636f60448201527f756e74732e2020496e636c75646520612070726576696f75736c79206578636c60648201526c3ab232b21030b2323932b9b99760991b608482015260a40162000077565b6001600160a01b038116600090815260026020526040902054156200099f576001600160a01b038116600090815260026020526040902054620009859062000c6a565b6001600160a01b0382166000908152600360205260409020555b6001600160a01b03166000818152600560205260408120805460ff1916600190811790915560068054918201815590915260008051602062004dd78339815191520180546001600160a01b0319169091179055565b6000546001600160a01b0316331462000a3f5760405162461bcd60e51b8152602060048201819052602482015260008051602062004db7833981519152604482015260640162000077565b6001600160a01b03811660009081526005602052604090205460ff1662000aa95760405162461bcd60e51b815260206004820152601760248201527f4163636f756e74206973206e6f74206578636c75646564000000000000000000604482015260640162000077565b60005b60065481101562000c6657816001600160a01b03166006828154811062000ad75762000ad76200123e565b6000918252602090912001546001600160a01b03160362000c51576001600160a01b03821660009081526002602052604090205462000b1562000cf4565b6001600160a01b03841660009081526003602052604090205462000b3a91906200132a565b6001600160a01b0384166000908152600260205260409020819055600854829162000b65916200130f565b62000b71919062001297565b6008556001600160a01b0383166000908152600560205260409020805460ff191690556006805462000ba69060019062001297565b8154811062000bb95762000bb96200123e565b600091825260209091200154600680546001600160a01b03909216918490811062000be85762000be86200123e565b9060005260206000200160006101000a8154816001600160a01b0302191690836001600160a01b03160217905550600680548062000c2a5762000c2a6200134c565b600082815260209020810160001990810180546001600160a01b0319169055019055505050565b8062000c5d8162001362565b91505062000aac565b5050565b600060085482111562000cd35760405162461bcd60e51b815260206004820152602a60248201527f416d6f756e74206d757374206265206c657373207468616e20746f74616c207260448201526965666c656374696f6e7360b01b606482015260840162000077565b600062000cdf62000cf4565b905062000ced8184620012f8565b9392505050565b6000808062000d0262000d1a565b909250905062000d138183620012f8565b9250505090565b6008546007546000918291825b60065481101562000e825782600260006006848154811062000d4d5762000d4d6200123e565b60009182526020808320909101546001600160a01b03168352820192909252604001902054118062000dbc575081600360006006848154811062000d955762000d956200123e565b60009182526020808320909101546001600160a01b03168352820192909252604001902054115b1562000dd357600854600754945094505050509091565b600260006006838154811062000ded5762000ded6200123e565b60009182526020808320909101546001600160a01b0316835282019290925260400190205462000e1e908462001297565b9250600360006006838154811062000e3a5762000e3a6200123e565b60009182526020808320909101546001600160a01b0316835282019290925260400190205462000e6b908362001297565b91508062000e798162001362565b91505062000d27565b5060075460085462000e959190620012f8565b82101562000ead576008546007549350935050509091565b90939092509050565b82805462000ec4906200137e565b90600052602060002090601f01602090048101928262000ee8576000855562000f33565b82601f1062000f0357805160ff191683800117855562000f33565b8280016001018555821562000f33579182015b8281111562000f3357825182559160200191906001019062000f16565b5062000f4192915062000f45565b5090565b5b8082111562000f41576000815560010162000f46565b634e487b7160e01b600052604160045260246000fd5b604051601f8201601f191681016001600160401b038111828210171562000f9d5762000f9d62000f5c565b604052919050565b600082601f83011262000fb757600080fd5b81516001600160401b0381111562000fd35762000fd362000f5c565b602062000fe9601f8301601f1916820162000f72565b828152858284870101111562000ffe57600080fd5b60005b838110156200101e57858101830151828201840152820162001001565b83811115620010305760008385840101525b5095945050505050565b80516001600160a01b03811681146200105257600080fd5b919050565b600082601f8301126200106957600080fd5b604051606081016001600160401b03811182821017156200108e576200108e62000f5c565b604052806060840185811115620010a457600080fd5b845b81811015620010c957620010ba816200103a565b835260209283019201620010a6565b509195945050505050565b805180151581146200105257600080fd5b600082601f830112620010f757600080fd5b60405160c081016001600160401b03811182821017156200111c576200111c62000f5c565b6040528060c08401858111156200113257600080fd5b845b81811015620010c957805161ffff81168114620011515760008081fd5b83526020928301920162001134565b60008060008060008060008060006102008a8c0312156200118057600080fd5b89516001600160401b03808211156200119857600080fd5b620011a68d838e0162000fa5565b9a5060208c0151915080821115620011bd57600080fd5b50620011cc8c828d0162000fa5565b98505060408a015160ff81168114620011e457600080fd5b8097505060608a0151955060808a0151945060a08a015193506200120c8b60c08c0162001057565b92506200121d6101208b01620010d4565b91506200122f8b6101408c01620010e5565b90509295985092959850929598565b634e487b7160e01b600052603260045260246000fd5b634e487b7160e01b600052601260045260246000fd5b6000826200127c576200127c62001254565b500690565b634e487b7160e01b600052601160045260246000fd5b600082821015620012ac57620012ac62001281565b500390565b600061ffff808316818516808303821115620012d157620012d162001281565b01949350505050565b600060208284031215620012ed57600080fd5b62000ced826200103a565b6000826200130a576200130a62001254565b500490565b6000821982111562001325576200132562001281565b500190565b600081600019048311821515161562001347576200134762001281565b500290565b634e487b7160e01b600052603160045260246000fd5b60006001820162001377576200137762001281565b5060010190565b600181811c908216806200139357607f821691505b602082108103620013b457634e487b7160e01b600052602260045260246000fd5b50919050565b6139ed80620013ca6000396000f3fe6080604052600436106102cd5760003560e01c806388f8202011610175578063cf089e13116100dc578063df8408fe11610095578063f2fde38b1161006f578063f2fde38b1461093f578063f63743421461095f578063f8b45b0514610981578063fc59d23d1461099757600080fd5b8063df8408fe146108cd578063e9481eee146108ed578063f11a24d31461091d57600080fd5b8063cf089e13146107e7578063cf188ad014610807578063d68f8cde14610827578063d880cd8514610847578063dd62ed3e14610867578063de0aad53146108ad57600080fd5b80639a7a23d61161012e5780639a7a23d614610721578063a457c2d714610741578063a9059cbb14610761578063aa49802314610781578063b62496f5146107a1578063c8c8ebe4146107d157600080fd5b806388f820201461064b5780638da5cb5b1461068457806392136913146106a257806392586f5e146106c4578063948384dc146106ec57806395d89b411461070c57600080fd5b80634549b0391161023457806370a08231116101ed57806375f0a874116101c757806375f0a874146105b15780637bce5a04146105e95780637cf84bd71461060b57806385af30c51461062b57600080fd5b806370a082311461055c578063715018a61461057c57806373b9e82c1461059157600080fd5b80634549b0391461048b5780634707c551146104ab57806352390c02146104cb5780635342acb4146104eb57806357e62b981461051b5780635f2d95ad1461053c57600080fd5b806323b872dd1161028657806323b872dd146103bf5780632ae2f121146103df5780632d838119146103ff578063313ce5671461041f5780633685d4191461044b578063395093511461046b57600080fd5b806306fdde03146102d9578063095ea7b3146103045780630cfe2f3f1461033457806313114a9d1461036957806318160ddd146103885780631c499ab01461039d57600080fd5b366102d457005b600080fd5b3480156102e557600080fd5b506102ee6109ad565b6040516102fb91906134d5565b60405180910390f35b34801561031057600080fd5b5061032461031f36600461353f565b610a3f565b60405190151581526020016102fb565b34801561034057600080fd5b50601254610356906301000000900461ffff1681565b60405161ffff90911681526020016102fb565b34801561037557600080fd5b506009545b6040519081526020016102fb565b34801561039457600080fd5b5060075461037a565b3480156103a957600080fd5b506103bd6103b836600461356b565b610a56565b005b3480156103cb57600080fd5b506103246103da366004613584565b610a9b565b3480156103eb57600080fd5b506103bd6103fa3660046135d3565b610aed565b34801561040b57600080fd5b5061037a61041a36600461356b565b610b7b565b34801561042b57600080fd5b50600154600160a01b900460ff1660405160ff90911681526020016102fb565b34801561045757600080fd5b506103bd61046636600461360c565b610bff565b34801561047757600080fd5b5061032461048636600461353f565b610e37565b34801561049757600080fd5b5061037a6104a6366004613629565b610e6e565b3480156104b757600080fd5b506103bd6104c63660046135d3565b610efd565b3480156104d757600080fd5b506103bd6104e636600461360c565b610ffc565b3480156104f757600080fd5b5061032461050636600461360c565b60196020526000908152604090205460ff1681565b34801561052757600080fd5b5060135461032490600160a01b900460ff1681565b34801561054857600080fd5b506103bd61055736600461360c565b6111ea565b34801561056857600080fd5b5061037a61057736600461360c565b6113b0565b34801561058857600080fd5b506103bd61140f565b34801561059d57600080fd5b506103bd6105ac36600461356b565b611445565b3480156105bd57600080fd5b506013546105d1906001600160a01b031681565b6040516001600160a01b0390911681526020016102fb565b3480156105f557600080fd5b5060125461035690600160581b900461ffff1681565b34801561061757600080fd5b506001546105d1906001600160a01b031681565b34801561063757600080fd5b506018546105d1906001600160a01b031681565b34801561065757600080fd5b5061032461066636600461360c565b6001600160a01b031660009081526005602052604090205460ff1690565b34801561069057600080fd5b506000546001600160a01b03166105d1565b3480156106ae57600080fd5b5060125461035690600160481b900461ffff1681565b3480156106d057600080fd5b506105d173617715a9bf6dd62d1beb70f29914fcf821933b3981565b3480156106f857600080fd5b506103bd610707366004613665565b6114df565b34801561071857600080fd5b506102ee611621565b34801561072d57600080fd5b506103bd61073c3660046135d3565b611630565b34801561074d57600080fd5b5061032461075c36600461353f565b611664565b34801561076d57600080fd5b5061032461077c36600461353f565b61169b565b34801561078d57600080fd5b506103bd61079c36600461356b565b6116a8565b3480156107ad57600080fd5b506103246107bc36600461360c565b601b6020526000908152604090205460ff1681565b3480156107dd57600080fd5b5061037a60165481565b3480156107f357600080fd5b506103bd610802366004613665565b6116e4565b34801561081357600080fd5b506017546105d1906001600160a01b031681565b34801561083357600080fd5b506103bd610842366004613665565b61182e565b34801561085357600080fd5b506103bd61086236600461360c565b611978565b34801561087357600080fd5b5061037a610882366004613698565b6001600160a01b03918216600090815260046020908152604080832093909416825291909152205490565b3480156108b957600080fd5b5060125461035690610100900461ffff1681565b3480156108d957600080fd5b506103bd6108e83660046135d3565b611b74565b3480156108f957600080fd5b5061032461090836600461360c565b601a6020526000908152604090205460ff1681565b34801561092957600080fd5b5060125461035690600160381b900461ffff1681565b34801561094b57600080fd5b506103bd61095a36600461360c565b611bfa565b34801561096b57600080fd5b5060125461035690600160281b900461ffff1681565b34801561098d57600080fd5b5061037a60155481565b3480156109a357600080fd5b5061037a60145481565b6060600a80546109bc906136c6565b80601f01602080910402602001604051908101604052809291908181526020018280546109e8906136c6565b8015610a355780601f10610a0a57610100808354040283529160200191610a35565b820191906000526020600020905b815481529060010190602001808311610a1857829003601f168201915b5050505050905090565b6000610a4c338484611c92565b5060015b92915050565b6000546001600160a01b03163314610a895760405162461bcd60e51b8152600401610a8090613700565b60405180910390fd5b60008111610a9657600080fd5b601555565b6000610aa8848484611db6565b6001600160a01b038416600090815260046020908152604080832033808552925290912054610ae3918691610ade90869061374b565b611c92565b5060019392505050565b6000546001600160a01b03163314610b175760405162461bcd60e51b8152600401610a8090613700565b6001600160a01b0382166000818152601a6020908152604091829020805460ff19168515159081179091558251938452908301527f82170bbd72c16b30c410014b7382121a699ed119a182e48a0b6cadcc89104ac991015b60405180910390a15050565b6000600854821115610be25760405162461bcd60e51b815260206004820152602a60248201527f416d6f756e74206d757374206265206c657373207468616e20746f74616c207260448201526965666c656374696f6e7360b01b6064820152608401610a80565b6000610bec612108565b9050610bf88184613762565b9392505050565b6000546001600160a01b03163314610c295760405162461bcd60e51b8152600401610a8090613700565b6001600160a01b03811660009081526005602052604090205460ff16610c915760405162461bcd60e51b815260206004820152601760248201527f4163636f756e74206973206e6f74206578636c756465640000000000000000006044820152606401610a80565b60005b600654811015610e3357816001600160a01b031660068281548110610cbb57610cbb613784565b6000918252602090912001546001600160a01b031603610e21576001600160a01b038216600090815260026020526040902054610cf6612108565b6001600160a01b038416600090815260036020526040902054610d19919061379a565b6001600160a01b03841660009081526002602052604090208190556008548291610d42916137b9565b610d4c919061374b565b6008556001600160a01b0383166000908152600560205260409020805460ff1916905560068054610d7f9060019061374b565b81548110610d8f57610d8f613784565b600091825260209091200154600680546001600160a01b039092169184908110610dbb57610dbb613784565b9060005260206000200160006101000a8154816001600160a01b0302191690836001600160a01b031602179055506006805480610dfa57610dfa6137d1565b600082815260209020810160001990810180546001600160a01b0319169055019055505050565b80610e2b816137e7565b915050610c94565b5050565b3360008181526004602090815260408083206001600160a01b03871684529091528120549091610a4c918590610ade9086906137b9565b6000600754831115610ec25760405162461bcd60e51b815260206004820152601f60248201527f416d6f756e74206d757374206265206c657373207468616e20737570706c79006044820152606401610a80565b81610ee2576000610ed28461212b565b50949650610a5095505050505050565b6000610eed8461212b565b50939650610a5095505050505050565b6000546001600160a01b03163314610f275760405162461bcd60e51b8152600401610a8090613700565b6001600160a01b038216610f7d5760405162461bcd60e51b815260206004820152601b60248201527f6d61726b6574696e672077616c6c65742063616e2774206265203000000000006044820152606401610a80565b60138054821515600160a01b81026001600160a81b03199092166001600160a01b03868116918217939093178455600090815260196020908152604091829020805460ff191660011790559354815193168352928201527f5ddebadd13549f5ff5b3c95499e6a1781606c1ed34a3d856d1f20694feade7bc9101610b6f565b6000546001600160a01b031633146110265760405162461bcd60e51b8152600401610a8090613700565b6001600160a01b03811660009081526005602052604090205460ff161561108f5760405162461bcd60e51b815260206004820152601b60248201527f4163636f756e7420697320616c7265616479206578636c7564656400000000006044820152606401610a80565b6006546032906110a09060016137b9565b111561112a5760405162461bcd60e51b815260206004820152604d60248201527f43616e6e6f74206578636c756465206d6f7265207468616e203530206163636f60448201527f756e74732e2020496e636c75646520612070726576696f75736c79206578636c60648201526c3ab232b21030b2323932b9b99760991b608482015260a401610a80565b6001600160a01b03811660009081526002602052604090205415611184576001600160a01b03811660009081526002602052604090205461116a90610b7b565b6001600160a01b0382166000908152600360205260409020555b6001600160a01b03166000818152600560205260408120805460ff191660019081179091556006805491820181559091527ff652222313e28459528d920b65115c16c04f3efc82aaedc97be59f3f377c0d3f0180546001600160a01b0319169091179055565b6000546001600160a01b031633146112145760405162461bcd60e51b8152600401610a8090613700565b6001546001600160a01b03908116908216036112885760405162461bcd60e51b815260206004820152602d60248201527f5468652062617365546f6b656e466f725061697220616c72656164792068617360448201526c2074686174206164647265737360981b6064820152608401610a80565b600180546001600160a01b0319166001600160a01b03838116919091179091556017546040805163c45a015560e01b81529051919092169163c45a01559160048083019260209291908290030181865afa1580156112ea573d6000803e3d6000fd5b505050506040513d601f19601f8201168201806040525081019061130e9190613800565b6001546040516364e329cb60e11b81523060048201526001600160a01b03918216602482015291169063c9c65396906044016020604051808303816000875af115801561135f573d6000803e3d6000fd5b505050506040513d601f19601f820116820180604052508101906113839190613800565b601880546001600160a01b0319166001600160a01b039290921691821790556113ad906001612186565b50565b6001600160a01b03811660009081526005602052604081205460ff16156113ed57506001600160a01b031660009081526003602052604090205490565b6001600160a01b038216600090815260026020526040902054610a5090610b7b565b6000546001600160a01b031633146114395760405162461bcd60e51b8152600401610a8090613700565b6114436000612226565b565b6000546001600160a01b0316331461146f5760405162461bcd60e51b8152600401610a8090613700565b600081116114a45760405162461bcd60e51b815260206004820152600260248201526103e360f41b6044820152606401610a80565b60148190556040518181527f37e5d1260bc61b4faf5a9f8f5415209eb753f52c24812cdb9d7b97608225fbcf9060200160405180910390a150565b6000546001600160a01b031633146115095760405162461bcd60e51b8152600401610a8090613700565b60125461012c9061ffff600160481b820481169161153091600160281b909104168561381d565b61153a919061381d565b61ffff16111561155c5760405162461bcd60e51b8152600401610a8090613843565b60125461012c9061ffff600160581b820481169161158391600160381b909104168461381d565b61158d919061381d565b61ffff1611156115af5760405162461bcd60e51b8152600401610a809061386c565b6012805464ffffffff00191661010061ffff858116820264ffff0000001916929092176301000000858416810291909117938490556040805192850484168352930490911660208201527f0a3aee6fda3e94a64c7b1f75361327b06b781a7f5df7e56ef178a4f947f0346a9101610b6f565b6060600b80546109bc906136c6565b6000546001600160a01b0316331461165a5760405162461bcd60e51b8152600401610a8090613700565b610e338282612186565b3360008181526004602090815260408083206001600160a01b03871684529091528120549091610a4c918590610ade90869061374b565b6000610a4c338484611db6565b6000546001600160a01b031633146116d25760405162461bcd60e51b8152600401610a8090613700565b600081116116df57600080fd5b601655565b6000546001600160a01b0316331461170e5760405162461bcd60e51b8152600401610a8090613700565b60125461012c9061ffff610100820481169161173391600160281b909104168561381d565b61173d919061381d565b61ffff16111561175f5760405162461bcd60e51b8152600401610a8090613843565b60125461012c9061ffff6301000000820481169161178691600160381b909104168461381d565b611790919061381d565b61ffff1611156117b25760405162461bcd60e51b8152600401610a809061386c565b601280546cffffffff0000000000000000001916600160481b61ffff858116820261ffff60581b191692909217600160581b858416810291909117938490556040805192850484168352930490911660208201527fc433fa5a836cf3b35353a9ebf4716a022a575f13c5930eff724bf1868d46faba9101610b6f565b6000546001600160a01b031633146118585760405162461bcd60e51b8152600401610a8090613700565b60125461012c9061ffff610100820481169161187d91600160481b909104168561381d565b611887919061381d565b61ffff1611156118a95760405162461bcd60e51b8152600401610a8090613843565b60125461012c9061ffff630100000082048116916118d091600160581b909104168461381d565b6118da919061381d565b61ffff1611156118fc5760405162461bcd60e51b8152600401610a809061386c565b6012805468ffffffff00000000001916600160281b61ffff858116820268ffff00000000000000191692909217600160381b858416810291909117938490556040805192850484168352930490911660208201527f6be4281a0a58f1eac9e075b5f649c8aa8f5471d018dd25dbd8cd52fdfb8fbb939101610b6f565b6000546001600160a01b031633146119a25760405162461bcd60e51b8152600401610a8090613700565b6017546001600160a01b0390811690821603611a0c5760405162461bcd60e51b815260206004820152602360248201527f54686520726f7574657220616c7265616479206861732074686174206164647260448201526265737360e81b6064820152608401610a80565b601754604080516001600160a01b03808516825290921660208301527f51cb6825f043d6550a1cbb70cdd407e9ca7523e4a1ff93812b00168d1ca2565d910160405180910390a1601780546001600160a01b0319166001600160a01b0383169081179091556040805163c45a015560e01b815290516000929163c45a01559160048083019260209291908290030181865afa158015611aaf573d6000803e3d6000fd5b505050506040513d601f19601f82011682018060405250810190611ad39190613800565b6001546040516364e329cb60e11b81523060048201526001600160a01b03918216602482015291169063c9c65396906044016020604051808303816000875af1158015611b24573d6000803e3d6000fd5b505050506040513d601f19601f82011682018060405250810190611b489190613800565b601880546001600160a01b0319166001600160a01b038316908117909155909150610e33906001612186565b6000546001600160a01b03163314611b9e5760405162461bcd60e51b8152600401610a8090613700565b6001600160a01b038216600081815260196020908152604091829020805460ff19168515159081179091558251938452908301527f2d43abd87b27cee7b0aa8c6f7e0b4a3247b683262a83cbc2318b0df398a49aa99101610b6f565b6000546001600160a01b03163314611c245760405162461bcd60e51b8152600401610a8090613700565b6001600160a01b038116611c895760405162461bcd60e51b815260206004820152602660248201527f4f776e61626c653a206e6577206f776e657220697320746865207a65726f206160448201526564647265737360d01b6064820152608401610a80565b6113ad81612226565b6001600160a01b038316611cf45760405162461bcd60e51b8152602060048201526024808201527f45524332303a20617070726f76652066726f6d20746865207a65726f206164646044820152637265737360e01b6064820152608401610a80565b6001600160a01b038216611d555760405162461bcd60e51b815260206004820152602260248201527f45524332303a20617070726f766520746f20746865207a65726f206164647265604482015261737360f01b6064820152608401610a80565b6001600160a01b0383811660008181526004602090815260408083209487168084529482529182902085905590518481527f8c5be1e5ebec7d5bd14f71427d1e84f3dd0314c0f7b2291e5b200ac8c7c3b925910160405180910390a3505050565b6001600160a01b038316611e1a5760405162461bcd60e51b815260206004820152602560248201527f45524332303a207472616e736665722066726f6d20746865207a65726f206164604482015264647265737360d81b6064820152608401610a80565b6001600160a01b038216611e7c5760405162461bcd60e51b815260206004820152602360248201527f45524332303a207472616e7366657220746f20746865207a65726f206164647260448201526265737360e81b6064820152608401610a80565b6000611e87306113b0565b6014546012549192508210159060ff16158015611ea15750805b8015611ec25750601854600090611ec0906001600160a01b03166113b0565b115b8015611ee657506001600160a01b0384166000908152601b602052604090205460ff165b15611ef357611ef3612276565b611efb6128dc565b60125460ff16158015611f2757506001600160a01b03851660009081526019602052604090205460ff16155b8015611f4c57506001600160a01b03841660009081526019602052604090205460ff16155b15611feb576001600160a01b0385166000908152601b602052604090205460ff1615611fa15760125461ffff630100000082048116600c55600160381b82048116600e55600160581b90910416601055611feb565b6001600160a01b0384166000908152601b602052604090205460ff1615611feb5760125461ffff61010082048116600c55600160281b82048116600e55600160481b909104166010555b611ff6858585612921565b61200d600d54600c55600f54600e55601154601055565b60125460ff16612101576001600160a01b0385166000908152601a602052604090205460ff166120885760165483106120885760405162461bcd60e51b815260206004820152601d60248201527f45524332303a2065786365656473207472616e73666572206c696d69740000006044820152606401610a80565b6001600160a01b0384166000908152601a602052604090205460ff16612101576015546120b4856113b0565b106121015760405162461bcd60e51b815260206004820152601f60248201527f45524332303a2065786365656473206d61782077616c6c6574206c696d6974006044820152606401610a80565b5050505050565b6000806000612115612a23565b90925090506121248183613762565b9250505090565b60008060008060008060008060008060006121458c612ba6565b935093509350935060008060006121668f878787612161612108565b612c05565b919f509d509b509599509397509195509350505050919395979092949650565b6001600160a01b0382166000908152601b60205260409020805460ff191682158015919091179091556121c1576121bc82610ffc565b6121ca565b6121ca82610bff565b6001600160a01b0382166000818152601a6020908152604091829020805460ff19168515159081179091558251938452908301527fffa9187bf1f18bf477bd0ea1bcbb64e93b6a98132473929edfce215cd9b16fab9101610b6f565b600080546001600160a01b038381166001600160a01b0319831681178455604051919092169283917f8be0079c531659141344cd1fd0a4f28419497f9722a3daafe3b4186f6b6457e09190a35050565b6012805460ff19166001179055600061228e306113b0565b90506000601d54601c546122a291906137b9565b90508015806122b057508082105b156122bc5750506128d0565b60006002601c546122cd9190613762565b90506000601760009054906101000a90046001600160a01b03166001600160a01b031663ad5c46486040518163ffffffff1660e01b8152600401602060405180830381865afa158015612324573d6000803e3d6000fd5b505050506040513d601f19601f820116820180604052508101906123489190613800565b6001546001600160a01b039081169116146123ce576001546040516370a0823160e01b81523060048201526001600160a01b03909116906370a0823190602401602060405180830381865afa1580156123a5573d6000803e3d6000fd5b505050506040513d601f19601f820116820180604052508101906123c99190613894565b6123d0565b475b601354909150600090600160a01b900460ff16156126f2576123fe601d54846123f991906137b9565b612c77565b601754604080516315ab88c960e31b815290516000926001600160a01b03169163ad5c46489160048083019260209291908290030181865afa158015612448573d6000803e3d6000fd5b505050506040513d601f19601f8201168201806040525081019061246c9190613800565b6001546001600160a01b039081169116146124fc576001546040516370a0823160e01b815230600482015284916001600160a01b0316906370a0823190602401602060405180830381865afa1580156124c9573d6000803e3d6000fd5b505050506040513d601f19601f820116820180604052508101906124ed9190613894565b6124f7919061374b565b612506565b612506834761374b565b90506000601d548561251891906137b9565b601d54612525908461379a565b61252f9190613762565b905061253b818361374b565b9250601760009054906101000a90046001600160a01b03166001600160a01b031663ad5c46486040518163ffffffff1660e01b8152600401602060405180830381865afa158015612590573d6000803e3d6000fd5b505050506040513d601f19601f820116820180604052508101906125b49190613800565b6001546001600160a01b03918216911603612631576013546040516000916001600160a01b03169083908381818185875af1925050503d8060008114612616576040519150601f19603f3d011682016040523d82523d6000602084013e61261b565b606091505b50509050801561262b576000601d555b506126b1565b60015460135460405163a9059cbb60e01b81526001600160a01b0391821660048201526024810184905291169063a9059cbb906044016020604051808303816000875af1158015612686573d6000803e3d6000fd5b505050506040513d601f19601f820116820180604052508101906126aa91906138ad565b506000601d555b6040805160008152602081018390527f6f92bce3e91466137aa4d5474fe565c002872fb18ed6af4a856959be0a81277a910160405180910390a1505061286c565b6126fb83612c77565b601760009054906101000a90046001600160a01b03166001600160a01b031663ad5c46486040518163ffffffff1660e01b8152600401602060405180830381865afa15801561274e573d6000803e3d6000fd5b505050506040513d601f19601f820116820180604052508101906127729190613800565b6001546001600160a01b03908116911614612802576001546040516370a0823160e01b815230600482015283916001600160a01b0316906370a0823190602401602060405180830381865afa1580156127cf573d6000803e3d6000fd5b505050506040513d601f19601f820116820180604052508101906127f39190613894565b6127fd919061374b565b61280c565b61280c824761374b565b601354601d5491925061282a9130916001600160a01b031690611db6565b601d5460408051918252600060208301527f6f92bce3e91466137aa4d5474fe565c002872fb18ed6af4a856959be0a81277a910160405180910390a16000601d555b60008311801561287c5750600081115b156128c55761288b8382612e7c565b60408051848152602081018390527f28fc98272ce761178794ad6768050fea1648e07f1e2ffe15afd3a290f8381486910160405180910390a15b50506000601c555050505b6012805460ff19169055565b600c541580156128ec5750600e54155b80156128f85750601054155b156128ff57565b600c8054600d55600e8054600f55601080546011556000908190559182905555565b6001600160a01b03831660009081526005602052604090205460ff16801561296257506001600160a01b03821660009081526005602052604090205460ff16155b15612977576129728383836130cf565b505050565b6001600160a01b03831660009081526005602052604090205460ff161580156129b857506001600160a01b03821660009081526005602052604090205460ff165b156129c857612972838383613208565b6001600160a01b03831660009081526005602052604090205460ff168015612a0857506001600160a01b03821660009081526005602052604090205460ff165b15612a18576129728383836132c2565b612972838383613345565b6008546007546000918291825b600654811015612b7557826002600060068481548110612a5257612a52613784565b60009182526020808320909101546001600160a01b031683528201929092526040019020541180612abd5750816003600060068481548110612a9657612a96613784565b60009182526020808320909101546001600160a01b03168352820192909252604001902054115b15612ad357600854600754945094505050509091565b6002600060068381548110612aea57612aea613784565b60009182526020808320909101546001600160a01b03168352820192909252604001902054612b19908461374b565b92506003600060068381548110612b3257612b32613784565b60009182526020808320909101546001600160a01b03168352820192909252604001902054612b61908361374b565b915080612b6d816137e7565b915050612a30565b50600754600854612b869190613762565b821015612b9d576008546007549350935050509091565b90939092509050565b6000806000806000612bb786613398565b90506000612bc4876133b5565b90506000612bd1886133c8565b905060008183612be1868c61374b565b612beb919061374b565b612bf5919061374b565b9993985091965094509092505050565b6000808080612c14858a61379a565b90506000612c22868a61379a565b90506000612c30878a61379a565b90506000612c3e888a61379a565b905060008183612c4e868861374b565b612c58919061374b565b612c62919061374b565b949d949c50929a509298505050505050505050565b6040805160028082526060820183526000926020830190803683370190505090503081600081518110612cac57612cac613784565b6001600160a01b0392831660209182029290920101526001805483519216918391908110612cdc57612cdc613784565b6001600160a01b03928316602091820292909201810191909152601754604080516315ab88c960e31b81529051919093169263ad5c46489260048083019391928290030181865afa158015612d35573d6000803e3d6000fd5b505050506040513d601f19601f82011682018060405250810190612d599190613800565b6001600160a01b031681600181518110612d7557612d75613784565b60200260200101516001600160a01b031603612e1257601754612da39030906001600160a01b031684611c92565b60175460405163791ac94760e01b81526001600160a01b039091169063791ac94790612ddc90859060009086903090429060040161390e565b600060405180830381600087803b158015612df657600080fd5b505af1158015612e0a573d6000803e3d6000fd5b505050505050565b612e313073617715a9bf6dd62d1beb70f29914fcf821933b3984611c92565b601754604051637274ca1b60e11b815273617715a9bf6dd62d1beb70f29914fcf821933b399163e4e9943691612ddc916001600160a01b03169086906000908790429060040161394a565b601754612e949030906001600160a01b031684611c92565b60015460175460405163095ea7b360e01b81526001600160a01b0391821660048201526024810184905291169063095ea7b3906044016020604051808303816000875af1158015612ee9573d6000803e3d6000fd5b505050506040513d601f19601f82011682018060405250810190612f0d91906138ad565b50601760009054906101000a90046001600160a01b03166001600160a01b031663ad5c46486040518163ffffffff1660e01b8152600401602060405180830381865afa158015612f61573d6000803e3d6000fd5b505050506040513d601f19601f82011682018060405250810190612f859190613800565b6001546001600160a01b0391821691160361302d5760175460405163f305d71960e01b815230600482015260248101849052600060448201819052606482015261dead60848201524260a48201526001600160a01b039091169063f305d71990839060c40160606040518083038185885af1158015613008573d6000803e3d6000fd5b50505050506040513d601f19601f820116820180604052508101906121019190613989565b60175460015460405162e8e33760e81b81523060048201526001600160a01b039182166024820152604481018590526064810184905260006084820181905260a482015261dead60c48201524260e482015291169063e8e3370090610104016060604051808303816000875af11580156130ab573d6000803e3d6000fd5b505050506040513d601f19601f820116820180604052508101906121019190613989565b60008060008060008060006130e38861212b565b965096509650965096509650965087600360008c6001600160a01b03166001600160a01b0316815260200190815260200160002054613122919061374b565b6001600160a01b038b1660009081526003602090815260408083209390935560029052205461315290889061374b565b6001600160a01b03808c1660009081526002602052604080822093909355908b16815220546131829087906137b9565b6001600160a01b038a166000908152600260205260409020556131a582826133db565b6131af85846134af565b886001600160a01b03168a6001600160a01b03167fddf252ad1be2c89b69c2b068fc378daa952ba7f163c4a11628f55a4df523b3ef866040516131f491815260200190565b60405180910390a350505050505050505050565b600080600080600080600061321c8861212b565b965096509650965096509650965086600260008c6001600160a01b03166001600160a01b031681526020019081526020016000205461325b919061374b565b6001600160a01b03808c16600090815260026020908152604080832094909455918c168152600390915220546132929085906137b9565b6001600160a01b038a166000908152600360209081526040808320939093556002905220546131829087906137b9565b60008060008060008060006132d68861212b565b965096509650965096509650965087600360008c6001600160a01b03166001600160a01b0316815260200190815260200160002054613315919061374b565b6001600160a01b038b1660009081526003602090815260408083209390935560029052205461325b90889061374b565b60008060008060008060006133598861212b565b965096509650965096509650965086600260008c6001600160a01b03166001600160a01b0316815260200190815260200160002054613152919061374b565b60006103e8600c54836133ab919061379a565b610a509190613762565b60006103e8600e54836133ab919061379a565b60006103e8601054836133ab919061379a565b81601c546133e991906137b9565b601c55601d546133fa9082906137b9565b601d556000613407612108565b90506000613415828561379a565b90506000613423838561379a565b3060009081526002602052604090205490915081906134439084906137b9565b61344d91906137b9565b3060009081526002602090815260408083209390935560059052205460ff16156121015730600090815260036020526040902054849061348e9087906137b9565b61349891906137b9565b306000908152600360205260409020555050505050565b816008546134bd919061374b565b6008556009546134ce9082906137b9565b6009555050565b600060208083528351808285015260005b81811015613502578581018301518582016040015282016134e6565b81811115613514576000604083870101525b50601f01601f1916929092016040019392505050565b6001600160a01b03811681146113ad57600080fd5b6000806040838503121561355257600080fd5b823561355d8161352a565b946020939093013593505050565b60006020828403121561357d57600080fd5b5035919050565b60008060006060848603121561359957600080fd5b83356135a48161352a565b925060208401356135b48161352a565b929592945050506040919091013590565b80151581146113ad57600080fd5b600080604083850312156135e657600080fd5b82356135f18161352a565b91506020830135613601816135c5565b809150509250929050565b60006020828403121561361e57600080fd5b8135610bf88161352a565b6000806040838503121561363c57600080fd5b823591506020830135613601816135c5565b803561ffff8116811461366057600080fd5b919050565b6000806040838503121561367857600080fd5b6136818361364e565b915061368f6020840161364e565b90509250929050565b600080604083850312156136ab57600080fd5b82356136b68161352a565b915060208301356136018161352a565b600181811c908216806136da57607f821691505b6020821081036136fa57634e487b7160e01b600052602260045260246000fd5b50919050565b6020808252818101527f4f776e61626c653a2063616c6c6572206973206e6f7420746865206f776e6572604082015260600190565b634e487b7160e01b600052601160045260246000fd5b60008282101561375d5761375d613735565b500390565b60008261377f57634e487b7160e01b600052601260045260246000fd5b500490565b634e487b7160e01b600052603260045260246000fd5b60008160001904831182151516156137b4576137b4613735565b500290565b600082198211156137cc576137cc613735565b500190565b634e487b7160e01b600052603160045260246000fd5b6000600182016137f9576137f9613735565b5060010190565b60006020828403121561381257600080fd5b8151610bf88161352a565b600061ffff80831681851680830382111561383a5761383a613735565b01949350505050565b6020808252600f908201526e73656c6c20666565203c3d2033302560881b604082015260600190565b6020808252600e908201526d62757920666565203c3d2033302560901b604082015260600190565b6000602082840312156138a657600080fd5b5051919050565b6000602082840312156138bf57600080fd5b8151610bf8816135c5565b600081518084526020808501945080840160005b838110156139035781516001600160a01b0316875295820195908201906001016138de565b509495945050505050565b85815284602082015260a06040820152600061392d60a08301866138ca565b6001600160a01b0394909416606083015250608001529392505050565b60018060a01b038616815284602082015283604082015260a06060820152600061397760a08301856138ca565b90508260808301529695505050505050565b60008060006060848603121561399e57600080fd5b835192506020840151915060408401519050925092509256fea2646970667358221220f7b9044fa6f4877fb891743840ee0ade7fd950413ef483d1c0956aeeb264d86964736f6c634300080d00334f776e61626c653a2063616c6c6572206973206e6f7420746865206f776e6572f652222313e28459528d920b65115c16c04f3efc82aaedc97be59f3f377c0d3f",
  "linkReferences": {},
  "deployedLinkReferences": {}
}